{
  "abi": [
    {
      "inputs": [
        {
          "internalType": "address",
          "name": "_wrappedEtherAddress",
          "type": "address"
        }
      ],
      "stateMutability": "nonpayable",
      "type": "constructor"
    },
    {
      "anonymous": false,
      "inputs": [
        {
          "indexed": true,
          "internalType": "address",
          "name": "sender",
          "type": "address"
        },
        {
          "indexed": false,
          "internalType": "uint256",
          "name": "amount",
          "type": "uint256"
        }
      ],
      "name": "Bid",
      "type": "event"
    },
    {
      "anonymous": false,
      "inputs": [
        {
          "indexed": false,
          "internalType": "address",
          "name": "actualBidder",
          "type": "address"
        },
        {
          "indexed": false,
          "internalType": "uint256",
          "name": "highestBid",
          "type": "uint256"
        }
      ],
      "name": "End",
      "type": "event"
    },
    {
      "anonymous": false,
      "inputs": [
        {
          "indexed": true,
          "internalType": "address",
          "name": "previousOwner",
          "type": "address"
        },
        {
          "indexed": true,
          "internalType": "address",
          "name": "newOwner",
          "type": "address"
        }
      ],
      "name": "OwnershipTransferred",
      "type": "event"
    },
    {
      "anonymous": false,
      "inputs": [
        {
          "indexed": false,
          "internalType": "uint256",
          "name": "_nftId",
          "type": "uint256"
        },
        {
          "indexed": false,
          "internalType": "uint256",
          "name": "startingBid",
          "type": "uint256"
        }
      ],
      "name": "Start",
      "type": "event"
    },
    {
      "anonymous": false,
      "inputs": [
        {
          "indexed": true,
          "internalType": "address",
          "name": "bidder",
          "type": "address"
        },
        {
          "indexed": false,
          "internalType": "uint256",
          "name": "amount",
          "type": "uint256"
        }
      ],
      "name": "Withdraw",
      "type": "event"
    },
    {
      "inputs": [
        {
          "internalType": "address",
          "name": "_tokenAddress",
          "type": "address"
        },
        {
          "internalType": "uint256",
          "name": "_nftId",
          "type": "uint256"
        },
        {
          "internalType": "uint256",
          "name": "_bidAmount",
          "type": "uint256"
        },
        {
          "internalType": "address",
          "name": "_user",
          "type": "address"
        }
      ],
      "name": "bid",
      "outputs": [],
      "stateMutability": "nonpayable",
      "type": "function"
    },
    {
      "inputs": [
        {
          "internalType": "address",
          "name": "_tokenAddress",
          "type": "address"
        },
        {
          "internalType": "address",
          "name": "_pool",
          "type": "address"
        },
        {
          "internalType": "uint256",
          "name": "_nftId",
          "type": "uint256"
        }
      ],
      "name": "end",
      "outputs": [
        {
          "internalType": "bool",
          "name": "",
          "type": "bool"
        }
      ],
      "stateMutability": "nonpayable",
      "type": "function"
    },
    {
      "inputs": [],
      "name": "erc20",
      "outputs": [
        {
          "internalType": "contract IERC20",
          "name": "",
          "type": "address"
        }
      ],
      "stateMutability": "view",
      "type": "function"
    },
    {
      "inputs": [],
      "name": "firstBidRatio",
      "outputs": [
        {
          "internalType": "uint256",
          "name": "",
          "type": "uint256"
        }
      ],
      "stateMutability": "view",
      "type": "function"
    },
    {
      "inputs": [
        {
          "internalType": "address",
          "name": "_tokenAddress",
          "type": "address"
        },
        {
          "internalType": "uint256",
          "name": "_tokenId",
          "type": "uint256"
        }
      ],
      "name": "getAuction",
      "outputs": [
        {
          "components": [
            {
              "internalType": "uint256",
              "name": "highestBid",
              "type": "uint256"
            },
            {
              "internalType": "address",
              "name": "actualBidder",
              "type": "address"
            },
            {
              "internalType": "address",
              "name": "optionWriter",
              "type": "address"
            },
            {
              "internalType": "address",
              "name": "optionOwner",
              "type": "address"
            },
            {
              "internalType": "uint256",
              "name": "debt",
              "type": "uint256"
            },
            {
              "internalType": "uint256",
              "name": "tlastBid",
              "type": "uint256"
            },
            {
              "internalType": "bool",
              "name": "isGoing",
              "type": "bool"
            }
          ],
          "internalType": "struct AuctionManager.AuctionLight",
          "name": "auctionLight",
          "type": "tuple"
        }
      ],
      "stateMutability": "view",
      "type": "function"
    },
    {
      "inputs": [],
      "name": "interval",
      "outputs": [
        {
          "internalType": "uint256",
          "name": "",
          "type": "uint256"
        }
      ],
      "stateMutability": "view",
      "type": "function"
    },
    {
      "inputs": [],
      "name": "liquidationRatio",
      "outputs": [
        {
          "internalType": "uint256",
          "name": "",
          "type": "uint256"
        }
      ],
      "stateMutability": "view",
      "type": "function"
    },
    {
      "inputs": [],
      "name": "maincontract",
      "outputs": [
        {
          "internalType": "address",
          "name": "",
          "type": "address"
        }
      ],
      "stateMutability": "view",
      "type": "function"
    },
    {
      "inputs": [],
      "name": "minBidRatio",
      "outputs": [
        {
          "internalType": "uint256",
          "name": "",
          "type": "uint256"
        }
      ],
      "stateMutability": "view",
      "type": "function"
    },
    {
      "inputs": [],
      "name": "owner",
      "outputs": [
        {
          "internalType": "address",
          "name": "",
          "type": "address"
        }
      ],
      "stateMutability": "view",
      "type": "function"
    },
    {
      "inputs": [],
      "name": "renounceOwnership",
      "outputs": [],
      "stateMutability": "nonpayable",
      "type": "function"
    },
    {
      "inputs": [
        {
          "internalType": "uint256",
          "name": "_firstBidRatio",
          "type": "uint256"
        }
      ],
      "name": "setFirstBidRatio",
      "outputs": [],
      "stateMutability": "nonpayable",
      "type": "function"
    },
    {
      "inputs": [
        {
          "internalType": "uint256",
          "name": "_liquidationRatio",
          "type": "uint256"
        }
      ],
      "name": "setLiquidationRatio",
      "outputs": [],
      "stateMutability": "nonpayable",
      "type": "function"
    },
    {
      "inputs": [
        {
          "internalType": "address",
          "name": "_mainConctract",
          "type": "address"
        }
      ],
      "name": "setMainContact",
      "outputs": [],
      "stateMutability": "nonpayable",
      "type": "function"
    },
    {
      "inputs": [
        {
          "internalType": "uint256",
          "name": "_minBidRatio",
          "type": "uint256"
        }
      ],
      "name": "setMinBidRatio",
      "outputs": [],
      "stateMutability": "nonpayable",
      "type": "function"
    },
    {
      "inputs": [
        {
          "internalType": "address",
          "name": "_tokenAddress",
          "type": "address"
        },
        {
          "internalType": "uint256",
          "name": "_nftId",
          "type": "uint256"
        },
        {
          "internalType": "uint256",
          "name": "_floorPrice",
          "type": "uint256"
        },
        {
          "internalType": "address",
          "name": "_optionWriter",
          "type": "address"
        },
        {
          "internalType": "address",
          "name": "_optionOwner",
          "type": "address"
        },
        {
          "internalType": "uint256",
          "name": "_debt",
          "type": "uint256"
        }
      ],
      "name": "start",
      "outputs": [],
      "stateMutability": "nonpayable",
      "type": "function"
    },
    {
      "inputs": [
        {
          "internalType": "address",
          "name": "newOwner",
          "type": "address"
        }
      ],
      "name": "transferOwnership",
      "outputs": [],
      "stateMutability": "nonpayable",
      "type": "function"
    },
    {
      "inputs": [
        {
          "internalType": "address",
          "name": "_tokenAddress",
          "type": "address"
        },
        {
          "internalType": "uint256",
          "name": "_nftId",
          "type": "uint256"
        },
        {
          "internalType": "address",
          "name": "_user",
          "type": "address"
        }
      ],
      "name": "withdraw",
      "outputs": [],
      "stateMutability": "nonpayable",
      "type": "function"
    }
  ],
  "bytecode": {
    "object": "0x60806040526154606004556103846005556103206006556103f760075534801561002857600080fd5b506040516115d93803806115d9833981016040819052610047916100c9565b61005033610079565b60018055600280546001600160a01b0319166001600160a01b03929092169190911790556100f9565b600080546001600160a01b038381166001600160a01b0319831681178455604051919092169283917f8be0079c531659141344cd1fd0a4f28419497f9722a3daafe3b4186f6b6457e09190a35050565b6000602082840312156100db57600080fd5b81516001600160a01b03811681146100f257600080fd5b9392505050565b6114d1806101086000396000f3fe608060405234801561001057600080fd5b50600436106101165760003560e01c80637190f8fe116100a2578063946ce8cd11610071578063946ce8cd14610296578063947a36fb146102a9578063a768a1e7146102b2578063a7ff3b23146102bb578063f2fde38b146102ce57600080fd5b80637190f8fe146101e4578063762a66a2146101f7578063785e9e86146102725780638da5cb5b1461028557600080fd5b8063545c285c116100e9578063545c285c14610180578063552c6d77146101a357806355a0e229146101b657806369328dec146101c9578063715018a6146101dc57600080fd5b80631775765f1461011b5780631dbb42c51461013757806335b5b1c61461014c5780633fae0a7e14610177575b600080fd5b61012460055481565b6040519081526020015b60405180910390f35b61014a6101453660046111ef565b6102e1565b005b60035461015f906001600160a01b031681565b6040516001600160a01b03909116815260200161012e565b61012460075481565b61019361018e36600461121d565b6103b2565b604051901515815260200161012e565b61014a6101b136600461125e565b610791565b61014a6101c436600461127b565b6107bb565b61014a6101d73660046112e2565b6109b5565b61014a610b24565b61014a6101f23660046111ef565b610b38565b61020a610205366004611324565b610c05565b60405161012e9190600060e08201905082518252602083015160018060a01b03808216602085015280604086015116604085015280606086015116606085015250506080830151608083015260a083015160a083015260c0830151151560c083015292915050565b60025461015f906001600160a01b031681565b6000546001600160a01b031661015f565b61014a6102a43660046111ef565b610cc2565b61012460045481565b61012460065481565b61014a6102c9366004611350565b610d93565b61014a6102dc36600461125e565b611073565b6102e96110ec565b6103e88110156103505760405162461bcd60e51b815260206004820152602760248201527f4d696e2062696420726174696f206d75737420626520677265617465722074686044820152660616e20313030360cc1b60648201526084015b60405180910390fd5b6107d081106103ad5760405162461bcd60e51b8152602060048201526024808201527f4d696e2062696420726174696f206d757374206265206c657373207468616e206044820152630323030360e41b6064820152608401610347565b600755565b60006103bc611146565b6001600160a01b038481166000818152600860209081526040808320878452909152908190206003549151631bf2c65160e01b81526004810193909352921690631bf2c65190602401602060405180830381865afa158015610422573d6000803e3d6000fd5b505050506040513d601f19601f82011682018060405250810190610446919061139a565b6001600160a01b0316336001600160a01b0316146104765760405162461bcd60e51b8152600401610347906113b7565b600781015460ff166104c05760405162461bcd60e51b8152602060048201526013602482015272105d58dd1a5bdb881b9bdd081cdd185c9d1959606a1b6044820152606401610347565b60045481600601546104d29190611412565b4210156105215760405162461bcd60e51b815260206004820152601960248201527f41756374696f6e206973207374696c6c206f6e676f696e6721000000000000006044820152606401610347565b60018101546001600160a01b03166105655760405162461bcd60e51b81526020600482015260076024820152666e6f206269647360c81b6044820152606401610347565b60078101805460ff191690556001810180546001600160a01b0390811660009081526002840160205260408082209190915591549151632142170760e11b815286821660048201529181166024830152604482018590528616906342842e0e90606401600060405180830381600087803b1580156105e257600080fd5b505af11580156105f6573d6000803e3d6000fd5b5050600254600484810154600586015460405163a9059cbb60e01b81526001600160a01b03928316938101939093526024830152909116925063a9059cbb91506044016020604051808303816000875af1158015610658573d6000803e3d6000fd5b505050506040513d601f19601f8201168201806040525081019061067c9190611425565b506002546003820154600580549084015484546001600160a01b039485169463a9059cbb9416926103e89290916106b39190611447565b6106bd919061145a565b6106c79190611479565b6040516001600160e01b031960e085901b1681526001600160a01b03909216600483015260248201526044016020604051808303816000875af1158015610712573d6000803e3d6000fd5b505050506040513d601f19601f820116820180604052508101906107369190611425565b5060018101548154604080516001600160a01b03909316835260208301919091527f7d7570b046e5ead3a4f3fbc9fa2445113625a1e79823776146316bafed6b8cc5910160405180910390a1505060018080555b9392505050565b6107996110ec565b600380546001600160a01b0319166001600160a01b0392909216919091179055565b6107c3611146565b6001600160a01b0386811660008181526008602090815260408083208a8452909152908190206003549151631bf2c65160e01b81526004810193909352921690631bf2c65190602401602060405180830381865afa158015610829573d6000803e3d6000fd5b505050506040513d601f19601f8201168201806040525081019061084d919061139a565b6001600160a01b0316336001600160a01b03161461087d5760405162461bcd60e51b8152600401610347906113b7565b600781015460ff16156108d25760405162461bcd60e51b815260206004820152601860248201527f416c726561647920737461727465645b5f6e667449645d2100000000000000006044820152606401610347565b60078101805460ff191660011790556006546103e8906108f2908761145a565b6108fc9190611479565b81556001810180546001600160a01b03199081169091554260068084019190915560038301805483166001600160a01b03888116919091179091556004840180549093169086161790915560058201839055547f5a7d5f50ab70a39d193bf53f0fb995377776df93bb6fdcf1cd1868b7e0dd44ee9087906103e890610981908961145a565b61098b9190611479565b6040805192835260208301919091520160405180910390a1506109ad60018055565b505050505050565b6109bd611146565b6001600160a01b03808416600090815260086020908152604080832086845290915290206001810154909190811690831603610a3b5760405162461bcd60e51b815260206004820152601960248201527f596f7520617265207468652061637475616c20626964646572000000000000006044820152606401610347565b6001600160a01b038281166000818152600284810160205260408083208054939055905490516323b872dd60e01b8152306004820152602481019390935260448301829052909216906323b872dd906064016020604051808303816000875af1158015610aac573d6000803e3d6000fd5b505050506040513d601f19601f82011682018060405250810190610ad09190611425565b50826001600160a01b03167f884edad9ce6fa2440d8a54cc123490eb96d2768479d49ff9c7366125a942436482604051610b0c91815260200190565b60405180910390a25050610b1f60018055565b505050565b610b2c6110ec565b610b36600061119f565b565b610b406110ec565b6103e8811115610ba15760405162461bcd60e51b815260206004820152602660248201527f46697273742062696420726174696f206d757374206265206c6573732074686160448201526506e20313030360d41b6064820152608401610347565b60008111610c005760405162461bcd60e51b815260206004820152602660248201527f46697273742062696420726174696f206d75737420626520677265617465722060448201526507468616e20360d41b6064820152608401610347565b600655565b6040805160e081018252600080825260208201819052918101829052606081018290526080810182905260a0810182905260c0810191909152506001600160a01b038083166000908152600860209081526040808320858452825291829020825160e08101845281548152600182015485169281019290925260038101548416928201929092526004820154909216606083015260058101546080830152600681015460a08301526007015460ff16151560c08201525b92915050565b610cca6110ec565b6103e8811115610d2d5760405162461bcd60e51b815260206004820152602860248201527f4c69717569646174696f6e20726174696f206d757374206265206c6573732074604482015267068616e20313030360c41b6064820152608401610347565b60008111610d8e5760405162461bcd60e51b815260206004820152602860248201527f4c69717569646174696f6e20726174696f206d75737420626520677265617465604482015267072207468616e20360c41b6064820152608401610347565b600555565b6001600160a01b03841660009081526008602090815260408083208684529091529020600781015460ff16610e035760405162461bcd60e51b8152602060048201526016602482015275105d58dd1a5bdb88191a591b89dd081cdd185c9d195960521b6044820152606401610347565b6004548160060154610e159190611412565b421080610e2d575060018101546001600160a01b0316155b610e685760405162461bcd60e51b815260206004820152600c60248201526b1058dd1a5bdb88195b99195960a21b6044820152606401610347565b60075481546103e891610e7a9161145a565b610e849190611479565b6001600160a01b0383166000908152600283016020526040902054610ea99085611412565b11610f085760405162461bcd60e51b815260206004820152602960248201527f54686520746f74616c20626964206973206c6f776572207468616e2061637475604482015268185b081b585e109a5960ba1b6064820152608401610347565b6002546040516323b872dd60e01b81526001600160a01b03848116600483015230602483015260448201869052909116906323b872dd906064016020604051808303816000875af1158015610f61573d6000803e3d6000fd5b505050506040513d601f19601f82011682018060405250810190610f859190611425565b610fd15760405162461bcd60e51b815260206004820152601f60248201527f4552433230202d207472616e73666572206973206e6f7420616c6c6f776564006044820152606401610347565b6001600160a01b038216600090815260028201602052604081208054859290610ffb908490611412565b90915550506001600160a01b0382166000818152600283016020908152604091829020548085556001850180546001600160a01b0319168517905542600686015591519182527fe684a55f31b79eca403df938249029212a5925ec6be8012e099b45bc1019e5d2910160405180910390a25050505050565b61107b6110ec565b6001600160a01b0381166110e05760405162461bcd60e51b815260206004820152602660248201527f4f776e61626c653a206e6577206f776e657220697320746865207a65726f206160448201526564647265737360d01b6064820152608401610347565b6110e98161119f565b50565b6000546001600160a01b03163314610b365760405162461bcd60e51b815260206004820181905260248201527f4f776e61626c653a2063616c6c6572206973206e6f7420746865206f776e65726044820152606401610347565b6002600154036111985760405162461bcd60e51b815260206004820152601f60248201527f5265656e7472616e637947756172643a207265656e7472616e742063616c6c006044820152606401610347565b6002600155565b600080546001600160a01b038381166001600160a01b0319831681178455604051919092169283917f8be0079c531659141344cd1fd0a4f28419497f9722a3daafe3b4186f6b6457e09190a35050565b60006020828403121561120157600080fd5b5035919050565b6001600160a01b03811681146110e957600080fd5b60008060006060848603121561123257600080fd5b833561123d81611208565b9250602084013561124d81611208565b929592945050506040919091013590565b60006020828403121561127057600080fd5b813561078a81611208565b60008060008060008060c0878903121561129457600080fd5b863561129f81611208565b9550602087013594506040870135935060608701356112bd81611208565b925060808701356112cd81611208565b8092505060a087013590509295509295509295565b6000806000606084860312156112f757600080fd5b833561130281611208565b925060208401359150604084013561131981611208565b809150509250925092565b6000806040838503121561133757600080fd5b823561134281611208565b946020939093013593505050565b6000806000806080858703121561136657600080fd5b843561137181611208565b93506020850135925060408501359150606085013561138f81611208565b939692955090935050565b6000602082840312156113ac57600080fd5b815161078a81611208565b60208082526025908201527f43616c6c20746869732066756e6374696f6e2066726f6d20706f6f6c20636f6e6040820152641d1c9858dd60da1b606082015260800190565b634e487b7160e01b600052601160045260246000fd5b80820180821115610cbc57610cbc6113fc565b60006020828403121561143757600080fd5b8151801515811461078a57600080fd5b81810381811115610cbc57610cbc6113fc565b6000816000190483118215151615611474576114746113fc565b500290565b60008261149657634e487b7160e01b600052601260045260246000fd5b50049056fea2646970667358221220982e91e595aeed0955e417b65cabca5b384578dea3500c93efd6c8e751ef34e764736f6c63430008100033",
    "linkReferences": {}
  },
  "methodIdentifiers": {
    "bid(address,uint256,uint256,address)": "a7ff3b23",
    "end(address,address,uint256)": "545c285c",
    "erc20()": "785e9e86",
    "firstBidRatio()": "a768a1e7",
    "getAuction(address,uint256)": "762a66a2",
    "interval()": "947a36fb",
    "liquidationRatio()": "1775765f",
    "maincontract()": "35b5b1c6",
    "minBidRatio()": "3fae0a7e",
    "owner()": "8da5cb5b",
    "renounceOwnership()": "715018a6",
    "setFirstBidRatio(uint256)": "7190f8fe",
    "setLiquidationRatio(uint256)": "946ce8cd",
    "setMainContact(address)": "552c6d77",
    "setMinBidRatio(uint256)": "1dbb42c5",
    "start(address,uint256,uint256,address,address,uint256)": "55a0e229",
    "transferOwnership(address)": "f2fde38b",
    "withdraw(address,uint256,address)": "69328dec"
  },
  "id": 62
}