{
  "abi": [
    {
      "inputs": [
        {
          "internalType": "address",
          "name": "_wrappedEtherAddress",
          "type": "address"
        }
      ],
      "stateMutability": "nonpayable",
      "type": "constructor"
    },
    {
      "anonymous": false,
      "inputs": [
        {
          "indexed": true,
          "internalType": "address",
          "name": "sender",
          "type": "address"
        },
        {
          "indexed": false,
          "internalType": "uint256",
          "name": "amount",
          "type": "uint256"
        }
      ],
      "name": "Bid",
      "type": "event"
    },
    {
      "anonymous": false,
      "inputs": [
        {
          "indexed": false,
          "internalType": "address",
          "name": "actualBidder",
          "type": "address"
        },
        {
          "indexed": false,
          "internalType": "uint256",
          "name": "highestBid",
          "type": "uint256"
        }
      ],
      "name": "End",
      "type": "event"
    },
    {
      "anonymous": false,
      "inputs": [
        {
          "indexed": true,
          "internalType": "address",
          "name": "previousOwner",
          "type": "address"
        },
        {
          "indexed": true,
          "internalType": "address",
          "name": "newOwner",
          "type": "address"
        }
      ],
      "name": "OwnershipTransferred",
      "type": "event"
    },
    {
      "anonymous": false,
      "inputs": [
        {
          "indexed": false,
          "internalType": "uint256",
          "name": "_nftId",
          "type": "uint256"
        },
        {
          "indexed": false,
          "internalType": "uint256",
          "name": "startingBid",
          "type": "uint256"
        }
      ],
      "name": "Start",
      "type": "event"
    },
    {
      "anonymous": false,
      "inputs": [
        {
          "indexed": true,
          "internalType": "address",
          "name": "bidder",
          "type": "address"
        },
        {
          "indexed": false,
          "internalType": "uint256",
          "name": "amount",
          "type": "uint256"
        }
      ],
      "name": "Withdraw",
      "type": "event"
    },
    {
      "inputs": [
        {
          "internalType": "address",
          "name": "_tokenAddress",
          "type": "address"
        },
        {
          "internalType": "uint256",
          "name": "_nftId",
          "type": "uint256"
        },
        {
          "internalType": "uint256",
          "name": "_bidAmount",
          "type": "uint256"
        },
        {
          "internalType": "address",
          "name": "_user",
          "type": "address"
        }
      ],
      "name": "bid",
      "outputs": [],
      "stateMutability": "nonpayable",
      "type": "function"
    },
    {
      "inputs": [
        {
          "internalType": "address",
          "name": "_tokenAddress",
          "type": "address"
        },
        {
          "internalType": "address",
          "name": "_pool",
          "type": "address"
        },
        {
          "internalType": "uint256",
          "name": "_nftId",
          "type": "uint256"
        }
      ],
      "name": "end",
      "outputs": [
        {
          "internalType": "bool",
          "name": "",
          "type": "bool"
        }
      ],
      "stateMutability": "nonpayable",
      "type": "function"
    },
    {
      "inputs": [],
      "name": "erc20",
      "outputs": [
        {
          "internalType": "contract IERC20",
          "name": "",
          "type": "address"
        }
      ],
      "stateMutability": "view",
      "type": "function"
    },
    {
      "inputs": [
        {
          "internalType": "address",
          "name": "_tokenAddress",
          "type": "address"
        },
        {
          "internalType": "uint256",
          "name": "_tokenId",
          "type": "uint256"
        }
      ],
      "name": "getAuction",
      "outputs": [
        {
          "components": [
            {
              "internalType": "uint256",
              "name": "highestBid",
              "type": "uint256"
            },
            {
              "internalType": "address",
              "name": "actualBidder",
              "type": "address"
            },
            {
              "internalType": "address",
              "name": "optionWriter",
              "type": "address"
            },
            {
              "internalType": "address",
              "name": "optionOwner",
              "type": "address"
            },
            {
              "internalType": "uint256",
              "name": "debt",
              "type": "uint256"
            },
            {
              "internalType": "uint256",
              "name": "tlastBid",
              "type": "uint256"
            },
            {
              "internalType": "bool",
              "name": "isGoing",
              "type": "bool"
            }
          ],
          "internalType": "struct AuctionManager.AuctionLight",
          "name": "auctionLight",
          "type": "tuple"
        }
      ],
      "stateMutability": "view",
      "type": "function"
    },
    {
      "inputs": [],
      "name": "interval",
      "outputs": [
        {
          "internalType": "uint256",
          "name": "",
          "type": "uint256"
        }
      ],
      "stateMutability": "view",
      "type": "function"
    },
    {
      "inputs": [],
      "name": "liquidationRatio",
      "outputs": [
        {
          "internalType": "uint256",
          "name": "",
          "type": "uint256"
        }
      ],
      "stateMutability": "view",
      "type": "function"
    },
    {
      "inputs": [],
      "name": "maincontract",
      "outputs": [
        {
          "internalType": "address",
          "name": "",
          "type": "address"
        }
      ],
      "stateMutability": "view",
      "type": "function"
    },
    {
      "inputs": [],
      "name": "owner",
      "outputs": [
        {
          "internalType": "address",
          "name": "",
          "type": "address"
        }
      ],
      "stateMutability": "view",
      "type": "function"
    },
    {
      "inputs": [],
      "name": "renounceOwnership",
      "outputs": [],
      "stateMutability": "nonpayable",
      "type": "function"
    },
    {
      "inputs": [
        {
          "internalType": "address",
          "name": "_mainConctract",
          "type": "address"
        }
      ],
      "name": "setMainContact",
      "outputs": [],
      "stateMutability": "nonpayable",
      "type": "function"
    },
    {
      "inputs": [
        {
          "internalType": "address",
          "name": "_tokenAddress",
          "type": "address"
        },
        {
          "internalType": "uint256",
          "name": "_nftId",
          "type": "uint256"
        },
        {
          "internalType": "uint256",
          "name": "_startingBid",
          "type": "uint256"
        },
        {
          "internalType": "address",
          "name": "_optionWriter",
          "type": "address"
        },
        {
          "internalType": "address",
          "name": "_optionOwner",
          "type": "address"
        },
        {
          "internalType": "uint256",
          "name": "_debt",
          "type": "uint256"
        }
      ],
      "name": "start",
      "outputs": [],
      "stateMutability": "nonpayable",
      "type": "function"
    },
    {
      "inputs": [
        {
          "internalType": "address",
          "name": "newOwner",
          "type": "address"
        }
      ],
      "name": "transferOwnership",
      "outputs": [],
      "stateMutability": "nonpayable",
      "type": "function"
    },
    {
      "inputs": [
        {
          "internalType": "address",
          "name": "_tokenAddress",
          "type": "address"
        },
        {
          "internalType": "uint256",
          "name": "_nftId",
          "type": "uint256"
        },
        {
          "internalType": "address",
          "name": "_user",
          "type": "address"
        }
      ],
      "name": "withdraw",
      "outputs": [],
      "stateMutability": "payable",
      "type": "function"
    }
  ],
  "bytecode": {
    "object": "0x608060405261546060045561038460055534801561001c57600080fd5b506040516112f63803806112f683398101604081905261003b916100bd565b6100443361006d565b60018055600280546001600160a01b0319166001600160a01b03929092169190911790556100ed565b600080546001600160a01b038381166001600160a01b0319831681178455604051919092169283917f8be0079c531659141344cd1fd0a4f28419497f9722a3daafe3b4186f6b6457e09190a35050565b6000602082840312156100cf57600080fd5b81516001600160a01b03811681146100e657600080fd5b9392505050565b6111fa806100fc6000396000f3fe6080604052600436106100c25760003560e01c8063715018a61161007f5780638da5cb5b116100595780638da5cb5b1461026a578063947a36fb14610288578063a7ff3b231461029e578063f2fde38b146102be57600080fd5b8063715018a6146101ad578063762a66a2146101c2578063785e9e861461024a57600080fd5b80631775765f146100c757806335b5b1c6146100f0578063545c285c14610128578063552c6d771461015857806355a0e2291461017a57806369328dec1461019a575b600080fd5b3480156100d357600080fd5b506100dd60055481565b6040519081526020015b60405180910390f35b3480156100fc57600080fd5b50600354610110906001600160a01b031681565b6040516001600160a01b0390911681526020016100e7565b34801561013457600080fd5b50610148610143366004610f46565b6102de565b60405190151581526020016100e7565b34801561016457600080fd5b50610178610173366004610f87565b6106c6565b005b34801561018657600080fd5b50610178610195366004610fa4565b6106f0565b6101786101a836600461100b565b6108b1565b3480156101b957600080fd5b50610178610a20565b3480156101ce57600080fd5b506101e26101dd36600461104d565b610a34565b6040516100e79190600060e08201905082518252602083015160018060a01b03808216602085015280604086015116604085015280606086015116606085015250506080830151608083015260a083015160a083015260c0830151151560c083015292915050565b34801561025657600080fd5b50600254610110906001600160a01b031681565b34801561027657600080fd5b506000546001600160a01b0316610110565b34801561029457600080fd5b506100dd60045481565b3480156102aa57600080fd5b506101786102b9366004611079565b610aef565b3480156102ca57600080fd5b506101786102d9366004610f87565b610db5565b60006102e8610e2e565b6001600160a01b038481166000818152600660209081526040808320878452909152908190206003549151631bf2c65160e01b81526004810193909352921690631bf2c65190602401602060405180830381865afa15801561034e573d6000803e3d6000fd5b505050506040513d601f19601f8201168201806040525081019061037291906110c3565b6001600160a01b0316336001600160a01b0316146103ab5760405162461bcd60e51b81526004016103a2906110e0565b60405180910390fd5b600781015460ff166103f55760405162461bcd60e51b8152602060048201526013602482015272105d58dd1a5bdb881b9bdd081cdd185c9d1959606a1b60448201526064016103a2565b6004548160060154610407919061113b565b4210156104565760405162461bcd60e51b815260206004820152601960248201527f41756374696f6e206973207374696c6c206f6e676f696e67210000000000000060448201526064016103a2565b60018101546001600160a01b031661049a5760405162461bcd60e51b81526020600482015260076024820152666e6f206269647360c81b60448201526064016103a2565b60078101805460ff191690556001810180546001600160a01b0390811660009081526002840160205260408082209190915591549151632142170760e11b815286821660048201529181166024830152604482018590528616906342842e0e90606401600060405180830381600087803b15801561051757600080fd5b505af115801561052b573d6000803e3d6000fd5b5050600254600484810154600586015460405163a9059cbb60e01b81526001600160a01b03928316938101939093526024830152909116925063a9059cbb91506044016020604051808303816000875af115801561058d573d6000803e3d6000fd5b505050506040513d601f19601f820116820180604052508101906105b1919061114e565b506002546003820154600580549084015484546001600160a01b039485169463a9059cbb9416926103e89290916105e89190611170565b6105f29190611183565b6105fc91906111a2565b6040516001600160e01b031960e085901b1681526001600160a01b03909216600483015260248201526044016020604051808303816000875af1158015610647573d6000803e3d6000fd5b505050506040513d601f19601f8201168201806040525081019061066b919061114e565b5060018101548154604080516001600160a01b03909316835260208301919091527f7d7570b046e5ead3a4f3fbc9fa2445113625a1e79823776146316bafed6b8cc5910160405180910390a1505060018080555b9392505050565b6106ce610e87565b600380546001600160a01b0319166001600160a01b0392909216919091179055565b6106f8610e2e565b6001600160a01b0386811660008181526006602090815260408083208a8452909152908190206003549151631bf2c65160e01b81526004810193909352921690631bf2c65190602401602060405180830381865afa15801561075e573d6000803e3d6000fd5b505050506040513d601f19601f8201168201806040525081019061078291906110c3565b6001600160a01b0316336001600160a01b0316146107b25760405162461bcd60e51b81526004016103a2906110e0565b600781015460ff16156108075760405162461bcd60e51b815260206004820152601860248201527f416c726561647920737461727465645b5f6e667449645d21000000000000000060448201526064016103a2565b600781018054600160ff199091168117909155858255810180546001600160a01b031990811690915542600683015560038201805482166001600160a01b03878116919091179091556004830180549092169085161790556005810182905560408051878152602081018790527f5a7d5f50ab70a39d193bf53f0fb995377776df93bb6fdcf1cd1868b7e0dd44ee910160405180910390a1506108a960018055565b505050505050565b6108b9610e2e565b6001600160a01b038084166000908152600660209081526040808320868452909152902060018101549091908116908316036109375760405162461bcd60e51b815260206004820152601960248201527f596f7520617265207468652061637475616c206269646465720000000000000060448201526064016103a2565b6001600160a01b038281166000818152600284810160205260408083208054939055905490516323b872dd60e01b8152306004820152602481019390935260448301829052909216906323b872dd906064016020604051808303816000875af11580156109a8573d6000803e3d6000fd5b505050506040513d601f19601f820116820180604052508101906109cc919061114e565b50826001600160a01b03167f884edad9ce6fa2440d8a54cc123490eb96d2768479d49ff9c7366125a942436482604051610a0891815260200190565b60405180910390a25050610a1b60018055565b505050565b610a28610e87565b610a326000610ee1565b565b6040805160e081018252600080825260208201819052918101829052606081018290526080810182905260a0810182905260c0810191909152506001600160a01b038083166000908152600660208181526040808420868552825292839020835160e0810185528154815260018201548616928101929092526003810154851693820193909352600483015490931660608401526005820154608084015281015460a08301526007015460ff16151560c08201525b92915050565b6001600160a01b03841660009081526006602090815260408083208684529091529020600781015460ff16610b5f5760405162461bcd60e51b8152602060048201526016602482015275105d58dd1a5bdb88191a591b89dd081cdd185c9d195960521b60448201526064016103a2565b6004548160060154610b71919061113b565b421080610b89575060018101546001600160a01b0316155b610bc45760405162461bcd60e51b815260206004820152600c60248201526b1058dd1a5bdb88195b99195960a21b60448201526064016103a2565b80546001600160a01b0383166000908152600283016020526040902054610beb908561113b565b11610c4a5760405162461bcd60e51b815260206004820152602960248201527f54686520746f74616c20626964206973206c6f776572207468616e2061637475604482015268185b081b585e109a5960ba1b60648201526084016103a2565b6002546040516323b872dd60e01b81526001600160a01b03848116600483015230602483015260448201869052909116906323b872dd906064016020604051808303816000875af1158015610ca3573d6000803e3d6000fd5b505050506040513d601f19601f82011682018060405250810190610cc7919061114e565b610d135760405162461bcd60e51b815260206004820152601f60248201527f4552433230202d207472616e73666572206973206e6f7420616c6c6f7765640060448201526064016103a2565b6001600160a01b038216600090815260028201602052604081208054859290610d3d90849061113b565b90915550506001600160a01b0382166000818152600283016020908152604091829020548085556001850180546001600160a01b0319168517905542600686015591519182527fe684a55f31b79eca403df938249029212a5925ec6be8012e099b45bc1019e5d2910160405180910390a25050505050565b610dbd610e87565b6001600160a01b038116610e225760405162461bcd60e51b815260206004820152602660248201527f4f776e61626c653a206e6577206f776e657220697320746865207a65726f206160448201526564647265737360d01b60648201526084016103a2565b610e2b81610ee1565b50565b600260015403610e805760405162461bcd60e51b815260206004820152601f60248201527f5265656e7472616e637947756172643a207265656e7472616e742063616c6c0060448201526064016103a2565b6002600155565b6000546001600160a01b03163314610a325760405162461bcd60e51b815260206004820181905260248201527f4f776e61626c653a2063616c6c6572206973206e6f7420746865206f776e657260448201526064016103a2565b600080546001600160a01b038381166001600160a01b0319831681178455604051919092169283917f8be0079c531659141344cd1fd0a4f28419497f9722a3daafe3b4186f6b6457e09190a35050565b6001600160a01b0381168114610e2b57600080fd5b600080600060608486031215610f5b57600080fd5b8335610f6681610f31565b92506020840135610f7681610f31565b929592945050506040919091013590565b600060208284031215610f9957600080fd5b81356106bf81610f31565b60008060008060008060c08789031215610fbd57600080fd5b8635610fc881610f31565b955060208701359450604087013593506060870135610fe681610f31565b92506080870135610ff681610f31565b8092505060a087013590509295509295509295565b60008060006060848603121561102057600080fd5b833561102b81610f31565b925060208401359150604084013561104281610f31565b809150509250925092565b6000806040838503121561106057600080fd5b823561106b81610f31565b946020939093013593505050565b6000806000806080858703121561108f57600080fd5b843561109a81610f31565b9350602085013592506040850135915060608501356110b881610f31565b939692955090935050565b6000602082840312156110d557600080fd5b81516106bf81610f31565b60208082526025908201527f43616c6c20746869732066756e6374696f6e2066726f6d20706f6f6c20636f6e6040820152641d1c9858dd60da1b606082015260800190565b634e487b7160e01b600052601160045260246000fd5b80820180821115610ae957610ae9611125565b60006020828403121561116057600080fd5b815180151581146106bf57600080fd5b81810381811115610ae957610ae9611125565b600081600019048311821515161561119d5761119d611125565b500290565b6000826111bf57634e487b7160e01b600052601260045260246000fd5b50049056fea2646970667358221220d3667dc5202b81b11e6b58b1c9a3a959ea00b652af6036e64e7187d673cf45d664736f6c63430008100033",
    "linkReferences": {}
  },
  "methodIdentifiers": {
    "bid(address,uint256,uint256,address)": "a7ff3b23",
    "end(address,address,uint256)": "545c285c",
    "erc20()": "785e9e86",
    "getAuction(address,uint256)": "762a66a2",
    "interval()": "947a36fb",
    "liquidationRatio()": "1775765f",
    "maincontract()": "35b5b1c6",
    "owner()": "8da5cb5b",
    "renounceOwnership()": "715018a6",
    "setMainContact(address)": "552c6d77",
    "start(address,uint256,uint256,address,address,uint256)": "55a0e229",
    "transferOwnership(address)": "f2fde38b",
    "withdraw(address,uint256,address)": "69328dec"
  },
  "id": 8
}