{
  "abi": [
    {
      "inputs": [],
      "stateMutability": "nonpayable",
      "type": "constructor"
    },
    {
      "anonymous": false,
      "inputs": [
        {
          "indexed": true,
          "internalType": "address",
          "name": "owner",
          "type": "address"
        },
        {
          "indexed": true,
          "internalType": "address",
          "name": "approved",
          "type": "address"
        },
        {
          "indexed": true,
          "internalType": "uint256",
          "name": "tokenId",
          "type": "uint256"
        }
      ],
      "name": "Approval",
      "type": "event"
    },
    {
      "anonymous": false,
      "inputs": [
        {
          "indexed": true,
          "internalType": "address",
          "name": "owner",
          "type": "address"
        },
        {
          "indexed": true,
          "internalType": "address",
          "name": "operator",
          "type": "address"
        },
        {
          "indexed": false,
          "internalType": "bool",
          "name": "approved",
          "type": "bool"
        }
      ],
      "name": "ApprovalForAll",
      "type": "event"
    },
    {
      "anonymous": false,
      "inputs": [
        {
          "indexed": true,
          "internalType": "address",
          "name": "from",
          "type": "address"
        },
        {
          "indexed": true,
          "internalType": "address",
          "name": "to",
          "type": "address"
        },
        {
          "indexed": true,
          "internalType": "uint256",
          "name": "tokenId",
          "type": "uint256"
        }
      ],
      "name": "Transfer",
      "type": "event"
    },
    {
      "inputs": [
        {
          "internalType": "address",
          "name": "to",
          "type": "address"
        },
        {
          "internalType": "uint256",
          "name": "tokenId",
          "type": "uint256"
        }
      ],
      "name": "approve",
      "outputs": [],
      "stateMutability": "nonpayable",
      "type": "function"
    },
    {
      "inputs": [],
      "name": "auctionContract",
      "outputs": [
        {
          "internalType": "address",
          "name": "",
          "type": "address"
        }
      ],
      "stateMutability": "view",
      "type": "function"
    },
    {
      "inputs": [
        {
          "internalType": "address",
          "name": "owner",
          "type": "address"
        }
      ],
      "name": "balanceOf",
      "outputs": [
        {
          "internalType": "uint256",
          "name": "",
          "type": "uint256"
        }
      ],
      "stateMutability": "view",
      "type": "function"
    },
    {
      "inputs": [],
      "name": "freemint",
      "outputs": [
        {
          "internalType": "uint256",
          "name": "",
          "type": "uint256"
        }
      ],
      "stateMutability": "nonpayable",
      "type": "function"
    },
    {
      "inputs": [],
      "name": "freemint10",
      "outputs": [],
      "stateMutability": "nonpayable",
      "type": "function"
    },
    {
      "inputs": [
        {
          "internalType": "uint256",
          "name": "tokenId",
          "type": "uint256"
        }
      ],
      "name": "getApproved",
      "outputs": [
        {
          "internalType": "address",
          "name": "",
          "type": "address"
        }
      ],
      "stateMutability": "view",
      "type": "function"
    },
    {
      "inputs": [
        {
          "internalType": "address",
          "name": "owner",
          "type": "address"
        },
        {
          "internalType": "address",
          "name": "operator",
          "type": "address"
        }
      ],
      "name": "isApprovedForAll",
      "outputs": [
        {
          "internalType": "bool",
          "name": "",
          "type": "bool"
        }
      ],
      "stateMutability": "view",
      "type": "function"
    },
    {
      "inputs": [],
      "name": "name",
      "outputs": [
        {
          "internalType": "string",
          "name": "",
          "type": "string"
        }
      ],
      "stateMutability": "view",
      "type": "function"
    },
    {
      "inputs": [],
      "name": "nftId",
      "outputs": [
        {
          "internalType": "uint256",
          "name": "",
          "type": "uint256"
        }
      ],
      "stateMutability": "view",
      "type": "function"
    },
    {
      "inputs": [],
      "name": "owner",
      "outputs": [
        {
          "internalType": "address",
          "name": "",
          "type": "address"
        }
      ],
      "stateMutability": "view",
      "type": "function"
    },
    {
      "inputs": [
        {
          "internalType": "uint256",
          "name": "tokenId",
          "type": "uint256"
        }
      ],
      "name": "ownerOf",
      "outputs": [
        {
          "internalType": "address",
          "name": "",
          "type": "address"
        }
      ],
      "stateMutability": "view",
      "type": "function"
    },
    {
      "inputs": [
        {
          "internalType": "address",
          "name": "from",
          "type": "address"
        },
        {
          "internalType": "address",
          "name": "to",
          "type": "address"
        },
        {
          "internalType": "uint256",
          "name": "tokenId",
          "type": "uint256"
        }
      ],
      "name": "safeTransferFrom",
      "outputs": [],
      "stateMutability": "nonpayable",
      "type": "function"
    },
    {
      "inputs": [
        {
          "internalType": "address",
          "name": "from",
          "type": "address"
        },
        {
          "internalType": "address",
          "name": "to",
          "type": "address"
        },
        {
          "internalType": "uint256",
          "name": "tokenId",
          "type": "uint256"
        },
        {
          "internalType": "bytes",
          "name": "data",
          "type": "bytes"
        }
      ],
      "name": "safeTransferFrom",
      "outputs": [],
      "stateMutability": "nonpayable",
      "type": "function"
    },
    {
      "inputs": [
        {
          "internalType": "address",
          "name": "operator",
          "type": "address"
        },
        {
          "internalType": "bool",
          "name": "approved",
          "type": "bool"
        }
      ],
      "name": "setApprovalForAll",
      "outputs": [],
      "stateMutability": "nonpayable",
      "type": "function"
    },
    {
      "inputs": [
        {
          "internalType": "bytes4",
          "name": "interfaceId",
          "type": "bytes4"
        }
      ],
      "name": "supportsInterface",
      "outputs": [
        {
          "internalType": "bool",
          "name": "",
          "type": "bool"
        }
      ],
      "stateMutability": "view",
      "type": "function"
    },
    {
      "inputs": [],
      "name": "symbol",
      "outputs": [
        {
          "internalType": "string",
          "name": "",
          "type": "string"
        }
      ],
      "stateMutability": "view",
      "type": "function"
    },
    {
      "inputs": [
        {
          "internalType": "uint256",
          "name": "index",
          "type": "uint256"
        }
      ],
      "name": "tokenByIndex",
      "outputs": [
        {
          "internalType": "uint256",
          "name": "",
          "type": "uint256"
        }
      ],
      "stateMutability": "view",
      "type": "function"
    },
    {
      "inputs": [
        {
          "internalType": "address",
          "name": "owner",
          "type": "address"
        },
        {
          "internalType": "uint256",
          "name": "index",
          "type": "uint256"
        }
      ],
      "name": "tokenOfOwnerByIndex",
      "outputs": [
        {
          "internalType": "uint256",
          "name": "",
          "type": "uint256"
        }
      ],
      "stateMutability": "view",
      "type": "function"
    },
    {
      "inputs": [
        {
          "internalType": "uint256",
          "name": "tokenId",
          "type": "uint256"
        }
      ],
      "name": "tokenURI",
      "outputs": [
        {
          "internalType": "string",
          "name": "",
          "type": "string"
        }
      ],
      "stateMutability": "view",
      "type": "function"
    },
    {
      "inputs": [],
      "name": "totalSupply",
      "outputs": [
        {
          "internalType": "uint256",
          "name": "",
          "type": "uint256"
        }
      ],
      "stateMutability": "view",
      "type": "function"
    },
    {
      "inputs": [
        {
          "internalType": "address",
          "name": "from",
          "type": "address"
        },
        {
          "internalType": "address",
          "name": "to",
          "type": "address"
        },
        {
          "internalType": "uint256",
          "name": "tokenId",
          "type": "uint256"
        }
      ],
      "name": "transferFrom",
      "outputs": [],
      "stateMutability": "nonpayable",
      "type": "function"
    }
  ],
  "bytecode": {
    "object": "0x60806040523480156200001157600080fd5b506040518060400160405280600a8152602001694d6f636b45524337323160b01b815250604051806040016040528060048152602001631253919560e21b815250816000908162000063919062000132565b50600162000072828262000132565b5050600c80546001600160a01b0319163317905550620001fe565b634e487b7160e01b600052604160045260246000fd5b600181811c90821680620000b857607f821691505b602082108103620000d957634e487b7160e01b600052602260045260246000fd5b50919050565b601f8211156200012d57600081815260208120601f850160051c81016020861015620001085750805b601f850160051c820191505b81811015620001295782815560010162000114565b5050505b505050565b81516001600160401b038111156200014e576200014e6200008d565b62000166816200015f8454620000a3565b84620000df565b602080601f8311600181146200019e5760008415620001855750858301515b600019600386901b1c1916600185901b17855562000129565b600085815260208120601f198616915b82811015620001cf57888601518255948401946001909101908401620001ae565b5085821015620001ee5787850151600019600388901b60f8161c191681555b5050505050600190811b01905550565b611900806200020e6000396000f3fe608060405234801561001057600080fd5b50600436106101375760003560e01c80636352211e116100b8578063aa726ffb1161007c578063aa726ffb1461027e578063b88d4fde14610286578063c6bc518214610299578063c87b56dd146102a2578063e985e9c5146102b5578063f9cb63ac146102f157600080fd5b80636352211e1461022a57806370a082311461023d5780638da5cb5b1461025057806395d89b4114610263578063a22cb4651461026b57600080fd5b806318160ddd116100ff57806318160ddd146101cc57806323b872dd146101de5780632f745c59146101f157806342842e0e146102045780634f6ccce71461021757600080fd5b806301ffc9a71461013c57806306fdde0314610164578063081812fc14610179578063095ea7b3146101a45780630ab8afac146101b9575b600080fd5b61014f61014a36600461140b565b6102f9565b60405190151581526020015b60405180910390f35b61016c610324565b60405161015b9190611478565b61018c61018736600461148b565b6103b6565b6040516001600160a01b03909116815260200161015b565b6101b76101b23660046114c0565b6103dd565b005b600b5461018c906001600160a01b031681565b6008545b60405190815260200161015b565b6101b76101ec3660046114ea565b6104f7565b6101d06101ff3660046114c0565b610528565b6101b76102123660046114ea565b6105be565b6101d061022536600461148b565b6105d9565b61018c61023836600461148b565b61066c565b6101d061024b366004611526565b6106cc565b600c5461018c906001600160a01b031681565b61016c610752565b6101b7610279366004611541565b610761565b6101b7610770565b6101b7610294366004611593565b6107b3565b6101d0600a5481565b61016c6102b036600461148b565b6107eb565b61014f6102c336600461166f565b6001600160a01b03918216600090815260056020908152604080832093909416825291909152205460ff1690565b6101d061085f565b60006001600160e01b0319821663780e9d6360e01b148061031e575061031e8261088a565b92915050565b606060008054610333906116a2565b80601f016020809104026020016040519081016040528092919081815260200182805461035f906116a2565b80156103ac5780601f10610381576101008083540402835291602001916103ac565b820191906000526020600020905b81548152906001019060200180831161038f57829003601f168201915b5050505050905090565b60006103c1826108da565b506000908152600460205260409020546001600160a01b031690565b60006103e88261066c565b9050806001600160a01b0316836001600160a01b03160361045a5760405162461bcd60e51b815260206004820152602160248201527f4552433732313a20617070726f76616c20746f2063757272656e74206f776e656044820152603960f91b60648201526084015b60405180910390fd5b336001600160a01b0382161480610476575061047681336102c3565b6104e85760405162461bcd60e51b815260206004820152603d60248201527f4552433732313a20617070726f76652063616c6c6572206973206e6f7420746f60448201527f6b656e206f776e6572206f7220617070726f76656420666f7220616c6c0000006064820152608401610451565b6104f28383610939565b505050565b61050133826109a7565b61051d5760405162461bcd60e51b8152600401610451906116dc565b6104f2838383610a26565b6000610533836106cc565b82106105955760405162461bcd60e51b815260206004820152602b60248201527f455243373231456e756d657261626c653a206f776e657220696e646578206f7560448201526a74206f6620626f756e647360a81b6064820152608401610451565b506001600160a01b03919091166000908152600660209081526040808320938352929052205490565b6104f2838383604051806020016040528060008152506107b3565b60006105e460085490565b82106106475760405162461bcd60e51b815260206004820152602c60248201527f455243373231456e756d657261626c653a20676c6f62616c20696e646578206f60448201526b7574206f6620626f756e647360a01b6064820152608401610451565b6008828154811061065a5761065a611729565b90600052602060002001549050919050565b6000818152600260205260408120546001600160a01b03168061031e5760405162461bcd60e51b8152602060048201526018602482015277115490cdcc8c4e881a5b9d985b1a59081d1bdad95b88125160421b6044820152606401610451565b60006001600160a01b0382166107365760405162461bcd60e51b815260206004820152602960248201527f4552433732313a2061646472657373207a65726f206973206e6f7420612076616044820152683634b21037bbb732b960b91b6064820152608401610451565b506001600160a01b031660009081526003602052604090205490565b606060018054610333906116a2565b61076c338383610b97565b5050565b60005b600a8110156107b05761078833600a54610c65565b600a805490600061079883611755565b919050555080806107a890611755565b915050610773565b50565b6107bd33836109a7565b6107d95760405162461bcd60e51b8152600401610451906116dc565b6107e584848484610dfe565b50505050565b60606107f6826108da565b600061080d60408051602081019091526000815290565b9050600081511161082d5760405180602001604052806000815250610858565b8061083784610e31565b60405160200161084892919061176e565b6040516020818303038152906040525b9392505050565b600061086d33600a54610c65565b600a8054908190600061087f83611755565b909155509092915050565b60006001600160e01b031982166380ac58cd60e01b14806108bb57506001600160e01b03198216635b5e139f60e01b145b8061031e57506301ffc9a760e01b6001600160e01b031983161461031e565b6000818152600260205260409020546001600160a01b03166107b05760405162461bcd60e51b8152602060048201526018602482015277115490cdcc8c4e881a5b9d985b1a59081d1bdad95b88125160421b6044820152606401610451565b600081815260046020526040902080546001600160a01b0319166001600160a01b038416908117909155819061096e8261066c565b6001600160a01b03167f8c5be1e5ebec7d5bd14f71427d1e84f3dd0314c0f7b2291e5b200ac8c7c3b92560405160405180910390a45050565b6000806109b38361066c565b9050806001600160a01b0316846001600160a01b031614806109fa57506001600160a01b0380821660009081526005602090815260408083209388168352929052205460ff165b80610a1e5750836001600160a01b0316610a13846103b6565b6001600160a01b0316145b949350505050565b826001600160a01b0316610a398261066c565b6001600160a01b031614610a5f5760405162461bcd60e51b81526004016104519061179d565b6001600160a01b038216610ac15760405162461bcd60e51b8152602060048201526024808201527f4552433732313a207472616e7366657220746f20746865207a65726f206164646044820152637265737360e01b6064820152608401610451565b610ace8383836001610ec4565b826001600160a01b0316610ae18261066c565b6001600160a01b031614610b075760405162461bcd60e51b81526004016104519061179d565b600081815260046020908152604080832080546001600160a01b03199081169091556001600160a01b0387811680865260038552838620805460001901905590871680865283862080546001019055868652600290945282852080549092168417909155905184937fddf252ad1be2c89b69c2b068fc378daa952ba7f163c4a11628f55a4df523b3ef91a4505050565b816001600160a01b0316836001600160a01b031603610bf85760405162461bcd60e51b815260206004820152601960248201527f4552433732313a20617070726f766520746f2063616c6c6572000000000000006044820152606401610451565b6001600160a01b03838116600081815260056020908152604080832094871680845294825291829020805460ff191686151590811790915591519182527f17307eab39ab6107e8899845ad3d59bd9653f200f220920489ca2b5937696c31910160405180910390a3505050565b6001600160a01b038216610cbb5760405162461bcd60e51b815260206004820181905260248201527f4552433732313a206d696e7420746f20746865207a65726f20616464726573736044820152606401610451565b6000818152600260205260409020546001600160a01b031615610d205760405162461bcd60e51b815260206004820152601c60248201527f4552433732313a20746f6b656e20616c7265616479206d696e746564000000006044820152606401610451565b610d2e600083836001610ec4565b6000818152600260205260409020546001600160a01b031615610d935760405162461bcd60e51b815260206004820152601c60248201527f4552433732313a20746f6b656e20616c7265616479206d696e746564000000006044820152606401610451565b6001600160a01b038216600081815260036020908152604080832080546001019055848352600290915280822080546001600160a01b0319168417905551839291907fddf252ad1be2c89b69c2b068fc378daa952ba7f163c4a11628f55a4df523b3ef908290a45050565b610e09848484610a26565b610e1584848484611004565b6107e55760405162461bcd60e51b8152600401610451906117e2565b60606000610e3e83611105565b600101905060008167ffffffffffffffff811115610e5e57610e5e61157d565b6040519080825280601f01601f191660200182016040528015610e88576020820181803683370190505b5090508181016020015b600019016f181899199a1a9b1b9c1cb0b131b232b360811b600a86061a8153600a8504945084610e9257509392505050565b610ed0848484846111dd565b6001811115610f3f5760405162461bcd60e51b815260206004820152603560248201527f455243373231456e756d657261626c653a20636f6e7365637574697665207472604482015274185b9cd9995c9cc81b9bdd081cdd5c1c1bdc9d1959605a1b6064820152608401610451565b816001600160a01b038516610f9b57610f9681600880546000838152600960205260408120829055600182018355919091527ff3f7a9fe364faab93b216da50a3214154f22a0a2b415b23a84c8169e8b636ee30155565b610fbe565b836001600160a01b0316856001600160a01b031614610fbe57610fbe8582611265565b6001600160a01b038416610fda57610fd581611302565b610ffd565b846001600160a01b0316846001600160a01b031614610ffd57610ffd84826113b1565b5050505050565b60006001600160a01b0384163b156110fa57604051630a85bd0160e11b81526001600160a01b0385169063150b7a0290611048903390899088908890600401611834565b6020604051808303816000875af1925050508015611083575060408051601f3d908101601f1916820190925261108091810190611871565b60015b6110e0573d8080156110b1576040519150601f19603f3d011682016040523d82523d6000602084013e6110b6565b606091505b5080516000036110d85760405162461bcd60e51b8152600401610451906117e2565b805181602001fd5b6001600160e01b031916630a85bd0160e11b149050610a1e565b506001949350505050565b60008072184f03e93ff9f4daa797ed6e38ed64bf6a1f0160401b83106111445772184f03e93ff9f4daa797ed6e38ed64bf6a1f0160401b830492506040015b6d04ee2d6d415b85acef81000000008310611170576d04ee2d6d415b85acef8100000000830492506020015b662386f26fc10000831061118e57662386f26fc10000830492506010015b6305f5e10083106111a6576305f5e100830492506008015b61271083106111ba57612710830492506004015b606483106111cc576064830492506002015b600a831061031e5760010192915050565b60018111156107e5576001600160a01b03841615611223576001600160a01b0384166000908152600360205260408120805483929061121d90849061188e565b90915550505b6001600160a01b038316156107e5576001600160a01b0383166000908152600360205260408120805483929061125a9084906118a1565b909155505050505050565b60006001611272846106cc565b61127c919061188e565b6000838152600760205260409020549091508082146112cf576001600160a01b03841660009081526006602090815260408083208584528252808320548484528184208190558352600790915290208190555b5060009182526007602090815260408084208490556001600160a01b039094168352600681528383209183525290812055565b6008546000906113149060019061188e565b6000838152600960205260408120546008805493945090928490811061133c5761133c611729565b90600052602060002001549050806008838154811061135d5761135d611729565b6000918252602080832090910192909255828152600990915260408082208490558582528120556008805480611395576113956118b4565b6001900381819060005260206000200160009055905550505050565b60006113bc836106cc565b6001600160a01b039093166000908152600660209081526040808320868452825280832085905593825260079052919091209190915550565b6001600160e01b0319811681146107b057600080fd5b60006020828403121561141d57600080fd5b8135610858816113f5565b60005b8381101561144357818101518382015260200161142b565b50506000910152565b60008151808452611464816020860160208601611428565b601f01601f19169290920160200192915050565b602081526000610858602083018461144c565b60006020828403121561149d57600080fd5b5035919050565b80356001600160a01b03811681146114bb57600080fd5b919050565b600080604083850312156114d357600080fd5b6114dc836114a4565b946020939093013593505050565b6000806000606084860312156114ff57600080fd5b611508846114a4565b9250611516602085016114a4565b9150604084013590509250925092565b60006020828403121561153857600080fd5b610858826114a4565b6000806040838503121561155457600080fd5b61155d836114a4565b91506020830135801515811461157257600080fd5b809150509250929050565b634e487b7160e01b600052604160045260246000fd5b600080600080608085870312156115a957600080fd5b6115b2856114a4565b93506115c0602086016114a4565b925060408501359150606085013567ffffffffffffffff808211156115e457600080fd5b818701915087601f8301126115f857600080fd5b81358181111561160a5761160a61157d565b604051601f8201601f19908116603f011681019083821181831017156116325761163261157d565b816040528281528a602084870101111561164b57600080fd5b82602086016020830137600060208483010152809550505050505092959194509250565b6000806040838503121561168257600080fd5b61168b836114a4565b9150611699602084016114a4565b90509250929050565b600181811c908216806116b657607f821691505b6020821081036116d657634e487b7160e01b600052602260045260246000fd5b50919050565b6020808252602d908201527f4552433732313a2063616c6c6572206973206e6f7420746f6b656e206f776e6560408201526c1c881bdc88185c1c1c9bdd9959609a1b606082015260800190565b634e487b7160e01b600052603260045260246000fd5b634e487b7160e01b600052601160045260246000fd5b6000600182016117675761176761173f565b5060010190565b60008351611780818460208801611428565b835190830190611794818360208801611428565b01949350505050565b60208082526025908201527f4552433732313a207472616e736665722066726f6d20696e636f72726563742060408201526437bbb732b960d91b606082015260800190565b60208082526032908201527f4552433732313a207472616e7366657220746f206e6f6e20455243373231526560408201527131b2b4bb32b91034b6b83632b6b2b73a32b960711b606082015260800190565b6001600160a01b03858116825284166020820152604081018390526080606082018190526000906118679083018461144c565b9695505050505050565b60006020828403121561188357600080fd5b8151610858816113f5565b8181038181111561031e5761031e61173f565b8082018082111561031e5761031e61173f565b634e487b7160e01b600052603160045260246000fdfea2646970667358221220eec22d757813790356424745b89c8741cb3484a23acbcddea2fac602d81ee48b64736f6c63430008100033",
    "linkReferences": {}
  },
  "methodIdentifiers": {
    "approve(address,uint256)": "095ea7b3",
    "auctionContract()": "0ab8afac",
    "balanceOf(address)": "70a08231",
    "freemint()": "f9cb63ac",
    "freemint10()": "aa726ffb",
    "getApproved(uint256)": "081812fc",
    "isApprovedForAll(address,address)": "e985e9c5",
    "name()": "06fdde03",
    "nftId()": "c6bc5182",
    "owner()": "8da5cb5b",
    "ownerOf(uint256)": "6352211e",
    "safeTransferFrom(address,address,uint256)": "42842e0e",
    "safeTransferFrom(address,address,uint256,bytes)": "b88d4fde",
    "setApprovalForAll(address,bool)": "a22cb465",
    "supportsInterface(bytes4)": "01ffc9a7",
    "symbol()": "95d89b41",
    "tokenByIndex(uint256)": "4f6ccce7",
    "tokenOfOwnerByIndex(address,uint256)": "2f745c59",
    "tokenURI(uint256)": "c87b56dd",
    "totalSupply()": "18160ddd",
    "transferFrom(address,address,uint256)": "23b872dd"
  },
  "id": 102
}