{
  "abi": [
    {
      "inputs": [],
      "stateMutability": "nonpayable",
      "type": "constructor"
    },
    {
      "anonymous": false,
      "inputs": [
        {
          "indexed": true,
          "internalType": "address",
          "name": "owner",
          "type": "address"
        },
        {
          "indexed": true,
          "internalType": "address",
          "name": "approved",
          "type": "address"
        },
        {
          "indexed": true,
          "internalType": "uint256",
          "name": "tokenId",
          "type": "uint256"
        }
      ],
      "name": "Approval",
      "type": "event"
    },
    {
      "anonymous": false,
      "inputs": [
        {
          "indexed": true,
          "internalType": "address",
          "name": "owner",
          "type": "address"
        },
        {
          "indexed": true,
          "internalType": "address",
          "name": "operator",
          "type": "address"
        },
        {
          "indexed": false,
          "internalType": "bool",
          "name": "approved",
          "type": "bool"
        }
      ],
      "name": "ApprovalForAll",
      "type": "event"
    },
    {
      "anonymous": false,
      "inputs": [
        {
          "indexed": true,
          "internalType": "address",
          "name": "from",
          "type": "address"
        },
        {
          "indexed": true,
          "internalType": "address",
          "name": "to",
          "type": "address"
        },
        {
          "indexed": true,
          "internalType": "uint256",
          "name": "tokenId",
          "type": "uint256"
        }
      ],
      "name": "Transfer",
      "type": "event"
    },
    {
      "inputs": [
        {
          "internalType": "address",
          "name": "to",
          "type": "address"
        },
        {
          "internalType": "uint256",
          "name": "tokenId",
          "type": "uint256"
        }
      ],
      "name": "approve",
      "outputs": [],
      "stateMutability": "nonpayable",
      "type": "function"
    },
    {
      "inputs": [],
      "name": "auctionContract",
      "outputs": [
        {
          "internalType": "address",
          "name": "",
          "type": "address"
        }
      ],
      "stateMutability": "view",
      "type": "function"
    },
    {
      "inputs": [
        {
          "internalType": "address",
          "name": "owner",
          "type": "address"
        }
      ],
      "name": "balanceOf",
      "outputs": [
        {
          "internalType": "uint256",
          "name": "",
          "type": "uint256"
        }
      ],
      "stateMutability": "view",
      "type": "function"
    },
    {
      "inputs": [],
      "name": "freemint",
      "outputs": [
        {
          "internalType": "uint256",
          "name": "",
          "type": "uint256"
        }
      ],
      "stateMutability": "nonpayable",
      "type": "function"
    },
    {
      "inputs": [],
      "name": "freemint10",
      "outputs": [],
      "stateMutability": "nonpayable",
      "type": "function"
    },
    {
      "inputs": [
        {
          "internalType": "uint256",
          "name": "tokenId",
          "type": "uint256"
        }
      ],
      "name": "getApproved",
      "outputs": [
        {
          "internalType": "address",
          "name": "",
          "type": "address"
        }
      ],
      "stateMutability": "view",
      "type": "function"
    },
    {
      "inputs": [
        {
          "internalType": "address",
          "name": "owner",
          "type": "address"
        },
        {
          "internalType": "address",
          "name": "operator",
          "type": "address"
        }
      ],
      "name": "isApprovedForAll",
      "outputs": [
        {
          "internalType": "bool",
          "name": "",
          "type": "bool"
        }
      ],
      "stateMutability": "view",
      "type": "function"
    },
    {
      "inputs": [],
      "name": "name",
      "outputs": [
        {
          "internalType": "string",
          "name": "",
          "type": "string"
        }
      ],
      "stateMutability": "view",
      "type": "function"
    },
    {
      "inputs": [],
      "name": "nftId",
      "outputs": [
        {
          "internalType": "uint256",
          "name": "",
          "type": "uint256"
        }
      ],
      "stateMutability": "view",
      "type": "function"
    },
    {
      "inputs": [],
      "name": "owner",
      "outputs": [
        {
          "internalType": "address",
          "name": "",
          "type": "address"
        }
      ],
      "stateMutability": "view",
      "type": "function"
    },
    {
      "inputs": [
        {
          "internalType": "uint256",
          "name": "tokenId",
          "type": "uint256"
        }
      ],
      "name": "ownerOf",
      "outputs": [
        {
          "internalType": "address",
          "name": "",
          "type": "address"
        }
      ],
      "stateMutability": "view",
      "type": "function"
    },
    {
      "inputs": [
        {
          "internalType": "address",
          "name": "from",
          "type": "address"
        },
        {
          "internalType": "address",
          "name": "to",
          "type": "address"
        },
        {
          "internalType": "uint256",
          "name": "tokenId",
          "type": "uint256"
        }
      ],
      "name": "safeTransferFrom",
      "outputs": [],
      "stateMutability": "nonpayable",
      "type": "function"
    },
    {
      "inputs": [
        {
          "internalType": "address",
          "name": "from",
          "type": "address"
        },
        {
          "internalType": "address",
          "name": "to",
          "type": "address"
        },
        {
          "internalType": "uint256",
          "name": "tokenId",
          "type": "uint256"
        },
        {
          "internalType": "bytes",
          "name": "data",
          "type": "bytes"
        }
      ],
      "name": "safeTransferFrom",
      "outputs": [],
      "stateMutability": "nonpayable",
      "type": "function"
    },
    {
      "inputs": [
        {
          "internalType": "address",
          "name": "operator",
          "type": "address"
        },
        {
          "internalType": "bool",
          "name": "approved",
          "type": "bool"
        }
      ],
      "name": "setApprovalForAll",
      "outputs": [],
      "stateMutability": "nonpayable",
      "type": "function"
    },
    {
      "inputs": [
        {
          "internalType": "bytes4",
          "name": "interfaceId",
          "type": "bytes4"
        }
      ],
      "name": "supportsInterface",
      "outputs": [
        {
          "internalType": "bool",
          "name": "",
          "type": "bool"
        }
      ],
      "stateMutability": "view",
      "type": "function"
    },
    {
      "inputs": [],
      "name": "symbol",
      "outputs": [
        {
          "internalType": "string",
          "name": "",
          "type": "string"
        }
      ],
      "stateMutability": "view",
      "type": "function"
    },
    {
      "inputs": [
        {
          "internalType": "uint256",
          "name": "tokenId",
          "type": "uint256"
        }
      ],
      "name": "tokenURI",
      "outputs": [
        {
          "internalType": "string",
          "name": "",
          "type": "string"
        }
      ],
      "stateMutability": "view",
      "type": "function"
    },
    {
      "inputs": [
        {
          "internalType": "address",
          "name": "from",
          "type": "address"
        },
        {
          "internalType": "address",
          "name": "to",
          "type": "address"
        },
        {
          "internalType": "uint256",
          "name": "tokenId",
          "type": "uint256"
        }
      ],
      "name": "transferFrom",
      "outputs": [],
      "stateMutability": "nonpayable",
      "type": "function"
    }
  ],
  "bytecode": {
    "object": "0x60806040523480156200001157600080fd5b506040518060400160405280600a8152602001694d6f636b45524337323160b01b815250604051806040016040528060048152602001631253919560e21b815250816000908162000063919062000132565b50600162000072828262000132565b5050600880546001600160a01b0319163317905550620001fe565b634e487b7160e01b600052604160045260246000fd5b600181811c90821680620000b857607f821691505b602082108103620000d957634e487b7160e01b600052602260045260246000fd5b50919050565b601f8211156200012d57600081815260208120601f850160051c81016020861015620001085750805b601f850160051c820191505b81811015620001295782815560010162000114565b5050505b505050565b81516001600160401b038111156200014e576200014e6200008d565b62000166816200015f8454620000a3565b84620000df565b602080601f8311600181146200019e5760008415620001855750858301515b600019600386901b1c1916600185901b17855562000129565b600085815260208120601f198616915b82811015620001cf57888601518255948401946001909101908401620001ae565b5085821015620001ee5787850151600019600388901b60f8161c191681555b5050505050600190811b01905550565b61144c806200020e6000396000f3fe608060405234801561001057600080fd5b50600436106101165760003560e01c80638da5cb5b116100a2578063b88d4fde11610071578063b88d4fde1461023b578063c6bc51821461024e578063c87b56dd14610257578063e985e9c51461026a578063f9cb63ac1461027d57600080fd5b80638da5cb5b1461020557806395d89b4114610218578063a22cb46514610220578063aa726ffb1461023357600080fd5b80630ab8afac116100e95780630ab8afac1461019857806323b872dd146101ab57806342842e0e146101be5780636352211e146101d157806370a08231146101e457600080fd5b806301ffc9a71461011b57806306fdde0314610143578063081812fc14610158578063095ea7b314610183575b600080fd5b61012e610129366004610f83565b610285565b60405190151581526020015b60405180910390f35b61014b6102d7565b60405161013a9190610ff0565b61016b610166366004611003565b610369565b6040516001600160a01b03909116815260200161013a565b610196610191366004611038565b610390565b005b60075461016b906001600160a01b031681565b6101966101b9366004611062565b6104aa565b6101966101cc366004611062565b6104db565b61016b6101df366004611003565b6104f6565b6101f76101f236600461109e565b610556565b60405190815260200161013a565b60085461016b906001600160a01b031681565b61014b6105dc565b61019661022e3660046110b9565b6105eb565b6101966105fa565b61019661024936600461110b565b61063d565b6101f760065481565b61014b610265366004611003565b610675565b61012e6102783660046111e7565b6106e9565b6101f7610717565b60006001600160e01b031982166380ac58cd60e01b14806102b657506001600160e01b03198216635b5e139f60e01b145b806102d157506301ffc9a760e01b6001600160e01b03198316145b92915050565b6060600080546102e69061121a565b80601f01602080910402602001604051908101604052809291908181526020018280546103129061121a565b801561035f5780601f106103345761010080835404028352916020019161035f565b820191906000526020600020905b81548152906001019060200180831161034257829003601f168201915b5050505050905090565b600061037482610742565b506000908152600460205260409020546001600160a01b031690565b600061039b826104f6565b9050806001600160a01b0316836001600160a01b03160361040d5760405162461bcd60e51b815260206004820152602160248201527f4552433732313a20617070726f76616c20746f2063757272656e74206f776e656044820152603960f91b60648201526084015b60405180910390fd5b336001600160a01b0382161480610429575061042981336106e9565b61049b5760405162461bcd60e51b815260206004820152603d60248201527f4552433732313a20617070726f76652063616c6c6572206973206e6f7420746f60448201527f6b656e206f776e6572206f7220617070726f76656420666f7220616c6c0000006064820152608401610404565b6104a583836107a1565b505050565b6104b4338261080f565b6104d05760405162461bcd60e51b815260040161040490611254565b6104a583838361086e565b6104a58383836040518060200160405280600081525061063d565b6000818152600260205260408120546001600160a01b0316806102d15760405162461bcd60e51b8152602060048201526018602482015277115490cdcc8c4e881a5b9d985b1a59081d1bdad95b88125160421b6044820152606401610404565b60006001600160a01b0382166105c05760405162461bcd60e51b815260206004820152602960248201527f4552433732313a2061646472657373207a65726f206973206e6f7420612076616044820152683634b21037bbb732b960b91b6064820152608401610404565b506001600160a01b031660009081526003602052604090205490565b6060600180546102e69061121a565b6105f63383836109df565b5050565b60005b600a81101561063a5761061233600654610aad565b60068054906000610622836112b7565b91905055508080610632906112b7565b9150506105fd565b50565b610647338361080f565b6106635760405162461bcd60e51b815260040161040490611254565b61066f84848484610c46565b50505050565b606061068082610742565b600061069760408051602081019091526000815290565b905060008151116106b757604051806020016040528060008152506106e2565b806106c184610c79565b6040516020016106d29291906112d0565b6040516020818303038152906040525b9392505050565b6001600160a01b03918216600090815260056020908152604080832093909416825291909152205460ff1690565b600061072533600654610aad565b600680549081906000610737836112b7565b909155509092915050565b6000818152600260205260409020546001600160a01b031661063a5760405162461bcd60e51b8152602060048201526018602482015277115490cdcc8c4e881a5b9d985b1a59081d1bdad95b88125160421b6044820152606401610404565b600081815260046020526040902080546001600160a01b0319166001600160a01b03841690811790915581906107d6826104f6565b6001600160a01b03167f8c5be1e5ebec7d5bd14f71427d1e84f3dd0314c0f7b2291e5b200ac8c7c3b92560405160405180910390a45050565b60008061081b836104f6565b9050806001600160a01b0316846001600160a01b03161480610842575061084281856106e9565b806108665750836001600160a01b031661085b84610369565b6001600160a01b0316145b949350505050565b826001600160a01b0316610881826104f6565b6001600160a01b0316146108a75760405162461bcd60e51b8152600401610404906112ff565b6001600160a01b0382166109095760405162461bcd60e51b8152602060048201526024808201527f4552433732313a207472616e7366657220746f20746865207a65726f206164646044820152637265737360e01b6064820152608401610404565b6109168383836001610d0c565b826001600160a01b0316610929826104f6565b6001600160a01b03161461094f5760405162461bcd60e51b8152600401610404906112ff565b600081815260046020908152604080832080546001600160a01b03199081169091556001600160a01b0387811680865260038552838620805460001901905590871680865283862080546001019055868652600290945282852080549092168417909155905184937fddf252ad1be2c89b69c2b068fc378daa952ba7f163c4a11628f55a4df523b3ef91a4505050565b816001600160a01b0316836001600160a01b031603610a405760405162461bcd60e51b815260206004820152601960248201527f4552433732313a20617070726f766520746f2063616c6c6572000000000000006044820152606401610404565b6001600160a01b03838116600081815260056020908152604080832094871680845294825291829020805460ff191686151590811790915591519182527f17307eab39ab6107e8899845ad3d59bd9653f200f220920489ca2b5937696c31910160405180910390a3505050565b6001600160a01b038216610b035760405162461bcd60e51b815260206004820181905260248201527f4552433732313a206d696e7420746f20746865207a65726f20616464726573736044820152606401610404565b6000818152600260205260409020546001600160a01b031615610b685760405162461bcd60e51b815260206004820152601c60248201527f4552433732313a20746f6b656e20616c7265616479206d696e746564000000006044820152606401610404565b610b76600083836001610d0c565b6000818152600260205260409020546001600160a01b031615610bdb5760405162461bcd60e51b815260206004820152601c60248201527f4552433732313a20746f6b656e20616c7265616479206d696e746564000000006044820152606401610404565b6001600160a01b038216600081815260036020908152604080832080546001019055848352600290915280822080546001600160a01b0319168417905551839291907fddf252ad1be2c89b69c2b068fc378daa952ba7f163c4a11628f55a4df523b3ef908290a45050565b610c5184848461086e565b610c5d84848484610d94565b61066f5760405162461bcd60e51b815260040161040490611344565b60606000610c8683610e95565b600101905060008167ffffffffffffffff811115610ca657610ca66110f5565b6040519080825280601f01601f191660200182016040528015610cd0576020820181803683370190505b5090508181016020015b600019016f181899199a1a9b1b9c1cb0b131b232b360811b600a86061a8153600a8504945084610cda57509392505050565b600181111561066f576001600160a01b03841615610d52576001600160a01b03841660009081526003602052604081208054839290610d4c908490611396565b90915550505b6001600160a01b0383161561066f576001600160a01b03831660009081526003602052604081208054839290610d899084906113a9565b909155505050505050565b60006001600160a01b0384163b15610e8a57604051630a85bd0160e11b81526001600160a01b0385169063150b7a0290610dd89033908990889088906004016113bc565b6020604051808303816000875af1925050508015610e13575060408051601f3d908101601f19168201909252610e10918101906113f9565b60015b610e70573d808015610e41576040519150601f19603f3d011682016040523d82523d6000602084013e610e46565b606091505b508051600003610e685760405162461bcd60e51b815260040161040490611344565b805181602001fd5b6001600160e01b031916630a85bd0160e11b149050610866565b506001949350505050565b60008072184f03e93ff9f4daa797ed6e38ed64bf6a1f0160401b8310610ed45772184f03e93ff9f4daa797ed6e38ed64bf6a1f0160401b830492506040015b6d04ee2d6d415b85acef81000000008310610f00576d04ee2d6d415b85acef8100000000830492506020015b662386f26fc100008310610f1e57662386f26fc10000830492506010015b6305f5e1008310610f36576305f5e100830492506008015b6127108310610f4a57612710830492506004015b60648310610f5c576064830492506002015b600a83106102d15760010192915050565b6001600160e01b03198116811461063a57600080fd5b600060208284031215610f9557600080fd5b81356106e281610f6d565b60005b83811015610fbb578181015183820152602001610fa3565b50506000910152565b60008151808452610fdc816020860160208601610fa0565b601f01601f19169290920160200192915050565b6020815260006106e26020830184610fc4565b60006020828403121561101557600080fd5b5035919050565b80356001600160a01b038116811461103357600080fd5b919050565b6000806040838503121561104b57600080fd5b6110548361101c565b946020939093013593505050565b60008060006060848603121561107757600080fd5b6110808461101c565b925061108e6020850161101c565b9150604084013590509250925092565b6000602082840312156110b057600080fd5b6106e28261101c565b600080604083850312156110cc57600080fd5b6110d58361101c565b9150602083013580151581146110ea57600080fd5b809150509250929050565b634e487b7160e01b600052604160045260246000fd5b6000806000806080858703121561112157600080fd5b61112a8561101c565b93506111386020860161101c565b925060408501359150606085013567ffffffffffffffff8082111561115c57600080fd5b818701915087601f83011261117057600080fd5b813581811115611182576111826110f5565b604051601f8201601f19908116603f011681019083821181831017156111aa576111aa6110f5565b816040528281528a60208487010111156111c357600080fd5b82602086016020830137600060208483010152809550505050505092959194509250565b600080604083850312156111fa57600080fd5b6112038361101c565b91506112116020840161101c565b90509250929050565b600181811c9082168061122e57607f821691505b60208210810361124e57634e487b7160e01b600052602260045260246000fd5b50919050565b6020808252602d908201527f4552433732313a2063616c6c6572206973206e6f7420746f6b656e206f776e6560408201526c1c881bdc88185c1c1c9bdd9959609a1b606082015260800190565b634e487b7160e01b600052601160045260246000fd5b6000600182016112c9576112c96112a1565b5060010190565b600083516112e2818460208801610fa0565b8351908301906112f6818360208801610fa0565b01949350505050565b60208082526025908201527f4552433732313a207472616e736665722066726f6d20696e636f72726563742060408201526437bbb732b960d91b606082015260800190565b60208082526032908201527f4552433732313a207472616e7366657220746f206e6f6e20455243373231526560408201527131b2b4bb32b91034b6b83632b6b2b73a32b960711b606082015260800190565b818103818111156102d1576102d16112a1565b808201808211156102d1576102d16112a1565b6001600160a01b03858116825284166020820152604081018390526080606082018190526000906113ef90830184610fc4565b9695505050505050565b60006020828403121561140b57600080fd5b81516106e281610f6d56fea26469706673582212202cb5efdf614d2eb123971c9594e9137493a779f70baf70270d40a25b73d363d564736f6c63430008100033",
    "linkReferences": {}
  },
  "methodIdentifiers": {
    "approve(address,uint256)": "095ea7b3",
    "auctionContract()": "0ab8afac",
    "balanceOf(address)": "70a08231",
    "freemint()": "f9cb63ac",
    "freemint10()": "aa726ffb",
    "getApproved(uint256)": "081812fc",
    "isApprovedForAll(address,address)": "e985e9c5",
    "name()": "06fdde03",
    "nftId()": "c6bc5182",
    "owner()": "8da5cb5b",
    "ownerOf(uint256)": "6352211e",
    "safeTransferFrom(address,address,uint256)": "42842e0e",
    "safeTransferFrom(address,address,uint256,bytes)": "b88d4fde",
    "setApprovalForAll(address,bool)": "a22cb465",
    "supportsInterface(bytes4)": "01ffc9a7",
    "symbol()": "95d89b41",
    "tokenURI(uint256)": "c87b56dd",
    "transferFrom(address,address,uint256)": "23b872dd"
  },
  "id": 74
}