{
  "abi": [
    {
      "anonymous": false,
      "inputs": [
        {
          "indexed": true,
          "internalType": "uint256",
          "name": "_epoch",
          "type": "uint256"
        },
        {
          "indexed": false,
          "internalType": "uint256",
          "name": "_tokenId",
          "type": "uint256"
        },
        {
          "indexed": false,
          "internalType": "uint256",
          "name": "_strikePrice",
          "type": "uint256"
        },
        {
          "indexed": false,
          "internalType": "uint256",
          "name": "_premium",
          "type": "uint256"
        },
        {
          "indexed": true,
          "internalType": "address",
          "name": "_buyer",
          "type": "address"
        }
      ],
      "name": "BuyOption",
      "type": "event"
    },
    {
      "anonymous": false,
      "inputs": [
        {
          "indexed": true,
          "internalType": "uint256",
          "name": "_epoch",
          "type": "uint256"
        },
        {
          "indexed": false,
          "internalType": "uint256",
          "name": "_shares",
          "type": "uint256"
        },
        {
          "indexed": false,
          "internalType": "uint256",
          "name": "_premiums",
          "type": "uint256"
        },
        {
          "indexed": true,
          "internalType": "address",
          "name": "_owner",
          "type": "address"
        }
      ],
      "name": "ClaimPremiums",
      "type": "event"
    },
    {
      "anonymous": false,
      "inputs": [
        {
          "indexed": true,
          "internalType": "uint256",
          "name": "_epoch",
          "type": "uint256"
        },
        {
          "indexed": false,
          "internalType": "uint256",
          "name": "_tokenId",
          "type": "uint256"
        },
        {
          "indexed": false,
          "internalType": "uint256",
          "name": "_debt",
          "type": "uint256"
        },
        {
          "indexed": true,
          "internalType": "address",
          "name": "_writer",
          "type": "address"
        },
        {
          "indexed": false,
          "internalType": "address",
          "name": "_buyer",
          "type": "address"
        }
      ],
      "name": "CoverPosition",
      "type": "event"
    },
    {
      "anonymous": false,
      "inputs": [
        {
          "indexed": false,
          "internalType": "uint8",
          "name": "version",
          "type": "uint8"
        }
      ],
      "name": "Initialized",
      "type": "event"
    },
    {
      "anonymous": false,
      "inputs": [
        {
          "indexed": true,
          "internalType": "uint256",
          "name": "_tokenId",
          "type": "uint256"
        },
        {
          "indexed": false,
          "internalType": "uint256",
          "name": "_firstPrice",
          "type": "uint256"
        },
        {
          "indexed": false,
          "internalType": "address",
          "name": "_writer",
          "type": "address"
        },
        {
          "indexed": false,
          "internalType": "address",
          "name": "_buyer",
          "type": "address"
        },
        {
          "indexed": false,
          "internalType": "uint256",
          "name": "_debt",
          "type": "uint256"
        }
      ],
      "name": "LiquidateNFT",
      "type": "event"
    },
    {
      "anonymous": false,
      "inputs": [
        {
          "indexed": true,
          "internalType": "uint256",
          "name": "_epoch",
          "type": "uint256"
        },
        {
          "indexed": false,
          "internalType": "uint256",
          "name": "_tokenId",
          "type": "uint256"
        },
        {
          "indexed": false,
          "internalType": "uint256",
          "name": "_strikePrice",
          "type": "uint256"
        },
        {
          "indexed": true,
          "internalType": "address",
          "name": "_writer",
          "type": "address"
        }
      ],
      "name": "ReStake",
      "type": "event"
    },
    {
      "anonymous": false,
      "inputs": [
        {
          "indexed": true,
          "internalType": "bytes32",
          "name": "role",
          "type": "bytes32"
        },
        {
          "indexed": true,
          "internalType": "bytes32",
          "name": "previousAdminRole",
          "type": "bytes32"
        },
        {
          "indexed": true,
          "internalType": "bytes32",
          "name": "newAdminRole",
          "type": "bytes32"
        }
      ],
      "name": "RoleAdminChanged",
      "type": "event"
    },
    {
      "anonymous": false,
      "inputs": [
        {
          "indexed": true,
          "internalType": "bytes32",
          "name": "role",
          "type": "bytes32"
        },
        {
          "indexed": true,
          "internalType": "address",
          "name": "account",
          "type": "address"
        },
        {
          "indexed": true,
          "internalType": "address",
          "name": "sender",
          "type": "address"
        }
      ],
      "name": "RoleGranted",
      "type": "event"
    },
    {
      "anonymous": false,
      "inputs": [
        {
          "indexed": true,
          "internalType": "bytes32",
          "name": "role",
          "type": "bytes32"
        },
        {
          "indexed": true,
          "internalType": "address",
          "name": "account",
          "type": "address"
        },
        {
          "indexed": true,
          "internalType": "address",
          "name": "sender",
          "type": "address"
        }
      ],
      "name": "RoleRevoked",
      "type": "event"
    },
    {
      "anonymous": false,
      "inputs": [
        {
          "indexed": true,
          "internalType": "uint256",
          "name": "_epoch",
          "type": "uint256"
        },
        {
          "indexed": false,
          "internalType": "uint256",
          "name": "_floorPrice",
          "type": "uint256"
        }
      ],
      "name": "SetFloorPrice",
      "type": "event"
    },
    {
      "anonymous": false,
      "inputs": [
        {
          "indexed": true,
          "internalType": "uint256",
          "name": "_epoch",
          "type": "uint256"
        },
        {
          "indexed": false,
          "internalType": "uint256[]",
          "name": "_strikePrices",
          "type": "uint256[]"
        }
      ],
      "name": "SetStrikePrice",
      "type": "event"
    },
    {
      "anonymous": false,
      "inputs": [
        {
          "indexed": true,
          "internalType": "uint256",
          "name": "_epoch",
          "type": "uint256"
        },
        {
          "indexed": false,
          "internalType": "uint256",
          "name": "_tokenId",
          "type": "uint256"
        },
        {
          "indexed": false,
          "internalType": "uint256",
          "name": "_strikePrice",
          "type": "uint256"
        },
        {
          "indexed": true,
          "internalType": "address",
          "name": "_writer",
          "type": "address"
        }
      ],
      "name": "Stake",
      "type": "event"
    },
    {
      "anonymous": false,
      "inputs": [
        {
          "indexed": false,
          "internalType": "uint256",
          "name": "_tokenId",
          "type": "uint256"
        },
        {
          "indexed": false,
          "internalType": "address",
          "name": "_owner",
          "type": "address"
        }
      ],
      "name": "WithdrawNFT",
      "type": "event"
    },
    {
      "inputs": [],
      "name": "DEFAULT_ADMIN_ROLE",
      "outputs": [
        {
          "internalType": "bytes32",
          "name": "",
          "type": "bytes32"
        }
      ],
      "stateMutability": "view",
      "type": "function"
    },
    {
      "inputs": [],
      "name": "FLOOR_PRICE_PROVIDER_ROLE",
      "outputs": [
        {
          "internalType": "bytes32",
          "name": "",
          "type": "bytes32"
        }
      ],
      "stateMutability": "view",
      "type": "function"
    },
    {
      "inputs": [],
      "name": "auctionManager",
      "outputs": [
        {
          "internalType": "address",
          "name": "",
          "type": "address"
        }
      ],
      "stateMutability": "view",
      "type": "function"
    },
    {
      "inputs": [
        {
          "internalType": "uint256",
          "name": "_tokenId",
          "type": "uint256"
        },
        {
          "internalType": "uint256",
          "name": "_amount",
          "type": "uint256"
        }
      ],
      "name": "bidAuction",
      "outputs": [],
      "stateMutability": "nonpayable",
      "type": "function"
    },
    {
      "inputs": [
        {
          "internalType": "uint256",
          "name": "_tokenId",
          "type": "uint256"
        }
      ],
      "name": "buyAtStrike",
      "outputs": [],
      "stateMutability": "nonpayable",
      "type": "function"
    },
    {
      "inputs": [
        {
          "internalType": "uint256",
          "name": "_strikePrice",
          "type": "uint256"
        }
      ],
      "name": "buyOption",
      "outputs": [],
      "stateMutability": "nonpayable",
      "type": "function"
    },
    {
      "inputs": [
        {
          "internalType": "uint256",
          "name": "_strikePrice",
          "type": "uint256"
        },
        {
          "internalType": "uint256",
          "name": "_amount",
          "type": "uint256"
        }
      ],
      "name": "buyOptions",
      "outputs": [],
      "stateMutability": "nonpayable",
      "type": "function"
    },
    {
      "inputs": [
        {
          "internalType": "uint256",
          "name": "_epoch",
          "type": "uint256"
        },
        {
          "internalType": "uint256",
          "name": "_strikePrice",
          "type": "uint256"
        }
      ],
      "name": "claimPremiums",
      "outputs": [],
      "stateMutability": "nonpayable",
      "type": "function"
    },
    {
      "inputs": [
        {
          "internalType": "uint256",
          "name": "_tokenId",
          "type": "uint256"
        }
      ],
      "name": "coverPosition",
      "outputs": [],
      "stateMutability": "nonpayable",
      "type": "function"
    },
    {
      "inputs": [
        {
          "internalType": "uint256",
          "name": "_tokenId",
          "type": "uint256"
        }
      ],
      "name": "endAuction",
      "outputs": [],
      "stateMutability": "nonpayable",
      "type": "function"
    },
    {
      "inputs": [],
      "name": "erc20",
      "outputs": [
        {
          "internalType": "address",
          "name": "",
          "type": "address"
        }
      ],
      "stateMutability": "view",
      "type": "function"
    },
    {
      "inputs": [],
      "name": "erc721",
      "outputs": [
        {
          "internalType": "address",
          "name": "",
          "type": "address"
        }
      ],
      "stateMutability": "view",
      "type": "function"
    },
    {
      "inputs": [
        {
          "internalType": "uint256",
          "name": "_epoch",
          "type": "uint256"
        },
        {
          "internalType": "uint256",
          "name": "_strikePrice",
          "type": "uint256"
        }
      ],
      "name": "getAmountLockedAt",
      "outputs": [
        {
          "internalType": "uint256",
          "name": "",
          "type": "uint256"
        }
      ],
      "stateMutability": "view",
      "type": "function"
    },
    {
      "inputs": [],
      "name": "getEpochDuration",
      "outputs": [
        {
          "internalType": "uint256",
          "name": "",
          "type": "uint256"
        }
      ],
      "stateMutability": "pure",
      "type": "function"
    },
    {
      "inputs": [],
      "name": "getEpoch_2e",
      "outputs": [
        {
          "internalType": "uint256",
          "name": "",
          "type": "uint256"
        }
      ],
      "stateMutability": "view",
      "type": "function"
    },
    {
      "inputs": [
        {
          "internalType": "uint256",
          "name": "_epoch",
          "type": "uint256"
        }
      ],
      "name": "getFloorPrice",
      "outputs": [
        {
          "internalType": "uint256",
          "name": "",
          "type": "uint256"
        }
      ],
      "stateMutability": "view",
      "type": "function"
    },
    {
      "inputs": [],
      "name": "getInterval",
      "outputs": [
        {
          "internalType": "uint256",
          "name": "",
          "type": "uint256"
        }
      ],
      "stateMutability": "pure",
      "type": "function"
    },
    {
      "inputs": [
        {
          "internalType": "uint256",
          "name": "_tokenId",
          "type": "uint256"
        }
      ],
      "name": "getOption",
      "outputs": [
        {
          "components": [
            {
              "internalType": "address",
              "name": "writer",
              "type": "address"
            },
            {
              "internalType": "address",
              "name": "buyer",
              "type": "address"
            },
            {
              "internalType": "uint256",
              "name": "sPrice",
              "type": "uint256"
            },
            {
              "internalType": "uint256",
              "name": "epoch",
              "type": "uint256"
            },
            {
              "internalType": "bool",
              "name": "covered",
              "type": "bool"
            },
            {
              "internalType": "bool",
              "name": "liquidated",
              "type": "bool"
            }
          ],
          "internalType": "struct StrikePool.Option",
          "name": "option",
          "type": "tuple"
        }
      ],
      "stateMutability": "view",
      "type": "function"
    },
    {
      "inputs": [
        {
          "internalType": "uint256",
          "name": "_epoch",
          "type": "uint256"
        },
        {
          "internalType": "uint256",
          "name": "_strikePrice",
          "type": "uint256"
        }
      ],
      "name": "getOptionAvailableAt",
      "outputs": [
        {
          "internalType": "uint256",
          "name": "",
          "type": "uint256"
        }
      ],
      "stateMutability": "view",
      "type": "function"
    },
    {
      "inputs": [
        {
          "internalType": "bytes32",
          "name": "role",
          "type": "bytes32"
        }
      ],
      "name": "getRoleAdmin",
      "outputs": [
        {
          "internalType": "bytes32",
          "name": "",
          "type": "bytes32"
        }
      ],
      "stateMutability": "view",
      "type": "function"
    },
    {
      "inputs": [
        {
          "internalType": "uint256",
          "name": "_epoch",
          "type": "uint256"
        },
        {
          "internalType": "uint256",
          "name": "_strikePrice",
          "type": "uint256"
        },
        {
          "internalType": "address",
          "name": "_add",
          "type": "address"
        }
      ],
      "name": "getSharesAtOf",
      "outputs": [
        {
          "internalType": "uint256",
          "name": "",
          "type": "uint256"
        }
      ],
      "stateMutability": "view",
      "type": "function"
    },
    {
      "inputs": [
        {
          "internalType": "bytes32",
          "name": "role",
          "type": "bytes32"
        },
        {
          "internalType": "address",
          "name": "account",
          "type": "address"
        }
      ],
      "name": "grantRole",
      "outputs": [],
      "stateMutability": "nonpayable",
      "type": "function"
    },
    {
      "inputs": [
        {
          "internalType": "bytes32",
          "name": "role",
          "type": "bytes32"
        },
        {
          "internalType": "address",
          "name": "account",
          "type": "address"
        }
      ],
      "name": "hasRole",
      "outputs": [
        {
          "internalType": "bool",
          "name": "",
          "type": "bool"
        }
      ],
      "stateMutability": "view",
      "type": "function"
    },
    {
      "inputs": [],
      "name": "hatching",
      "outputs": [
        {
          "internalType": "uint256",
          "name": "",
          "type": "uint256"
        }
      ],
      "stateMutability": "view",
      "type": "function"
    },
    {
      "inputs": [
        {
          "internalType": "address",
          "name": "_erc721",
          "type": "address"
        },
        {
          "internalType": "address",
          "name": "_erc20",
          "type": "address"
        },
        {
          "internalType": "address",
          "name": "_auctionManager",
          "type": "address"
        },
        {
          "internalType": "address",
          "name": "_optionPricing",
          "type": "address"
        },
        {
          "internalType": "address",
          "name": "_volatilityOracle",
          "type": "address"
        },
        {
          "internalType": "address",
          "name": "_admin",
          "type": "address"
        }
      ],
      "name": "initialize",
      "outputs": [],
      "stateMutability": "nonpayable",
      "type": "function"
    },
    {
      "inputs": [
        {
          "internalType": "uint256",
          "name": "_tokenId",
          "type": "uint256"
        }
      ],
      "name": "liquidateNFT",
      "outputs": [],
      "stateMutability": "nonpayable",
      "type": "function"
    },
    {
      "inputs": [],
      "name": "liquidationInterrupted",
      "outputs": [
        {
          "internalType": "bool",
          "name": "",
          "type": "bool"
        }
      ],
      "stateMutability": "view",
      "type": "function"
    },
    {
      "inputs": [
        {
          "internalType": "address",
          "name": "",
          "type": "address"
        },
        {
          "internalType": "address",
          "name": "",
          "type": "address"
        },
        {
          "internalType": "uint256",
          "name": "",
          "type": "uint256"
        },
        {
          "internalType": "bytes",
          "name": "",
          "type": "bytes"
        }
      ],
      "name": "onERC721Received",
      "outputs": [
        {
          "internalType": "bytes4",
          "name": "",
          "type": "bytes4"
        }
      ],
      "stateMutability": "nonpayable",
      "type": "function"
    },
    {
      "inputs": [],
      "name": "optionPricing",
      "outputs": [
        {
          "internalType": "address",
          "name": "",
          "type": "address"
        }
      ],
      "stateMutability": "view",
      "type": "function"
    },
    {
      "inputs": [
        {
          "internalType": "bytes32",
          "name": "role",
          "type": "bytes32"
        },
        {
          "internalType": "address",
          "name": "account",
          "type": "address"
        }
      ],
      "name": "renounceRole",
      "outputs": [],
      "stateMutability": "nonpayable",
      "type": "function"
    },
    {
      "inputs": [
        {
          "internalType": "uint256",
          "name": "_tokenId",
          "type": "uint256"
        },
        {
          "internalType": "uint256",
          "name": "_strikePrice",
          "type": "uint256"
        }
      ],
      "name": "restake",
      "outputs": [],
      "stateMutability": "nonpayable",
      "type": "function"
    },
    {
      "inputs": [
        {
          "internalType": "bytes32",
          "name": "role",
          "type": "bytes32"
        },
        {
          "internalType": "address",
          "name": "account",
          "type": "address"
        }
      ],
      "name": "revokeRole",
      "outputs": [],
      "stateMutability": "nonpayable",
      "type": "function"
    },
    {
      "inputs": [
        {
          "internalType": "address",
          "name": "_auctionManager",
          "type": "address"
        }
      ],
      "name": "setAuctionManager",
      "outputs": [],
      "stateMutability": "nonpayable",
      "type": "function"
    },
    {
      "inputs": [
        {
          "internalType": "address",
          "name": "_provider",
          "type": "address"
        }
      ],
      "name": "setFloorPriceProvider",
      "outputs": [],
      "stateMutability": "nonpayable",
      "type": "function"
    },
    {
      "inputs": [
        {
          "internalType": "bool",
          "name": "_liquidationInterrupted",
          "type": "bool"
        }
      ],
      "name": "setLiquidationInterrupted",
      "outputs": [],
      "stateMutability": "nonpayable",
      "type": "function"
    },
    {
      "inputs": [
        {
          "internalType": "address",
          "name": "_optionPricing",
          "type": "address"
        }
      ],
      "name": "setOptionPricing",
      "outputs": [],
      "stateMutability": "nonpayable",
      "type": "function"
    },
    {
      "inputs": [
        {
          "internalType": "uint256",
          "name": "_epoch",
          "type": "uint256"
        },
        {
          "internalType": "uint256[]",
          "name": "_strikePrices",
          "type": "uint256[]"
        }
      ],
      "name": "setStrikePriceAt",
      "outputs": [],
      "stateMutability": "nonpayable",
      "type": "function"
    },
    {
      "inputs": [
        {
          "internalType": "address",
          "name": "_volatilityOracle",
          "type": "address"
        }
      ],
      "name": "setVolatilityOracle",
      "outputs": [],
      "stateMutability": "nonpayable",
      "type": "function"
    },
    {
      "inputs": [
        {
          "internalType": "uint256",
          "name": "_epoch",
          "type": "uint256"
        },
        {
          "internalType": "uint256",
          "name": "_floorPrice",
          "type": "uint256"
        }
      ],
      "name": "setfloorpriceAt",
      "outputs": [],
      "stateMutability": "nonpayable",
      "type": "function"
    },
    {
      "inputs": [
        {
          "internalType": "uint256",
          "name": "_tokenId",
          "type": "uint256"
        },
        {
          "internalType": "uint256",
          "name": "_strikePrice",
          "type": "uint256"
        }
      ],
      "name": "stake",
      "outputs": [],
      "stateMutability": "nonpayable",
      "type": "function"
    },
    {
      "inputs": [],
      "name": "strikeController",
      "outputs": [
        {
          "internalType": "address",
          "name": "",
          "type": "address"
        }
      ],
      "stateMutability": "view",
      "type": "function"
    },
    {
      "inputs": [
        {
          "internalType": "bytes4",
          "name": "interfaceId",
          "type": "bytes4"
        }
      ],
      "name": "supportsInterface",
      "outputs": [
        {
          "internalType": "bool",
          "name": "",
          "type": "bool"
        }
      ],
      "stateMutability": "view",
      "type": "function"
    },
    {
      "inputs": [],
      "name": "volatilityOracle",
      "outputs": [
        {
          "internalType": "address",
          "name": "",
          "type": "address"
        }
      ],
      "stateMutability": "view",
      "type": "function"
    },
    {
      "inputs": [
        {
          "internalType": "uint256",
          "name": "_tokenId",
          "type": "uint256"
        }
      ],
      "name": "withdrawNFT",
      "outputs": [],
      "stateMutability": "nonpayable",
      "type": "function"
    }
  ],
  "bytecode": {
    "object": "0x60c0604052621275006080526201518060a05234801561001e57600080fd5b5060805160a0516139d66100ad6000396000818161062001528181610a6d01528181610bf1015281816112ec01528181611bca01528181612563015261297c01526000818161052f0152818161078501528181610a9501528181610c1801528181611314015281816114c301528181611bf201528181612584015281816129a40152612ac801526139d66000f3fe608060405234801561001057600080fd5b50600436106102725760003560e01c8063785e9e8611610151578063b2d4cf18116100c3578063bce4771611610087578063bce4771614610718578063cc2a9a5b14610722578063d547741f14610735578063f6a76a8114610748578063f95dc2321461075b578063fba225b91461076e57600080fd5b8063b2d4cf18146106ab578063b8e7023d146106cc578063b9a2de3a146106df578063ba4ec52a146106f2578063bca6ce641461070557600080fd5b806391d148541161011557806391d148541461064457806395e4cacb146106575780639c78a5261461066a578063a217fddf1461067d578063b0192f9a14610685578063b1b3dd3a1461069857600080fd5b8063785e9e86146105b95780637b0472f0146105cc5780638992bc77146105df578063910294ca146105f257806391ad27b41461061e57600080fd5b80632f2ff15d116101ea57806355b13a4f116101ae57806355b13a4f1461050657806357db99cd1461051a5780635d3ea8f11461052d5780635e7c3f9a14610553578063707c4ac2146105915780637587b4df146105a657600080fd5b80632f2ff15d146104a557806336568abe146104b857806340dcf8ef146104cb57806345be8694146104de57806346953c47146104f157600080fd5b806309b4a81c1161023c57806309b4a81c146102f0578063150b7a02146103035780631ce5e9a61461033a5780631e3394fb146104445780632398fdcf1461046f578063248a9ca31461048257600080fd5b8061ae4a1461027757806301ffc9a714610292578063023245d7146102b557806304ed8ef7146102ca578063086e0f09146102dd575b600080fd5b61027f610781565b6040519081526020015b60405180910390f35b6102a56102a03660046132a1565b6107c2565b6040519015158152602001610289565b6102c86102c33660046132cb565b6107f9565b005b6102c86102d83660046132e4565b610a68565b61027f6102eb3660046132e4565b610b3e565b6102c86102fe3660046132cb565b610b7e565b610321610311366004613369565b630a85bd0160e11b949350505050565b6040516001600160e01b03199091168152602001610289565b6103eb6103483660046132cb565b6040805160c081018252600080825260208201819052918101829052606081018290526080810182905260a08101919091525060009081526101086020908152604091829020825160c08101845281546001600160a01b039081168252600183015416928101929092526002810154928201929092526003820154606082015260049091015460ff8082161515608084015261010090910416151560a082015290565b604051610289919081516001600160a01b03908116825260208084015190911690820152604080830151908201526060808301519082015260808083015115159082015260a09182015115159181019190915260c00190565b60ff54610457906001600160a01b031681565b6040516001600160a01b039091168152602001610289565b6102c861047d3660046132cb565b610f60565b61027f6104903660046132cb565b600090815260c9602052604090206001015490565b6102c86104b3366004613429565b6111b2565b6102c86104c6366004613429565b6111dc565b6102c86104d9366004613455565b611256565b60fd54610457906001600160a01b031681565b610100546102a590600160a01b900460ff1681565b61010054610457906001600160a01b031681565b6102c86105283660046132e4565b611298565b7f000000000000000000000000000000000000000000000000000000000000000061027f565b61027f610561366004613470565b6000928352610107602090815260408085209385529281528284206001600160a01b039290921684525290205490565b61027f60008051602061398183398151915281565b6102c86105b43660046132e4565b611795565b60fc54610457906001600160a01b031681565b6102c86105da3660046132e4565b6117dd565b6102c86105ed3660046132e4565b611960565b61027f6106003660046132e4565b60009182526101056020908152604080842092845291905290205490565b7f000000000000000000000000000000000000000000000000000000000000000061027f565b6102a5610652366004613429565b611a39565b6102c8610665366004613455565b611a64565b6102c8610678366004613455565b611aad565b61027f600081565b60fe54610457906001600160a01b031681565b6102c86106a63660046134b3565b611af7565b61027f6106b93660046132cb565b6000908152610104602052604090205490565b6102c86106da3660046132e4565b611b3d565b6102c86106ed3660046132cb565b611ed7565b6102c86107003660046134d0565b611f8a565b60fb54610457906001600160a01b031681565b61027f6101015481565b6102c8610730366004613582565b612070565b6102c8610743366004613429565b61246b565b6102c8610756366004613455565b612490565b6102c86107693660046132cb565b6124d9565b6102c861077c3660046132cb565b6128ab565b60007f000000000000000000000000000000000000000000000000000000000000000061010154426107b3919061360c565b6107bd919061361f565b905090565b60006001600160e01b03198216637965db0b60e01b14806107f357506301ffc9a760e01b6001600160e01b03198316145b92915050565b60008181526101086020908152604091829020825160c08101845281546001600160a01b0390811682526001830154169281019290925260028101549282019290925260038201546060820181905260049092015460ff8082161515608084015261010090910416151560a082015290610871610781565b116108b85760405162461bcd60e51b8152602060048201526012602482015271115c1bd8da081b9bdd08199a5b9a5cda195960721b60448201526064015b60405180910390fd5b6060810151600090815261010460205260409020546108e95760405162461bcd60e51b81526004016108af90613641565b80516001600160a01b0316331461093a5760405162461bcd60e51b81526020600482015260156024820152742cb7ba9030b932903737ba103a34329037bbb732b960591b60448201526064016108af565b604080820151606083015160009081526101046020529190912054111580610963575080608001515b80610979575060208101516001600160a01b0316155b6109bb5760405162461bcd60e51b815260206004820152601360248201527221b7bb32b9103cb7bab9103837b9b4ba34b7b760691b60448201526064016108af565b60608101516000908152610107602090815260408083208185015184528252808320338452909152902054156109fe576109fe8160600151826040015133612dd0565b60fb54604051632142170760e11b81526001600160a01b03909116906342842e0e90610a3290309033908790600401613687565b600060405180830381600087803b158015610a4c57600080fd5b505af1158015610a60573d6000803e3d6000fd5b505050505050565b610a937f000000000000000000000000000000000000000000000000000000000000000060026136ab565b7f0000000000000000000000000000000000000000000000000000000000000000610abf8460016136ca565b610ac991906136ab565b61010154610ad791906136ca565b610ae1919061360c565b4211610b2f5760405162461bcd60e51b815260206004820152601960248201527f4f7074696f6e206469646e27742065787069726564207965740000000000000060448201526064016108af565b610b3a828233612dd0565b5050565b6000828152610106602090815260408083208484528252808320548584526101058352818420858552909252822054610b77919061360c565b9392505050565b60008181526101086020908152604091829020825160c08101845281546001600160a01b0390811682526001830154169281019290925260028082015493830193909352600381015460608301526004015460ff8082161515608084015261010090910416151560a082015290610c16907f0000000000000000000000000000000000000000000000000000000000000000906136ab565b7f000000000000000000000000000000000000000000000000000000000000000082606001516001610c4891906136ca565b610c5291906136ab565b610c5c919061360c565b61010154610c6a904261360c565b11610cb05760405162461bcd60e51b815260206004820152601660248201527513dc1d1a5bdb881a185cc81b9bdd08195e1c1a5c995960521b60448201526064016108af565b606081015160009081526101046020526040902054610ce15760405162461bcd60e51b81526004016108af90613641565b60408082015160608301516000908152610104602052919091205411610d445760405162461bcd60e51b81526020600482015260186024820152774f7074696f6e206578706972656420776f7274686c65737360401b60448201526064016108af565b60a08101511515600103610d965760405162461bcd60e51b815260206004820152601960248201527813dc1d1a5bdb88185b1c9958591e481b1a5c5d5a59185d1959603a1b60448201526064016108af565b60208101516001600160a01b0316610df05760405162461bcd60e51b815260206004820152601b60248201527f4f7074696f6e2068617665206e6f74206265656e20626f75676874000000000060448201526064016108af565b806080015115610e3b5760405162461bcd60e51b815260206004820152601660248201527513dc1d1a5bdb88185b1c9958591e4818dbdd995c995960521b60448201526064016108af565b6040808201516060830151600090815261010460205291822054610e5f919061360c565b60fc5460208401516040516323b872dd60e01b81529293506001600160a01b03909116916323b872dd91610e9a913391908690600401613687565b6020604051808303816000875af1158015610eb9573d6000803e3d6000fd5b505050506040513d601f19601f82011682018060405250810190610edd91906136dd565b610ee657600080fd5b60008381526101086020908152604091829020600401805460ff191660011790556060848101518583015184518881529384018690526001600160a01b0316938301939093523392917fcdf3d0954b60bcea25eab319eef284cb7bb68b899111767c1e929a55efba9b6291015b60405180910390a3505050565b60008181526101086020908152604091829020825160c08101845281546001600160a01b039081168252600183015416928101839052600282015493810193909352600381015460608401526004015460ff8082161515608085015261010090910416151560a083015233146110185760405162461bcd60e51b815260206004820152601960248201527f596f7520646f6e2774206f776e2074686973206f7074696f6e0000000000000060448201526064016108af565b8060600151611025610781565b116110675760405162461bcd60e51b8152602060048201526012602482015271115c1bd8da081b9bdd08199a5b9a5cda195960721b60448201526064016108af565b8060800151156110ac5760405162461bcd60e51b815260206004820152601060248201526f141bdcda5d1a5bdb8818dbdd995c995960821b60448201526064016108af565b8060a00151156110fe5760405162461bcd60e51b815260206004820152601960248201527f6f7074696f6e20616c7265616479206c6971756964617465640000000000000060448201526064016108af565b60608101516000908152610104602052604090205461112f5760405162461bcd60e51b81526004016108af90613641565b60fc54815160408084015190516323b872dd60e01b81526001600160a01b03909316926323b872dd92611166923392600401613687565b6020604051808303816000875af1158015611185573d6000803e3d6000fd5b505050506040513d601f19601f820116820180604052508101906111a991906136dd565b6109fe57600080fd5b600082815260c960205260409020600101546111cd81612eba565b6111d78383612ec4565b505050565b6001600160a01b038116331461124c5760405162461bcd60e51b815260206004820152602f60248201527f416363657373436f6e74726f6c3a2063616e206f6e6c792072656e6f756e636560448201526e103937b632b9903337b91039b2b63360891b60648201526084016108af565b610b3a8282612f4a565b611261600033611a39565b61127d5760405162461bcd60e51b81526004016108af906136fa565b61129560008051602061398183398151915282612ec4565b50565b6112a0612fb1565b60006112aa610781565b60008181526101026020908152604080832087845290915290205490915060ff166112e75760405162461bcd60e51b81526004016108af90613731565b6113127f000000000000000000000000000000000000000000000000000000000000000060026136ab565b7f000000000000000000000000000000000000000000000000000000000000000061133e8360016136ca565b61134891906136ab565b6101015461135691906136ca565b611360919061360c565b42106113a85760405162461bcd60e51b81526020600482015260176024820152760aec2d2e840ccdee440e8d0ca40dccaf0e840cae0dec6d604b1b60448201526064016108af565b60008181526101066020908152604080832086845282528083205484845261010583528184208785529092528220546113e1919061360c565b9050808311156114335760405162461bcd60e51b815260206004820152601b60248201527f4e6f7420656e6f75676820746f6b656e7320617661696c61626c65000000000060448201526064016108af565b6101005460fb546040516373be031f60e01b81526001600160a01b039182166004820152600092839216906373be031f906024016040805180830381865afa158015611483573d6000803e3d6000fd5b505050506040513d601f19601f820116820180604052508101906114a7919061375c565b60ff5491935091506000906001600160a01b0316635b7b6d88827f00000000000000000000000000000000000000000000000000000000000000006114ed8960016136ca565b6114f791906136ab565b6101015461150591906136ca565b6040516001600160e01b031960e085901b16815291151560048301526024820152604481018a9052606481018590526084810186905260a401602060405180830381865afa15801561155b573d6000803e3d6000fd5b505050506040513d601f19601f8201168201806040525081019061157f9190613780565b60fc549091506001600160a01b03166323b872dd333061159f858b6136ab565b6040518463ffffffff1660e01b81526004016115bd93929190613687565b6020604051808303816000875af11580156115dc573d6000803e3d6000fd5b505050506040513d601f19601f8201168201806040525081019061160091906136dd565b61160957600080fd5b6000858152610106602090815260408083208a845282528083205488845261010583528184208b85529092528220546001916116449161360c565b61164e919061360c565b6000878152610106602090815260408083208c845290915281208054929350899290919061167d9084906136ca565b9091555061168d905082886136ab565b6000878152610103602090815260408083208c8452909152812080549091906116b79084906136ca565b909155508190505b6116c988836136ca565b811015611784576000878152610105602090815260408083208c845290915281208054839081106116fc576116fc613799565b600091825260208083209190910154808352610108825260409283902060010180546001600160a01b0319163390811790915583518281529283018e9052928201879052925089907ff64b78726aa49cf115358d6d427b361176cff78809f642e102c86e1d6fcee5929060600160405180910390a3508061177c816137af565b9150506116bf565b50505050505050610b3a6001603355565b60fe5460fb5460405163a7ff3b2360e01b81526001600160a01b039182166004820152602481018590526044810184905233606482015291169063a7ff3b2390608401610a32565b60006117e7610781565b6117f29060016136ca565b60008181526101026020908152604080832086845290915290205490915060ff1661182f5760405162461bcd60e51b81526004016108af90613731565b60fb54604051632142170760e11b81526001600160a01b03909116906342842e0e9061186390339030908890600401613687565b600060405180830381600087803b15801561187d57600080fd5b505af1158015611891573d6000803e3d6000fd5b505050600084815261010860209081526040808320600281018790558054336001600160a01b0319918216811783556003830188905560019283018054909216909155868552610105845282852088865284528285208054928301815585528385209091018890558584526101078352818420878552835281842090845290915281208054909250611922906137af565b909155506040805184815260208101849052339183917f12852e9691a3b4a507fdb1c3478087805e515ec2d7da612d9deb1b9010c1eca49101610f53565b61197860008051602061398183398151915233611a39565b806119895750611989600033611a39565b6119a55760405162461bcd60e51b81526004016108af906137c8565b600081116119e75760405162461bcd60e51b815260206004820152600f60248201526e0466c6f6f72207072696365203c203608c1b60448201526064016108af565b60008281526101046020526040908190208290555182907fd0c77e56cd2323339048d90b422e11cdef714664667e099ece9c2cf153a2d39790611a2d9084815260200190565b60405180910390a25050565b600091825260c9602090815260408084206001600160a01b0393909316845291905290205460ff1690565b611a6f600033611a39565b611a8b5760405162461bcd60e51b81526004016108af906136fa565b60fe80546001600160a01b0319166001600160a01b0392909216919091179055565b611ab8600033611a39565b611ad45760405162461bcd60e51b81526004016108af906136fa565b61010080546001600160a01b0319166001600160a01b0392909216919091179055565b611b02600033611a39565b611b1e5760405162461bcd60e51b81526004016108af906136fa565b6101008054911515600160a01b0260ff60a01b19909216919091179055565b611b45612fb1565b600082815261010860209081526040808320815160c08101835281546001600160a01b03908116825260018301541693810193909352600281015491830191909152600381015460608301526004015460ff8082161515608084015261010090910416151560a082015290611bb8610781565b611bc39060016136ca565b9050611bf07f000000000000000000000000000000000000000000000000000000000000000060026136ab565b7f000000000000000000000000000000000000000000000000000000000000000083606001516001611c2291906136ca565b611c2c91906136ab565b61010154611c3a91906136ca565b611c44919061360c565b4211611c8b5760405162461bcd60e51b815260206004820152601660248201527513dc1d1a5bdb881a185cc81b9bdd08195e1c1a5c995960521b60448201526064016108af565b81516001600160a01b03163314611cdc5760405162461bcd60e51b81526020600482015260156024820152742cb7ba9030b932903737ba103a34329037bbb732b960591b60448201526064016108af565b606082015160009081526101046020526040902054611d0d5760405162461bcd60e51b81526004016108af90613641565b604080830151606084015160009081526101046020529190912054111580611d36575081608001515b80611d4c575060208201516001600160a01b0316155b611d8e5760405162461bcd60e51b815260206004820152601360248201527221b7bb32b9103cb7bab9103837b9b4ba34b7b760691b60448201526064016108af565b60008181526101026020908152604080832086845290915290205460ff16611dc85760405162461bcd60e51b81526004016108af90613731565b6000848152610108602090815260408083206003810185905560028101879055600190810180546001600160a01b031916905584845261010583528184208785528352818420805491820181558452828420018790558383526101078252808320868452825280832033845290915281208054909190611e47906137af565b909155506060820151600090815261010760209081526040808320818601518452825280832033845290915290205415611e8e57611e8e8260600151836040015133612dd0565b6040805185815260208101859052339183917fc5cf73bbf9412234d340e19996e27e6404eca00fe162d78240d124dff861876a910160405180910390a35050610b3a6001603355565b60fe5460fb546040516315170a1760e21b81526001600160a01b039283169263545c285c92611f0f9291169030908690600401613687565b6020604051808303816000875af1158015611f2e573d6000803e3d6000fd5b505050506040513d601f19601f82011682018060405250810190611f5291906136dd565b611f5b57600080fd5b60009081526101086020526040902060048101805461ffff1916600117905580546001600160a01b0319169055565b611fa260008051602061398183398151915233611a39565b80611fb35750611fb3600033611a39565b611fcf5760405162461bcd60e51b81526004016108af906137c8565b60005b8151811461203f5760008381526101026020526040812083516001929085908590811061200157612001613799565b6020026020010151815260200190815260200160002060006101000a81548160ff02191690831515021790555080612038906137af565b9050611fd2565b50817f8b9dd3ac74d0614c084d8047cb199d3f08e72903980760ba021d7719e364014e82604051611a2d919061380e565b600054610100900460ff16158080156120905750600054600160ff909116105b806120aa5750303b1580156120aa575060005460ff166001145b61210d5760405162461bcd60e51b815260206004820152602e60248201527f496e697469616c697a61626c653a20636f6e747261637420697320616c72656160448201526d191e481a5b9a5d1a585b1a5e995960921b60648201526084016108af565b6000805460ff191660011790558015612130576000805461ff0019166101001790555b6001600160a01b03871661217c5760405162461bcd60e51b815260206004820152601360248201527204552433732312061646472657373206973203606c1b60448201526064016108af565b6001600160a01b0386166121c75760405162461bcd60e51b815260206004820152601260248201527104552433230206164647265737320697320360741b60448201526064016108af565b6001600160a01b03851661221d5760405162461bcd60e51b815260206004820152601b60248201527f41756374696f6e4d616e6167657220616464726573732069732030000000000060448201526064016108af565b6001600160a01b0384166122735760405162461bcd60e51b815260206004820152601a60248201527f4f7074696f6e50726963696e672061646472657373206973203000000000000060448201526064016108af565b6001600160a01b0383166122c95760405162461bcd60e51b815260206004820152601d60248201527f566f6c6174696c6974794f7261636c652061646472657373206973203000000060448201526064016108af565b6001600160a01b0382166123145760405162461bcd60e51b8152602060048201526012602482015271041646d696e206164647265737320697320360741b60448201526064016108af565b61231c613011565b61232461303a565b61232c613011565b426101015560fb80546001600160a01b03808a166001600160a01b03199283161790925560fc805489841690831617905560fd805482163317905560fe805488841690831617905560ff805487841690831617905561010080549286169290911691909117905561239e600083613069565b6123b660008051602061398183398151915283613069565b60fb5460405163a22cb46560e01b81526001600160a01b038781166004830152600160248301529091169063a22cb46590604401600060405180830381600087803b15801561240457600080fd5b505af1158015612418573d6000803e3d6000fd5b505050508015612462576000805461ff0019169055604051600181527f7f26b83ff96e1f2b6a682f133852f6798a09c465da95921460cefb38474024989060200160405180910390a15b50505050505050565b600082815260c9602052604090206001015461248681612eba565b6111d78383612f4a565b61249b600033611a39565b6124b75760405162461bcd60e51b81526004016108af906136fa565b60ff80546001600160a01b0319166001600160a01b0392909216919091179055565b60008181526101086020908152604091829020825160c08101845281546001600160a01b0390811682526001830154169281019290925260028101549282019290925260038201546060820181905260049092015460ff80821615156080840152610100918290048116151560a08401529054919291600160a01b9004161561256157600080fd5b7f00000000000000000000000000000000000000000000000000000000000000007f0000000000000000000000000000000000000000000000000000000000000000836060015160016125b491906136ca565b6125be91906136ab565b6125c891906136ca565b610101546125d6904261360c565b116126235760405162461bcd60e51b815260206004820181905260248201527f4c69717569646174696f6e20706572696f642069736e2774207265616368656460448201526064016108af565b6000818152610104602052604090205461264f5760405162461bcd60e51b81526004016108af90613641565b60408083015160008381526101046020529190912054116126ad5760405162461bcd60e51b81526020600482015260186024820152774f7074696f6e206578706972656420776f7274686c65737360401b60448201526064016108af565b8160800151156126f25760405162461bcd60e51b815260206004820152601060248201526f141bdcda5d1a5bdb8818dbdd995c995960821b60448201526064016108af565b60a082015115156001036127445760405162461bcd60e51b815260206004820152601960248201527813dc1d1a5bdb88185b1c9958591e481b1a5c5d5a59185d1959603a1b60448201526064016108af565b60008381526101086020908152604080832060048101805461ff00191661010017905580546001600160a01b03191690558481015184845261010490925282205461278f919061360c565b60fe5460fb54600085815261010460209081526040918290205488519189015192516355a0e22960e01b81526001600160a01b039485166004820152602481018b905260448101919091529083166064820152908216608482015260a4810184905292935016906355a0e2299060c401600060405180830381600087803b15801561281957600080fd5b505af115801561282d573d6000803e3d6000fd5b505050600083815261010460209081526040918290205486519187015192518894507f2e89d436d71507ecb25e79045c0f361b1f3410fb872d034e7b79bb1c245ce6589361289d939187909384526001600160a01b03928316602085015291166040830152606082015260800190565b60405180910390a250505050565b6128b3612fb1565b60006128bd610781565b60008181526101026020908152604080832086845290915290205490915060ff166128fa5760405162461bcd60e51b81526004016108af90613731565b600081815261010560209081526040808320858452825280832054848452610106835281842086855290925290912054106129775760405162461bcd60e51b815260206004820152601c60248201527f416c6c206f7074696f6e732068617665206265656e20626f756768740000000060448201526064016108af565b6129a27f000000000000000000000000000000000000000000000000000000000000000060026136ab565b7f00000000000000000000000000000000000000000000000000000000000000006129ce8360016136ca565b6129d891906136ab565b610101546129e691906136ca565b6129f0919061360c565b4210612a385760405162461bcd60e51b81526020600482015260176024820152760aec2d2e840ccdee440e8d0ca40dccaf0e840cae0dec6d604b1b60448201526064016108af565b6101005460fb546040516373be031f60e01b81526001600160a01b039182166004820152600092839216906373be031f906024016040805180830381865afa158015612a88573d6000803e3d6000fd5b505050506040513d601f19601f82011682018060405250810190612aac919061375c565b60ff5491935091506000906001600160a01b0316635b7b6d88827f0000000000000000000000000000000000000000000000000000000000000000612af28860016136ca565b612afc91906136ab565b61010154612b0a91906136ca565b6040516001600160e01b031960e085901b1681529115156004830152602482015260448101889052606481018590526084810186905260a401602060405180830381865afa158015612b60573d6000803e3d6000fd5b505050506040513d601f19601f82011682018060405250810190612b849190613780565b60fc546040516323b872dd60e01b81529192506001600160a01b0316906323b872dd90612bb990339030908690600401613687565b6020604051808303816000875af1158015612bd8573d6000803e3d6000fd5b505050506040513d601f19601f82011682018060405250810190612bfc91906136dd565b612c0557600080fd5b6000848152610106602090815260408083208884528252808320548784526101058352818420898552909252822054600191612c409161360c565b612c4a919061360c565b6000868152610106602090815260408083208a84529091528120805492935091612c73906137af565b9091555060008581526101036020908152604080832089845290915281208054849290612ca19084906136ca565b90915550506000858152610105602090815260408083208984529091528120805483908110612cd257612cd2613799565b60009182526020808320909101548083526101089091526040909120600101549091506001600160a01b031615612d575760405162461bcd60e51b815260206004820152602360248201527f54686973206f7074696f6e2068617320616c7265616479206265656e20626f7560448201526219da1d60ea1b60648201526084016108af565b6000818152610108602090815260409182902060010180546001600160a01b0319163390811790915582518481529182018a905291810185905287907ff64b78726aa49cf115358d6d427b361176cff78809f642e102c86e1d6fcee5929060600160405180910390a35050505050506112956001603355565b60008381526101076020908152604080832085845282528083206001600160a01b038516845282528083208054908490558684526101038352818420868552835281842054878552610105845282852087865290935290832054909290612e3784846136ab565b612e41919061361f565b60fc5460405163a9059cbb60e01b81526001600160a01b0387811660048301526024820184905292935091169063a9059cbb906044016020604051808303816000875af1158015612e96573d6000803e3d6000fd5b505050506040513d601f19601f8201168201806040525081019061246291906136dd565b6112958133613073565b612ece8282611a39565b610b3a57600082815260c9602090815260408083206001600160a01b03851684529091529020805460ff19166001179055612f063390565b6001600160a01b0316816001600160a01b0316837f2f8788117e7eff1d82e926ec794901d17c78024a50270940304540a733656f0d60405160405180910390a45050565b612f548282611a39565b15610b3a57600082815260c9602090815260408083206001600160a01b0385168085529252808320805460ff1916905551339285917ff6391f5c32d9c69d2a47ea670b442974b53935d1edc7fd64eb21e047a839171b9190a45050565b6002603354036130035760405162461bcd60e51b815260206004820152601f60248201527f5265656e7472616e637947756172643a207265656e7472616e742063616c6c0060448201526064016108af565b6002603355565b6001603355565b600054610100900460ff166130385760405162461bcd60e51b81526004016108af90613852565b565b600054610100900460ff166130615760405162461bcd60e51b81526004016108af90613852565b6130386130cc565b610b3a8282612ec4565b61307d8282611a39565b610b3a5761308a816130f3565b613095836020613105565b6040516020016130a69291906138c1565b60408051601f198184030181529082905262461bcd60e51b82526108af91600401613936565b600054610100900460ff1661300a5760405162461bcd60e51b81526004016108af90613852565b60606107f36001600160a01b03831660145b606060006131148360026136ab565b61311f9060026136ca565b67ffffffffffffffff81111561313757613137613322565b6040519080825280601f01601f191660200182016040528015613161576020820181803683370190505b509050600360fc1b8160008151811061317c5761317c613799565b60200101906001600160f81b031916908160001a905350600f60fb1b816001815181106131ab576131ab613799565b60200101906001600160f81b031916908160001a90535060006131cf8460026136ab565b6131da9060016136ca565b90505b6001811115613252576f181899199a1a9b1b9c1cb0b131b232b360811b85600f166010811061320e5761320e613799565b1a60f81b82828151811061322457613224613799565b60200101906001600160f81b031916908160001a90535060049490941c9361324b81613969565b90506131dd565b508315610b775760405162461bcd60e51b815260206004820181905260248201527f537472696e67733a20686578206c656e67746820696e73756666696369656e7460448201526064016108af565b6000602082840312156132b357600080fd5b81356001600160e01b031981168114610b7757600080fd5b6000602082840312156132dd57600080fd5b5035919050565b600080604083850312156132f757600080fd5b50508035926020909101359150565b80356001600160a01b038116811461331d57600080fd5b919050565b634e487b7160e01b600052604160045260246000fd5b604051601f8201601f1916810167ffffffffffffffff8111828210171561336157613361613322565b604052919050565b6000806000806080858703121561337f57600080fd5b61338885613306565b93506020613397818701613306565b935060408601359250606086013567ffffffffffffffff808211156133bb57600080fd5b818801915088601f8301126133cf57600080fd5b8135818111156133e1576133e1613322565b6133f3601f8201601f19168501613338565b9150808252898482850101111561340957600080fd5b808484018584013760008482840101525080935050505092959194509250565b6000806040838503121561343c57600080fd5b8235915061344c60208401613306565b90509250929050565b60006020828403121561346757600080fd5b610b7782613306565b60008060006060848603121561348557600080fd5b833592506020840135915061349c60408501613306565b90509250925092565b801515811461129557600080fd5b6000602082840312156134c557600080fd5b8135610b77816134a5565b600080604083850312156134e357600080fd5b8235915060208084013567ffffffffffffffff8082111561350357600080fd5b818601915086601f83011261351757600080fd5b81358181111561352957613529613322565b8060051b915061353a848301613338565b818152918301840191848101908984111561355457600080fd5b938501935b8385101561357257843582529385019390850190613559565b8096505050505050509250929050565b60008060008060008060c0878903121561359b57600080fd5b6135a487613306565b95506135b260208801613306565b94506135c060408801613306565b93506135ce60608801613306565b92506135dc60808801613306565b91506135ea60a08801613306565b90509295509295509295565b634e487b7160e01b600052601160045260246000fd5b818103818111156107f3576107f36135f6565b60008261363c57634e487b7160e01b600052601260045260246000fd5b500490565b60208082526026908201527f466c6f6f72207072696365206e6f7420736574746c656420666f722074686973604082015265040cae0dec6d60d31b606082015260800190565b6001600160a01b039384168152919092166020820152604081019190915260600190565b60008160001904831182151516156136c5576136c56135f6565b500290565b808201808211156107f3576107f36135f6565b6000602082840312156136ef57600080fd5b8151610b77816134a5565b60208082526017908201527f6d73672e73656e646572206973206e6f742061646d696e000000000000000000604082015260600190565b60208082526011908201527057726f6e6720737472696b65507269636560781b604082015260600190565b6000806040838503121561376f57600080fd5b505080516020909101519092909150565b60006020828403121561379257600080fd5b5051919050565b634e487b7160e01b600052603260045260246000fd5b6000600182016137c1576137c16135f6565b5060010190565b60208082526026908201527f6d73672e73656e646572206973206e6f7420666c6f6f7220707269636520707260408201526537bb34b232b960d11b606082015260800190565b6020808252825182820181905260009190848201906040850190845b818110156138465783518352928401929184019160010161382a565b50909695505050505050565b6020808252602b908201527f496e697469616c697a61626c653a20636f6e7472616374206973206e6f74206960408201526a6e697469616c697a696e6760a81b606082015260800190565b60005b838110156138b85781810151838201526020016138a0565b50506000910152565b7f416363657373436f6e74726f6c3a206163636f756e74200000000000000000008152600083516138f981601785016020880161389d565b7001034b99036b4b9b9b4b733903937b6329607d1b601791840191820152835161392a81602884016020880161389d565b01602801949350505050565b602081526000825180602084015261395581604085016020870161389d565b601f01601f19169190910160400192915050565b600081613978576139786135f6565b50600019019056fecbf283b5381192ce3c087c36c27bed2242f324291cbab3b1559bfa94b13399eea2646970667358221220d6d36f3d4a3f2da7d370d7e9e9a281d446f06f40087442a31549b97bccfd366864736f6c63430008100033",
    "linkReferences": {}
  },
  "methodIdentifiers": {
    "DEFAULT_ADMIN_ROLE()": "a217fddf",
    "FLOOR_PRICE_PROVIDER_ROLE()": "707c4ac2",
    "auctionManager()": "b0192f9a",
    "bidAuction(uint256,uint256)": "7587b4df",
    "buyAtStrike(uint256)": "2398fdcf",
    "buyOption(uint256)": "fba225b9",
    "buyOptions(uint256,uint256)": "57db99cd",
    "claimPremiums(uint256,uint256)": "04ed8ef7",
    "coverPosition(uint256)": "09b4a81c",
    "endAuction(uint256)": "b9a2de3a",
    "erc20()": "785e9e86",
    "erc721()": "bca6ce64",
    "getAmountLockedAt(uint256,uint256)": "910294ca",
    "getEpochDuration()": "5d3ea8f1",
    "getEpoch_2e()": "0000ae4a",
    "getFloorPrice(uint256)": "b2d4cf18",
    "getInterval()": "91ad27b4",
    "getOption(uint256)": "1ce5e9a6",
    "getOptionAvailableAt(uint256,uint256)": "086e0f09",
    "getRoleAdmin(bytes32)": "248a9ca3",
    "getSharesAtOf(uint256,uint256,address)": "5e7c3f9a",
    "grantRole(bytes32,address)": "2f2ff15d",
    "hasRole(bytes32,address)": "91d14854",
    "hatching()": "bce47716",
    "initialize(address,address,address,address,address,address)": "cc2a9a5b",
    "liquidateNFT(uint256)": "f95dc232",
    "liquidationInterrupted()": "46953c47",
    "onERC721Received(address,address,uint256,bytes)": "150b7a02",
    "optionPricing()": "1e3394fb",
    "renounceRole(bytes32,address)": "36568abe",
    "restake(uint256,uint256)": "b8e7023d",
    "revokeRole(bytes32,address)": "d547741f",
    "setAuctionManager(address)": "95e4cacb",
    "setFloorPriceProvider(address)": "40dcf8ef",
    "setLiquidationInterrupted(bool)": "b1b3dd3a",
    "setOptionPricing(address)": "f6a76a81",
    "setStrikePriceAt(uint256,uint256[])": "ba4ec52a",
    "setVolatilityOracle(address)": "9c78a526",
    "setfloorpriceAt(uint256,uint256)": "8992bc77",
    "stake(uint256,uint256)": "7b0472f0",
    "strikeController()": "45be8694",
    "supportsInterface(bytes4)": "01ffc9a7",
    "volatilityOracle()": "55b13a4f",
    "withdrawNFT(uint256)": "023245d7"
  },
  "id": 62
}