{
  "abi": [
    {
      "inputs": [
        {
          "internalType": "address",
          "name": "_erc721",
          "type": "address"
        },
        {
          "internalType": "address",
          "name": "_erc20",
          "type": "address"
        },
        {
          "internalType": "address",
          "name": "_auctionManager",
          "type": "address"
        }
      ],
      "stateMutability": "nonpayable",
      "type": "constructor"
    },
    {
      "anonymous": false,
      "inputs": [
        {
          "indexed": true,
          "internalType": "uint256",
          "name": "_epoch",
          "type": "uint256"
        },
        {
          "indexed": false,
          "internalType": "uint256",
          "name": "_tokenId",
          "type": "uint256"
        },
        {
          "indexed": false,
          "internalType": "uint256",
          "name": "_strikePrice",
          "type": "uint256"
        },
        {
          "indexed": false,
          "internalType": "uint256",
          "name": "_premium",
          "type": "uint256"
        },
        {
          "indexed": false,
          "internalType": "address",
          "name": "_writer",
          "type": "address"
        },
        {
          "indexed": true,
          "internalType": "address",
          "name": "_buyer",
          "type": "address"
        }
      ],
      "name": "BuyOption",
      "type": "event"
    },
    {
      "anonymous": false,
      "inputs": [
        {
          "indexed": true,
          "internalType": "uint256",
          "name": "_epoch",
          "type": "uint256"
        },
        {
          "indexed": false,
          "internalType": "uint256",
          "name": "_shares",
          "type": "uint256"
        },
        {
          "indexed": false,
          "internalType": "uint256",
          "name": "_premiums",
          "type": "uint256"
        },
        {
          "indexed": true,
          "internalType": "address",
          "name": "_owner",
          "type": "address"
        }
      ],
      "name": "ClaimPremiums",
      "type": "event"
    },
    {
      "anonymous": false,
      "inputs": [
        {
          "indexed": true,
          "internalType": "uint256",
          "name": "_epoch",
          "type": "uint256"
        },
        {
          "indexed": false,
          "internalType": "uint256",
          "name": "_tokenId",
          "type": "uint256"
        },
        {
          "indexed": false,
          "internalType": "uint256",
          "name": "_debt",
          "type": "uint256"
        },
        {
          "indexed": true,
          "internalType": "address",
          "name": "_writer",
          "type": "address"
        },
        {
          "indexed": false,
          "internalType": "address",
          "name": "_buyer",
          "type": "address"
        }
      ],
      "name": "CoverPosition",
      "type": "event"
    },
    {
      "anonymous": false,
      "inputs": [
        {
          "indexed": true,
          "internalType": "uint256",
          "name": "_tokenId",
          "type": "uint256"
        },
        {
          "indexed": false,
          "internalType": "uint256",
          "name": "_firstPrice",
          "type": "uint256"
        },
        {
          "indexed": false,
          "internalType": "address",
          "name": "_writer",
          "type": "address"
        },
        {
          "indexed": false,
          "internalType": "address",
          "name": "_buyer",
          "type": "address"
        },
        {
          "indexed": false,
          "internalType": "uint256",
          "name": "_debt",
          "type": "uint256"
        }
      ],
      "name": "LiquidateNFT",
      "type": "event"
    },
    {
      "anonymous": false,
      "inputs": [
        {
          "indexed": true,
          "internalType": "address",
          "name": "previousOwner",
          "type": "address"
        },
        {
          "indexed": true,
          "internalType": "address",
          "name": "newOwner",
          "type": "address"
        }
      ],
      "name": "OwnershipTransferred",
      "type": "event"
    },
    {
      "anonymous": false,
      "inputs": [
        {
          "indexed": true,
          "internalType": "uint256",
          "name": "_epoch",
          "type": "uint256"
        },
        {
          "indexed": false,
          "internalType": "uint256",
          "name": "_tokenId",
          "type": "uint256"
        },
        {
          "indexed": false,
          "internalType": "uint256",
          "name": "_strikePrice",
          "type": "uint256"
        },
        {
          "indexed": true,
          "internalType": "address",
          "name": "_writer",
          "type": "address"
        }
      ],
      "name": "ReStake",
      "type": "event"
    },
    {
      "anonymous": false,
      "inputs": [
        {
          "indexed": true,
          "internalType": "uint256",
          "name": "_epoch",
          "type": "uint256"
        },
        {
          "indexed": false,
          "internalType": "uint256",
          "name": "_floorPrice",
          "type": "uint256"
        }
      ],
      "name": "SetFloorPrice",
      "type": "event"
    },
    {
      "anonymous": false,
      "inputs": [
        {
          "indexed": true,
          "internalType": "uint256",
          "name": "_epoch",
          "type": "uint256"
        },
        {
          "indexed": false,
          "internalType": "uint256[]",
          "name": "_strikePrices",
          "type": "uint256[]"
        }
      ],
      "name": "SetStrikePrice",
      "type": "event"
    },
    {
      "anonymous": false,
      "inputs": [
        {
          "indexed": true,
          "internalType": "uint256",
          "name": "_epoch",
          "type": "uint256"
        },
        {
          "indexed": false,
          "internalType": "uint256",
          "name": "_tokenId",
          "type": "uint256"
        },
        {
          "indexed": false,
          "internalType": "uint256",
          "name": "_strikePrice",
          "type": "uint256"
        },
        {
          "indexed": true,
          "internalType": "address",
          "name": "_writer",
          "type": "address"
        }
      ],
      "name": "Stake",
      "type": "event"
    },
    {
      "anonymous": false,
      "inputs": [
        {
          "indexed": false,
          "internalType": "uint256",
          "name": "_tokenId",
          "type": "uint256"
        },
        {
          "indexed": false,
          "internalType": "address",
          "name": "_owner",
          "type": "address"
        }
      ],
      "name": "WithdrawNFT",
      "type": "event"
    },
    {
      "inputs": [],
      "name": "auctionManager",
      "outputs": [
        {
          "internalType": "address",
          "name": "",
          "type": "address"
        }
      ],
      "stateMutability": "view",
      "type": "function"
    },
    {
      "inputs": [
        {
          "internalType": "uint256",
          "name": "_tokenId",
          "type": "uint256"
        },
        {
          "internalType": "uint256",
          "name": "_amount",
          "type": "uint256"
        }
      ],
      "name": "bidAuction",
      "outputs": [],
      "stateMutability": "nonpayable",
      "type": "function"
    },
    {
      "inputs": [
        {
          "internalType": "uint256",
          "name": "_tokenId",
          "type": "uint256"
        }
      ],
      "name": "buyAtStrike",
      "outputs": [],
      "stateMutability": "nonpayable",
      "type": "function"
    },
    {
      "inputs": [
        {
          "internalType": "uint256",
          "name": "_strikePrice",
          "type": "uint256"
        }
      ],
      "name": "buyOption",
      "outputs": [],
      "stateMutability": "nonpayable",
      "type": "function"
    },
    {
      "inputs": [
        {
          "internalType": "uint256",
          "name": "_epoch",
          "type": "uint256"
        },
        {
          "internalType": "uint256",
          "name": "_strikePrice",
          "type": "uint256"
        }
      ],
      "name": "claimPremiums",
      "outputs": [],
      "stateMutability": "nonpayable",
      "type": "function"
    },
    {
      "inputs": [
        {
          "internalType": "uint256",
          "name": "_tokenId",
          "type": "uint256"
        }
      ],
      "name": "coverPosition",
      "outputs": [],
      "stateMutability": "nonpayable",
      "type": "function"
    },
    {
      "inputs": [
        {
          "internalType": "uint256",
          "name": "_tokenId",
          "type": "uint256"
        }
      ],
      "name": "endAuction",
      "outputs": [],
      "stateMutability": "nonpayable",
      "type": "function"
    },
    {
      "inputs": [],
      "name": "erc20",
      "outputs": [
        {
          "internalType": "address",
          "name": "",
          "type": "address"
        }
      ],
      "stateMutability": "view",
      "type": "function"
    },
    {
      "inputs": [],
      "name": "erc721",
      "outputs": [
        {
          "internalType": "address",
          "name": "",
          "type": "address"
        }
      ],
      "stateMutability": "view",
      "type": "function"
    },
    {
      "inputs": [
        {
          "internalType": "uint256",
          "name": "_epoch",
          "type": "uint256"
        },
        {
          "internalType": "uint256",
          "name": "_strikePrice",
          "type": "uint256"
        }
      ],
      "name": "getAmountLockedAt",
      "outputs": [
        {
          "internalType": "uint256",
          "name": "",
          "type": "uint256"
        }
      ],
      "stateMutability": "view",
      "type": "function"
    },
    {
      "inputs": [],
      "name": "getEpochDuration",
      "outputs": [
        {
          "internalType": "uint256",
          "name": "",
          "type": "uint256"
        }
      ],
      "stateMutability": "pure",
      "type": "function"
    },
    {
      "inputs": [],
      "name": "getEpoch_2e",
      "outputs": [
        {
          "internalType": "uint256",
          "name": "",
          "type": "uint256"
        }
      ],
      "stateMutability": "view",
      "type": "function"
    },
    {
      "inputs": [
        {
          "internalType": "uint256",
          "name": "_epoch",
          "type": "uint256"
        }
      ],
      "name": "getFloorPrice",
      "outputs": [
        {
          "internalType": "uint256",
          "name": "",
          "type": "uint256"
        }
      ],
      "stateMutability": "view",
      "type": "function"
    },
    {
      "inputs": [],
      "name": "getInterval",
      "outputs": [
        {
          "internalType": "uint256",
          "name": "",
          "type": "uint256"
        }
      ],
      "stateMutability": "pure",
      "type": "function"
    },
    {
      "inputs": [
        {
          "internalType": "uint256",
          "name": "_tokenId",
          "type": "uint256"
        }
      ],
      "name": "getOption",
      "outputs": [
        {
          "components": [
            {
              "internalType": "address",
              "name": "writer",
              "type": "address"
            },
            {
              "internalType": "address",
              "name": "buyer",
              "type": "address"
            },
            {
              "internalType": "uint256",
              "name": "sPrice",
              "type": "uint256"
            },
            {
              "internalType": "uint256",
              "name": "epoch",
              "type": "uint256"
            },
            {
              "internalType": "bool",
              "name": "covered",
              "type": "bool"
            },
            {
              "internalType": "bool",
              "name": "liquidated",
              "type": "bool"
            }
          ],
          "internalType": "struct StrikePool.Option",
          "name": "option",
          "type": "tuple"
        }
      ],
      "stateMutability": "view",
      "type": "function"
    },
    {
      "inputs": [
        {
          "internalType": "uint256",
          "name": "_epoch",
          "type": "uint256"
        },
        {
          "internalType": "uint256",
          "name": "_strikePrice",
          "type": "uint256"
        }
      ],
      "name": "getOptionAvailableAt",
      "outputs": [
        {
          "internalType": "uint256",
          "name": "",
          "type": "uint256"
        }
      ],
      "stateMutability": "view",
      "type": "function"
    },
    {
      "inputs": [
        {
          "internalType": "uint256",
          "name": "_epoch",
          "type": "uint256"
        },
        {
          "internalType": "uint256",
          "name": "_strikePrice",
          "type": "uint256"
        },
        {
          "internalType": "address",
          "name": "_add",
          "type": "address"
        }
      ],
      "name": "getSharesAtOf",
      "outputs": [
        {
          "internalType": "uint256",
          "name": "",
          "type": "uint256"
        }
      ],
      "stateMutability": "view",
      "type": "function"
    },
    {
      "inputs": [],
      "name": "hatching",
      "outputs": [
        {
          "internalType": "uint256",
          "name": "",
          "type": "uint256"
        }
      ],
      "stateMutability": "view",
      "type": "function"
    },
    {
      "inputs": [
        {
          "internalType": "uint256",
          "name": "_tokenId",
          "type": "uint256"
        }
      ],
      "name": "liquidateNFT",
      "outputs": [],
      "stateMutability": "nonpayable",
      "type": "function"
    },
    {
      "inputs": [],
      "name": "liquidationInterrupted",
      "outputs": [
        {
          "internalType": "bool",
          "name": "",
          "type": "bool"
        }
      ],
      "stateMutability": "view",
      "type": "function"
    },
    {
      "inputs": [
        {
          "internalType": "address",
          "name": "",
          "type": "address"
        },
        {
          "internalType": "address",
          "name": "",
          "type": "address"
        },
        {
          "internalType": "uint256",
          "name": "",
          "type": "uint256"
        },
        {
          "internalType": "bytes",
          "name": "",
          "type": "bytes"
        }
      ],
      "name": "onERC721Received",
      "outputs": [
        {
          "internalType": "bytes4",
          "name": "",
          "type": "bytes4"
        }
      ],
      "stateMutability": "nonpayable",
      "type": "function"
    },
    {
      "inputs": [],
      "name": "owner",
      "outputs": [
        {
          "internalType": "address",
          "name": "",
          "type": "address"
        }
      ],
      "stateMutability": "view",
      "type": "function"
    },
    {
      "inputs": [],
      "name": "renounceOwnership",
      "outputs": [],
      "stateMutability": "nonpayable",
      "type": "function"
    },
    {
      "inputs": [
        {
          "internalType": "uint256",
          "name": "_tokenId",
          "type": "uint256"
        },
        {
          "internalType": "uint256",
          "name": "_strikePrice",
          "type": "uint256"
        }
      ],
      "name": "restake",
      "outputs": [],
      "stateMutability": "nonpayable",
      "type": "function"
    },
    {
      "inputs": [
        {
          "internalType": "address",
          "name": "_auctionManager",
          "type": "address"
        }
      ],
      "name": "setAuctionManager",
      "outputs": [],
      "stateMutability": "nonpayable",
      "type": "function"
    },
    {
      "inputs": [
        {
          "internalType": "bool",
          "name": "_liquidationInterrupted",
          "type": "bool"
        }
      ],
      "name": "setLiquidationInterrupted",
      "outputs": [],
      "stateMutability": "nonpayable",
      "type": "function"
    },
    {
      "inputs": [
        {
          "internalType": "uint256",
          "name": "_epoch",
          "type": "uint256"
        },
        {
          "internalType": "uint256[]",
          "name": "_strikePrices",
          "type": "uint256[]"
        }
      ],
      "name": "setStrikePriceAt",
      "outputs": [],
      "stateMutability": "nonpayable",
      "type": "function"
    },
    {
      "inputs": [
        {
          "internalType": "uint256",
          "name": "_epoch",
          "type": "uint256"
        },
        {
          "internalType": "uint256",
          "name": "_floorPrice",
          "type": "uint256"
        }
      ],
      "name": "setfloorpriceAt",
      "outputs": [],
      "stateMutability": "nonpayable",
      "type": "function"
    },
    {
      "inputs": [
        {
          "internalType": "uint256",
          "name": "_tokenId",
          "type": "uint256"
        },
        {
          "internalType": "uint256",
          "name": "_strikePrice",
          "type": "uint256"
        }
      ],
      "name": "stake",
      "outputs": [],
      "stateMutability": "nonpayable",
      "type": "function"
    },
    {
      "inputs": [],
      "name": "strikeController",
      "outputs": [
        {
          "internalType": "address",
          "name": "",
          "type": "address"
        }
      ],
      "stateMutability": "view",
      "type": "function"
    },
    {
      "inputs": [
        {
          "internalType": "address",
          "name": "newOwner",
          "type": "address"
        }
      ],
      "name": "transferOwnership",
      "outputs": [],
      "stateMutability": "nonpayable",
      "type": "function"
    },
    {
      "inputs": [
        {
          "internalType": "uint256",
          "name": "_tokenId",
          "type": "uint256"
        }
      ],
      "name": "withdrawNFT",
      "outputs": [],
      "stateMutability": "nonpayable",
      "type": "function"
    }
  ],
  "bytecode": {
    "object": "0x60c06040526005805460ff60a01b19169055621275006080526201518060a0523480156200002c57600080fd5b5060405162002ad038038062002ad08339810160408190526200004f9162000177565b6200005a336200010a565b600180805542600655600280546001600160a01b038681166001600160a01b0319928316811790935560038054878316908416179055600480548316331781556005805492871692909316821790925560405163a22cb46560e01b81529182015260248101929092529063a22cb46590604401600060405180830381600087803b158015620000e857600080fd5b505af1158015620000fd573d6000803e3d6000fd5b50505050505050620001c1565b600080546001600160a01b038381166001600160a01b0319831681178455604051919092169283917f8be0079c531659141344cd1fd0a4f28419497f9722a3daafe3b4186f6b6457e09190a35050565b80516001600160a01b03811681146200017257600080fd5b919050565b6000806000606084860312156200018d57600080fd5b62000198846200015a565b9250620001a8602085016200015a565b9150620001b8604085016200015a565b90509250925092565b60805160a0516128956200023b600039600081816104f3015281816108ae01528181610a4e01528181611335015281816118950152611ca401526000818161040001528181610602015281816108d601528181610a760152818161135d015281816118b601528181611ccc0152611ec901526128956000f3fe608060405234801561001057600080fd5b50600436106101ee5760003560e01c80638992bc771161010f578063b8e7023d116100a2578063bce4771611610071578063bce47716146105bc578063f2fde38b146105c5578063f95dc232146105d8578063fba225b9146105eb57600080fd5b8063b8e7023d14610570578063b9a2de3a14610583578063ba4ec52a14610596578063bca6ce64146105a957600080fd5b806395e4cacb116100de57806395e4cacb14610517578063b0192f9a1461052a578063b1b3dd3a1461053d578063b2d4cf181461055057600080fd5b80638992bc77146104a25780638da5cb5b146104b5578063910294ca146104c657806391ad27b4146104f157600080fd5b806345be869411610187578063715018a611610156578063715018a6146104615780637587b4df14610469578063785e9e861461047c5780637b0472f01461048f57600080fd5b806345be8694146103af57806346953c47146103da5780635d3ea8f1146103fe5780635e7c3f9a1461042457600080fd5b806309b4a81c116101c357806309b4a81c14610249578063150b7a021461025c5780631ce5e9a6146102935780632398fdcf1461039c57600080fd5b8061ae4a146101f3578063023245d71461020e57806304ed8ef714610223578063086e0f0914610236575b600080fd5b6101fb6105fe565b6040519081526020015b60405180910390f35b61022161021c3660046123ce565b61063e565b005b6102216102313660046123e7565b6108a9565b6101fb6102443660046123e7565b61097a565b6102216102573660046123ce565b6109ba565b61027a61026a366004612465565b630a85bd0160e11b949350505050565b6040516001600160e01b03199091168152602001610205565b6103436102a13660046123ce565b6040805160c081018252600080825260208201819052918101829052606081018290526080810182905260a0810191909152506000908152600d6020908152604091829020825160c08101845281546001600160a01b039081168252600183015416928101929092526002810154928201929092526003820154606082015260049091015460ff8082161515608084015261010090910416151560a082015290565b604051610205919081516001600160a01b03908116825260208084015190911690820152604080830151908201526060808301519082015260808083015115159082015260a09182015115159181019190915260c00190565b6102216103aa3660046123ce565b610d89565b6004546103c2906001600160a01b031681565b6040516001600160a01b039091168152602001610205565b6005546103ee90600160a01b900460ff1681565b6040519015158152602001610205565b7f00000000000000000000000000000000000000000000000000000000000000006101fb565b6101fb610432366004612529565b6000928352600c602090815260408085209385529281528284206001600160a01b039290921684525290205490565b610221610fe3565b6102216104773660046123e7565b610ff7565b6003546103c2906001600160a01b031681565b61022161049d3660046123e7565b61103f565b6102216104b03660046123e7565b6111be565b6000546001600160a01b03166103c2565b6101fb6104d43660046123e7565b6000918252600a6020908152604080842092845291905290205490565b7f00000000000000000000000000000000000000000000000000000000000000006101fb565b610221610525366004612562565b611259565b6005546103c2906001600160a01b031681565b61022161054b366004612594565b611283565b6101fb61055e3660046123ce565b60009081526009602052604090205490565b61022161057e3660046123e7565b6112a9565b6102216105913660046123ce565b611639565b6102216105a43660046125b1565b6116eb565b6002546103c2906001600160a01b031681565b6101fb60065481565b6102216105d3366004612562565b611793565b6102216105e63660046123ce565b61180c565b6102216105f93660046123ce565b611bd6565b60007f00000000000000000000000000000000000000000000000000000000000000006006544261062f9190612679565b610639919061268c565b905090565b6000818152600d6020908152604091829020825160c08101845281546001600160a01b0390811682526001830154169281019290925260028101549282019290925260038201546060820181905260049092015460ff8082161515608084015261010090910416151560a0820152906106b56105fe565b116106fc5760405162461bcd60e51b8152602060048201526012602482015271115c1bd8da081b9bdd08199a5b9a5cda195960721b60448201526064015b60405180910390fd5b80516001600160a01b0316331461074d5760405162461bcd60e51b81526020600482015260156024820152742cb7ba9030b932903737ba103a34329037bbb732b960591b60448201526064016106f3565b606081015160009081526009602052604090205461077d5760405162461bcd60e51b81526004016106f3906126ae565b60408082015160608301516000908152600960205291909120541115806107a5575080608001515b806107bb575060208101516001600160a01b0316155b6107fd5760405162461bcd60e51b815260206004820152601360248201527221b7bb32b9103cb7bab9103837b9b4ba34b7b760691b60448201526064016106f3565b60608101516000908152600c6020908152604080832081850151845282528083203384529091529020541561083f5761083f81606001518260400151336121db565b600254604051632142170760e11b81526001600160a01b03909116906342842e0e90610873903090339087906004016126f4565b600060405180830381600087803b15801561088d57600080fd5b505af11580156108a1573d6000803e3d6000fd5b505050505050565b6108d47f00000000000000000000000000000000000000000000000000000000000000006002612718565b7f0000000000000000000000000000000000000000000000000000000000000000610900846001612737565b61090a9190612718565b6006546109179190612737565b6109219190612679565b421161096b5760405162461bcd60e51b815260206004820152601960248201527813dc1d1a5bdb88191a591b89dd08195e1c1a5c9959081e595d603a1b60448201526064016106f3565b6109768282336121db565b5050565b6000828152600b60209081526040808320848452825280832054858452600a83528184208585529092528220546109b19190612679565b90505b92915050565b6000818152600d60209081526040808320815160c08101835281546001600160a01b0390811682526001830154168185015260028201548184015260038201546060820181905260049092015460ff8082161515608084015261010090910416151560a0820152908452600990925290912054610a495760405162461bcd60e51b81526004016106f3906126ae565b610a747f00000000000000000000000000000000000000000000000000000000000000006002612718565b7f000000000000000000000000000000000000000000000000000000000000000082606001516001610aa69190612737565b610ab09190612718565b610aba9190612679565b600654610ac79042612679565b11610b0d5760405162461bcd60e51b815260206004820152601660248201527513dc1d1a5bdb881a185cc81b9bdd08195e1c1a5c995960521b60448201526064016106f3565b604080820151606083015160009081526009602052919091205411610b6f5760405162461bcd60e51b81526020600482015260186024820152774f7074696f6e206578706972656420776f7274686c65737360401b60448201526064016106f3565b60a08101511515600103610bc15760405162461bcd60e51b815260206004820152601960248201527813dc1d1a5bdb88185b1c9958591e481b1a5c5d5a59185d1959603a1b60448201526064016106f3565b60208101516001600160a01b0316610c1b5760405162461bcd60e51b815260206004820152601b60248201527f4f7074696f6e2068617665206e6f74206265656e20626f75676874000000000060448201526064016106f3565b806080015115610c665760405162461bcd60e51b815260206004820152601660248201527513dc1d1a5bdb88185b1c9958591e4818dbdd995c995960521b60448201526064016106f3565b60408082015160608301516000908152600960205291822054610c899190612679565b60035460208401516040516323b872dd60e01b81529293506001600160a01b03909116916323b872dd91610cc49133919086906004016126f4565b6020604051808303816000875af1158015610ce3573d6000803e3d6000fd5b505050506040513d601f19601f82011682018060405250810190610d07919061274a565b610d1057600080fd5b6000838152600d6020908152604091829020600401805460ff191660011790556060848101518583015184518881529384018690526001600160a01b0316938301939093523392917fcdf3d0954b60bcea25eab319eef284cb7bb68b899111767c1e929a55efba9b6291015b60405180910390a3505050565b6000818152600d6020908152604091829020825160c08101845281546001600160a01b039081168252600183015416928101839052600282015493810193909352600381015460608401526004015460ff8082161515608085015261010090910416151560a08301523314610e405760405162461bcd60e51b815260206004820152601960248201527f596f7520646f6e2774206f776e2074686973206f7074696f6e0000000000000060448201526064016106f3565b8060600151610e4d6105fe565b11610e8f5760405162461bcd60e51b8152602060048201526012602482015271115c1bd8da081b9bdd08199a5b9a5cda195960721b60448201526064016106f3565b806080015115610ed45760405162461bcd60e51b815260206004820152601060248201526f141bdcda5d1a5bdb8818dbdd995c995960821b60448201526064016106f3565b600354815160408084015190516323b872dd60e01b81526001600160a01b03909316926323b872dd92610f0b9233926004016126f4565b6020604051808303816000875af1158015610f2a573d6000803e3d6000fd5b505050506040513d601f19601f82011682018060405250810190610f4e919061274a565b610f915760405162461bcd60e51b8152602060048201526014602482015273506c656173652073657420616c6c6f77616e636560601b60448201526064016106f3565b8060a001511561083f5760405162461bcd60e51b815260206004820152601960248201527f6f7074696f6e20616c7265616479206c6971756964617465640000000000000060448201526064016106f3565b610feb6122cb565b610ff56000612325565b565b60055460025460405163a7ff3b2360e01b81526001600160a01b039182166004820152602481018590526044810184905233606482015291169063a7ff3b2390608401610873565b60006110496105fe565b611054906001612737565b600081815260076020908152604080832086845290915290205490915060ff166110905760405162461bcd60e51b81526004016106f390612767565b600254604051632142170760e11b81526001600160a01b03909116906342842e0e906110c4903390309088906004016126f4565b600060405180830381600087803b1580156110de57600080fd5b505af11580156110f2573d6000803e3d6000fd5b5050506000848152600d60209081526040808320600281018790558054336001600160a01b0319918216811783556003830188905560019283018054909216909155868552600a84528285208886528452828520805492830181558552838520909101889055858452600c835281842087855283528184209084529091528120805490925061118090612792565b909155506040805184815260208101849052339183917f12852e9691a3b4a507fdb1c3478087805e515ec2d7da612d9deb1b9010c1eca49101610d7c565b6111c66122cb565b600081116112085760405162461bcd60e51b815260206004820152600f60248201526e0466c6f6f72207072696365203c203608c1b60448201526064016106f3565b600082815260096020526040908190208290555182907fd0c77e56cd2323339048d90b422e11cdef714664667e099ece9c2cf153a2d3979061124d9084815260200190565b60405180910390a25050565b6112616122cb565b600580546001600160a01b0319166001600160a01b0392909216919091179055565b61128b6122cb565b60058054911515600160a01b0260ff60a01b19909216919091179055565b6112b1612375565b6000828152600d60209081526040808320815160c08101835281546001600160a01b03908116825260018301541693810193909352600281015491830191909152600381015460608301526004015460ff8082161515608084015261010090910416151560a0820152906113236105fe565b61132e906001612737565b905061135b7f00000000000000000000000000000000000000000000000000000000000000006002612718565b7f00000000000000000000000000000000000000000000000000000000000000008360600151600161138d9190612737565b6113979190612718565b6006546113a49190612737565b6113ae9190612679565b42116113f55760405162461bcd60e51b815260206004820152601660248201527513dc1d1a5bdb881a185cc81b9bdd08195e1c1a5c995960521b60448201526064016106f3565b81516001600160a01b031633146114465760405162461bcd60e51b81526020600482015260156024820152742cb7ba9030b932903737ba103a34329037bbb732b960591b60448201526064016106f3565b60608201516000908152600960205260409020546114765760405162461bcd60e51b81526004016106f3906126ae565b604080830151606084015160009081526009602052919091205411158061149e575081608001515b806114b4575060208201516001600160a01b0316155b6114f65760405162461bcd60e51b815260206004820152601360248201527221b7bb32b9103cb7bab9103837b9b4ba34b7b760691b60448201526064016106f3565b600081815260076020908152604080832086845290915290205460ff1661152f5760405162461bcd60e51b81526004016106f390612767565b6000848152600d602090815260408083206003810185905560028101879055600190810180546001600160a01b0319169055848452600a8352818420878552835281842080549182018155845282842001879055838352600c82528083208684528252808320338452909152812080549091906115ab90612792565b9091555060608201516000908152600c602090815260408083208186015184528252808320338452909152902054156115f1576115f182606001518360400151336121db565b6040805185815260208101859052339183917fc5cf73bbf9412234d340e19996e27e6404eca00fe162d78240d124dff861876a910160405180910390a3505061097660018055565b6005546002546040516315170a1760e21b81526001600160a01b039283169263545c285c9261167192911690309086906004016126f4565b6020604051808303816000875af1158015611690573d6000803e3d6000fd5b505050506040513d601f19601f820116820180604052508101906116b4919061274a565b6116bd57600080fd5b6000908152600d6020526040902060048101805461ffff1916600117905580546001600160a01b0319169055565b6116f36122cb565b60005b81518114611762576000838152600760205260408120835160019290859085908110611724576117246127ab565b6020026020010151815260200190815260200160002060006101000a81548160ff0219169083151502179055508061175b90612792565b90506116f6565b50817f8b9dd3ac74d0614c084d8047cb199d3f08e72903980760ba021d7719e364014e8260405161124d91906127c1565b61179b6122cb565b6001600160a01b0381166118005760405162461bcd60e51b815260206004820152602660248201527f4f776e61626c653a206e6577206f776e657220697320746865207a65726f206160448201526564647265737360d01b60648201526084016106f3565b61180981612325565b50565b6000818152600d6020908152604091829020825160c08101845281546001600160a01b0390811682526001830154169281019290925260028101549282019290925260038201546060820181905260049092015460ff808216151560808401526101009091048116151560a0830152600554919291600160a01b9004161561189357600080fd5b7f00000000000000000000000000000000000000000000000000000000000000007f0000000000000000000000000000000000000000000000000000000000000000836060015160016118e69190612737565b6118f09190612718565b6118fa9190612737565b6006546119079042612679565b116119545760405162461bcd60e51b815260206004820181905260248201527f4c69717569646174696f6e20706572696f642069736e2774207265616368656460448201526064016106f3565b60008181526009602052604090205461197f5760405162461bcd60e51b81526004016106f3906126ae565b604080830151600083815260096020529190912054116119dc5760405162461bcd60e51b81526020600482015260186024820152774f7074696f6e206578706972656420776f7274686c65737360401b60448201526064016106f3565b816080015115611a215760405162461bcd60e51b815260206004820152601060248201526f141bdcda5d1a5bdb8818dbdd995c995960821b60448201526064016106f3565b60a08201511515600103611a735760405162461bcd60e51b815260206004820152601960248201527813dc1d1a5bdb88185b1c9958591e481b1a5c5d5a59185d1959603a1b60448201526064016106f3565b6000838152600d6020908152604080832060048101805461ff00191661010017905580546001600160a01b0319169055848101518484526009909252822054611abc9190612679565b6005546002546000858152600960209081526040918290205488519189015192516355a0e22960e01b81526001600160a01b039485166004820152602481018b905260448101919091529083166064820152908216608482015260a4810184905292935016906355a0e2299060c401600060405180830381600087803b158015611b4557600080fd5b505af1158015611b59573d6000803e3d6000fd5b5050506000838152600960209081526040918290205486519187015192518894507f2e89d436d71507ecb25e79045c0f361b1f3410fb872d034e7b79bb1c245ce65893611bc8939187909384526001600160a01b03928316602085015291166040830152606082015260800190565b60405180910390a250505050565b611bde612375565b6000611be86105fe565b600081815260076020908152604080832086845290915290205490915060ff16611c245760405162461bcd60e51b81526004016106f390612767565b6000818152600a60209081526040808320858452825280832054848452600b83528184208685529092529091205410611c9f5760405162461bcd60e51b815260206004820152601c60248201527f416c6c206f7074696f6e732068617665206265656e20626f756768740000000060448201526064016106f3565b611cca7f00000000000000000000000000000000000000000000000000000000000000006002612718565b7f0000000000000000000000000000000000000000000000000000000000000000611cf6836001612737565b611d009190612718565b600654611d0d9190612737565b611d179190612679565b4210611d615760405162461bcd60e51b815260206004820152601960248201527813dc1d1a5bdb88191a591b89dd08195e1c1a5c9959081e595d603a1b60448201526064016106f3565b60048054604080516310a692e760e01b8152905160009384936001600160a01b0316926310a692e792818301926020928290030181865afa158015611daa573d6000803e3d6000fd5b505050506040513d601f19601f82011682018060405250810190611dce9190612805565b6002546040516373be031f60e01b81526001600160a01b0391821660048201529116906373be031f906024016040805180830381865afa158015611e16573d6000803e3d6000fd5b505050506040513d601f19601f82011682018060405250810190611e3a9190612822565b915091506000600460009054906101000a90046001600160a01b03166001600160a01b031663ef32fcbc6040518163ffffffff1660e01b8152600401602060405180830381865afa158015611e93573d6000803e3d6000fd5b505050506040513d601f19601f82011682018060405250810190611eb79190612805565b6001600160a01b0316635b7b6d8860007f0000000000000000000000000000000000000000000000000000000000000000611ef3886001612737565b611efd9190612718565b600654611f0a9190612737565b6040516001600160e01b031960e085901b1681529115156004830152602482015260448101889052606481018590526084810186905260a401602060405180830381865afa158015611f60573d6000803e3d6000fd5b505050506040513d601f19601f82011682018060405250810190611f849190612846565b6003546040516323b872dd60e01b81529192506001600160a01b0316906323b872dd90611fb9903390309086906004016126f4565b6020604051808303816000875af1158015611fd8573d6000803e3d6000fd5b505050506040513d601f19601f82011682018060405250810190611ffc919061274a565b61200557600080fd5b6000848152600b60209081526040808320888452825280832054878452600a835281842089855290925282205460019161203e91612679565b6120489190612679565b6000868152600b602090815260408083208a8452909152812080549293509161207090612792565b9091555060008581526008602090815260408083208984529091528120805484929061209d908490612737565b90915550506000858152600a6020908152604080832089845290915281208054839081106120cd576120cd6127ab565b6000918252602080832090910154808352600d9091526040909120600101549091506001600160a01b0316156121515760405162461bcd60e51b815260206004820152602360248201527f54686973206f7074696f6e2068617320616c7265616479206265656e20626f7560448201526219da1d60ea1b60648201526084016106f3565b6000818152600d60209081526040918290206001810180546001600160a01b03191633908117909155905483518581529283018b90529282018690526001600160a01b03909216606082015287907f4af1c729c11ed63e83da76e187d5765dd9ed12d695a028e9134a5633bda88abe9060800160405180910390a350505050505061180960018055565b6000838152600c6020908152604080832085845282528083206001600160a01b0385168452825280832080549084905586845260088352818420868552835281842054878552600a84528285208786529093529083205490929061223f8484612718565b612249919061268c565b60035460405163a9059cbb60e01b81526001600160a01b0387811660048301526024820184905292935091169063a9059cbb906044016020604051808303816000875af115801561229e573d6000803e3d6000fd5b505050506040513d601f19601f820116820180604052508101906122c2919061274a565b50505050505050565b6000546001600160a01b03163314610ff55760405162461bcd60e51b815260206004820181905260248201527f4f776e61626c653a2063616c6c6572206973206e6f7420746865206f776e657260448201526064016106f3565b600080546001600160a01b038381166001600160a01b0319831681178455604051919092169283917f8be0079c531659141344cd1fd0a4f28419497f9722a3daafe3b4186f6b6457e09190a35050565b6002600154036123c75760405162461bcd60e51b815260206004820152601f60248201527f5265656e7472616e637947756172643a207265656e7472616e742063616c6c0060448201526064016106f3565b6002600155565b6000602082840312156123e057600080fd5b5035919050565b600080604083850312156123fa57600080fd5b50508035926020909101359150565b6001600160a01b038116811461180957600080fd5b634e487b7160e01b600052604160045260246000fd5b604051601f8201601f1916810167ffffffffffffffff8111828210171561245d5761245d61241e565b604052919050565b6000806000806080858703121561247b57600080fd5b843561248681612409565b935060208581013561249781612409565b935060408601359250606086013567ffffffffffffffff808211156124bb57600080fd5b818801915088601f8301126124cf57600080fd5b8135818111156124e1576124e161241e565b6124f3601f8201601f19168501612434565b9150808252898482850101111561250957600080fd5b808484018584013760008482840101525080935050505092959194509250565b60008060006060848603121561253e57600080fd5b8335925060208401359150604084013561255781612409565b809150509250925092565b60006020828403121561257457600080fd5b813561257f81612409565b9392505050565b801515811461180957600080fd5b6000602082840312156125a657600080fd5b813561257f81612586565b600080604083850312156125c457600080fd5b8235915060208084013567ffffffffffffffff808211156125e457600080fd5b818601915086601f8301126125f857600080fd5b81358181111561260a5761260a61241e565b8060051b915061261b848301612434565b818152918301840191848101908984111561263557600080fd5b938501935b838510156126535784358252938501939085019061263a565b8096505050505050509250929050565b634e487b7160e01b600052601160045260246000fd5b818103818111156109b4576109b4612663565b6000826126a957634e487b7160e01b600052601260045260246000fd5b500490565b60208082526026908201527f466c6f6f72207072696365206e6f7420736574746c656420666f722074686973604082015265040cae0dec6d60d31b606082015260800190565b6001600160a01b039384168152919092166020820152604081019190915260600190565b600081600019048311821515161561273257612732612663565b500290565b808201808211156109b4576109b4612663565b60006020828403121561275c57600080fd5b815161257f81612586565b60208082526011908201527057726f6e6720737472696b65507269636560781b604082015260600190565b6000600182016127a4576127a4612663565b5060010190565b634e487b7160e01b600052603260045260246000fd5b6020808252825182820181905260009190848201906040850190845b818110156127f9578351835292840192918401916001016127dd565b50909695505050505050565b60006020828403121561281757600080fd5b815161257f81612409565b6000806040838503121561283557600080fd5b505080516020909101519092909150565b60006020828403121561285857600080fd5b505191905056fea26469706673582212206795910909876b91e301fe51ecfe89d0cb94d066b6dc6741534f81ab69b24a7d64736f6c63430008100033",
    "linkReferences": {}
  },
  "methodIdentifiers": {
    "auctionManager()": "b0192f9a",
    "bidAuction(uint256,uint256)": "7587b4df",
    "buyAtStrike(uint256)": "2398fdcf",
    "buyOption(uint256)": "fba225b9",
    "claimPremiums(uint256,uint256)": "04ed8ef7",
    "coverPosition(uint256)": "09b4a81c",
    "endAuction(uint256)": "b9a2de3a",
    "erc20()": "785e9e86",
    "erc721()": "bca6ce64",
    "getAmountLockedAt(uint256,uint256)": "910294ca",
    "getEpochDuration()": "5d3ea8f1",
    "getEpoch_2e()": "0000ae4a",
    "getFloorPrice(uint256)": "b2d4cf18",
    "getInterval()": "91ad27b4",
    "getOption(uint256)": "1ce5e9a6",
    "getOptionAvailableAt(uint256,uint256)": "086e0f09",
    "getSharesAtOf(uint256,uint256,address)": "5e7c3f9a",
    "hatching()": "bce47716",
    "liquidateNFT(uint256)": "f95dc232",
    "liquidationInterrupted()": "46953c47",
    "onERC721Received(address,address,uint256,bytes)": "150b7a02",
    "owner()": "8da5cb5b",
    "renounceOwnership()": "715018a6",
    "restake(uint256,uint256)": "b8e7023d",
    "setAuctionManager(address)": "95e4cacb",
    "setLiquidationInterrupted(bool)": "b1b3dd3a",
    "setStrikePriceAt(uint256,uint256[])": "ba4ec52a",
    "setfloorpriceAt(uint256,uint256)": "8992bc77",
    "stake(uint256,uint256)": "7b0472f0",
    "strikeController()": "45be8694",
    "transferOwnership(address)": "f2fde38b",
    "withdrawNFT(uint256)": "023245d7"
  },
  "id": 38
}