{
  "abi": [
    {
      "anonymous": false,
      "inputs": [
        {
          "indexed": true,
          "internalType": "uint256",
          "name": "_epoch",
          "type": "uint256"
        },
        {
          "indexed": false,
          "internalType": "uint256",
          "name": "_tokenId",
          "type": "uint256"
        },
        {
          "indexed": false,
          "internalType": "uint256",
          "name": "_strikePrice",
          "type": "uint256"
        },
        {
          "indexed": false,
          "internalType": "uint256",
          "name": "_premium",
          "type": "uint256"
        },
        {
          "indexed": true,
          "internalType": "address",
          "name": "_buyer",
          "type": "address"
        }
      ],
      "name": "BuyOption",
      "type": "event"
    },
    {
      "anonymous": false,
      "inputs": [
        {
          "indexed": true,
          "internalType": "uint256",
          "name": "_epoch",
          "type": "uint256"
        },
        {
          "indexed": false,
          "internalType": "uint256",
          "name": "_shares",
          "type": "uint256"
        },
        {
          "indexed": false,
          "internalType": "uint256",
          "name": "_premiums",
          "type": "uint256"
        },
        {
          "indexed": true,
          "internalType": "address",
          "name": "_owner",
          "type": "address"
        }
      ],
      "name": "ClaimPremiums",
      "type": "event"
    },
    {
      "anonymous": false,
      "inputs": [
        {
          "indexed": true,
          "internalType": "uint256",
          "name": "_epoch",
          "type": "uint256"
        },
        {
          "indexed": false,
          "internalType": "uint256",
          "name": "_tokenId",
          "type": "uint256"
        },
        {
          "indexed": false,
          "internalType": "uint256",
          "name": "_debt",
          "type": "uint256"
        },
        {
          "indexed": true,
          "internalType": "address",
          "name": "_writer",
          "type": "address"
        },
        {
          "indexed": false,
          "internalType": "address",
          "name": "_buyer",
          "type": "address"
        }
      ],
      "name": "CoverPosition",
      "type": "event"
    },
    {
      "anonymous": false,
      "inputs": [
        {
          "indexed": false,
          "internalType": "uint8",
          "name": "version",
          "type": "uint8"
        }
      ],
      "name": "Initialized",
      "type": "event"
    },
    {
      "anonymous": false,
      "inputs": [
        {
          "indexed": true,
          "internalType": "uint256",
          "name": "_tokenId",
          "type": "uint256"
        },
        {
          "indexed": false,
          "internalType": "uint256",
          "name": "_firstPrice",
          "type": "uint256"
        },
        {
          "indexed": false,
          "internalType": "address",
          "name": "_writer",
          "type": "address"
        },
        {
          "indexed": false,
          "internalType": "address",
          "name": "_buyer",
          "type": "address"
        },
        {
          "indexed": false,
          "internalType": "uint256",
          "name": "_debt",
          "type": "uint256"
        }
      ],
      "name": "LiquidateNFT",
      "type": "event"
    },
    {
      "anonymous": false,
      "inputs": [
        {
          "indexed": true,
          "internalType": "uint256",
          "name": "_epoch",
          "type": "uint256"
        },
        {
          "indexed": false,
          "internalType": "uint256",
          "name": "_tokenId",
          "type": "uint256"
        },
        {
          "indexed": false,
          "internalType": "uint256",
          "name": "_strikePrice",
          "type": "uint256"
        },
        {
          "indexed": true,
          "internalType": "address",
          "name": "_writer",
          "type": "address"
        }
      ],
      "name": "ReStake",
      "type": "event"
    },
    {
      "anonymous": false,
      "inputs": [
        {
          "indexed": true,
          "internalType": "bytes32",
          "name": "role",
          "type": "bytes32"
        },
        {
          "indexed": true,
          "internalType": "bytes32",
          "name": "previousAdminRole",
          "type": "bytes32"
        },
        {
          "indexed": true,
          "internalType": "bytes32",
          "name": "newAdminRole",
          "type": "bytes32"
        }
      ],
      "name": "RoleAdminChanged",
      "type": "event"
    },
    {
      "anonymous": false,
      "inputs": [
        {
          "indexed": true,
          "internalType": "bytes32",
          "name": "role",
          "type": "bytes32"
        },
        {
          "indexed": true,
          "internalType": "address",
          "name": "account",
          "type": "address"
        },
        {
          "indexed": true,
          "internalType": "address",
          "name": "sender",
          "type": "address"
        }
      ],
      "name": "RoleGranted",
      "type": "event"
    },
    {
      "anonymous": false,
      "inputs": [
        {
          "indexed": true,
          "internalType": "bytes32",
          "name": "role",
          "type": "bytes32"
        },
        {
          "indexed": true,
          "internalType": "address",
          "name": "account",
          "type": "address"
        },
        {
          "indexed": true,
          "internalType": "address",
          "name": "sender",
          "type": "address"
        }
      ],
      "name": "RoleRevoked",
      "type": "event"
    },
    {
      "anonymous": false,
      "inputs": [
        {
          "indexed": true,
          "internalType": "uint256",
          "name": "_epoch",
          "type": "uint256"
        },
        {
          "indexed": false,
          "internalType": "uint256",
          "name": "_floorPrice",
          "type": "uint256"
        }
      ],
      "name": "SetFloorPrice",
      "type": "event"
    },
    {
      "anonymous": false,
      "inputs": [
        {
          "indexed": true,
          "internalType": "uint256",
          "name": "_epoch",
          "type": "uint256"
        },
        {
          "indexed": false,
          "internalType": "uint256[]",
          "name": "_strikePrices",
          "type": "uint256[]"
        }
      ],
      "name": "SetStrikePrice",
      "type": "event"
    },
    {
      "anonymous": false,
      "inputs": [
        {
          "indexed": true,
          "internalType": "uint256",
          "name": "_epoch",
          "type": "uint256"
        },
        {
          "indexed": false,
          "internalType": "uint256",
          "name": "_tokenId",
          "type": "uint256"
        },
        {
          "indexed": false,
          "internalType": "uint256",
          "name": "_strikePrice",
          "type": "uint256"
        },
        {
          "indexed": true,
          "internalType": "address",
          "name": "_writer",
          "type": "address"
        }
      ],
      "name": "Stake",
      "type": "event"
    },
    {
      "anonymous": false,
      "inputs": [
        {
          "indexed": false,
          "internalType": "uint256",
          "name": "_tokenId",
          "type": "uint256"
        },
        {
          "indexed": false,
          "internalType": "address",
          "name": "_owner",
          "type": "address"
        }
      ],
      "name": "WithdrawNFT",
      "type": "event"
    },
    {
      "inputs": [],
      "name": "DEFAULT_ADMIN_ROLE",
      "outputs": [
        {
          "internalType": "bytes32",
          "name": "",
          "type": "bytes32"
        }
      ],
      "stateMutability": "view",
      "type": "function"
    },
    {
      "inputs": [],
      "name": "FLOOR_PRICE_PROVIDER_ROLE",
      "outputs": [
        {
          "internalType": "bytes32",
          "name": "",
          "type": "bytes32"
        }
      ],
      "stateMutability": "view",
      "type": "function"
    },
    {
      "inputs": [],
      "name": "auctionManager",
      "outputs": [
        {
          "internalType": "address",
          "name": "",
          "type": "address"
        }
      ],
      "stateMutability": "view",
      "type": "function"
    },
    {
      "inputs": [
        {
          "internalType": "uint256",
          "name": "_tokenId",
          "type": "uint256"
        },
        {
          "internalType": "uint256",
          "name": "_amount",
          "type": "uint256"
        }
      ],
      "name": "bidAuction",
      "outputs": [],
      "stateMutability": "nonpayable",
      "type": "function"
    },
    {
      "inputs": [
        {
          "internalType": "uint256",
          "name": "_tokenId",
          "type": "uint256"
        }
      ],
      "name": "buyAtStrike",
      "outputs": [],
      "stateMutability": "nonpayable",
      "type": "function"
    },
    {
      "inputs": [
        {
          "internalType": "uint256",
          "name": "_strikePrice",
          "type": "uint256"
        },
        {
          "internalType": "uint256",
          "name": "_amount",
          "type": "uint256"
        }
      ],
      "name": "buyOptions",
      "outputs": [],
      "stateMutability": "nonpayable",
      "type": "function"
    },
    {
      "inputs": [
        {
          "internalType": "uint256",
          "name": "_epoch",
          "type": "uint256"
        },
        {
          "internalType": "uint256",
          "name": "_strikePrice",
          "type": "uint256"
        }
      ],
      "name": "claimPremiums",
      "outputs": [],
      "stateMutability": "nonpayable",
      "type": "function"
    },
    {
      "inputs": [
        {
          "internalType": "uint256",
          "name": "_tokenId",
          "type": "uint256"
        }
      ],
      "name": "coverPosition",
      "outputs": [],
      "stateMutability": "nonpayable",
      "type": "function"
    },
    {
      "inputs": [
        {
          "internalType": "uint256",
          "name": "_tokenId",
          "type": "uint256"
        }
      ],
      "name": "endAuction",
      "outputs": [],
      "stateMutability": "nonpayable",
      "type": "function"
    },
    {
      "inputs": [],
      "name": "erc20",
      "outputs": [
        {
          "internalType": "address",
          "name": "",
          "type": "address"
        }
      ],
      "stateMutability": "view",
      "type": "function"
    },
    {
      "inputs": [],
      "name": "erc721",
      "outputs": [
        {
          "internalType": "address",
          "name": "",
          "type": "address"
        }
      ],
      "stateMutability": "view",
      "type": "function"
    },
    {
      "inputs": [
        {
          "internalType": "uint256",
          "name": "_epoch",
          "type": "uint256"
        },
        {
          "internalType": "uint256",
          "name": "_strikePrice",
          "type": "uint256"
        }
      ],
      "name": "getAmountLockedAt",
      "outputs": [
        {
          "internalType": "uint256",
          "name": "",
          "type": "uint256"
        }
      ],
      "stateMutability": "view",
      "type": "function"
    },
    {
      "inputs": [],
      "name": "getEpochDuration",
      "outputs": [
        {
          "internalType": "uint256",
          "name": "",
          "type": "uint256"
        }
      ],
      "stateMutability": "pure",
      "type": "function"
    },
    {
      "inputs": [],
      "name": "getEpoch_2e",
      "outputs": [
        {
          "internalType": "uint256",
          "name": "",
          "type": "uint256"
        }
      ],
      "stateMutability": "view",
      "type": "function"
    },
    {
      "inputs": [
        {
          "internalType": "uint256",
          "name": "_epoch",
          "type": "uint256"
        }
      ],
      "name": "getFloorPrice",
      "outputs": [
        {
          "internalType": "uint256",
          "name": "",
          "type": "uint256"
        }
      ],
      "stateMutability": "view",
      "type": "function"
    },
    {
      "inputs": [],
      "name": "getInterval",
      "outputs": [
        {
          "internalType": "uint256",
          "name": "",
          "type": "uint256"
        }
      ],
      "stateMutability": "pure",
      "type": "function"
    },
    {
      "inputs": [
        {
          "internalType": "uint256",
          "name": "_tokenId",
          "type": "uint256"
        }
      ],
      "name": "getOption",
      "outputs": [
        {
          "components": [
            {
              "internalType": "address",
              "name": "writer",
              "type": "address"
            },
            {
              "internalType": "address",
              "name": "buyer",
              "type": "address"
            },
            {
              "internalType": "uint256",
              "name": "sPrice",
              "type": "uint256"
            },
            {
              "internalType": "uint256",
              "name": "epoch",
              "type": "uint256"
            },
            {
              "internalType": "bool",
              "name": "covered",
              "type": "bool"
            },
            {
              "internalType": "bool",
              "name": "liquidated",
              "type": "bool"
            }
          ],
          "internalType": "struct StrikePool.Option",
          "name": "option",
          "type": "tuple"
        }
      ],
      "stateMutability": "view",
      "type": "function"
    },
    {
      "inputs": [
        {
          "internalType": "uint256",
          "name": "_epoch",
          "type": "uint256"
        },
        {
          "internalType": "uint256",
          "name": "_strikePrice",
          "type": "uint256"
        }
      ],
      "name": "getOptionAvailableAt",
      "outputs": [
        {
          "internalType": "uint256",
          "name": "",
          "type": "uint256"
        }
      ],
      "stateMutability": "view",
      "type": "function"
    },
    {
      "inputs": [
        {
          "internalType": "bytes32",
          "name": "role",
          "type": "bytes32"
        }
      ],
      "name": "getRoleAdmin",
      "outputs": [
        {
          "internalType": "bytes32",
          "name": "",
          "type": "bytes32"
        }
      ],
      "stateMutability": "view",
      "type": "function"
    },
    {
      "inputs": [
        {
          "internalType": "uint256",
          "name": "_epoch",
          "type": "uint256"
        },
        {
          "internalType": "uint256",
          "name": "_strikePrice",
          "type": "uint256"
        },
        {
          "internalType": "address",
          "name": "_add",
          "type": "address"
        }
      ],
      "name": "getSharesAtOf",
      "outputs": [
        {
          "internalType": "uint256",
          "name": "",
          "type": "uint256"
        }
      ],
      "stateMutability": "view",
      "type": "function"
    },
    {
      "inputs": [
        {
          "internalType": "bytes32",
          "name": "role",
          "type": "bytes32"
        },
        {
          "internalType": "address",
          "name": "account",
          "type": "address"
        }
      ],
      "name": "grantRole",
      "outputs": [],
      "stateMutability": "nonpayable",
      "type": "function"
    },
    {
      "inputs": [
        {
          "internalType": "bytes32",
          "name": "role",
          "type": "bytes32"
        },
        {
          "internalType": "address",
          "name": "account",
          "type": "address"
        }
      ],
      "name": "hasRole",
      "outputs": [
        {
          "internalType": "bool",
          "name": "",
          "type": "bool"
        }
      ],
      "stateMutability": "view",
      "type": "function"
    },
    {
      "inputs": [],
      "name": "hatching",
      "outputs": [
        {
          "internalType": "uint256",
          "name": "",
          "type": "uint256"
        }
      ],
      "stateMutability": "view",
      "type": "function"
    },
    {
      "inputs": [
        {
          "internalType": "address",
          "name": "_erc721",
          "type": "address"
        },
        {
          "internalType": "address",
          "name": "_erc20",
          "type": "address"
        },
        {
          "internalType": "address",
          "name": "_auctionManager",
          "type": "address"
        },
        {
          "internalType": "address",
          "name": "_optionPricing",
          "type": "address"
        },
        {
          "internalType": "address",
          "name": "_volatilityOracle",
          "type": "address"
        },
        {
          "internalType": "address",
          "name": "_admin",
          "type": "address"
        }
      ],
      "name": "initialize",
      "outputs": [],
      "stateMutability": "nonpayable",
      "type": "function"
    },
    {
      "inputs": [
        {
          "internalType": "uint256",
          "name": "_tokenId",
          "type": "uint256"
        }
      ],
      "name": "liquidateNFT",
      "outputs": [],
      "stateMutability": "nonpayable",
      "type": "function"
    },
    {
      "inputs": [],
      "name": "liquidationInterrupted",
      "outputs": [
        {
          "internalType": "bool",
          "name": "",
          "type": "bool"
        }
      ],
      "stateMutability": "view",
      "type": "function"
    },
    {
      "inputs": [
        {
          "internalType": "address",
          "name": "",
          "type": "address"
        },
        {
          "internalType": "address",
          "name": "",
          "type": "address"
        },
        {
          "internalType": "uint256",
          "name": "",
          "type": "uint256"
        },
        {
          "internalType": "bytes",
          "name": "",
          "type": "bytes"
        }
      ],
      "name": "onERC721Received",
      "outputs": [
        {
          "internalType": "bytes4",
          "name": "",
          "type": "bytes4"
        }
      ],
      "stateMutability": "nonpayable",
      "type": "function"
    },
    {
      "inputs": [],
      "name": "optionPricing",
      "outputs": [
        {
          "internalType": "address",
          "name": "",
          "type": "address"
        }
      ],
      "stateMutability": "view",
      "type": "function"
    },
    {
      "inputs": [
        {
          "internalType": "bytes32",
          "name": "role",
          "type": "bytes32"
        },
        {
          "internalType": "address",
          "name": "account",
          "type": "address"
        }
      ],
      "name": "renounceRole",
      "outputs": [],
      "stateMutability": "nonpayable",
      "type": "function"
    },
    {
      "inputs": [
        {
          "internalType": "uint256",
          "name": "_tokenId",
          "type": "uint256"
        },
        {
          "internalType": "uint256",
          "name": "_strikePrice",
          "type": "uint256"
        }
      ],
      "name": "restakeNFTs",
      "outputs": [],
      "stateMutability": "nonpayable",
      "type": "function"
    },
    {
      "inputs": [
        {
          "internalType": "uint256[]",
          "name": "_tokenIds",
          "type": "uint256[]"
        },
        {
          "internalType": "uint256",
          "name": "_strikePrice",
          "type": "uint256"
        }
      ],
      "name": "restakeNFTs",
      "outputs": [],
      "stateMutability": "nonpayable",
      "type": "function"
    },
    {
      "inputs": [
        {
          "internalType": "bytes32",
          "name": "role",
          "type": "bytes32"
        },
        {
          "internalType": "address",
          "name": "account",
          "type": "address"
        }
      ],
      "name": "revokeRole",
      "outputs": [],
      "stateMutability": "nonpayable",
      "type": "function"
    },
    {
      "inputs": [
        {
          "internalType": "address",
          "name": "_auctionManager",
          "type": "address"
        }
      ],
      "name": "setAuctionManager",
      "outputs": [],
      "stateMutability": "nonpayable",
      "type": "function"
    },
    {
      "inputs": [
        {
          "internalType": "uint256",
          "name": "_epoch",
          "type": "uint256"
        },
        {
          "internalType": "uint256",
          "name": "_floorPrice",
          "type": "uint256"
        }
      ],
      "name": "setFloorPriceAt",
      "outputs": [],
      "stateMutability": "nonpayable",
      "type": "function"
    },
    {
      "inputs": [
        {
          "internalType": "address",
          "name": "_provider",
          "type": "address"
        }
      ],
      "name": "setFloorPriceProvider",
      "outputs": [],
      "stateMutability": "nonpayable",
      "type": "function"
    },
    {
      "inputs": [
        {
          "internalType": "bool",
          "name": "_liquidationInterrupted",
          "type": "bool"
        }
      ],
      "name": "setLiquidationInterrupted",
      "outputs": [],
      "stateMutability": "nonpayable",
      "type": "function"
    },
    {
      "inputs": [
        {
          "internalType": "address",
          "name": "_optionPricing",
          "type": "address"
        }
      ],
      "name": "setOptionPricing",
      "outputs": [],
      "stateMutability": "nonpayable",
      "type": "function"
    },
    {
      "inputs": [
        {
          "internalType": "uint256",
          "name": "_epoch",
          "type": "uint256"
        },
        {
          "internalType": "uint256[]",
          "name": "_strikePrices",
          "type": "uint256[]"
        }
      ],
      "name": "setStrikePriceAt",
      "outputs": [],
      "stateMutability": "nonpayable",
      "type": "function"
    },
    {
      "inputs": [
        {
          "internalType": "address",
          "name": "_volatilityOracle",
          "type": "address"
        }
      ],
      "name": "setVolatilityOracle",
      "outputs": [],
      "stateMutability": "nonpayable",
      "type": "function"
    },
    {
      "inputs": [
        {
          "internalType": "uint256[]",
          "name": "_tokenIds",
          "type": "uint256[]"
        },
        {
          "internalType": "uint256",
          "name": "_strikePrice",
          "type": "uint256"
        }
      ],
      "name": "stakeNFTs",
      "outputs": [],
      "stateMutability": "nonpayable",
      "type": "function"
    },
    {
      "inputs": [
        {
          "internalType": "uint256",
          "name": "_tokenId",
          "type": "uint256"
        },
        {
          "internalType": "uint256",
          "name": "_strikePrice",
          "type": "uint256"
        }
      ],
      "name": "stakeNFTs",
      "outputs": [],
      "stateMutability": "nonpayable",
      "type": "function"
    },
    {
      "inputs": [],
      "name": "strikeController",
      "outputs": [
        {
          "internalType": "address",
          "name": "",
          "type": "address"
        }
      ],
      "stateMutability": "view",
      "type": "function"
    },
    {
      "inputs": [
        {
          "internalType": "bytes4",
          "name": "interfaceId",
          "type": "bytes4"
        }
      ],
      "name": "supportsInterface",
      "outputs": [
        {
          "internalType": "bool",
          "name": "",
          "type": "bool"
        }
      ],
      "stateMutability": "view",
      "type": "function"
    },
    {
      "inputs": [],
      "name": "volatilityOracle",
      "outputs": [
        {
          "internalType": "address",
          "name": "",
          "type": "address"
        }
      ],
      "stateMutability": "view",
      "type": "function"
    },
    {
      "inputs": [
        {
          "internalType": "uint256",
          "name": "_tokenId",
          "type": "uint256"
        }
      ],
      "name": "withdrawNFT",
      "outputs": [],
      "stateMutability": "nonpayable",
      "type": "function"
    }
  ],
  "bytecode": {
    "object": "0x60c0604052621275006080526201518060a05234801561001e57600080fd5b5060805160a0516138376100986000396000818161063e01528181610ab401528181610c38015281816115d60152818161240f0152612ab0015260008181610573015281816107a301528181610adc01528181610c5f015281816115fe015281816117b3015281816124300152612ad701526138376000f3fe608060405234801561001057600080fd5b506004361061027d5760003560e01c80635e7c3f9a1161015c578063b0192f9a116100ce578063bce4771611610087578063bce4771614610736578063cc2a9a5b14610740578063d547741f14610753578063f0ceb30814610766578063f6a76a8114610779578063f95dc2321461078c57600080fd5b8063b0192f9a146106b6578063b1b3dd3a146106c9578063b2d4cf18146106dc578063b9a2de3a146106fd578063ba4ec52a14610710578063bca6ce641461072357600080fd5b806391ad27b41161012057806391ad27b41461063c57806391d148541461066257806395e4cacb146106755780639badb968146106885780639c78a5261461069b578063a217fddf146106ae57600080fd5b80635e7c3f9a14610597578063707c4ac2146105d55780637587b4df146105ea578063785e9e86146105fd578063910294ca1461061057600080fd5b80632f2ff15d116101f557806340dcf8ef116101b957806340dcf8ef1461050f57806345be86941461052257806346953c471461053557806355b13a4f1461054a57806357db99cd1461055e5780635d3ea8f11461057157600080fd5b80632f2ff15d146104b05780632fd2fa32146104c357806332f2a017146104d657806336568abe146104e95780634038e44e146104fc57600080fd5b806309b4a81c1161024757806309b4a81c146102fb578063150b7a021461030e5780631ce5e9a6146103455780631e3394fb1461044f5780632398fdcf1461047a578063248a9ca31461048d57600080fd5b8061ae4a1461028257806301ffc9a71461029d578063023245d7146102c057806304ed8ef7146102d5578063086e0f09146102e8575b600080fd5b61028a61079f565b6040519081526020015b60405180910390f35b6102b06102ab36600461302d565b6107e0565b6040519015158152602001610294565b6102d36102ce366004613057565b610817565b005b6102d36102e3366004613070565b610aaf565b61028a6102f6366004613070565b610b85565b6102d3610309366004613057565b610bc5565b61032c61031c3660046130f5565b630a85bd0160e11b949350505050565b6040516001600160e01b03199091168152602001610294565b6103f6610353366004613057565b6040805160c081018252600080825260208201819052918101829052606081018290526080810182905260a08101919091525060009081526101086020908152604091829020825160c08101845281546001600160a01b039081168252600183015416928101929092526002810154928201929092526003820154606082015260049091015460ff8082161515608084015261010090910416151560a082015290565b604051610294919081516001600160a01b03908116825260208084015190911690820152604080830151908201526060808301519082015260808083015115159082015260a09182015115159181019190915260c00190565b60ff54610462906001600160a01b031681565b6040516001600160a01b039091168152602001610294565b6102d3610488366004613057565b610fa7565b61028a61049b366004613057565b600090815260c9602052604090206001015490565b6102d36104be3660046131b5565b61124b565b6102d36104d1366004613261565b611275565b6102d36104e4366004613070565b611349565b6102d36104f73660046131b5565b6113ed565b6102d361050a366004613070565b611467565b6102d361051d3660046132a6565b611540565b60fd54610462906001600160a01b031681565b610100546102b090600160a01b900460ff1681565b61010054610462906001600160a01b031681565b6102d361056c366004613070565b611582565b7f000000000000000000000000000000000000000000000000000000000000000061028a565b61028a6105a53660046132c1565b6000928352610107602090815260408085209385529281528284206001600160a01b039290921684525290205490565b61028a6000805160206137e283398151915281565b6102d36105f8366004613070565b611a8d565b60fc54610462906001600160a01b031681565b61028a61061e366004613070565b60009182526101056020908152604080842092845291905290205490565b7f000000000000000000000000000000000000000000000000000000000000000061028a565b6102b06106703660046131b5565b611ad5565b6102d36106833660046132a6565b611b00565b6102d36106963660046132f6565b611b49565b6102d36106a93660046132a6565b611c27565b61028a600081565b60fe54610462906001600160a01b031681565b6102d36106d736600461337f565b611c71565b61028a6106ea366004613057565b6000908152610104602052604090205490565b6102d361070b366004613057565b611cb7565b6102d361071e36600461339c565b611d6a565b60fb54610462906001600160a01b031681565b61028a6101015481565b6102d361074e3660046133e3565b611e50565b6102d36107613660046131b5565b61224b565b6102d3610774366004613070565b612270565b6102d36107873660046132a6565b61233c565b6102d361079a366004613057565b612385565b60007f000000000000000000000000000000000000000000000000000000000000000061010154426107d1919061346d565b6107db9190613480565b905090565b60006001600160e01b03198216637965db0b60e01b148061081157506301ffc9a760e01b6001600160e01b03198316145b92915050565b60008181526101086020908152604091829020825160c08101845281546001600160a01b0390811682526001830154169281019290925260028101549282019290925260038201546060820181905260049092015460ff8082161515608084015261010090910416151560a08201529061088f61079f565b116108d65760405162461bcd60e51b8152602060048201526012602482015271115c1bd8da081b9bdd08199a5b9a5cda195960721b60448201526064015b60405180910390fd5b6060810151600090815261010460205260409020546109075760405162461bcd60e51b81526004016108cd906134a2565b80516001600160a01b031633146109585760405162461bcd60e51b81526020600482015260156024820152742cb7ba9030b932903737ba103a34329037bbb732b960591b60448201526064016108cd565b604080820151606083015160009081526101046020529190912054111580610981575080608001515b80610997575060208101516001600160a01b0316155b6109d95760405162461bcd60e51b815260206004820152601360248201527221b7bb32b9103cb7bab9103837b9b4ba34b7b760691b60448201526064016108cd565b6060810151600090815261010760209081526040808320818501518452825280832033845290915290205415610a1c57610a1c8160600151826040015133612757565b600082815261010860205260409081902080546001600160a01b03191681556004908101805460ff1916905560fb549151632142170760e11b81526001600160a01b03909216916342842e0e91610a7991309133918891016134e8565b600060405180830381600087803b158015610a9357600080fd5b505af1158015610aa7573d6000803e3d6000fd5b505050505050565b610ada7f0000000000000000000000000000000000000000000000000000000000000000600261350c565b7f0000000000000000000000000000000000000000000000000000000000000000610b0684600161352b565b610b10919061350c565b61010154610b1e919061352b565b610b28919061346d565b4211610b765760405162461bcd60e51b815260206004820152601960248201527f4f7074696f6e206469646e27742065787069726564207965740000000000000060448201526064016108cd565b610b81828233612757565b5050565b6000828152610106602090815260408083208484528252808320548584526101058352818420858552909252822054610bbe919061346d565b9392505050565b60008181526101086020908152604091829020825160c08101845281546001600160a01b0390811682526001830154169281019290925260028082015493830193909352600381015460608301526004015460ff8082161515608084015261010090910416151560a082015290610c5d907f00000000000000000000000000000000000000000000000000000000000000009061350c565b7f000000000000000000000000000000000000000000000000000000000000000082606001516001610c8f919061352b565b610c99919061350c565b610ca3919061346d565b61010154610cb1904261346d565b11610cf75760405162461bcd60e51b815260206004820152601660248201527513dc1d1a5bdb881a185cc81b9bdd08195e1c1a5c995960521b60448201526064016108cd565b606081015160009081526101046020526040902054610d285760405162461bcd60e51b81526004016108cd906134a2565b60408082015160608301516000908152610104602052919091205411610d8b5760405162461bcd60e51b81526020600482015260186024820152774f7074696f6e206578706972656420776f7274686c65737360401b60448201526064016108cd565b60a08101511515600103610ddd5760405162461bcd60e51b815260206004820152601960248201527813dc1d1a5bdb88185b1c9958591e481b1a5c5d5a59185d1959603a1b60448201526064016108cd565b60208101516001600160a01b0316610e375760405162461bcd60e51b815260206004820152601b60248201527f4f7074696f6e2068617665206e6f74206265656e20626f75676874000000000060448201526064016108cd565b806080015115610e825760405162461bcd60e51b815260206004820152601660248201527513dc1d1a5bdb88185b1c9958591e4818dbdd995c995960521b60448201526064016108cd565b6040808201516060830151600090815261010460205291822054610ea6919061346d565b60fc5460208401516040516323b872dd60e01b81529293506001600160a01b03909116916323b872dd91610ee19133919086906004016134e8565b6020604051808303816000875af1158015610f00573d6000803e3d6000fd5b505050506040513d601f19601f82011682018060405250810190610f24919061353e565b610f2d57600080fd5b60008381526101086020908152604091829020600401805460ff191660011790556060848101518583015184518881529384018690526001600160a01b0316938301939093523392917fcdf3d0954b60bcea25eab319eef284cb7bb68b899111767c1e929a55efba9b6291015b60405180910390a3505050565b60008181526101086020908152604091829020825160c08101845281546001600160a01b039081168252600183015416928101839052600282015493810193909352600381015460608401526004015460ff8082161515608085015261010090910416151560a0830152331461105f5760405162461bcd60e51b815260206004820152601960248201527f596f7520646f6e2774206f776e2074686973206f7074696f6e0000000000000060448201526064016108cd565b806060015161106c61079f565b116110ae5760405162461bcd60e51b8152602060048201526012602482015271115c1bd8da081b9bdd08199a5b9a5cda195960721b60448201526064016108cd565b8060800151156110f35760405162461bcd60e51b815260206004820152601060248201526f141bdcda5d1a5bdb8818dbdd995c995960821b60448201526064016108cd565b8060a00151156111455760405162461bcd60e51b815260206004820152601960248201527f6f7074696f6e20616c7265616479206c6971756964617465640000000000000060448201526064016108cd565b6060810151600090815261010460205260409020546111765760405162461bcd60e51b81526004016108cd906134a2565b60fc54815160408084015190516323b872dd60e01b81526001600160a01b03909316926323b872dd926111ad9233926004016134e8565b6020604051808303816000875af11580156111cc573d6000803e3d6000fd5b505050506040513d601f19601f820116820180604052508101906111f0919061353e565b6111f957600080fd5b600082815261010860205260409081902080546001600160a01b031916905560fb549051632142170760e11b81526001600160a01b03909116906342842e0e90610a79903090339087906004016134e8565b600082815260c9602052604090206001015461126681612841565b611270838361284b565b505050565b600061127f61079f565b61128a90600161352b565b60008181526101026020908152604080832086845290915290205490915060ff166112c75760405162461bcd60e51b81526004016108cd9061355b565b60005b835181101561130a576112f8828583815181106112e9576112e9613586565b602002602001015185336128d1565b806113028161359c565b9150506112ca565b50825160008281526101076020908152604080832086845282528083203384529091528120805490919061133f90849061352b565b9091555050505050565b6113516129e4565b600061135b61079f565b61136690600161352b565b60008181526101026020908152604080832086845290915290205490915060ff166113a35760405162461bcd60e51b81526004016108cd9061355b565b6113af81848433612a3d565b6000818152610107602090815260408083208584528252808320338452909152812080549091906113df9061359c565b909155505060016033555050565b6001600160a01b038116331461145d5760405162461bcd60e51b815260206004820152602f60248201527f416363657373436f6e74726f6c3a2063616e206f6e6c792072656e6f756e636560448201526e103937b632b9903337b91039b2b63360891b60648201526084016108cd565b610b818282612d36565b61147f6000805160206137e283398151915233611ad5565b806114905750611490600033611ad5565b6114ac5760405162461bcd60e51b81526004016108cd906135b5565b600081116114ee5760405162461bcd60e51b815260206004820152600f60248201526e0466c6f6f72207072696365203c203608c1b60448201526064016108cd565b60008281526101046020526040908190208290555182907fd0c77e56cd2323339048d90b422e11cdef714664667e099ece9c2cf153a2d397906115349084815260200190565b60405180910390a25050565b61154b600033611ad5565b6115675760405162461bcd60e51b81526004016108cd906135fb565b61157f6000805160206137e28339815191528261284b565b50565b61158a6129e4565b600061159461079f565b60008181526101026020908152604080832087845290915290205490915060ff166115d15760405162461bcd60e51b81526004016108cd9061355b565b6115fc7f0000000000000000000000000000000000000000000000000000000000000000600261350c565b7f000000000000000000000000000000000000000000000000000000000000000061162883600161352b565b611632919061350c565b61010154611640919061352b565b61164a919061346d565b42106116985760405162461bcd60e51b815260206004820152601760248201527f5761697420666f7220746865206e6578742065706f636800000000000000000060448201526064016108cd565b60008181526101066020908152604080832086845282528083205484845261010583528184208785529092528220546116d1919061346d565b9050808311156117235760405162461bcd60e51b815260206004820152601b60248201527f4e6f7420656e6f75676820746f6b656e7320617661696c61626c65000000000060448201526064016108cd565b6101005460fb546040516373be031f60e01b81526001600160a01b039182166004820152600092839216906373be031f906024016040805180830381865afa158015611773573d6000803e3d6000fd5b505050506040513d601f19601f820116820180604052508101906117979190613632565b60ff5491935091506000906001600160a01b0316635b7b6d88827f00000000000000000000000000000000000000000000000000000000000000006117dd89600161352b565b6117e7919061350c565b610101546117f5919061352b565b6040516001600160e01b031960e085901b16815291151560048301526024820152604481018a9052606481018590526084810186905260a401602060405180830381865afa15801561184b573d6000803e3d6000fd5b505050506040513d601f19601f8201168201806040525081019061186f9190613656565b60fc549091506001600160a01b03166323b872dd333061188f858b61350c565b6040518463ffffffff1660e01b81526004016118ad939291906134e8565b6020604051808303816000875af11580156118cc573d6000803e3d6000fd5b505050506040513d601f19601f820116820180604052508101906118f0919061353e565b6118f957600080fd5b6000858152610106602090815260408083208a845282528083205488845261010583528184208b8552909252822054611932919061346d565b6000878152610106602090815260408083208c845290915281208054929350899290919061196190849061352b565b909155506119719050828861350c565b6000878152610103602090815260408083208c84529091528120805490919061199b90849061352b565b909155508190505b876119af83600161352b565b6119b9919061346d565b8110611a7c576000878152610105602090815260408083208c845290915281206119e460018461346d565b815481106119f4576119f4613586565b600091825260208083209190910154808352610108825260409283902060010180546001600160a01b0319163390811790915583518281529283018e9052928201879052925089907ff64b78726aa49cf115358d6d427b361176cff78809f642e102c86e1d6fcee5929060600160405180910390a35080611a748161366f565b9150506119a3565b50505050505050610b816001603355565b60fe5460fb5460405163a7ff3b2360e01b81526001600160a01b039182166004820152602481018590526044810184905233606482015291169063a7ff3b2390608401610a79565b600091825260c9602090815260408084206001600160a01b0393909316845291905290205460ff1690565b611b0b600033611ad5565b611b275760405162461bcd60e51b81526004016108cd906135fb565b60fe80546001600160a01b0319166001600160a01b0392909216919091179055565b611b516129e4565b6000611b5b61079f565b611b6690600161352b565b60008181526101026020908152604080832086845290915290205490915060ff16611ba35760405162461bcd60e51b81526004016108cd9061355b565b60005b83811015611be457611bd282868684818110611bc457611bc4613586565b905060200201358533612a3d565b80611bdc8161359c565b915050611ba6565b50600081815261010760209081526040808320858452825280832033845290915281208054859290611c1790849061352b565b9091555050600160335550505050565b611c32600033611ad5565b611c4e5760405162461bcd60e51b81526004016108cd906135fb565b61010080546001600160a01b0319166001600160a01b0392909216919091179055565b611c7c600033611ad5565b611c985760405162461bcd60e51b81526004016108cd906135fb565b6101008054911515600160a01b0260ff60a01b19909216919091179055565b60fe5460fb546040516315170a1760e21b81526001600160a01b039283169263545c285c92611cef92911690309086906004016134e8565b6020604051808303816000875af1158015611d0e573d6000803e3d6000fd5b505050506040513d601f19601f82011682018060405250810190611d32919061353e565b611d3b57600080fd5b60009081526101086020526040902060048101805461ffff1916600117905580546001600160a01b0319169055565b611d826000805160206137e283398151915233611ad5565b80611d935750611d93600033611ad5565b611daf5760405162461bcd60e51b81526004016108cd906135b5565b60005b81518114611e1f57600083815261010260205260408120835160019290859085908110611de157611de1613586565b6020026020010151815260200190815260200160002060006101000a81548160ff02191690831515021790555080611e189061359c565b9050611db2565b50817f8b9dd3ac74d0614c084d8047cb199d3f08e72903980760ba021d7719e364014e826040516115349190613686565b600054610100900460ff1615808015611e705750600054600160ff909116105b80611e8a5750303b158015611e8a575060005460ff166001145b611eed5760405162461bcd60e51b815260206004820152602e60248201527f496e697469616c697a61626c653a20636f6e747261637420697320616c72656160448201526d191e481a5b9a5d1a585b1a5e995960921b60648201526084016108cd565b6000805460ff191660011790558015611f10576000805461ff0019166101001790555b6001600160a01b038716611f5c5760405162461bcd60e51b815260206004820152601360248201527204552433732312061646472657373206973203606c1b60448201526064016108cd565b6001600160a01b038616611fa75760405162461bcd60e51b815260206004820152601260248201527104552433230206164647265737320697320360741b60448201526064016108cd565b6001600160a01b038516611ffd5760405162461bcd60e51b815260206004820152601b60248201527f41756374696f6e4d616e6167657220616464726573732069732030000000000060448201526064016108cd565b6001600160a01b0384166120535760405162461bcd60e51b815260206004820152601a60248201527f4f7074696f6e50726963696e672061646472657373206973203000000000000060448201526064016108cd565b6001600160a01b0383166120a95760405162461bcd60e51b815260206004820152601d60248201527f566f6c6174696c6974794f7261636c652061646472657373206973203000000060448201526064016108cd565b6001600160a01b0382166120f45760405162461bcd60e51b8152602060048201526012602482015271041646d696e206164647265737320697320360741b60448201526064016108cd565b6120fc612d9d565b612104612dc6565b61210c612d9d565b426101015560fb80546001600160a01b03808a166001600160a01b03199283161790925560fc805489841690831617905560fd805482163317905560fe805488841690831617905560ff805487841690831617905561010080549286169290911691909117905561217e600083612df5565b6121966000805160206137e283398151915283612df5565b60fb5460405163a22cb46560e01b81526001600160a01b038781166004830152600160248301529091169063a22cb46590604401600060405180830381600087803b1580156121e457600080fd5b505af11580156121f8573d6000803e3d6000fd5b505050508015612242576000805461ff0019169055604051600181527f7f26b83ff96e1f2b6a682f133852f6798a09c465da95921460cefb38474024989060200160405180910390a15b50505050505050565b600082815260c9602052604090206001015461226681612841565b6112708383612d36565b600061227a61079f565b61228590600161352b565b60008181526101026020908152604080832086845290915290205490915060ff166122c25760405162461bcd60e51b81526004016108cd9061355b565b6122ce818484336128d1565b6000818152610107602090815260408083208584528252808320338452909152812080549091906122fe9061359c565b909155506040805184815260208101849052339183917f12852e9691a3b4a507fdb1c3478087805e515ec2d7da612d9deb1b9010c1eca49101610f9a565b612347600033611ad5565b6123635760405162461bcd60e51b81526004016108cd906135fb565b60ff80546001600160a01b0319166001600160a01b0392909216919091179055565b60008181526101086020908152604091829020825160c08101845281546001600160a01b0390811682526001830154169281019290925260028101549282019290925260038201546060820181905260049092015460ff80821615156080840152610100918290048116151560a08401529054919291600160a01b9004161561240d57600080fd5b7f00000000000000000000000000000000000000000000000000000000000000007f000000000000000000000000000000000000000000000000000000000000000083606001516001612460919061352b565b61246a919061350c565b612474919061352b565b61010154612482904261346d565b116124cf5760405162461bcd60e51b815260206004820181905260248201527f4c69717569646174696f6e20706572696f642069736e2774207265616368656460448201526064016108cd565b600081815261010460205260409020546124fb5760405162461bcd60e51b81526004016108cd906134a2565b60408083015160008381526101046020529190912054116125595760405162461bcd60e51b81526020600482015260186024820152774f7074696f6e206578706972656420776f7274686c65737360401b60448201526064016108cd565b81608001511561259e5760405162461bcd60e51b815260206004820152601060248201526f141bdcda5d1a5bdb8818dbdd995c995960821b60448201526064016108cd565b60a082015115156001036125f05760405162461bcd60e51b815260206004820152601960248201527813dc1d1a5bdb88185b1c9958591e481b1a5c5d5a59185d1959603a1b60448201526064016108cd565b60008381526101086020908152604080832060048101805461ff00191661010017905580546001600160a01b03191690558481015184845261010490925282205461263b919061346d565b60fe5460fb54600085815261010460209081526040918290205488519189015192516355a0e22960e01b81526001600160a01b039485166004820152602481018b905260448101919091529083166064820152908216608482015260a4810184905292935016906355a0e2299060c401600060405180830381600087803b1580156126c557600080fd5b505af11580156126d9573d6000803e3d6000fd5b505050600083815261010460209081526040918290205486519187015192518894507f2e89d436d71507ecb25e79045c0f361b1f3410fb872d034e7b79bb1c245ce65893612749939187909384526001600160a01b03928316602085015291166040830152606082015260800190565b60405180910390a250505050565b60008381526101076020908152604080832085845282528083206001600160a01b0385168452825280832080549084905586845261010383528184208685528352818420548785526101058452828520878652909352908320549092906127be848461350c565b6127c89190613480565b60fc5460405163a9059cbb60e01b81526001600160a01b0387811660048301526024820184905292935091169063a9059cbb906044016020604051808303816000875af115801561281d573d6000803e3d6000fd5b505050506040513d601f19601f82011682018060405250810190612242919061353e565b61157f8133612dff565b6128558282611ad5565b610b8157600082815260c9602090815260408083206001600160a01b03851684529091529020805460ff1916600117905561288d3390565b6001600160a01b0316816001600160a01b0316837f2f8788117e7eff1d82e926ec794901d17c78024a50270940304540a733656f0d60405160405180910390a45050565b60fb54604051632142170760e11b81526001600160a01b03909116906342842e0e90612905908490309088906004016134e8565b600060405180830381600087803b15801561291f57600080fd5b505af1158015612933573d6000803e3d6000fd5b5050506000848152610108602090815260408083206002810187905580546001600160a01b0387166001600160a01b031991821681178355600383018b905560019283018054909216909155898552610105845282852088865284528285208054928301815585529383902001879055805187815291820186905291925086917f12852e9691a3b4a507fdb1c3478087805e515ec2d7da612d9deb1b9010c1eca4910160405180910390a350505050565b600260335403612a365760405162461bcd60e51b815260206004820152601f60248201527f5265656e7472616e637947756172643a207265656e7472616e742063616c6c0060448201526064016108cd565b6002603355565b60008381526101086020908152604091829020825160c08101845281546001600160a01b0390811682526001830154169281019290925260028082015493830193909352600381015460608301526004015460ff8082161515608084015261010090910416151560a082015290612ad5907f00000000000000000000000000000000000000000000000000000000000000009061350c565b7f000000000000000000000000000000000000000000000000000000000000000082606001516001612b07919061352b565b612b11919061350c565b61010154612b1f919061352b565b612b29919061346d565b4211612b705760405162461bcd60e51b815260206004820152601660248201527513dc1d1a5bdb881a185cc81b9bdd08195e1c1a5c995960521b60448201526064016108cd565b816001600160a01b031681600001516001600160a01b031614612bcd5760405162461bcd60e51b81526020600482015260156024820152742cb7ba9030b932903737ba103a34329037bbb732b960591b60448201526064016108cd565b606081015160009081526101046020526040902054612bfe5760405162461bcd60e51b81526004016108cd906134a2565b604080820151606083015160009081526101046020529190912054111580612c27575080608001515b80612c3d575060208101516001600160a01b0316155b612c7f5760405162461bcd60e51b815260206004820152601360248201527221b7bb32b9103cb7bab9103837b9b4ba34b7b760691b60448201526064016108cd565b6000848152610108602090815260408083206003810189905560028101879055600180820180546001600160a01b03191690556004909101805460ff19169055888452610105835281842087855283528184208054918201815584529282902090920186905581518681529081018590526001600160a01b0384169187917fc5cf73bbf9412234d340e19996e27e6404eca00fe162d78240d124dff861876a910160405180910390a35050505050565b6001603355565b612d408282611ad5565b15610b8157600082815260c9602090815260408083206001600160a01b0385168085529252808320805460ff1916905551339285917ff6391f5c32d9c69d2a47ea670b442974b53935d1edc7fd64eb21e047a839171b9190a45050565b600054610100900460ff16612dc45760405162461bcd60e51b81526004016108cd906136ca565b565b600054610100900460ff16612ded5760405162461bcd60e51b81526004016108cd906136ca565b612dc4612e58565b610b81828261284b565b612e098282611ad5565b610b8157612e1681612e7f565b612e21836020612e91565b604051602001612e32929190613739565b60408051601f198184030181529082905262461bcd60e51b82526108cd916004016137ae565b600054610100900460ff16612d2f5760405162461bcd60e51b81526004016108cd906136ca565b60606108116001600160a01b03831660145b60606000612ea083600261350c565b612eab90600261352b565b67ffffffffffffffff811115612ec357612ec36130ae565b6040519080825280601f01601f191660200182016040528015612eed576020820181803683370190505b509050600360fc1b81600081518110612f0857612f08613586565b60200101906001600160f81b031916908160001a905350600f60fb1b81600181518110612f3757612f37613586565b60200101906001600160f81b031916908160001a9053506000612f5b84600261350c565b612f6690600161352b565b90505b6001811115612fde576f181899199a1a9b1b9c1cb0b131b232b360811b85600f1660108110612f9a57612f9a613586565b1a60f81b828281518110612fb057612fb0613586565b60200101906001600160f81b031916908160001a90535060049490941c93612fd78161366f565b9050612f69565b508315610bbe5760405162461bcd60e51b815260206004820181905260248201527f537472696e67733a20686578206c656e67746820696e73756666696369656e7460448201526064016108cd565b60006020828403121561303f57600080fd5b81356001600160e01b031981168114610bbe57600080fd5b60006020828403121561306957600080fd5b5035919050565b6000806040838503121561308357600080fd5b50508035926020909101359150565b80356001600160a01b03811681146130a957600080fd5b919050565b634e487b7160e01b600052604160045260246000fd5b604051601f8201601f1916810167ffffffffffffffff811182821017156130ed576130ed6130ae565b604052919050565b6000806000806080858703121561310b57600080fd5b61311485613092565b93506020613123818701613092565b935060408601359250606086013567ffffffffffffffff8082111561314757600080fd5b818801915088601f83011261315b57600080fd5b81358181111561316d5761316d6130ae565b61317f601f8201601f191685016130c4565b9150808252898482850101111561319557600080fd5b808484018584013760008482840101525080935050505092959194509250565b600080604083850312156131c857600080fd5b823591506131d860208401613092565b90509250929050565b600082601f8301126131f257600080fd5b8135602067ffffffffffffffff82111561320e5761320e6130ae565b8160051b61321d8282016130c4565b928352848101820192828101908785111561323757600080fd5b83870192505b848310156132565782358252918301919083019061323d565b979650505050505050565b6000806040838503121561327457600080fd5b823567ffffffffffffffff81111561328b57600080fd5b613297858286016131e1565b95602094909401359450505050565b6000602082840312156132b857600080fd5b610bbe82613092565b6000806000606084860312156132d657600080fd5b83359250602084013591506132ed60408501613092565b90509250925092565b60008060006040848603121561330b57600080fd5b833567ffffffffffffffff8082111561332357600080fd5b818601915086601f83011261333757600080fd5b81358181111561334657600080fd5b8760208260051b850101111561335b57600080fd5b6020928301989097509590910135949350505050565b801515811461157f57600080fd5b60006020828403121561339157600080fd5b8135610bbe81613371565b600080604083850312156133af57600080fd5b82359150602083013567ffffffffffffffff8111156133cd57600080fd5b6133d9858286016131e1565b9150509250929050565b60008060008060008060c087890312156133fc57600080fd5b61340587613092565b955061341360208801613092565b945061342160408801613092565b935061342f60608801613092565b925061343d60808801613092565b915061344b60a08801613092565b90509295509295509295565b634e487b7160e01b600052601160045260246000fd5b8181038181111561081157610811613457565b60008261349d57634e487b7160e01b600052601260045260246000fd5b500490565b60208082526026908201527f466c6f6f72207072696365206e6f7420736574746c656420666f722074686973604082015265040cae0dec6d60d31b606082015260800190565b6001600160a01b039384168152919092166020820152604081019190915260600190565b600081600019048311821515161561352657613526613457565b500290565b8082018082111561081157610811613457565b60006020828403121561355057600080fd5b8151610bbe81613371565b60208082526011908201527057726f6e6720737472696b65507269636560781b604082015260600190565b634e487b7160e01b600052603260045260246000fd5b6000600182016135ae576135ae613457565b5060010190565b60208082526026908201527f6d73672e73656e646572206973206e6f7420666c6f6f7220707269636520707260408201526537bb34b232b960d11b606082015260800190565b60208082526017908201527f6d73672e73656e646572206973206e6f742061646d696e000000000000000000604082015260600190565b6000806040838503121561364557600080fd5b505080516020909101519092909150565b60006020828403121561366857600080fd5b5051919050565b60008161367e5761367e613457565b506000190190565b6020808252825182820181905260009190848201906040850190845b818110156136be578351835292840192918401916001016136a2565b50909695505050505050565b6020808252602b908201527f496e697469616c697a61626c653a20636f6e7472616374206973206e6f74206960408201526a6e697469616c697a696e6760a81b606082015260800190565b60005b83811015613730578181015183820152602001613718565b50506000910152565b7f416363657373436f6e74726f6c3a206163636f756e7420000000000000000000815260008351613771816017850160208801613715565b7001034b99036b4b9b9b4b733903937b6329607d1b60179184019182015283516137a2816028840160208801613715565b01602801949350505050565b60208152600082518060208401526137cd816040850160208701613715565b601f01601f1916919091016040019291505056fecbf283b5381192ce3c087c36c27bed2242f324291cbab3b1559bfa94b13399eea26469706673582212201d262304545747f46f1096e37a1c1cece8deaf1b9cf1f391c3debd2e542bf8be64736f6c63430008100033",
    "linkReferences": {}
  },
  "methodIdentifiers": {
    "DEFAULT_ADMIN_ROLE()": "a217fddf",
    "FLOOR_PRICE_PROVIDER_ROLE()": "707c4ac2",
    "auctionManager()": "b0192f9a",
    "bidAuction(uint256,uint256)": "7587b4df",
    "buyAtStrike(uint256)": "2398fdcf",
    "buyOptions(uint256,uint256)": "57db99cd",
    "claimPremiums(uint256,uint256)": "04ed8ef7",
    "coverPosition(uint256)": "09b4a81c",
    "endAuction(uint256)": "b9a2de3a",
    "erc20()": "785e9e86",
    "erc721()": "bca6ce64",
    "getAmountLockedAt(uint256,uint256)": "910294ca",
    "getEpochDuration()": "5d3ea8f1",
    "getEpoch_2e()": "0000ae4a",
    "getFloorPrice(uint256)": "b2d4cf18",
    "getInterval()": "91ad27b4",
    "getOption(uint256)": "1ce5e9a6",
    "getOptionAvailableAt(uint256,uint256)": "086e0f09",
    "getRoleAdmin(bytes32)": "248a9ca3",
    "getSharesAtOf(uint256,uint256,address)": "5e7c3f9a",
    "grantRole(bytes32,address)": "2f2ff15d",
    "hasRole(bytes32,address)": "91d14854",
    "hatching()": "bce47716",
    "initialize(address,address,address,address,address,address)": "cc2a9a5b",
    "liquidateNFT(uint256)": "f95dc232",
    "liquidationInterrupted()": "46953c47",
    "onERC721Received(address,address,uint256,bytes)": "150b7a02",
    "optionPricing()": "1e3394fb",
    "renounceRole(bytes32,address)": "36568abe",
    "restakeNFTs(uint256,uint256)": "32f2a017",
    "restakeNFTs(uint256[],uint256)": "9badb968",
    "revokeRole(bytes32,address)": "d547741f",
    "setAuctionManager(address)": "95e4cacb",
    "setFloorPriceAt(uint256,uint256)": "4038e44e",
    "setFloorPriceProvider(address)": "40dcf8ef",
    "setLiquidationInterrupted(bool)": "b1b3dd3a",
    "setOptionPricing(address)": "f6a76a81",
    "setStrikePriceAt(uint256,uint256[])": "ba4ec52a",
    "setVolatilityOracle(address)": "9c78a526",
    "stakeNFTs(uint256,uint256)": "f0ceb308",
    "stakeNFTs(uint256[],uint256)": "2fd2fa32",
    "strikeController()": "45be8694",
    "supportsInterface(bytes4)": "01ffc9a7",
    "volatilityOracle()": "55b13a4f",
    "withdrawNFT(uint256)": "023245d7"
  },
  "id": 64
}