{
  "abi": [
    {
      "anonymous": false,
      "inputs": [
        {
          "indexed": true,
          "internalType": "uint256",
          "name": "_epoch",
          "type": "uint256"
        },
        {
          "indexed": false,
          "internalType": "uint256",
          "name": "_tokenId",
          "type": "uint256"
        },
        {
          "indexed": false,
          "internalType": "uint256",
          "name": "_strikePrice",
          "type": "uint256"
        },
        {
          "indexed": false,
          "internalType": "uint256",
          "name": "_premium",
          "type": "uint256"
        },
        {
          "indexed": false,
          "internalType": "address",
          "name": "_writer",
          "type": "address"
        },
        {
          "indexed": true,
          "internalType": "address",
          "name": "_buyer",
          "type": "address"
        }
      ],
      "name": "BuyOption",
      "type": "event"
    },
    {
      "anonymous": false,
      "inputs": [
        {
          "indexed": true,
          "internalType": "uint256",
          "name": "_epoch",
          "type": "uint256"
        },
        {
          "indexed": false,
          "internalType": "uint256",
          "name": "_shares",
          "type": "uint256"
        },
        {
          "indexed": false,
          "internalType": "uint256",
          "name": "_premiums",
          "type": "uint256"
        },
        {
          "indexed": true,
          "internalType": "address",
          "name": "_owner",
          "type": "address"
        }
      ],
      "name": "ClaimPremiums",
      "type": "event"
    },
    {
      "anonymous": false,
      "inputs": [
        {
          "indexed": true,
          "internalType": "uint256",
          "name": "_epoch",
          "type": "uint256"
        },
        {
          "indexed": false,
          "internalType": "uint256",
          "name": "_tokenId",
          "type": "uint256"
        },
        {
          "indexed": false,
          "internalType": "uint256",
          "name": "_debt",
          "type": "uint256"
        },
        {
          "indexed": true,
          "internalType": "address",
          "name": "_writer",
          "type": "address"
        },
        {
          "indexed": false,
          "internalType": "address",
          "name": "_buyer",
          "type": "address"
        }
      ],
      "name": "CoverPosition",
      "type": "event"
    },
    {
      "anonymous": false,
      "inputs": [
        {
          "indexed": false,
          "internalType": "uint8",
          "name": "version",
          "type": "uint8"
        }
      ],
      "name": "Initialized",
      "type": "event"
    },
    {
      "anonymous": false,
      "inputs": [
        {
          "indexed": true,
          "internalType": "uint256",
          "name": "_tokenId",
          "type": "uint256"
        },
        {
          "indexed": false,
          "internalType": "uint256",
          "name": "_firstPrice",
          "type": "uint256"
        },
        {
          "indexed": false,
          "internalType": "address",
          "name": "_writer",
          "type": "address"
        },
        {
          "indexed": false,
          "internalType": "address",
          "name": "_buyer",
          "type": "address"
        },
        {
          "indexed": false,
          "internalType": "uint256",
          "name": "_debt",
          "type": "uint256"
        }
      ],
      "name": "LiquidateNFT",
      "type": "event"
    },
    {
      "anonymous": false,
      "inputs": [
        {
          "indexed": true,
          "internalType": "uint256",
          "name": "_epoch",
          "type": "uint256"
        },
        {
          "indexed": false,
          "internalType": "uint256",
          "name": "_tokenId",
          "type": "uint256"
        },
        {
          "indexed": false,
          "internalType": "uint256",
          "name": "_strikePrice",
          "type": "uint256"
        },
        {
          "indexed": true,
          "internalType": "address",
          "name": "_writer",
          "type": "address"
        }
      ],
      "name": "ReStake",
      "type": "event"
    },
    {
      "anonymous": false,
      "inputs": [
        {
          "indexed": true,
          "internalType": "uint256",
          "name": "_epoch",
          "type": "uint256"
        },
        {
          "indexed": false,
          "internalType": "uint256",
          "name": "_floorPrice",
          "type": "uint256"
        }
      ],
      "name": "SetFloorPrice",
      "type": "event"
    },
    {
      "anonymous": false,
      "inputs": [
        {
          "indexed": true,
          "internalType": "uint256",
          "name": "_epoch",
          "type": "uint256"
        },
        {
          "indexed": false,
          "internalType": "uint256[]",
          "name": "_strikePrices",
          "type": "uint256[]"
        }
      ],
      "name": "SetStrikePrice",
      "type": "event"
    },
    {
      "anonymous": false,
      "inputs": [
        {
          "indexed": true,
          "internalType": "uint256",
          "name": "_epoch",
          "type": "uint256"
        },
        {
          "indexed": false,
          "internalType": "uint256",
          "name": "_tokenId",
          "type": "uint256"
        },
        {
          "indexed": false,
          "internalType": "uint256",
          "name": "_strikePrice",
          "type": "uint256"
        },
        {
          "indexed": true,
          "internalType": "address",
          "name": "_writer",
          "type": "address"
        }
      ],
      "name": "Stake",
      "type": "event"
    },
    {
      "anonymous": false,
      "inputs": [
        {
          "indexed": false,
          "internalType": "uint256",
          "name": "_tokenId",
          "type": "uint256"
        },
        {
          "indexed": false,
          "internalType": "address",
          "name": "_owner",
          "type": "address"
        }
      ],
      "name": "WithdrawNFT",
      "type": "event"
    },
    {
      "inputs": [],
      "name": "auctionManager",
      "outputs": [
        {
          "internalType": "address",
          "name": "",
          "type": "address"
        }
      ],
      "stateMutability": "view",
      "type": "function"
    },
    {
      "inputs": [
        {
          "internalType": "uint256",
          "name": "_tokenId",
          "type": "uint256"
        },
        {
          "internalType": "uint256",
          "name": "_amount",
          "type": "uint256"
        }
      ],
      "name": "bidAuction",
      "outputs": [],
      "stateMutability": "nonpayable",
      "type": "function"
    },
    {
      "inputs": [
        {
          "internalType": "uint256",
          "name": "_tokenId",
          "type": "uint256"
        }
      ],
      "name": "buyAtStrike",
      "outputs": [],
      "stateMutability": "nonpayable",
      "type": "function"
    },
    {
      "inputs": [
        {
          "internalType": "uint256",
          "name": "_strikePrice",
          "type": "uint256"
        }
      ],
      "name": "buyOption",
      "outputs": [],
      "stateMutability": "nonpayable",
      "type": "function"
    },
    {
      "inputs": [
        {
          "internalType": "uint256",
          "name": "_epoch",
          "type": "uint256"
        },
        {
          "internalType": "uint256",
          "name": "_strikePrice",
          "type": "uint256"
        }
      ],
      "name": "claimPremiums",
      "outputs": [],
      "stateMutability": "nonpayable",
      "type": "function"
    },
    {
      "inputs": [
        {
          "internalType": "uint256",
          "name": "_tokenId",
          "type": "uint256"
        }
      ],
      "name": "coverPosition",
      "outputs": [],
      "stateMutability": "nonpayable",
      "type": "function"
    },
    {
      "inputs": [
        {
          "internalType": "uint256",
          "name": "_tokenId",
          "type": "uint256"
        }
      ],
      "name": "endAuction",
      "outputs": [],
      "stateMutability": "nonpayable",
      "type": "function"
    },
    {
      "inputs": [],
      "name": "erc20",
      "outputs": [
        {
          "internalType": "address",
          "name": "",
          "type": "address"
        }
      ],
      "stateMutability": "view",
      "type": "function"
    },
    {
      "inputs": [],
      "name": "erc721",
      "outputs": [
        {
          "internalType": "address",
          "name": "",
          "type": "address"
        }
      ],
      "stateMutability": "view",
      "type": "function"
    },
    {
      "inputs": [
        {
          "internalType": "uint256",
          "name": "_epoch",
          "type": "uint256"
        },
        {
          "internalType": "uint256",
          "name": "_strikePrice",
          "type": "uint256"
        }
      ],
      "name": "getAmountLockedAt",
      "outputs": [
        {
          "internalType": "uint256",
          "name": "",
          "type": "uint256"
        }
      ],
      "stateMutability": "view",
      "type": "function"
    },
    {
      "inputs": [],
      "name": "getEpochDuration",
      "outputs": [
        {
          "internalType": "uint256",
          "name": "",
          "type": "uint256"
        }
      ],
      "stateMutability": "pure",
      "type": "function"
    },
    {
      "inputs": [],
      "name": "getEpoch_2e",
      "outputs": [
        {
          "internalType": "uint256",
          "name": "",
          "type": "uint256"
        }
      ],
      "stateMutability": "view",
      "type": "function"
    },
    {
      "inputs": [
        {
          "internalType": "uint256",
          "name": "_epoch",
          "type": "uint256"
        }
      ],
      "name": "getFloorPrice",
      "outputs": [
        {
          "internalType": "uint256",
          "name": "",
          "type": "uint256"
        }
      ],
      "stateMutability": "view",
      "type": "function"
    },
    {
      "inputs": [],
      "name": "getInterval",
      "outputs": [
        {
          "internalType": "uint256",
          "name": "",
          "type": "uint256"
        }
      ],
      "stateMutability": "pure",
      "type": "function"
    },
    {
      "inputs": [
        {
          "internalType": "uint256",
          "name": "_tokenId",
          "type": "uint256"
        }
      ],
      "name": "getOption",
      "outputs": [
        {
          "components": [
            {
              "internalType": "address",
              "name": "writer",
              "type": "address"
            },
            {
              "internalType": "address",
              "name": "buyer",
              "type": "address"
            },
            {
              "internalType": "uint256",
              "name": "sPrice",
              "type": "uint256"
            },
            {
              "internalType": "uint256",
              "name": "epoch",
              "type": "uint256"
            },
            {
              "internalType": "bool",
              "name": "covered",
              "type": "bool"
            },
            {
              "internalType": "bool",
              "name": "liquidated",
              "type": "bool"
            }
          ],
          "internalType": "struct StrikePool.Option",
          "name": "option",
          "type": "tuple"
        }
      ],
      "stateMutability": "view",
      "type": "function"
    },
    {
      "inputs": [
        {
          "internalType": "uint256",
          "name": "_epoch",
          "type": "uint256"
        },
        {
          "internalType": "uint256",
          "name": "_strikePrice",
          "type": "uint256"
        }
      ],
      "name": "getOptionAvailableAt",
      "outputs": [
        {
          "internalType": "uint256",
          "name": "",
          "type": "uint256"
        }
      ],
      "stateMutability": "view",
      "type": "function"
    },
    {
      "inputs": [
        {
          "internalType": "uint256",
          "name": "_epoch",
          "type": "uint256"
        },
        {
          "internalType": "uint256",
          "name": "_strikePrice",
          "type": "uint256"
        },
        {
          "internalType": "address",
          "name": "_add",
          "type": "address"
        }
      ],
      "name": "getSharesAtOf",
      "outputs": [
        {
          "internalType": "uint256",
          "name": "",
          "type": "uint256"
        }
      ],
      "stateMutability": "view",
      "type": "function"
    },
    {
      "inputs": [],
      "name": "hatching",
      "outputs": [
        {
          "internalType": "uint256",
          "name": "",
          "type": "uint256"
        }
      ],
      "stateMutability": "view",
      "type": "function"
    },
    {
      "inputs": [
        {
          "internalType": "address",
          "name": "_erc721",
          "type": "address"
        },
        {
          "internalType": "address",
          "name": "_erc20",
          "type": "address"
        },
        {
          "internalType": "address",
          "name": "_auctionManager",
          "type": "address"
        }
      ],
      "name": "initialize",
      "outputs": [],
      "stateMutability": "nonpayable",
      "type": "function"
    },
    {
      "inputs": [
        {
          "internalType": "uint256",
          "name": "_tokenId",
          "type": "uint256"
        }
      ],
      "name": "liquidateNFT",
      "outputs": [],
      "stateMutability": "nonpayable",
      "type": "function"
    },
    {
      "inputs": [],
      "name": "liquidationInterrupted",
      "outputs": [
        {
          "internalType": "bool",
          "name": "",
          "type": "bool"
        }
      ],
      "stateMutability": "view",
      "type": "function"
    },
    {
      "inputs": [
        {
          "internalType": "address",
          "name": "",
          "type": "address"
        },
        {
          "internalType": "address",
          "name": "",
          "type": "address"
        },
        {
          "internalType": "uint256",
          "name": "",
          "type": "uint256"
        },
        {
          "internalType": "bytes",
          "name": "",
          "type": "bytes"
        }
      ],
      "name": "onERC721Received",
      "outputs": [
        {
          "internalType": "bytes4",
          "name": "",
          "type": "bytes4"
        }
      ],
      "stateMutability": "nonpayable",
      "type": "function"
    },
    {
      "inputs": [
        {
          "internalType": "uint256",
          "name": "_tokenId",
          "type": "uint256"
        },
        {
          "internalType": "uint256",
          "name": "_strikePrice",
          "type": "uint256"
        }
      ],
      "name": "restake",
      "outputs": [],
      "stateMutability": "nonpayable",
      "type": "function"
    },
    {
      "inputs": [
        {
          "internalType": "address",
          "name": "_auctionManager",
          "type": "address"
        }
      ],
      "name": "setAuctionManager",
      "outputs": [],
      "stateMutability": "nonpayable",
      "type": "function"
    },
    {
      "inputs": [
        {
          "internalType": "bool",
          "name": "_liquidationInterrupted",
          "type": "bool"
        }
      ],
      "name": "setLiquidationInterrupted",
      "outputs": [],
      "stateMutability": "nonpayable",
      "type": "function"
    },
    {
      "inputs": [
        {
          "internalType": "uint256",
          "name": "_epoch",
          "type": "uint256"
        },
        {
          "internalType": "uint256[]",
          "name": "_strikePrices",
          "type": "uint256[]"
        }
      ],
      "name": "setStrikePriceAt",
      "outputs": [],
      "stateMutability": "nonpayable",
      "type": "function"
    },
    {
      "inputs": [
        {
          "internalType": "uint256",
          "name": "_epoch",
          "type": "uint256"
        },
        {
          "internalType": "uint256",
          "name": "_floorPrice",
          "type": "uint256"
        }
      ],
      "name": "setfloorpriceAt",
      "outputs": [],
      "stateMutability": "nonpayable",
      "type": "function"
    },
    {
      "inputs": [
        {
          "internalType": "uint256",
          "name": "_tokenId",
          "type": "uint256"
        },
        {
          "internalType": "uint256",
          "name": "_strikePrice",
          "type": "uint256"
        }
      ],
      "name": "stake",
      "outputs": [],
      "stateMutability": "nonpayable",
      "type": "function"
    },
    {
      "inputs": [],
      "name": "strikeController",
      "outputs": [
        {
          "internalType": "address",
          "name": "",
          "type": "address"
        }
      ],
      "stateMutability": "view",
      "type": "function"
    },
    {
      "inputs": [
        {
          "internalType": "uint256",
          "name": "_tokenId",
          "type": "uint256"
        }
      ],
      "name": "withdrawNFT",
      "outputs": [],
      "stateMutability": "nonpayable",
      "type": "function"
    }
  ],
  "bytecode": {
    "object": "0x60c0604052621275006080526201518060a05234801561001e57600080fd5b5060805160a051612ace610098600039600081816104c4015281816108b501528181610a55015281816112d001528181611a5b0152611e6a0152600081816103ea01528181610609015281816108dd01528181610a7d015281816112f801528181611a7c01528181611e92015261209c0152612ace6000f3fe608060405234801561001057600080fd5b50600436106101d85760003560e01c80638992bc7711610104578063b8e7023d116100a2578063bce4771611610071578063bce47716146105c3578063c0c53b8b146105cc578063f95dc232146105df578063fba225b9146105f257600080fd5b8063b8e7023d14610577578063b9a2de3a1461058a578063ba4ec52a1461059d578063bca6ce64146105b057600080fd5b806395e4cacb116100de57806395e4cacb146104e8578063b0192f9a14610518578063b1b3dd3a1461052b578063b2d4cf181461055757600080fd5b80638992bc7714610484578063910294ca1461049757806391ad27b4146104c257600080fd5b80632398fdcf1161017c5780635e7c3f9a1161014b5780635e7c3f9a1461040e5780637587b4df1461044b578063785e9e861461045e5780637b0472f01461047157600080fd5b80632398fdcf1461038657806345be86941461039957806346953c47146103c45780635d3ea8f1146103e857600080fd5b8063086e0f09116101b8578063086e0f091461022057806309b4a81c14610233578063150b7a02146102465780631ce5e9a61461027d57600080fd5b8061ae4a146101dd578063023245d7146101f857806304ed8ef71461020d575b600080fd5b6101e5610605565b6040519081526020015b60405180910390f35b61020b61020636600461257c565b610645565b005b61020b61021b366004612595565b6108b0565b6101e561022e366004612595565b610981565b61020b61024136600461257c565b6109c1565b610264610254366004612613565b630a85bd0160e11b949350505050565b6040516001600160e01b031990911681526020016101ef565b61032d61028b36600461257c565b6040805160c081018252600080825260208201819052918101829052606081018290526080810182905260a081019190915250600090815260706020908152604091829020825160c08101845281546001600160a01b039081168252600183015416928101929092526002810154928201929092526003820154606082015260049091015460ff8082161515608084015261010090910416151560a082015290565b6040516101ef919081516001600160a01b03908116825260208084015190911690820152604080830151908201526060808301519082015260808083015115159082015260a09182015115159181019190915260c00190565b61020b61039436600461257c565b610d90565b6067546103ac906001600160a01b031681565b6040516001600160a01b0390911681526020016101ef565b6068546103d890600160a01b900460ff1681565b60405190151581526020016101ef565b7f00000000000000000000000000000000000000000000000000000000000000006101e5565b6101e561041c3660046126d7565b6000928352606f602090815260408085209385529281528284206001600160a01b039290921684525290205490565b61020b610459366004612595565b610fea565b6066546103ac906001600160a01b031681565b61020b61047f366004612595565b611032565b61020b610492366004612595565b6111b1565b6101e56104a5366004612595565b6000918252606d6020908152604080842092845291905290205490565b7f00000000000000000000000000000000000000000000000000000000000000006101e5565b61020b6104f6366004612710565b606880546001600160a01b0319166001600160a01b0392909216919091179055565b6068546103ac906001600160a01b031681565b61020b610539366004612742565b60688054911515600160a01b0260ff60a01b19909216919091179055565b6101e561056536600461257c565b6000908152606c602052604090205490565b61020b610585366004612595565b611244565b61020b61059836600461257c565b6115d5565b61020b6105ab36600461275f565b611687565b6065546103ac906001600160a01b031681565b6101e560695481565b61020b6105da366004612811565b611727565b61020b6105ed36600461257c565b6119d2565b61020b61060036600461257c565b611d9c565b60007f0000000000000000000000000000000000000000000000000000000000000000606954426106369190612867565b610640919061287a565b905090565b600081815260706020908152604091829020825160c08101845281546001600160a01b0390811682526001830154169281019290925260028101549282019290925260038201546060820181905260049092015460ff8082161515608084015261010090910416151560a0820152906106bc610605565b116107035760405162461bcd60e51b8152602060048201526012602482015271115c1bd8da081b9bdd08199a5b9a5cda195960721b60448201526064015b60405180910390fd5b80516001600160a01b031633146107545760405162461bcd60e51b81526020600482015260156024820152742cb7ba9030b932903737ba103a34329037bbb732b960591b60448201526064016106fa565b60608101516000908152606c60205260409020546107845760405162461bcd60e51b81526004016106fa9061289c565b60408082015160608301516000908152606c60205291909120541115806107ac575080608001515b806107c2575060208101516001600160a01b0316155b6108045760405162461bcd60e51b815260206004820152601360248201527221b7bb32b9103cb7bab9103837b9b4ba34b7b760691b60448201526064016106fa565b60608101516000908152606f602090815260408083208185015184528252808320338452909152902054156108465761084681606001518260400151336123b2565b606554604051632142170760e11b81526001600160a01b03909116906342842e0e9061087a903090339087906004016128e2565b600060405180830381600087803b15801561089457600080fd5b505af11580156108a8573d6000803e3d6000fd5b505050505050565b6108db7f00000000000000000000000000000000000000000000000000000000000000006002612906565b7f0000000000000000000000000000000000000000000000000000000000000000610907846001612925565b6109119190612906565b60695461091e9190612925565b6109289190612867565b42116109725760405162461bcd60e51b815260206004820152601960248201527813dc1d1a5bdb88191a591b89dd08195e1c1a5c9959081e595d603a1b60448201526064016106fa565b61097d8282336123b2565b5050565b6000828152606e60209081526040808320848452825280832054858452606d83528184208585529092528220546109b89190612867565b90505b92915050565b6000818152607060209081526040808320815160c08101835281546001600160a01b0390811682526001830154168185015260028201548184015260038201546060820181905260049092015460ff8082161515608084015261010090910416151560a0820152908452606c90925290912054610a505760405162461bcd60e51b81526004016106fa9061289c565b610a7b7f00000000000000000000000000000000000000000000000000000000000000006002612906565b7f000000000000000000000000000000000000000000000000000000000000000082606001516001610aad9190612925565b610ab79190612906565b610ac19190612867565b606954610ace9042612867565b11610b145760405162461bcd60e51b815260206004820152601660248201527513dc1d1a5bdb881a185cc81b9bdd08195e1c1a5c995960521b60448201526064016106fa565b60408082015160608301516000908152606c602052919091205411610b765760405162461bcd60e51b81526020600482015260186024820152774f7074696f6e206578706972656420776f7274686c65737360401b60448201526064016106fa565b60a08101511515600103610bc85760405162461bcd60e51b815260206004820152601960248201527813dc1d1a5bdb88185b1c9958591e481b1a5c5d5a59185d1959603a1b60448201526064016106fa565b60208101516001600160a01b0316610c225760405162461bcd60e51b815260206004820152601b60248201527f4f7074696f6e2068617665206e6f74206265656e20626f75676874000000000060448201526064016106fa565b806080015115610c6d5760405162461bcd60e51b815260206004820152601660248201527513dc1d1a5bdb88185b1c9958591e4818dbdd995c995960521b60448201526064016106fa565b60408082015160608301516000908152606c60205291822054610c909190612867565b60665460208401516040516323b872dd60e01b81529293506001600160a01b03909116916323b872dd91610ccb9133919086906004016128e2565b6020604051808303816000875af1158015610cea573d6000803e3d6000fd5b505050506040513d601f19601f82011682018060405250810190610d0e9190612938565b610d1757600080fd5b600083815260706020908152604091829020600401805460ff191660011790556060848101518583015184518881529384018690526001600160a01b0316938301939093523392917fcdf3d0954b60bcea25eab319eef284cb7bb68b899111767c1e929a55efba9b6291015b60405180910390a3505050565b600081815260706020908152604091829020825160c08101845281546001600160a01b039081168252600183015416928101839052600282015493810193909352600381015460608401526004015460ff8082161515608085015261010090910416151560a08301523314610e475760405162461bcd60e51b815260206004820152601960248201527f596f7520646f6e2774206f776e2074686973206f7074696f6e0000000000000060448201526064016106fa565b8060600151610e54610605565b11610e965760405162461bcd60e51b8152602060048201526012602482015271115c1bd8da081b9bdd08199a5b9a5cda195960721b60448201526064016106fa565b806080015115610edb5760405162461bcd60e51b815260206004820152601060248201526f141bdcda5d1a5bdb8818dbdd995c995960821b60448201526064016106fa565b606654815160408084015190516323b872dd60e01b81526001600160a01b03909316926323b872dd92610f129233926004016128e2565b6020604051808303816000875af1158015610f31573d6000803e3d6000fd5b505050506040513d601f19601f82011682018060405250810190610f559190612938565b610f985760405162461bcd60e51b8152602060048201526014602482015273506c656173652073657420616c6c6f77616e636560601b60448201526064016106fa565b8060a00151156108465760405162461bcd60e51b815260206004820152601960248201527f6f7074696f6e20616c7265616479206c6971756964617465640000000000000060448201526064016106fa565b60685460655460405163a7ff3b2360e01b81526001600160a01b039182166004820152602481018590526044810184905233606482015291169063a7ff3b239060840161087a565b600061103c610605565b611047906001612925565b6000818152606a6020908152604080832086845290915290205490915060ff166110835760405162461bcd60e51b81526004016106fa90612955565b606554604051632142170760e11b81526001600160a01b03909116906342842e0e906110b7903390309088906004016128e2565b600060405180830381600087803b1580156110d157600080fd5b505af11580156110e5573d6000803e3d6000fd5b5050506000848152607060209081526040808320600281018790558054336001600160a01b0319918216811783556003830188905560019283018054909216909155868552606d84528285208886528452828520805492830181558552838520909101889055858452606f835281842087855283528184209084529091528120805490925061117390612980565b909155506040805184815260208101849052339183917f12852e9691a3b4a507fdb1c3478087805e515ec2d7da612d9deb1b9010c1eca49101610d83565b600081116111f35760405162461bcd60e51b815260206004820152600f60248201526e0466c6f6f72207072696365203c203608c1b60448201526064016106fa565b6000828152606c6020526040908190208290555182907fd0c77e56cd2323339048d90b422e11cdef714664667e099ece9c2cf153a2d397906112389084815260200190565b60405180910390a25050565b61124c6124a2565b6000828152607060209081526040808320815160c08101835281546001600160a01b03908116825260018301541693810193909352600281015491830191909152600381015460608301526004015460ff8082161515608084015261010090910416151560a0820152906112be610605565b6112c9906001612925565b90506112f67f00000000000000000000000000000000000000000000000000000000000000006002612906565b7f0000000000000000000000000000000000000000000000000000000000000000836060015160016113289190612925565b6113329190612906565b60695461133f9190612925565b6113499190612867565b42116113905760405162461bcd60e51b815260206004820152601660248201527513dc1d1a5bdb881a185cc81b9bdd08195e1c1a5c995960521b60448201526064016106fa565b81516001600160a01b031633146113e15760405162461bcd60e51b81526020600482015260156024820152742cb7ba9030b932903737ba103a34329037bbb732b960591b60448201526064016106fa565b60608201516000908152606c60205260409020546114115760405162461bcd60e51b81526004016106fa9061289c565b60408083015160608401516000908152606c6020529190912054111580611439575081608001515b8061144f575060208201516001600160a01b0316155b6114915760405162461bcd60e51b815260206004820152601360248201527221b7bb32b9103cb7bab9103837b9b4ba34b7b760691b60448201526064016106fa565b6000818152606a6020908152604080832086845290915290205460ff166114ca5760405162461bcd60e51b81526004016106fa90612955565b60008481526070602090815260408083206003810185905560028101879055600190810180546001600160a01b0319169055848452606d8352818420878552835281842080549182018155845282842001879055838352606f825280832086845282528083203384529091528120805490919061154690612980565b9091555060608201516000908152606f6020908152604080832081860151845282528083203384529091529020541561158c5761158c82606001518360400151336123b2565b6040805185815260208101859052339183917fc5cf73bbf9412234d340e19996e27e6404eca00fe162d78240d124dff861876a910160405180910390a3505061097d6001603355565b6068546065546040516315170a1760e21b81526001600160a01b039283169263545c285c9261160d92911690309086906004016128e2565b6020604051808303816000875af115801561162c573d6000803e3d6000fd5b505050506040513d601f19601f820116820180604052508101906116509190612938565b61165957600080fd5b600090815260706020526040902060048101805461ffff1916600117905580546001600160a01b0319169055565b60005b815181146116f6576000838152606a602052604081208351600192908590859081106116b8576116b8612999565b6020026020010151815260200190815260200160002060006101000a81548160ff021916908315150217905550806116ef90612980565b905061168a565b50817f8b9dd3ac74d0614c084d8047cb199d3f08e72903980760ba021d7719e364014e8260405161123891906129af565b600054610100900460ff16158080156117475750600054600160ff909116105b806117615750303b158015611761575060005460ff166001145b6117c45760405162461bcd60e51b815260206004820152602e60248201527f496e697469616c697a61626c653a20636f6e747261637420697320616c72656160448201526d191e481a5b9a5d1a585b1a5e995960921b60648201526084016106fa565b6000805460ff1916600117905580156117e7576000805461ff0019166101001790555b6001600160a01b0384166118335760405162461bcd60e51b815260206004820152601360248201527204552433732312061646472657373206973203606c1b60448201526064016106fa565b6001600160a01b03831661187e5760405162461bcd60e51b815260206004820152601260248201527104552433230206164647265737320697320360741b60448201526064016106fa565b6001600160a01b0382166118d45760405162461bcd60e51b815260206004820152601b60248201527f41756374696f6e4d616e6167657220616464726573732069732030000000000060448201526064016106fa565b6118dc612502565b6118e461252b565b42606955606580546001600160a01b038681166001600160a01b0319928316811790935560668054878316908416179055606780548316331790556068805491861691909216811790915560405163a22cb46560e01b815260048101919091526001602482015263a22cb46590604401600060405180830381600087803b15801561196e57600080fd5b505af1158015611982573d6000803e3d6000fd5b5050505080156119cc576000805461ff0019169055604051600181527f7f26b83ff96e1f2b6a682f133852f6798a09c465da95921460cefb38474024989060200160405180910390a15b50505050565b600081815260706020908152604091829020825160c08101845281546001600160a01b0390811682526001830154169281019290925260028101549282019290925260038201546060820181905260049092015460ff808216151560808401526101009091048116151560a0830152606854919291600160a01b90041615611a5957600080fd5b7f00000000000000000000000000000000000000000000000000000000000000007f000000000000000000000000000000000000000000000000000000000000000083606001516001611aac9190612925565b611ab69190612906565b611ac09190612925565b606954611acd9042612867565b11611b1a5760405162461bcd60e51b815260206004820181905260248201527f4c69717569646174696f6e20706572696f642069736e2774207265616368656460448201526064016106fa565b6000818152606c6020526040902054611b455760405162461bcd60e51b81526004016106fa9061289c565b6040808301516000838152606c602052919091205411611ba25760405162461bcd60e51b81526020600482015260186024820152774f7074696f6e206578706972656420776f7274686c65737360401b60448201526064016106fa565b816080015115611be75760405162461bcd60e51b815260206004820152601060248201526f141bdcda5d1a5bdb8818dbdd995c995960821b60448201526064016106fa565b60a08201511515600103611c395760405162461bcd60e51b815260206004820152601960248201527813dc1d1a5bdb88185b1c9958591e481b1a5c5d5a59185d1959603a1b60448201526064016106fa565b600083815260706020908152604080832060048101805461ff00191661010017905580546001600160a01b031916905584810151848452606c909252822054611c829190612867565b6068546065546000858152606c60209081526040918290205488519189015192516355a0e22960e01b81526001600160a01b039485166004820152602481018b905260448101919091529083166064820152908216608482015260a4810184905292935016906355a0e2299060c401600060405180830381600087803b158015611d0b57600080fd5b505af1158015611d1f573d6000803e3d6000fd5b5050506000838152606c60209081526040918290205486519187015192518894507f2e89d436d71507ecb25e79045c0f361b1f3410fb872d034e7b79bb1c245ce65893611d8e939187909384526001600160a01b03928316602085015291166040830152606082015260800190565b60405180910390a250505050565b611da46124a2565b6000611dae610605565b6000818152606a6020908152604080832086845290915290205490915060ff16611dea5760405162461bcd60e51b81526004016106fa90612955565b6000818152606d60209081526040808320858452825280832054848452606e83528184208685529092529091205410611e655760405162461bcd60e51b815260206004820152601c60248201527f416c6c206f7074696f6e732068617665206265656e20626f756768740000000060448201526064016106fa565b611e907f00000000000000000000000000000000000000000000000000000000000000006002612906565b7f0000000000000000000000000000000000000000000000000000000000000000611ebc836001612925565b611ec69190612906565b606954611ed39190612925565b611edd9190612867565b4210611f275760405162461bcd60e51b815260206004820152601960248201527813dc1d1a5bdb88191a591b89dd08195e1c1a5c9959081e595d603a1b60448201526064016106fa565b600080606760009054906101000a90046001600160a01b03166001600160a01b03166310a692e76040518163ffffffff1660e01b8152600401602060405180830381865afa158015611f7d573d6000803e3d6000fd5b505050506040513d601f19601f82011682018060405250810190611fa191906129f3565b6065546040516373be031f60e01b81526001600160a01b0391821660048201529116906373be031f906024016040805180830381865afa158015611fe9573d6000803e3d6000fd5b505050506040513d601f19601f8201168201806040525081019061200d9190612a10565b915091506000606760009054906101000a90046001600160a01b03166001600160a01b031663ef32fcbc6040518163ffffffff1660e01b8152600401602060405180830381865afa158015612066573d6000803e3d6000fd5b505050506040513d601f19601f8201168201806040525081019061208a91906129f3565b6001600160a01b0316635b7b6d8860007f00000000000000000000000000000000000000000000000000000000000000006120c6886001612925565b6120d09190612906565b6069546120dd9190612925565b6040516001600160e01b031960e085901b1681529115156004830152602482015260448101889052606481018590526084810186905260a401602060405180830381865afa158015612133573d6000803e3d6000fd5b505050506040513d601f19601f820116820180604052508101906121579190612a34565b6066546040516323b872dd60e01b81529192506001600160a01b0316906323b872dd9061218c903390309086906004016128e2565b6020604051808303816000875af11580156121ab573d6000803e3d6000fd5b505050506040513d601f19601f820116820180604052508101906121cf9190612938565b6121d857600080fd5b6000848152606e60209081526040808320888452825280832054878452606d835281842089855290925282205460019161221191612867565b61221b9190612867565b6000868152606e602090815260408083208a8452909152812080549293509161224390612980565b909155506000858152606b6020908152604080832089845290915281208054849290612270908490612925565b90915550506000858152606d6020908152604080832089845290915281208054839081106122a0576122a0612999565b600091825260208083209091015480835260709091526040909120600101549091506001600160a01b0316156123245760405162461bcd60e51b815260206004820152602360248201527f54686973206f7074696f6e2068617320616c7265616479206265656e20626f7560448201526219da1d60ea1b60648201526084016106fa565b6000818152607060209081526040918290206001810180546001600160a01b03191633908117909155905483518581529283018b90529282018690526001600160a01b03909216606082015287907f4af1c729c11ed63e83da76e187d5765dd9ed12d695a028e9134a5633bda88abe9060800160405180910390a35050505050506123af6001603355565b50565b6000838152606f6020908152604080832085845282528083206001600160a01b03851684528252808320805490849055868452606b8352818420868552835281842054878552606d8452828520878652909352908320549092906124168484612906565b612420919061287a565b60665460405163a9059cbb60e01b81526001600160a01b0387811660048301526024820184905292935091169063a9059cbb906044016020604051808303816000875af1158015612475573d6000803e3d6000fd5b505050506040513d601f19601f820116820180604052508101906124999190612938565b50505050505050565b6002603354036124f45760405162461bcd60e51b815260206004820152601f60248201527f5265656e7472616e637947756172643a207265656e7472616e742063616c6c0060448201526064016106fa565b6002603355565b6001603355565b600054610100900460ff166125295760405162461bcd60e51b81526004016106fa90612a4d565b565b600054610100900460ff166125525760405162461bcd60e51b81526004016106fa90612a4d565b612529600054610100900460ff166124fb5760405162461bcd60e51b81526004016106fa90612a4d565b60006020828403121561258e57600080fd5b5035919050565b600080604083850312156125a857600080fd5b50508035926020909101359150565b6001600160a01b03811681146123af57600080fd5b634e487b7160e01b600052604160045260246000fd5b604051601f8201601f1916810167ffffffffffffffff8111828210171561260b5761260b6125cc565b604052919050565b6000806000806080858703121561262957600080fd5b8435612634816125b7565b9350602085810135612645816125b7565b935060408601359250606086013567ffffffffffffffff8082111561266957600080fd5b818801915088601f83011261267d57600080fd5b81358181111561268f5761268f6125cc565b6126a1601f8201601f191685016125e2565b915080825289848285010111156126b757600080fd5b808484018584013760008482840101525080935050505092959194509250565b6000806000606084860312156126ec57600080fd5b83359250602084013591506040840135612705816125b7565b809150509250925092565b60006020828403121561272257600080fd5b813561272d816125b7565b9392505050565b80151581146123af57600080fd5b60006020828403121561275457600080fd5b813561272d81612734565b6000806040838503121561277257600080fd5b8235915060208084013567ffffffffffffffff8082111561279257600080fd5b818601915086601f8301126127a657600080fd5b8135818111156127b8576127b86125cc565b8060051b91506127c98483016125e2565b81815291830184019184810190898411156127e357600080fd5b938501935b83851015612801578435825293850193908501906127e8565b8096505050505050509250929050565b60008060006060848603121561282657600080fd5b8335612831816125b7565b92506020840135612841816125b7565b91506040840135612705816125b7565b634e487b7160e01b600052601160045260246000fd5b818103818111156109bb576109bb612851565b60008261289757634e487b7160e01b600052601260045260246000fd5b500490565b60208082526026908201527f466c6f6f72207072696365206e6f7420736574746c656420666f722074686973604082015265040cae0dec6d60d31b606082015260800190565b6001600160a01b039384168152919092166020820152604081019190915260600190565b600081600019048311821515161561292057612920612851565b500290565b808201808211156109bb576109bb612851565b60006020828403121561294a57600080fd5b815161272d81612734565b60208082526011908201527057726f6e6720737472696b65507269636560781b604082015260600190565b60006001820161299257612992612851565b5060010190565b634e487b7160e01b600052603260045260246000fd5b6020808252825182820181905260009190848201906040850190845b818110156129e7578351835292840192918401916001016129cb565b50909695505050505050565b600060208284031215612a0557600080fd5b815161272d816125b7565b60008060408385031215612a2357600080fd5b505080516020909101519092909150565b600060208284031215612a4657600080fd5b5051919050565b6020808252602b908201527f496e697469616c697a61626c653a20636f6e7472616374206973206e6f74206960408201526a6e697469616c697a696e6760a81b60608201526080019056fea264697066735822122043e07461194127c600e112fe3eb255b7f3f8d64a36721612de64f50e25b4b36464736f6c63430008100033",
    "linkReferences": {}
  },
  "methodIdentifiers": {
    "auctionManager()": "b0192f9a",
    "bidAuction(uint256,uint256)": "7587b4df",
    "buyAtStrike(uint256)": "2398fdcf",
    "buyOption(uint256)": "fba225b9",
    "claimPremiums(uint256,uint256)": "04ed8ef7",
    "coverPosition(uint256)": "09b4a81c",
    "endAuction(uint256)": "b9a2de3a",
    "erc20()": "785e9e86",
    "erc721()": "bca6ce64",
    "getAmountLockedAt(uint256,uint256)": "910294ca",
    "getEpochDuration()": "5d3ea8f1",
    "getEpoch_2e()": "0000ae4a",
    "getFloorPrice(uint256)": "b2d4cf18",
    "getInterval()": "91ad27b4",
    "getOption(uint256)": "1ce5e9a6",
    "getOptionAvailableAt(uint256,uint256)": "086e0f09",
    "getSharesAtOf(uint256,uint256,address)": "5e7c3f9a",
    "hatching()": "bce47716",
    "initialize(address,address,address)": "c0c53b8b",
    "liquidateNFT(uint256)": "f95dc232",
    "liquidationInterrupted()": "46953c47",
    "onERC721Received(address,address,uint256,bytes)": "150b7a02",
    "restake(uint256,uint256)": "b8e7023d",
    "setAuctionManager(address)": "95e4cacb",
    "setLiquidationInterrupted(bool)": "b1b3dd3a",
    "setStrikePriceAt(uint256,uint256[])": "ba4ec52a",
    "setfloorpriceAt(uint256,uint256)": "8992bc77",
    "stake(uint256,uint256)": "7b0472f0",
    "strikeController()": "45be8694",
    "withdrawNFT(uint256)": "023245d7"
  },
  "id": 55
}