{
  "abi": [
    {
      "anonymous": false,
      "inputs": [
        {
          "indexed": true,
          "internalType": "uint256",
          "name": "_epoch",
          "type": "uint256"
        },
        {
          "indexed": false,
          "internalType": "uint256",
          "name": "_tokenId",
          "type": "uint256"
        },
        {
          "indexed": false,
          "internalType": "uint256",
          "name": "_strikePrice",
          "type": "uint256"
        },
        {
          "indexed": false,
          "internalType": "uint256",
          "name": "_premium",
          "type": "uint256"
        },
        {
          "indexed": true,
          "internalType": "address",
          "name": "_buyer",
          "type": "address"
        }
      ],
      "name": "BuyOption",
      "type": "event"
    },
    {
      "anonymous": false,
      "inputs": [
        {
          "indexed": true,
          "internalType": "uint256",
          "name": "_epoch",
          "type": "uint256"
        },
        {
          "indexed": false,
          "internalType": "uint256",
          "name": "_shares",
          "type": "uint256"
        },
        {
          "indexed": false,
          "internalType": "uint256",
          "name": "_premiums",
          "type": "uint256"
        },
        {
          "indexed": true,
          "internalType": "address",
          "name": "_owner",
          "type": "address"
        }
      ],
      "name": "ClaimPremiums",
      "type": "event"
    },
    {
      "anonymous": false,
      "inputs": [
        {
          "indexed": true,
          "internalType": "uint256",
          "name": "_epoch",
          "type": "uint256"
        },
        {
          "indexed": false,
          "internalType": "uint256",
          "name": "_tokenId",
          "type": "uint256"
        },
        {
          "indexed": false,
          "internalType": "uint256",
          "name": "_debt",
          "type": "uint256"
        },
        {
          "indexed": true,
          "internalType": "address",
          "name": "_writer",
          "type": "address"
        }
      ],
      "name": "CoverPosition",
      "type": "event"
    },
    {
      "anonymous": false,
      "inputs": [
        {
          "indexed": false,
          "internalType": "uint8",
          "name": "version",
          "type": "uint8"
        }
      ],
      "name": "Initialized",
      "type": "event"
    },
    {
      "anonymous": false,
      "inputs": [
        {
          "indexed": true,
          "internalType": "uint256",
          "name": "_tokenId",
          "type": "uint256"
        },
        {
          "indexed": false,
          "internalType": "uint256",
          "name": "_firstPrice",
          "type": "uint256"
        },
        {
          "indexed": false,
          "internalType": "address",
          "name": "_writer",
          "type": "address"
        },
        {
          "indexed": false,
          "internalType": "address",
          "name": "_buyer",
          "type": "address"
        },
        {
          "indexed": false,
          "internalType": "uint256",
          "name": "_debt",
          "type": "uint256"
        }
      ],
      "name": "LiquidateNFT",
      "type": "event"
    },
    {
      "anonymous": false,
      "inputs": [
        {
          "indexed": true,
          "internalType": "uint256",
          "name": "_epoch",
          "type": "uint256"
        },
        {
          "indexed": false,
          "internalType": "uint256",
          "name": "_tokenId",
          "type": "uint256"
        },
        {
          "indexed": false,
          "internalType": "uint256",
          "name": "_strikePrice",
          "type": "uint256"
        },
        {
          "indexed": true,
          "internalType": "address",
          "name": "_writer",
          "type": "address"
        }
      ],
      "name": "ReStake",
      "type": "event"
    },
    {
      "anonymous": false,
      "inputs": [
        {
          "indexed": true,
          "internalType": "bytes32",
          "name": "role",
          "type": "bytes32"
        },
        {
          "indexed": true,
          "internalType": "bytes32",
          "name": "previousAdminRole",
          "type": "bytes32"
        },
        {
          "indexed": true,
          "internalType": "bytes32",
          "name": "newAdminRole",
          "type": "bytes32"
        }
      ],
      "name": "RoleAdminChanged",
      "type": "event"
    },
    {
      "anonymous": false,
      "inputs": [
        {
          "indexed": true,
          "internalType": "bytes32",
          "name": "role",
          "type": "bytes32"
        },
        {
          "indexed": true,
          "internalType": "address",
          "name": "account",
          "type": "address"
        },
        {
          "indexed": true,
          "internalType": "address",
          "name": "sender",
          "type": "address"
        }
      ],
      "name": "RoleGranted",
      "type": "event"
    },
    {
      "anonymous": false,
      "inputs": [
        {
          "indexed": true,
          "internalType": "bytes32",
          "name": "role",
          "type": "bytes32"
        },
        {
          "indexed": true,
          "internalType": "address",
          "name": "account",
          "type": "address"
        },
        {
          "indexed": true,
          "internalType": "address",
          "name": "sender",
          "type": "address"
        }
      ],
      "name": "RoleRevoked",
      "type": "event"
    },
    {
      "anonymous": false,
      "inputs": [
        {
          "indexed": true,
          "internalType": "uint256",
          "name": "_epoch",
          "type": "uint256"
        },
        {
          "indexed": false,
          "internalType": "uint256",
          "name": "_floorPrice",
          "type": "uint256"
        }
      ],
      "name": "SetFloorPrice",
      "type": "event"
    },
    {
      "anonymous": false,
      "inputs": [
        {
          "indexed": true,
          "internalType": "uint256",
          "name": "_epoch",
          "type": "uint256"
        },
        {
          "indexed": false,
          "internalType": "uint256[]",
          "name": "_strikePrices",
          "type": "uint256[]"
        }
      ],
      "name": "SetStrikePrice",
      "type": "event"
    },
    {
      "anonymous": false,
      "inputs": [
        {
          "indexed": true,
          "internalType": "uint256",
          "name": "_epoch",
          "type": "uint256"
        },
        {
          "indexed": false,
          "internalType": "uint256",
          "name": "_tokenId",
          "type": "uint256"
        },
        {
          "indexed": false,
          "internalType": "uint256",
          "name": "_strikePrice",
          "type": "uint256"
        },
        {
          "indexed": true,
          "internalType": "address",
          "name": "_writer",
          "type": "address"
        }
      ],
      "name": "Stake",
      "type": "event"
    },
    {
      "anonymous": false,
      "inputs": [
        {
          "indexed": true,
          "internalType": "uint256",
          "name": "_tokenId",
          "type": "uint256"
        },
        {
          "indexed": true,
          "internalType": "address",
          "name": "_owner",
          "type": "address"
        }
      ],
      "name": "WithdrawNFT",
      "type": "event"
    },
    {
      "inputs": [],
      "name": "DEFAULT_ADMIN_ROLE",
      "outputs": [
        {
          "internalType": "bytes32",
          "name": "",
          "type": "bytes32"
        }
      ],
      "stateMutability": "view",
      "type": "function"
    },
    {
      "inputs": [],
      "name": "FLOOR_PRICE_PROVIDER_ROLE",
      "outputs": [
        {
          "internalType": "bytes32",
          "name": "",
          "type": "bytes32"
        }
      ],
      "stateMutability": "view",
      "type": "function"
    },
    {
      "inputs": [],
      "name": "auctionManager",
      "outputs": [
        {
          "internalType": "address",
          "name": "",
          "type": "address"
        }
      ],
      "stateMutability": "view",
      "type": "function"
    },
    {
      "inputs": [
        {
          "internalType": "uint256",
          "name": "_tokenId",
          "type": "uint256"
        },
        {
          "internalType": "uint256",
          "name": "_amount",
          "type": "uint256"
        }
      ],
      "name": "bidAuction",
      "outputs": [],
      "stateMutability": "nonpayable",
      "type": "function"
    },
    {
      "inputs": [
        {
          "internalType": "uint256",
          "name": "_tokenId",
          "type": "uint256"
        }
      ],
      "name": "buyAtStrike",
      "outputs": [],
      "stateMutability": "nonpayable",
      "type": "function"
    },
    {
      "inputs": [
        {
          "internalType": "uint256",
          "name": "_strikePrice",
          "type": "uint256"
        },
        {
          "internalType": "uint256",
          "name": "_amount",
          "type": "uint256"
        }
      ],
      "name": "buyOptions",
      "outputs": [],
      "stateMutability": "nonpayable",
      "type": "function"
    },
    {
      "inputs": [
        {
          "internalType": "uint256",
          "name": "_epoch",
          "type": "uint256"
        },
        {
          "internalType": "uint256",
          "name": "_strikePrice",
          "type": "uint256"
        }
      ],
      "name": "claimPremiums",
      "outputs": [],
      "stateMutability": "nonpayable",
      "type": "function"
    },
    {
      "inputs": [
        {
          "internalType": "uint256",
          "name": "_tokenId",
          "type": "uint256"
        }
      ],
      "name": "coverPosition",
      "outputs": [],
      "stateMutability": "nonpayable",
      "type": "function"
    },
    {
      "inputs": [
        {
          "internalType": "uint256",
          "name": "_tokenId",
          "type": "uint256"
        }
      ],
      "name": "endAuction",
      "outputs": [],
      "stateMutability": "nonpayable",
      "type": "function"
    },
    {
      "inputs": [],
      "name": "erc20",
      "outputs": [
        {
          "internalType": "address",
          "name": "",
          "type": "address"
        }
      ],
      "stateMutability": "view",
      "type": "function"
    },
    {
      "inputs": [],
      "name": "erc721",
      "outputs": [
        {
          "internalType": "address",
          "name": "",
          "type": "address"
        }
      ],
      "stateMutability": "view",
      "type": "function"
    },
    {
      "inputs": [
        {
          "internalType": "uint256",
          "name": "_epoch",
          "type": "uint256"
        },
        {
          "internalType": "uint256",
          "name": "_strikePrice",
          "type": "uint256"
        }
      ],
      "name": "getAmountLockedAt",
      "outputs": [
        {
          "internalType": "uint256",
          "name": "",
          "type": "uint256"
        }
      ],
      "stateMutability": "view",
      "type": "function"
    },
    {
      "inputs": [],
      "name": "getEpochDuration",
      "outputs": [
        {
          "internalType": "uint256",
          "name": "",
          "type": "uint256"
        }
      ],
      "stateMutability": "pure",
      "type": "function"
    },
    {
      "inputs": [],
      "name": "getEpoch_2e",
      "outputs": [
        {
          "internalType": "uint256",
          "name": "",
          "type": "uint256"
        }
      ],
      "stateMutability": "view",
      "type": "function"
    },
    {
      "inputs": [
        {
          "internalType": "uint256",
          "name": "_epoch",
          "type": "uint256"
        }
      ],
      "name": "getFloorPrice",
      "outputs": [
        {
          "internalType": "uint256",
          "name": "",
          "type": "uint256"
        }
      ],
      "stateMutability": "view",
      "type": "function"
    },
    {
      "inputs": [],
      "name": "getInterval",
      "outputs": [
        {
          "internalType": "uint256",
          "name": "",
          "type": "uint256"
        }
      ],
      "stateMutability": "pure",
      "type": "function"
    },
    {
      "inputs": [
        {
          "internalType": "uint256",
          "name": "_tokenId",
          "type": "uint256"
        }
      ],
      "name": "getOption",
      "outputs": [
        {
          "components": [
            {
              "internalType": "address",
              "name": "writer",
              "type": "address"
            },
            {
              "internalType": "address",
              "name": "buyer",
              "type": "address"
            },
            {
              "internalType": "uint256",
              "name": "sPrice",
              "type": "uint256"
            },
            {
              "internalType": "uint256",
              "name": "epoch",
              "type": "uint256"
            },
            {
              "internalType": "bool",
              "name": "covered",
              "type": "bool"
            },
            {
              "internalType": "bool",
              "name": "liquidated",
              "type": "bool"
            }
          ],
          "internalType": "struct StrikePool.Option",
          "name": "option",
          "type": "tuple"
        }
      ],
      "stateMutability": "view",
      "type": "function"
    },
    {
      "inputs": [
        {
          "internalType": "uint256",
          "name": "_epoch",
          "type": "uint256"
        },
        {
          "internalType": "uint256",
          "name": "_strikePrice",
          "type": "uint256"
        }
      ],
      "name": "getOptionAvailableAt",
      "outputs": [
        {
          "internalType": "uint256",
          "name": "",
          "type": "uint256"
        }
      ],
      "stateMutability": "view",
      "type": "function"
    },
    {
      "inputs": [
        {
          "internalType": "bytes32",
          "name": "role",
          "type": "bytes32"
        }
      ],
      "name": "getRoleAdmin",
      "outputs": [
        {
          "internalType": "bytes32",
          "name": "",
          "type": "bytes32"
        }
      ],
      "stateMutability": "view",
      "type": "function"
    },
    {
      "inputs": [
        {
          "internalType": "uint256",
          "name": "_epoch",
          "type": "uint256"
        },
        {
          "internalType": "uint256",
          "name": "_strikePrice",
          "type": "uint256"
        },
        {
          "internalType": "address",
          "name": "_add",
          "type": "address"
        }
      ],
      "name": "getSharesAtOf",
      "outputs": [
        {
          "internalType": "uint256",
          "name": "",
          "type": "uint256"
        }
      ],
      "stateMutability": "view",
      "type": "function"
    },
    {
      "inputs": [
        {
          "internalType": "bytes32",
          "name": "role",
          "type": "bytes32"
        },
        {
          "internalType": "address",
          "name": "account",
          "type": "address"
        }
      ],
      "name": "grantRole",
      "outputs": [],
      "stateMutability": "nonpayable",
      "type": "function"
    },
    {
      "inputs": [
        {
          "internalType": "bytes32",
          "name": "role",
          "type": "bytes32"
        },
        {
          "internalType": "address",
          "name": "account",
          "type": "address"
        }
      ],
      "name": "hasRole",
      "outputs": [
        {
          "internalType": "bool",
          "name": "",
          "type": "bool"
        }
      ],
      "stateMutability": "view",
      "type": "function"
    },
    {
      "inputs": [],
      "name": "hatching",
      "outputs": [
        {
          "internalType": "uint256",
          "name": "",
          "type": "uint256"
        }
      ],
      "stateMutability": "view",
      "type": "function"
    },
    {
      "inputs": [
        {
          "internalType": "address",
          "name": "_erc721",
          "type": "address"
        },
        {
          "internalType": "address",
          "name": "_erc20",
          "type": "address"
        },
        {
          "internalType": "address",
          "name": "_auctionManager",
          "type": "address"
        },
        {
          "internalType": "address",
          "name": "_optionPricing",
          "type": "address"
        },
        {
          "internalType": "address",
          "name": "_volatilityOracle",
          "type": "address"
        },
        {
          "internalType": "address",
          "name": "_admin",
          "type": "address"
        }
      ],
      "name": "initialize",
      "outputs": [],
      "stateMutability": "nonpayable",
      "type": "function"
    },
    {
      "inputs": [
        {
          "internalType": "uint256",
          "name": "_tokenId",
          "type": "uint256"
        }
      ],
      "name": "liquidateNFT",
      "outputs": [],
      "stateMutability": "nonpayable",
      "type": "function"
    },
    {
      "inputs": [],
      "name": "liquidationInterrupted",
      "outputs": [
        {
          "internalType": "bool",
          "name": "",
          "type": "bool"
        }
      ],
      "stateMutability": "view",
      "type": "function"
    },
    {
      "inputs": [
        {
          "internalType": "address",
          "name": "",
          "type": "address"
        },
        {
          "internalType": "address",
          "name": "",
          "type": "address"
        },
        {
          "internalType": "uint256",
          "name": "",
          "type": "uint256"
        },
        {
          "internalType": "bytes",
          "name": "",
          "type": "bytes"
        }
      ],
      "name": "onERC721Received",
      "outputs": [
        {
          "internalType": "bytes4",
          "name": "",
          "type": "bytes4"
        }
      ],
      "stateMutability": "nonpayable",
      "type": "function"
    },
    {
      "inputs": [],
      "name": "optionPricing",
      "outputs": [
        {
          "internalType": "address",
          "name": "",
          "type": "address"
        }
      ],
      "stateMutability": "view",
      "type": "function"
    },
    {
      "inputs": [
        {
          "internalType": "bytes32",
          "name": "role",
          "type": "bytes32"
        },
        {
          "internalType": "address",
          "name": "account",
          "type": "address"
        }
      ],
      "name": "renounceRole",
      "outputs": [],
      "stateMutability": "nonpayable",
      "type": "function"
    },
    {
      "inputs": [
        {
          "internalType": "uint256",
          "name": "_tokenId",
          "type": "uint256"
        },
        {
          "internalType": "uint256",
          "name": "_strikePrice",
          "type": "uint256"
        }
      ],
      "name": "restakeNFTs",
      "outputs": [],
      "stateMutability": "nonpayable",
      "type": "function"
    },
    {
      "inputs": [
        {
          "internalType": "uint256[]",
          "name": "_tokenIds",
          "type": "uint256[]"
        },
        {
          "internalType": "uint256",
          "name": "_strikePrice",
          "type": "uint256"
        }
      ],
      "name": "restakeNFTs",
      "outputs": [],
      "stateMutability": "nonpayable",
      "type": "function"
    },
    {
      "inputs": [
        {
          "internalType": "bytes32",
          "name": "role",
          "type": "bytes32"
        },
        {
          "internalType": "address",
          "name": "account",
          "type": "address"
        }
      ],
      "name": "revokeRole",
      "outputs": [],
      "stateMutability": "nonpayable",
      "type": "function"
    },
    {
      "inputs": [
        {
          "internalType": "address",
          "name": "_auctionManager",
          "type": "address"
        }
      ],
      "name": "setAuctionManager",
      "outputs": [],
      "stateMutability": "nonpayable",
      "type": "function"
    },
    {
      "inputs": [
        {
          "internalType": "uint256",
          "name": "_epoch",
          "type": "uint256"
        },
        {
          "internalType": "uint256",
          "name": "_floorPrice",
          "type": "uint256"
        }
      ],
      "name": "setFloorPriceAt",
      "outputs": [],
      "stateMutability": "nonpayable",
      "type": "function"
    },
    {
      "inputs": [
        {
          "internalType": "address",
          "name": "_provider",
          "type": "address"
        }
      ],
      "name": "setFloorPriceProvider",
      "outputs": [],
      "stateMutability": "nonpayable",
      "type": "function"
    },
    {
      "inputs": [
        {
          "internalType": "bool",
          "name": "_liquidationInterrupted",
          "type": "bool"
        }
      ],
      "name": "setLiquidationInterrupted",
      "outputs": [],
      "stateMutability": "nonpayable",
      "type": "function"
    },
    {
      "inputs": [
        {
          "internalType": "address",
          "name": "_optionPricing",
          "type": "address"
        }
      ],
      "name": "setOptionPricing",
      "outputs": [],
      "stateMutability": "nonpayable",
      "type": "function"
    },
    {
      "inputs": [
        {
          "internalType": "uint256",
          "name": "_epoch",
          "type": "uint256"
        },
        {
          "internalType": "uint256[]",
          "name": "_strikePrices",
          "type": "uint256[]"
        }
      ],
      "name": "setStrikePriceAt",
      "outputs": [],
      "stateMutability": "nonpayable",
      "type": "function"
    },
    {
      "inputs": [
        {
          "internalType": "address",
          "name": "_volatilityOracle",
          "type": "address"
        }
      ],
      "name": "setVolatilityOracle",
      "outputs": [],
      "stateMutability": "nonpayable",
      "type": "function"
    },
    {
      "inputs": [
        {
          "internalType": "uint256[]",
          "name": "_tokenIds",
          "type": "uint256[]"
        },
        {
          "internalType": "uint256",
          "name": "_strikePrice",
          "type": "uint256"
        }
      ],
      "name": "stakeNFTs",
      "outputs": [],
      "stateMutability": "nonpayable",
      "type": "function"
    },
    {
      "inputs": [
        {
          "internalType": "uint256",
          "name": "_tokenId",
          "type": "uint256"
        },
        {
          "internalType": "uint256",
          "name": "_strikePrice",
          "type": "uint256"
        }
      ],
      "name": "stakeNFTs",
      "outputs": [],
      "stateMutability": "nonpayable",
      "type": "function"
    },
    {
      "inputs": [],
      "name": "strikeController",
      "outputs": [
        {
          "internalType": "address",
          "name": "",
          "type": "address"
        }
      ],
      "stateMutability": "view",
      "type": "function"
    },
    {
      "inputs": [
        {
          "internalType": "bytes4",
          "name": "interfaceId",
          "type": "bytes4"
        }
      ],
      "name": "supportsInterface",
      "outputs": [
        {
          "internalType": "bool",
          "name": "",
          "type": "bool"
        }
      ],
      "stateMutability": "view",
      "type": "function"
    },
    {
      "inputs": [],
      "name": "volatilityOracle",
      "outputs": [
        {
          "internalType": "address",
          "name": "",
          "type": "address"
        }
      ],
      "stateMutability": "view",
      "type": "function"
    },
    {
      "inputs": [
        {
          "internalType": "uint256",
          "name": "_tokenId",
          "type": "uint256"
        }
      ],
      "name": "withdrawNFT",
      "outputs": [],
      "stateMutability": "nonpayable",
      "type": "function"
    }
  ],
  "bytecode": {
    "object": "0x608060405234801561001057600080fd5b50613695806100206000396000f3fe608060405234801561001057600080fd5b506004361061027d5760003560e01c80635e7c3f9a1161015c578063b0192f9a116100ce578063bce4771611610087578063bce47716146106fc578063cc2a9a5b14610706578063d547741f14610719578063f0ceb3081461072c578063f6a76a811461073f578063f95dc2321461075257600080fd5b8063b0192f9a1461067c578063b1b3dd3a1461068f578063b2d4cf18146106a2578063b9a2de3a146106c3578063ba4ec52a146106d6578063bca6ce64146106e957600080fd5b806391ad27b41161012057806391ad27b41461061f57806391d148541461062857806395e4cacb1461063b5780639badb9681461064e5780639c78a52614610661578063a217fddf1461067457600080fd5b80635e7c3f9a1461057a578063707c4ac2146105b85780637587b4df146105cd578063785e9e86146105e0578063910294ca146105f357600080fd5b80632f2ff15d116101f557806340dcf8ef116101b957806340dcf8ef1461050f57806345be86941461052257806346953c471461053557806355b13a4f1461054a57806357db99cd1461055e5780635d3ea8f11461057157600080fd5b80632f2ff15d146104b05780632fd2fa32146104c357806332f2a017146104d657806336568abe146104e95780634038e44e146104fc57600080fd5b806309b4a81c1161024757806309b4a81c146102fb578063150b7a021461030e5780631ce5e9a6146103455780631e3394fb1461044f5780632398fdcf1461047a578063248a9ca31461048d57600080fd5b8061ae4a1461028257806301ffc9a71461029d578063023245d7146102c057806304ed8ef7146102d5578063086e0f09146102e8575b600080fd5b61028a610765565b6040519081526020015b60405180910390f35b6102b06102ab366004612e8b565b610789565b6040519015158152602001610294565b6102d36102ce366004612eb5565b6107c0565b005b6102d36102e3366004612ece565b610a58565b61028a6102f6366004612ece565b610af4565b6102d3610309366004612eb5565b610b34565b61032c61031c366004612f53565b630a85bd0160e11b949350505050565b6040516001600160e01b03199091168152602001610294565b6103f6610353366004612eb5565b6040805160c081018252600080825260208201819052918101829052606081018290526080810182905260a08101919091525060009081526101086020908152604091829020825160c08101845281546001600160a01b039081168252600183015416928101929092526002810154928201929092526003820154606082015260049091015460ff8082161515608084015261010090910416151560a082015290565b604051610294919081516001600160a01b03908116825260208084015190911690820152604080830151908201526060808301519082015260808083015115159082015260a09182015115159181019190915260c00190565b60ff54610462906001600160a01b031681565b6040516001600160a01b039091168152602001610294565b6102d3610488366004612eb5565b610ed0565b61028a61049b366004612eb5565b600090815260c9602052604090206001015490565b6102d36104be366004613013565b611174565b6102d36104d13660046130bf565b61119e565b6102d36104e4366004612ece565b611272565b6102d36104f7366004613013565b611316565b6102d361050a366004612ece565b611390565b6102d361051d366004613104565b611469565b60fd54610462906001600160a01b031681565b610100546102b090600160a01b900460ff1681565b61010054610462906001600160a01b031681565b6102d361056c366004612ece565b6114ab565b6212750061028a565b61028a61058836600461311f565b6000928352610107602090815260408085209385529281528284206001600160a01b039290921684525290205490565b61028a60008051602061364083398151915281565b6102d36105db366004612ece565b61195f565b60fc54610462906001600160a01b031681565b61028a610601366004612ece565b60009182526101056020908152604080842092845291905290205490565b6201518061028a565b6102b0610636366004613013565b6119a7565b6102d3610649366004613104565b6119d2565b6102d361065c366004613154565b611a1b565b6102d361066f366004613104565b611af9565b61028a600081565b60fe54610462906001600160a01b031681565b6102d361069d3660046131dd565b611b43565b61028a6106b0366004612eb5565b6000908152610104602052604090205490565b6102d36106d1366004612eb5565b611b89565b6102d36106e43660046131fa565b611c3c565b60fb54610462906001600160a01b031681565b61028a6101015481565b6102d3610714366004613241565b611d22565b6102d3610727366004613013565b61211d565b6102d361073a366004612ece565b612142565b6102d361074d366004613104565b61220e565b6102d3610760366004612eb5565b612257565b600062127500610101544261077a91906132cb565b61078491906132de565b905090565b60006001600160e01b03198216637965db0b60e01b14806107ba57506301ffc9a760e01b6001600160e01b03198316145b92915050565b60008181526101086020908152604091829020825160c08101845281546001600160a01b0390811682526001830154169281019290925260028101549282019290925260038201546060820181905260049092015460ff8082161515608084015261010090910416151560a082015290610838610765565b1161087f5760405162461bcd60e51b8152602060048201526012602482015271115c1bd8da081b9bdd08199a5b9a5cda195960721b60448201526064015b60405180910390fd5b6060810151600090815261010460205260409020546108b05760405162461bcd60e51b815260040161087690613300565b80516001600160a01b031633146109015760405162461bcd60e51b81526020600482015260156024820152742cb7ba9030b932903737ba103a34329037bbb732b960591b6044820152606401610876565b60408082015160608301516000908152610104602052919091205411158061092a575080608001515b80610940575060208101516001600160a01b0316155b6109825760405162461bcd60e51b815260206004820152601360248201527221b7bb32b9103cb7bab9103837b9b4ba34b7b760691b6044820152606401610876565b60608101516000908152610107602090815260408083208185015184528252808320338452909152902054156109c5576109c581606001518260400151336125ef565b600082815261010860205260409081902080546001600160a01b03191681556004908101805460ff1916905560fb549151632142170760e11b81526001600160a01b03909216916342842e0e91610a229130913391889101613346565b600060405180830381600087803b158015610a3c57600080fd5b505af1158015610a50573d6000803e3d6000fd5b505050505050565b610a6662015180600261336a565b62127500610a75846001613389565b610a7f919061336a565b61010154610a8d9190613389565b610a9791906132cb565b4211610ae55760405162461bcd60e51b815260206004820152601960248201527f4f7074696f6e206469646e2774206578706972656420796574000000000000006044820152606401610876565b610af08282336125ef565b5050565b6000828152610106602090815260408083208484528252808320548584526101058352818420858552909252822054610b2d91906132cb565b9392505050565b60008181526101086020908152604091829020825160c08101845281546001600160a01b0390811682526001830154169281019290925260028082015493830193909352600381015460608301526004015460ff8082161515608084015261010090910416151560a082015290610baf90620151809061336a565b6212750082606001516001610bc49190613389565b610bce919061336a565b610bd891906132cb565b61010154610be690426132cb565b11610c2c5760405162461bcd60e51b815260206004820152601660248201527513dc1d1a5bdb881a185cc81b9bdd08195e1c1a5c995960521b6044820152606401610876565b606081015160009081526101046020526040902054610c5d5760405162461bcd60e51b815260040161087690613300565b60408082015160608301516000908152610104602052919091205411610cc05760405162461bcd60e51b81526020600482015260186024820152774f7074696f6e206578706972656420776f7274686c65737360401b6044820152606401610876565b60a08101511515600103610d125760405162461bcd60e51b815260206004820152601960248201527813dc1d1a5bdb88185b1c9958591e481b1a5c5d5a59185d1959603a1b6044820152606401610876565b60208101516001600160a01b0316610d6c5760405162461bcd60e51b815260206004820152601b60248201527f4f7074696f6e2068617665206e6f74206265656e20626f7567687400000000006044820152606401610876565b806080015115610db75760405162461bcd60e51b815260206004820152601660248201527513dc1d1a5bdb88185b1c9958591e4818dbdd995c995960521b6044820152606401610876565b6040808201516060830151600090815261010460205291822054610ddb91906132cb565b60fc5460208401516040516323b872dd60e01b81529293506001600160a01b03909116916323b872dd91610e16913391908690600401613346565b6020604051808303816000875af1158015610e35573d6000803e3d6000fd5b505050506040513d601f19601f82011682018060405250810190610e59919061339c565b610e6257600080fd5b6000838152610108602052604090819020600401805460ff19166001179055606083015190513391907fa50aba55e04faf40c71fe96fc43e61466514b3eabd191d36723abf170ea0b82190610ec39087908690918252602082015260400190565b60405180910390a3505050565b60008181526101086020908152604091829020825160c08101845281546001600160a01b039081168252600183015416928101839052600282015493810193909352600381015460608401526004015460ff8082161515608085015261010090910416151560a08301523314610f885760405162461bcd60e51b815260206004820152601960248201527f596f7520646f6e2774206f776e2074686973206f7074696f6e000000000000006044820152606401610876565b8060600151610f95610765565b11610fd75760405162461bcd60e51b8152602060048201526012602482015271115c1bd8da081b9bdd08199a5b9a5cda195960721b6044820152606401610876565b80608001511561101c5760405162461bcd60e51b815260206004820152601060248201526f141bdcda5d1a5bdb8818dbdd995c995960821b6044820152606401610876565b8060a001511561106e5760405162461bcd60e51b815260206004820152601960248201527f6f7074696f6e20616c7265616479206c697175696461746564000000000000006044820152606401610876565b60608101516000908152610104602052604090205461109f5760405162461bcd60e51b815260040161087690613300565b60fc54815160408084015190516323b872dd60e01b81526001600160a01b03909316926323b872dd926110d6923392600401613346565b6020604051808303816000875af11580156110f5573d6000803e3d6000fd5b505050506040513d601f19601f82011682018060405250810190611119919061339c565b61112257600080fd5b600082815261010860205260409081902080546001600160a01b031916905560fb549051632142170760e11b81526001600160a01b03909116906342842e0e90610a2290309033908790600401613346565b600082815260c9602052604090206001015461118f816126d9565b61119983836126e3565b505050565b60006111a8610765565b6111b3906001613389565b60008181526101026020908152604080832086845290915290205490915060ff166111f05760405162461bcd60e51b8152600401610876906133b9565b60005b83518110156112335761122182858381518110611212576112126133e4565b60200260200101518533612769565b8061122b816133fa565b9150506111f3565b508251600082815261010760209081526040808320868452825280832033845290915281208054909190611268908490613389565b9091555050505050565b61127a61287c565b6000611284610765565b61128f906001613389565b60008181526101026020908152604080832086845290915290205490915060ff166112cc5760405162461bcd60e51b8152600401610876906133b9565b6112d8818484336128d5565b600081815261010760209081526040808320858452825280832033845290915281208054909190611308906133fa565b909155505060016033555050565b6001600160a01b03811633146113865760405162461bcd60e51b815260206004820152602f60248201527f416363657373436f6e74726f6c3a2063616e206f6e6c792072656e6f756e636560448201526e103937b632b9903337b91039b2b63360891b6064820152608401610876565b610af08282612b94565b6113a8600080516020613640833981519152336119a7565b806113b957506113b96000336119a7565b6113d55760405162461bcd60e51b815260040161087690613413565b600081116114175760405162461bcd60e51b815260206004820152600f60248201526e0466c6f6f72207072696365203c203608c1b6044820152606401610876565b60008281526101046020526040908190208290555182907fd0c77e56cd2323339048d90b422e11cdef714664667e099ece9c2cf153a2d3979061145d9084815260200190565b60405180910390a25050565b6114746000336119a7565b6114905760405162461bcd60e51b815260040161087690613459565b6114a8600080516020613640833981519152826126e3565b50565b6114b361287c565b60006114bd610765565b60008181526101026020908152604080832087845290915290205490915060ff166114fa5760405162461bcd60e51b8152600401610876906133b9565b61150862015180600261336a565b62127500611517836001613389565b611521919061336a565b6101015461152f9190613389565b61153991906132cb565b42106115875760405162461bcd60e51b815260206004820152601760248201527f5761697420666f7220746865206e6578742065706f63680000000000000000006044820152606401610876565b60008181526101066020908152604080832086845282528083205484845261010583528184208785529092528220546115c091906132cb565b9050808311156116125760405162461bcd60e51b815260206004820152601b60248201527f4e6f7420656e6f75676820746f6b656e7320617661696c61626c6500000000006044820152606401610876565b6101005460fb546040516373be031f60e01b81526001600160a01b039182166004820152600092839216906373be031f906024016040805180830381865afa158015611662573d6000803e3d6000fd5b505050506040513d601f19601f820116820180604052508101906116869190613490565b60ff5491935091506000906001600160a01b0316635b7b6d8882621275006116af896001613389565b6116b9919061336a565b610101546116c79190613389565b6040516001600160e01b031960e085901b16815291151560048301526024820152604481018a9052606481018590526084810186905260a401602060405180830381865afa15801561171d573d6000803e3d6000fd5b505050506040513d601f19601f8201168201806040525081019061174191906134b4565b60fc549091506001600160a01b03166323b872dd3330611761858b61336a565b6040518463ffffffff1660e01b815260040161177f93929190613346565b6020604051808303816000875af115801561179e573d6000803e3d6000fd5b505050506040513d601f19601f820116820180604052508101906117c2919061339c565b6117cb57600080fd5b6000858152610106602090815260408083208a845282528083205488845261010583528184208b855290925282205461180491906132cb565b6000878152610106602090815260408083208c8452909152812080549293508992909190611833908490613389565b909155506118439050828861336a565b6000878152610103602090815260408083208c84529091528120805490919061186d908490613389565b909155508190505b87611881836001613389565b61188b91906132cb565b811061194e576000878152610105602090815260408083208c845290915281206118b66001846132cb565b815481106118c6576118c66133e4565b600091825260208083209190910154808352610108825260409283902060010180546001600160a01b0319163390811790915583518281529283018e9052928201879052925089907ff64b78726aa49cf115358d6d427b361176cff78809f642e102c86e1d6fcee5929060600160405180910390a35080611946816134cd565b915050611875565b50505050505050610af06001603355565b60fe5460fb5460405163a7ff3b2360e01b81526001600160a01b039182166004820152602481018590526044810184905233606482015291169063a7ff3b2390608401610a22565b600091825260c9602090815260408084206001600160a01b0393909316845291905290205460ff1690565b6119dd6000336119a7565b6119f95760405162461bcd60e51b815260040161087690613459565b60fe80546001600160a01b0319166001600160a01b0392909216919091179055565b611a2361287c565b6000611a2d610765565b611a38906001613389565b60008181526101026020908152604080832086845290915290205490915060ff16611a755760405162461bcd60e51b8152600401610876906133b9565b60005b83811015611ab657611aa482868684818110611a9657611a966133e4565b9050602002013585336128d5565b80611aae816133fa565b915050611a78565b50600081815261010760209081526040808320858452825280832033845290915281208054859290611ae9908490613389565b9091555050600160335550505050565b611b046000336119a7565b611b205760405162461bcd60e51b815260040161087690613459565b61010080546001600160a01b0319166001600160a01b0392909216919091179055565b611b4e6000336119a7565b611b6a5760405162461bcd60e51b815260040161087690613459565b6101008054911515600160a01b0260ff60a01b19909216919091179055565b60fe5460fb546040516315170a1760e21b81526001600160a01b039283169263545c285c92611bc19291169030908690600401613346565b6020604051808303816000875af1158015611be0573d6000803e3d6000fd5b505050506040513d601f19601f82011682018060405250810190611c04919061339c565b611c0d57600080fd5b60009081526101086020526040902060048101805461ffff1916600117905580546001600160a01b0319169055565b611c54600080516020613640833981519152336119a7565b80611c655750611c656000336119a7565b611c815760405162461bcd60e51b815260040161087690613413565b60005b81518114611cf157600083815261010260205260408120835160019290859085908110611cb357611cb36133e4565b6020026020010151815260200190815260200160002060006101000a81548160ff02191690831515021790555080611cea906133fa565b9050611c84565b50817f8b9dd3ac74d0614c084d8047cb199d3f08e72903980760ba021d7719e364014e8260405161145d91906134e4565b600054610100900460ff1615808015611d425750600054600160ff909116105b80611d5c5750303b158015611d5c575060005460ff166001145b611dbf5760405162461bcd60e51b815260206004820152602e60248201527f496e697469616c697a61626c653a20636f6e747261637420697320616c72656160448201526d191e481a5b9a5d1a585b1a5e995960921b6064820152608401610876565b6000805460ff191660011790558015611de2576000805461ff0019166101001790555b6001600160a01b038716611e2e5760405162461bcd60e51b815260206004820152601360248201527204552433732312061646472657373206973203606c1b6044820152606401610876565b6001600160a01b038616611e795760405162461bcd60e51b815260206004820152601260248201527104552433230206164647265737320697320360741b6044820152606401610876565b6001600160a01b038516611ecf5760405162461bcd60e51b815260206004820152601b60248201527f41756374696f6e4d616e616765722061646472657373206973203000000000006044820152606401610876565b6001600160a01b038416611f255760405162461bcd60e51b815260206004820152601a60248201527f4f7074696f6e50726963696e67206164647265737320697320300000000000006044820152606401610876565b6001600160a01b038316611f7b5760405162461bcd60e51b815260206004820152601d60248201527f566f6c6174696c6974794f7261636c65206164647265737320697320300000006044820152606401610876565b6001600160a01b038216611fc65760405162461bcd60e51b8152602060048201526012602482015271041646d696e206164647265737320697320360741b6044820152606401610876565b611fce612bfb565b611fd6612c24565b611fde612bfb565b426101015560fb80546001600160a01b03808a166001600160a01b03199283161790925560fc805489841690831617905560fd805482163317905560fe805488841690831617905560ff8054878416908316179055610100805492861692909116919091179055612050600083612c53565b61206860008051602061364083398151915283612c53565b60fb5460405163a22cb46560e01b81526001600160a01b038781166004830152600160248301529091169063a22cb46590604401600060405180830381600087803b1580156120b657600080fd5b505af11580156120ca573d6000803e3d6000fd5b505050508015612114576000805461ff0019169055604051600181527f7f26b83ff96e1f2b6a682f133852f6798a09c465da95921460cefb38474024989060200160405180910390a15b50505050505050565b600082815260c96020526040902060010154612138816126d9565b6111998383612b94565b600061214c610765565b612157906001613389565b60008181526101026020908152604080832086845290915290205490915060ff166121945760405162461bcd60e51b8152600401610876906133b9565b6121a081848433612769565b6000818152610107602090815260408083208584528252808320338452909152812080549091906121d0906133fa565b909155506040805184815260208101849052339183917f12852e9691a3b4a507fdb1c3478087805e515ec2d7da612d9deb1b9010c1eca49101610ec3565b6122196000336119a7565b6122355760405162461bcd60e51b815260040161087690613459565b60ff80546001600160a01b0319166001600160a01b0392909216919091179055565b60008181526101086020908152604091829020825160c08101845281546001600160a01b0390811682526001830154169281019290925260028101549282019290925260038201546060820181905260049092015460ff80821615156080840152610100918290048116151560a08401529054919291600160a01b900416156122df57600080fd5b6201518062127500836060015160016122f89190613389565b612302919061336a565b61230c9190613389565b6101015461231a90426132cb565b116123675760405162461bcd60e51b815260206004820181905260248201527f4c69717569646174696f6e20706572696f642069736e277420726561636865646044820152606401610876565b600081815261010460205260409020546123935760405162461bcd60e51b815260040161087690613300565b60408083015160008381526101046020529190912054116123f15760405162461bcd60e51b81526020600482015260186024820152774f7074696f6e206578706972656420776f7274686c65737360401b6044820152606401610876565b8160800151156124365760405162461bcd60e51b815260206004820152601060248201526f141bdcda5d1a5bdb8818dbdd995c995960821b6044820152606401610876565b60a082015115156001036124885760405162461bcd60e51b815260206004820152601960248201527813dc1d1a5bdb88185b1c9958591e481b1a5c5d5a59185d1959603a1b6044820152606401610876565b60008381526101086020908152604080832060048101805461ff00191661010017905580546001600160a01b0319169055848101518484526101049092528220546124d391906132cb565b60fe5460fb54600085815261010460209081526040918290205488519189015192516355a0e22960e01b81526001600160a01b039485166004820152602481018b905260448101919091529083166064820152908216608482015260a4810184905292935016906355a0e2299060c401600060405180830381600087803b15801561255d57600080fd5b505af1158015612571573d6000803e3d6000fd5b505050600083815261010460209081526040918290205486519187015192518894507f2e89d436d71507ecb25e79045c0f361b1f3410fb872d034e7b79bb1c245ce658936125e1939187909384526001600160a01b03928316602085015291166040830152606082015260800190565b60405180910390a250505050565b60008381526101076020908152604080832085845282528083206001600160a01b038516845282528083208054908490558684526101038352818420868552835281842054878552610105845282852087865290935290832054909290612656848461336a565b61266091906132de565b60fc5460405163a9059cbb60e01b81526001600160a01b0387811660048301526024820184905292935091169063a9059cbb906044016020604051808303816000875af11580156126b5573d6000803e3d6000fd5b505050506040513d601f19601f82011682018060405250810190612114919061339c565b6114a88133612c5d565b6126ed82826119a7565b610af057600082815260c9602090815260408083206001600160a01b03851684529091529020805460ff191660011790556127253390565b6001600160a01b0316816001600160a01b0316837f2f8788117e7eff1d82e926ec794901d17c78024a50270940304540a733656f0d60405160405180910390a45050565b60fb54604051632142170760e11b81526001600160a01b03909116906342842e0e9061279d90849030908890600401613346565b600060405180830381600087803b1580156127b757600080fd5b505af11580156127cb573d6000803e3d6000fd5b5050506000848152610108602090815260408083206002810187905580546001600160a01b0387166001600160a01b031991821681178355600383018b905560019283018054909216909155898552610105845282852088865284528285208054928301815585529383902001879055805187815291820186905291925086917f12852e9691a3b4a507fdb1c3478087805e515ec2d7da612d9deb1b9010c1eca4910160405180910390a350505050565b6002603354036128ce5760405162461bcd60e51b815260206004820152601f60248201527f5265656e7472616e637947756172643a207265656e7472616e742063616c6c006044820152606401610876565b6002603355565b60008381526101086020908152604091829020825160c08101845281546001600160a01b0390811682526001830154169281019290925260028082015493830193909352600381015460608301526004015460ff8082161515608084015261010090910416151560a08201529061295090620151809061336a565b62127500826060015160016129659190613389565b61296f919061336a565b6101015461297d9190613389565b61298791906132cb565b42116129ce5760405162461bcd60e51b815260206004820152601660248201527513dc1d1a5bdb881a185cc81b9bdd08195e1c1a5c995960521b6044820152606401610876565b816001600160a01b031681600001516001600160a01b031614612a2b5760405162461bcd60e51b81526020600482015260156024820152742cb7ba9030b932903737ba103a34329037bbb732b960591b6044820152606401610876565b606081015160009081526101046020526040902054612a5c5760405162461bcd60e51b815260040161087690613300565b604080820151606083015160009081526101046020529190912054111580612a85575080608001515b80612a9b575060208101516001600160a01b0316155b612add5760405162461bcd60e51b815260206004820152601360248201527221b7bb32b9103cb7bab9103837b9b4ba34b7b760691b6044820152606401610876565b6000848152610108602090815260408083206003810189905560028101879055600180820180546001600160a01b03191690556004909101805460ff19169055888452610105835281842087855283528184208054918201815584529282902090920186905581518681529081018590526001600160a01b0384169187917fc5cf73bbf9412234d340e19996e27e6404eca00fe162d78240d124dff861876a910160405180910390a35050505050565b6001603355565b612b9e82826119a7565b15610af057600082815260c9602090815260408083206001600160a01b0385168085529252808320805460ff1916905551339285917ff6391f5c32d9c69d2a47ea670b442974b53935d1edc7fd64eb21e047a839171b9190a45050565b600054610100900460ff16612c225760405162461bcd60e51b815260040161087690613528565b565b600054610100900460ff16612c4b5760405162461bcd60e51b815260040161087690613528565b612c22612cb6565b610af082826126e3565b612c6782826119a7565b610af057612c7481612cdd565b612c7f836020612cef565b604051602001612c90929190613597565b60408051601f198184030181529082905262461bcd60e51b82526108769160040161360c565b600054610100900460ff16612b8d5760405162461bcd60e51b815260040161087690613528565b60606107ba6001600160a01b03831660145b60606000612cfe83600261336a565b612d09906002613389565b67ffffffffffffffff811115612d2157612d21612f0c565b6040519080825280601f01601f191660200182016040528015612d4b576020820181803683370190505b509050600360fc1b81600081518110612d6657612d666133e4565b60200101906001600160f81b031916908160001a905350600f60fb1b81600181518110612d9557612d956133e4565b60200101906001600160f81b031916908160001a9053506000612db984600261336a565b612dc4906001613389565b90505b6001811115612e3c576f181899199a1a9b1b9c1cb0b131b232b360811b85600f1660108110612df857612df86133e4565b1a60f81b828281518110612e0e57612e0e6133e4565b60200101906001600160f81b031916908160001a90535060049490941c93612e35816134cd565b9050612dc7565b508315610b2d5760405162461bcd60e51b815260206004820181905260248201527f537472696e67733a20686578206c656e67746820696e73756666696369656e746044820152606401610876565b600060208284031215612e9d57600080fd5b81356001600160e01b031981168114610b2d57600080fd5b600060208284031215612ec757600080fd5b5035919050565b60008060408385031215612ee157600080fd5b50508035926020909101359150565b80356001600160a01b0381168114612f0757600080fd5b919050565b634e487b7160e01b600052604160045260246000fd5b604051601f8201601f1916810167ffffffffffffffff81118282101715612f4b57612f4b612f0c565b604052919050565b60008060008060808587031215612f6957600080fd5b612f7285612ef0565b93506020612f81818701612ef0565b935060408601359250606086013567ffffffffffffffff80821115612fa557600080fd5b818801915088601f830112612fb957600080fd5b813581811115612fcb57612fcb612f0c565b612fdd601f8201601f19168501612f22565b91508082528984828501011115612ff357600080fd5b808484018584013760008482840101525080935050505092959194509250565b6000806040838503121561302657600080fd5b8235915061303660208401612ef0565b90509250929050565b600082601f83011261305057600080fd5b8135602067ffffffffffffffff82111561306c5761306c612f0c565b8160051b61307b828201612f22565b928352848101820192828101908785111561309557600080fd5b83870192505b848310156130b45782358252918301919083019061309b565b979650505050505050565b600080604083850312156130d257600080fd5b823567ffffffffffffffff8111156130e957600080fd5b6130f58582860161303f565b95602094909401359450505050565b60006020828403121561311657600080fd5b610b2d82612ef0565b60008060006060848603121561313457600080fd5b833592506020840135915061314b60408501612ef0565b90509250925092565b60008060006040848603121561316957600080fd5b833567ffffffffffffffff8082111561318157600080fd5b818601915086601f83011261319557600080fd5b8135818111156131a457600080fd5b8760208260051b85010111156131b957600080fd5b6020928301989097509590910135949350505050565b80151581146114a857600080fd5b6000602082840312156131ef57600080fd5b8135610b2d816131cf565b6000806040838503121561320d57600080fd5b82359150602083013567ffffffffffffffff81111561322b57600080fd5b6132378582860161303f565b9150509250929050565b60008060008060008060c0878903121561325a57600080fd5b61326387612ef0565b955061327160208801612ef0565b945061327f60408801612ef0565b935061328d60608801612ef0565b925061329b60808801612ef0565b91506132a960a08801612ef0565b90509295509295509295565b634e487b7160e01b600052601160045260246000fd5b818103818111156107ba576107ba6132b5565b6000826132fb57634e487b7160e01b600052601260045260246000fd5b500490565b60208082526026908201527f466c6f6f72207072696365206e6f7420736574746c656420666f722074686973604082015265040cae0dec6d60d31b606082015260800190565b6001600160a01b039384168152919092166020820152604081019190915260600190565b6000816000190483118215151615613384576133846132b5565b500290565b808201808211156107ba576107ba6132b5565b6000602082840312156133ae57600080fd5b8151610b2d816131cf565b60208082526011908201527057726f6e6720737472696b65507269636560781b604082015260600190565b634e487b7160e01b600052603260045260246000fd5b60006001820161340c5761340c6132b5565b5060010190565b60208082526026908201527f6d73672e73656e646572206973206e6f7420666c6f6f7220707269636520707260408201526537bb34b232b960d11b606082015260800190565b60208082526017908201527f6d73672e73656e646572206973206e6f742061646d696e000000000000000000604082015260600190565b600080604083850312156134a357600080fd5b505080516020909101519092909150565b6000602082840312156134c657600080fd5b5051919050565b6000816134dc576134dc6132b5565b506000190190565b6020808252825182820181905260009190848201906040850190845b8181101561351c57835183529284019291840191600101613500565b50909695505050505050565b6020808252602b908201527f496e697469616c697a61626c653a20636f6e7472616374206973206e6f74206960408201526a6e697469616c697a696e6760a81b606082015260800190565b60005b8381101561358e578181015183820152602001613576565b50506000910152565b7f416363657373436f6e74726f6c3a206163636f756e74200000000000000000008152600083516135cf816017850160208801613573565b7001034b99036b4b9b9b4b733903937b6329607d1b6017918401918201528351613600816028840160208801613573565b01602801949350505050565b602081526000825180602084015261362b816040850160208701613573565b601f01601f1916919091016040019291505056fecbf283b5381192ce3c087c36c27bed2242f324291cbab3b1559bfa94b13399eea26469706673582212207f68311c85b2c4fbd3b67adfee805cf395b2e66011a6da40fecbaab766e8b88664736f6c63430008100033",
    "linkReferences": {}
  },
  "methodIdentifiers": {
    "DEFAULT_ADMIN_ROLE()": "a217fddf",
    "FLOOR_PRICE_PROVIDER_ROLE()": "707c4ac2",
    "auctionManager()": "b0192f9a",
    "bidAuction(uint256,uint256)": "7587b4df",
    "buyAtStrike(uint256)": "2398fdcf",
    "buyOptions(uint256,uint256)": "57db99cd",
    "claimPremiums(uint256,uint256)": "04ed8ef7",
    "coverPosition(uint256)": "09b4a81c",
    "endAuction(uint256)": "b9a2de3a",
    "erc20()": "785e9e86",
    "erc721()": "bca6ce64",
    "getAmountLockedAt(uint256,uint256)": "910294ca",
    "getEpochDuration()": "5d3ea8f1",
    "getEpoch_2e()": "0000ae4a",
    "getFloorPrice(uint256)": "b2d4cf18",
    "getInterval()": "91ad27b4",
    "getOption(uint256)": "1ce5e9a6",
    "getOptionAvailableAt(uint256,uint256)": "086e0f09",
    "getRoleAdmin(bytes32)": "248a9ca3",
    "getSharesAtOf(uint256,uint256,address)": "5e7c3f9a",
    "grantRole(bytes32,address)": "2f2ff15d",
    "hasRole(bytes32,address)": "91d14854",
    "hatching()": "bce47716",
    "initialize(address,address,address,address,address,address)": "cc2a9a5b",
    "liquidateNFT(uint256)": "f95dc232",
    "liquidationInterrupted()": "46953c47",
    "onERC721Received(address,address,uint256,bytes)": "150b7a02",
    "optionPricing()": "1e3394fb",
    "renounceRole(bytes32,address)": "36568abe",
    "restakeNFTs(uint256,uint256)": "32f2a017",
    "restakeNFTs(uint256[],uint256)": "9badb968",
    "revokeRole(bytes32,address)": "d547741f",
    "setAuctionManager(address)": "95e4cacb",
    "setFloorPriceAt(uint256,uint256)": "4038e44e",
    "setFloorPriceProvider(address)": "40dcf8ef",
    "setLiquidationInterrupted(bool)": "b1b3dd3a",
    "setOptionPricing(address)": "f6a76a81",
    "setStrikePriceAt(uint256,uint256[])": "ba4ec52a",
    "setVolatilityOracle(address)": "9c78a526",
    "stakeNFTs(uint256,uint256)": "f0ceb308",
    "stakeNFTs(uint256[],uint256)": "2fd2fa32",
    "strikeController()": "45be8694",
    "supportsInterface(bytes4)": "01ffc9a7",
    "volatilityOracle()": "55b13a4f",
    "withdrawNFT(uint256)": "023245d7"
  },
  "id": 62
}