{
  "abi": [
    {
      "anonymous": false,
      "inputs": [
        {
          "indexed": true,
          "internalType": "uint256",
          "name": "_epoch",
          "type": "uint256"
        },
        {
          "indexed": false,
          "internalType": "uint256",
          "name": "_tokenId",
          "type": "uint256"
        },
        {
          "indexed": false,
          "internalType": "uint256",
          "name": "_strikePrice",
          "type": "uint256"
        },
        {
          "indexed": false,
          "internalType": "uint256",
          "name": "_premium",
          "type": "uint256"
        },
        {
          "indexed": true,
          "internalType": "address",
          "name": "_buyer",
          "type": "address"
        }
      ],
      "name": "BuyOption",
      "type": "event"
    },
    {
      "anonymous": false,
      "inputs": [
        {
          "indexed": true,
          "internalType": "uint256",
          "name": "_epoch",
          "type": "uint256"
        },
        {
          "indexed": false,
          "internalType": "uint256",
          "name": "_shares",
          "type": "uint256"
        },
        {
          "indexed": false,
          "internalType": "uint256",
          "name": "_premiums",
          "type": "uint256"
        },
        {
          "indexed": true,
          "internalType": "address",
          "name": "_owner",
          "type": "address"
        }
      ],
      "name": "ClaimPremiums",
      "type": "event"
    },
    {
      "anonymous": false,
      "inputs": [
        {
          "indexed": true,
          "internalType": "uint256",
          "name": "_epoch",
          "type": "uint256"
        },
        {
          "indexed": false,
          "internalType": "uint256",
          "name": "_tokenId",
          "type": "uint256"
        },
        {
          "indexed": false,
          "internalType": "uint256",
          "name": "_debt",
          "type": "uint256"
        },
        {
          "indexed": true,
          "internalType": "address",
          "name": "_writer",
          "type": "address"
        },
        {
          "indexed": false,
          "internalType": "address",
          "name": "_buyer",
          "type": "address"
        }
      ],
      "name": "CoverPosition",
      "type": "event"
    },
    {
      "anonymous": false,
      "inputs": [
        {
          "indexed": false,
          "internalType": "uint8",
          "name": "version",
          "type": "uint8"
        }
      ],
      "name": "Initialized",
      "type": "event"
    },
    {
      "anonymous": false,
      "inputs": [
        {
          "indexed": true,
          "internalType": "uint256",
          "name": "_tokenId",
          "type": "uint256"
        },
        {
          "indexed": false,
          "internalType": "uint256",
          "name": "_firstPrice",
          "type": "uint256"
        },
        {
          "indexed": false,
          "internalType": "address",
          "name": "_writer",
          "type": "address"
        },
        {
          "indexed": false,
          "internalType": "address",
          "name": "_buyer",
          "type": "address"
        },
        {
          "indexed": false,
          "internalType": "uint256",
          "name": "_debt",
          "type": "uint256"
        }
      ],
      "name": "LiquidateNFT",
      "type": "event"
    },
    {
      "anonymous": false,
      "inputs": [
        {
          "indexed": true,
          "internalType": "uint256",
          "name": "_epoch",
          "type": "uint256"
        },
        {
          "indexed": false,
          "internalType": "uint256",
          "name": "_tokenId",
          "type": "uint256"
        },
        {
          "indexed": false,
          "internalType": "uint256",
          "name": "_strikePrice",
          "type": "uint256"
        },
        {
          "indexed": true,
          "internalType": "address",
          "name": "_writer",
          "type": "address"
        }
      ],
      "name": "ReStake",
      "type": "event"
    },
    {
      "anonymous": false,
      "inputs": [
        {
          "indexed": true,
          "internalType": "bytes32",
          "name": "role",
          "type": "bytes32"
        },
        {
          "indexed": true,
          "internalType": "bytes32",
          "name": "previousAdminRole",
          "type": "bytes32"
        },
        {
          "indexed": true,
          "internalType": "bytes32",
          "name": "newAdminRole",
          "type": "bytes32"
        }
      ],
      "name": "RoleAdminChanged",
      "type": "event"
    },
    {
      "anonymous": false,
      "inputs": [
        {
          "indexed": true,
          "internalType": "bytes32",
          "name": "role",
          "type": "bytes32"
        },
        {
          "indexed": true,
          "internalType": "address",
          "name": "account",
          "type": "address"
        },
        {
          "indexed": true,
          "internalType": "address",
          "name": "sender",
          "type": "address"
        }
      ],
      "name": "RoleGranted",
      "type": "event"
    },
    {
      "anonymous": false,
      "inputs": [
        {
          "indexed": true,
          "internalType": "bytes32",
          "name": "role",
          "type": "bytes32"
        },
        {
          "indexed": true,
          "internalType": "address",
          "name": "account",
          "type": "address"
        },
        {
          "indexed": true,
          "internalType": "address",
          "name": "sender",
          "type": "address"
        }
      ],
      "name": "RoleRevoked",
      "type": "event"
    },
    {
      "anonymous": false,
      "inputs": [
        {
          "indexed": true,
          "internalType": "uint256",
          "name": "_epoch",
          "type": "uint256"
        },
        {
          "indexed": false,
          "internalType": "uint256",
          "name": "_floorPrice",
          "type": "uint256"
        }
      ],
      "name": "SetFloorPrice",
      "type": "event"
    },
    {
      "anonymous": false,
      "inputs": [
        {
          "indexed": true,
          "internalType": "uint256",
          "name": "_epoch",
          "type": "uint256"
        },
        {
          "indexed": false,
          "internalType": "uint256[]",
          "name": "_strikePrices",
          "type": "uint256[]"
        }
      ],
      "name": "SetStrikePrice",
      "type": "event"
    },
    {
      "anonymous": false,
      "inputs": [
        {
          "indexed": true,
          "internalType": "uint256",
          "name": "_epoch",
          "type": "uint256"
        },
        {
          "indexed": false,
          "internalType": "uint256",
          "name": "_tokenId",
          "type": "uint256"
        },
        {
          "indexed": false,
          "internalType": "uint256",
          "name": "_strikePrice",
          "type": "uint256"
        },
        {
          "indexed": true,
          "internalType": "address",
          "name": "_writer",
          "type": "address"
        }
      ],
      "name": "Stake",
      "type": "event"
    },
    {
      "anonymous": false,
      "inputs": [
        {
          "indexed": false,
          "internalType": "uint256",
          "name": "_tokenId",
          "type": "uint256"
        },
        {
          "indexed": false,
          "internalType": "address",
          "name": "_owner",
          "type": "address"
        }
      ],
      "name": "WithdrawNFT",
      "type": "event"
    },
    {
      "inputs": [],
      "name": "DEFAULT_ADMIN_ROLE",
      "outputs": [
        {
          "internalType": "bytes32",
          "name": "",
          "type": "bytes32"
        }
      ],
      "stateMutability": "view",
      "type": "function"
    },
    {
      "inputs": [],
      "name": "FLOOR_PRICE_PROVIDER_ROLE",
      "outputs": [
        {
          "internalType": "bytes32",
          "name": "",
          "type": "bytes32"
        }
      ],
      "stateMutability": "view",
      "type": "function"
    },
    {
      "inputs": [],
      "name": "auctionManager",
      "outputs": [
        {
          "internalType": "address",
          "name": "",
          "type": "address"
        }
      ],
      "stateMutability": "view",
      "type": "function"
    },
    {
      "inputs": [
        {
          "internalType": "uint256",
          "name": "_tokenId",
          "type": "uint256"
        },
        {
          "internalType": "uint256",
          "name": "_amount",
          "type": "uint256"
        }
      ],
      "name": "bidAuction",
      "outputs": [],
      "stateMutability": "nonpayable",
      "type": "function"
    },
    {
      "inputs": [
        {
          "internalType": "uint256",
          "name": "_tokenId",
          "type": "uint256"
        }
      ],
      "name": "buyAtStrike",
      "outputs": [],
      "stateMutability": "nonpayable",
      "type": "function"
    },
    {
      "inputs": [
        {
          "internalType": "uint256",
          "name": "_strikePrice",
          "type": "uint256"
        },
        {
          "internalType": "uint256",
          "name": "_amount",
          "type": "uint256"
        }
      ],
      "name": "buyOptions",
      "outputs": [],
      "stateMutability": "nonpayable",
      "type": "function"
    },
    {
      "inputs": [
        {
          "internalType": "uint256",
          "name": "_epoch",
          "type": "uint256"
        },
        {
          "internalType": "uint256",
          "name": "_strikePrice",
          "type": "uint256"
        }
      ],
      "name": "claimPremiums",
      "outputs": [],
      "stateMutability": "nonpayable",
      "type": "function"
    },
    {
      "inputs": [
        {
          "internalType": "uint256",
          "name": "_tokenId",
          "type": "uint256"
        }
      ],
      "name": "coverPosition",
      "outputs": [],
      "stateMutability": "nonpayable",
      "type": "function"
    },
    {
      "inputs": [
        {
          "internalType": "uint256",
          "name": "_tokenId",
          "type": "uint256"
        }
      ],
      "name": "endAuction",
      "outputs": [],
      "stateMutability": "nonpayable",
      "type": "function"
    },
    {
      "inputs": [],
      "name": "erc20",
      "outputs": [
        {
          "internalType": "address",
          "name": "",
          "type": "address"
        }
      ],
      "stateMutability": "view",
      "type": "function"
    },
    {
      "inputs": [],
      "name": "erc721",
      "outputs": [
        {
          "internalType": "address",
          "name": "",
          "type": "address"
        }
      ],
      "stateMutability": "view",
      "type": "function"
    },
    {
      "inputs": [
        {
          "internalType": "uint256",
          "name": "_epoch",
          "type": "uint256"
        },
        {
          "internalType": "uint256",
          "name": "_strikePrice",
          "type": "uint256"
        }
      ],
      "name": "getAmountLockedAt",
      "outputs": [
        {
          "internalType": "uint256",
          "name": "",
          "type": "uint256"
        }
      ],
      "stateMutability": "view",
      "type": "function"
    },
    {
      "inputs": [],
      "name": "getEpochDuration",
      "outputs": [
        {
          "internalType": "uint256",
          "name": "",
          "type": "uint256"
        }
      ],
      "stateMutability": "pure",
      "type": "function"
    },
    {
      "inputs": [],
      "name": "getEpoch_2e",
      "outputs": [
        {
          "internalType": "uint256",
          "name": "",
          "type": "uint256"
        }
      ],
      "stateMutability": "view",
      "type": "function"
    },
    {
      "inputs": [
        {
          "internalType": "uint256",
          "name": "_epoch",
          "type": "uint256"
        }
      ],
      "name": "getFloorPrice",
      "outputs": [
        {
          "internalType": "uint256",
          "name": "",
          "type": "uint256"
        }
      ],
      "stateMutability": "view",
      "type": "function"
    },
    {
      "inputs": [],
      "name": "getInterval",
      "outputs": [
        {
          "internalType": "uint256",
          "name": "",
          "type": "uint256"
        }
      ],
      "stateMutability": "pure",
      "type": "function"
    },
    {
      "inputs": [
        {
          "internalType": "uint256",
          "name": "_tokenId",
          "type": "uint256"
        }
      ],
      "name": "getOption",
      "outputs": [
        {
          "components": [
            {
              "internalType": "address",
              "name": "writer",
              "type": "address"
            },
            {
              "internalType": "address",
              "name": "buyer",
              "type": "address"
            },
            {
              "internalType": "uint256",
              "name": "sPrice",
              "type": "uint256"
            },
            {
              "internalType": "uint256",
              "name": "epoch",
              "type": "uint256"
            },
            {
              "internalType": "bool",
              "name": "covered",
              "type": "bool"
            },
            {
              "internalType": "bool",
              "name": "liquidated",
              "type": "bool"
            }
          ],
          "internalType": "struct StrikePool.Option",
          "name": "option",
          "type": "tuple"
        }
      ],
      "stateMutability": "view",
      "type": "function"
    },
    {
      "inputs": [
        {
          "internalType": "uint256",
          "name": "_epoch",
          "type": "uint256"
        },
        {
          "internalType": "uint256",
          "name": "_strikePrice",
          "type": "uint256"
        }
      ],
      "name": "getOptionAvailableAt",
      "outputs": [
        {
          "internalType": "uint256",
          "name": "",
          "type": "uint256"
        }
      ],
      "stateMutability": "view",
      "type": "function"
    },
    {
      "inputs": [
        {
          "internalType": "bytes32",
          "name": "role",
          "type": "bytes32"
        }
      ],
      "name": "getRoleAdmin",
      "outputs": [
        {
          "internalType": "bytes32",
          "name": "",
          "type": "bytes32"
        }
      ],
      "stateMutability": "view",
      "type": "function"
    },
    {
      "inputs": [
        {
          "internalType": "uint256",
          "name": "_epoch",
          "type": "uint256"
        },
        {
          "internalType": "uint256",
          "name": "_strikePrice",
          "type": "uint256"
        },
        {
          "internalType": "address",
          "name": "_add",
          "type": "address"
        }
      ],
      "name": "getSharesAtOf",
      "outputs": [
        {
          "internalType": "uint256",
          "name": "",
          "type": "uint256"
        }
      ],
      "stateMutability": "view",
      "type": "function"
    },
    {
      "inputs": [
        {
          "internalType": "bytes32",
          "name": "role",
          "type": "bytes32"
        },
        {
          "internalType": "address",
          "name": "account",
          "type": "address"
        }
      ],
      "name": "grantRole",
      "outputs": [],
      "stateMutability": "nonpayable",
      "type": "function"
    },
    {
      "inputs": [
        {
          "internalType": "bytes32",
          "name": "role",
          "type": "bytes32"
        },
        {
          "internalType": "address",
          "name": "account",
          "type": "address"
        }
      ],
      "name": "hasRole",
      "outputs": [
        {
          "internalType": "bool",
          "name": "",
          "type": "bool"
        }
      ],
      "stateMutability": "view",
      "type": "function"
    },
    {
      "inputs": [],
      "name": "hatching",
      "outputs": [
        {
          "internalType": "uint256",
          "name": "",
          "type": "uint256"
        }
      ],
      "stateMutability": "view",
      "type": "function"
    },
    {
      "inputs": [
        {
          "internalType": "address",
          "name": "_erc721",
          "type": "address"
        },
        {
          "internalType": "address",
          "name": "_erc20",
          "type": "address"
        },
        {
          "internalType": "address",
          "name": "_auctionManager",
          "type": "address"
        },
        {
          "internalType": "address",
          "name": "_optionPricing",
          "type": "address"
        },
        {
          "internalType": "address",
          "name": "_volatilityOracle",
          "type": "address"
        },
        {
          "internalType": "address",
          "name": "_admin",
          "type": "address"
        }
      ],
      "name": "initialize",
      "outputs": [],
      "stateMutability": "nonpayable",
      "type": "function"
    },
    {
      "inputs": [
        {
          "internalType": "uint256",
          "name": "_tokenId",
          "type": "uint256"
        }
      ],
      "name": "liquidateNFT",
      "outputs": [],
      "stateMutability": "nonpayable",
      "type": "function"
    },
    {
      "inputs": [],
      "name": "liquidationInterrupted",
      "outputs": [
        {
          "internalType": "bool",
          "name": "",
          "type": "bool"
        }
      ],
      "stateMutability": "view",
      "type": "function"
    },
    {
      "inputs": [
        {
          "internalType": "address",
          "name": "",
          "type": "address"
        },
        {
          "internalType": "address",
          "name": "",
          "type": "address"
        },
        {
          "internalType": "uint256",
          "name": "",
          "type": "uint256"
        },
        {
          "internalType": "bytes",
          "name": "",
          "type": "bytes"
        }
      ],
      "name": "onERC721Received",
      "outputs": [
        {
          "internalType": "bytes4",
          "name": "",
          "type": "bytes4"
        }
      ],
      "stateMutability": "nonpayable",
      "type": "function"
    },
    {
      "inputs": [],
      "name": "optionPricing",
      "outputs": [
        {
          "internalType": "address",
          "name": "",
          "type": "address"
        }
      ],
      "stateMutability": "view",
      "type": "function"
    },
    {
      "inputs": [
        {
          "internalType": "bytes32",
          "name": "role",
          "type": "bytes32"
        },
        {
          "internalType": "address",
          "name": "account",
          "type": "address"
        }
      ],
      "name": "renounceRole",
      "outputs": [],
      "stateMutability": "nonpayable",
      "type": "function"
    },
    {
      "inputs": [
        {
          "internalType": "uint256",
          "name": "_tokenId",
          "type": "uint256"
        },
        {
          "internalType": "uint256",
          "name": "_strikePrice",
          "type": "uint256"
        }
      ],
      "name": "restake",
      "outputs": [],
      "stateMutability": "nonpayable",
      "type": "function"
    },
    {
      "inputs": [
        {
          "internalType": "bytes32",
          "name": "role",
          "type": "bytes32"
        },
        {
          "internalType": "address",
          "name": "account",
          "type": "address"
        }
      ],
      "name": "revokeRole",
      "outputs": [],
      "stateMutability": "nonpayable",
      "type": "function"
    },
    {
      "inputs": [
        {
          "internalType": "address",
          "name": "_auctionManager",
          "type": "address"
        }
      ],
      "name": "setAuctionManager",
      "outputs": [],
      "stateMutability": "nonpayable",
      "type": "function"
    },
    {
      "inputs": [
        {
          "internalType": "address",
          "name": "_provider",
          "type": "address"
        }
      ],
      "name": "setFloorPriceProvider",
      "outputs": [],
      "stateMutability": "nonpayable",
      "type": "function"
    },
    {
      "inputs": [
        {
          "internalType": "bool",
          "name": "_liquidationInterrupted",
          "type": "bool"
        }
      ],
      "name": "setLiquidationInterrupted",
      "outputs": [],
      "stateMutability": "nonpayable",
      "type": "function"
    },
    {
      "inputs": [
        {
          "internalType": "address",
          "name": "_optionPricing",
          "type": "address"
        }
      ],
      "name": "setOptionPricing",
      "outputs": [],
      "stateMutability": "nonpayable",
      "type": "function"
    },
    {
      "inputs": [
        {
          "internalType": "uint256",
          "name": "_epoch",
          "type": "uint256"
        },
        {
          "internalType": "uint256[]",
          "name": "_strikePrices",
          "type": "uint256[]"
        }
      ],
      "name": "setStrikePriceAt",
      "outputs": [],
      "stateMutability": "nonpayable",
      "type": "function"
    },
    {
      "inputs": [
        {
          "internalType": "address",
          "name": "_volatilityOracle",
          "type": "address"
        }
      ],
      "name": "setVolatilityOracle",
      "outputs": [],
      "stateMutability": "nonpayable",
      "type": "function"
    },
    {
      "inputs": [
        {
          "internalType": "uint256",
          "name": "_epoch",
          "type": "uint256"
        },
        {
          "internalType": "uint256",
          "name": "_floorPrice",
          "type": "uint256"
        }
      ],
      "name": "setfloorpriceAt",
      "outputs": [],
      "stateMutability": "nonpayable",
      "type": "function"
    },
    {
      "inputs": [
        {
          "internalType": "uint256",
          "name": "_tokenId",
          "type": "uint256"
        },
        {
          "internalType": "uint256",
          "name": "_strikePrice",
          "type": "uint256"
        }
      ],
      "name": "stake",
      "outputs": [],
      "stateMutability": "nonpayable",
      "type": "function"
    },
    {
      "inputs": [],
      "name": "strikeController",
      "outputs": [
        {
          "internalType": "address",
          "name": "",
          "type": "address"
        }
      ],
      "stateMutability": "view",
      "type": "function"
    },
    {
      "inputs": [
        {
          "internalType": "bytes4",
          "name": "interfaceId",
          "type": "bytes4"
        }
      ],
      "name": "supportsInterface",
      "outputs": [
        {
          "internalType": "bool",
          "name": "",
          "type": "bool"
        }
      ],
      "stateMutability": "view",
      "type": "function"
    },
    {
      "inputs": [],
      "name": "volatilityOracle",
      "outputs": [
        {
          "internalType": "address",
          "name": "",
          "type": "address"
        }
      ],
      "stateMutability": "view",
      "type": "function"
    },
    {
      "inputs": [
        {
          "internalType": "uint256",
          "name": "_tokenId",
          "type": "uint256"
        }
      ],
      "name": "withdrawNFT",
      "outputs": [],
      "stateMutability": "nonpayable",
      "type": "function"
    }
  ],
  "bytecode": {
    "object": "0x60c0604052621275006080526201518060a05234801561001e57600080fd5b5060805160a0516134a56100986000396000818161061501528181610a4f01528181610bd3015281816112ce01528181611bbe01526125570152600081816105240152818161076701528181610a7701528181610bfa015281816112f6015281816114ab01528181611be6015261257801526134a56000f3fe608060405234801561001057600080fd5b50600436106102675760003560e01c80637587b4df11610151578063b1b3dd3a116100c3578063bca6ce6411610087578063bca6ce64146106fa578063bce477161461070d578063cc2a9a5b14610717578063d547741f1461072a578063f6a76a811461073d578063f95dc2321461075057600080fd5b8063b1b3dd3a1461068d578063b2d4cf18146106a0578063b8e7023d146106c1578063b9a2de3a146106d4578063ba4ec52a146106e757600080fd5b806391ad27b41161011557806391ad27b41461061357806391d148541461063957806395e4cacb1461064c5780639c78a5261461065f578063a217fddf14610672578063b0192f9a1461067a57600080fd5b80637587b4df1461059b578063785e9e86146105ae5780637b0472f0146105c15780638992bc77146105d4578063910294ca146105e757600080fd5b8063248a9ca3116101ea57806346953c47116101ae57806346953c47146104e657806355b13a4f146104fb57806357db99cd1461050f5780635d3ea8f1146105225780635e7c3f9a14610548578063707c4ac21461058657600080fd5b8063248a9ca3146104775780632f2ff15d1461049a57806336568abe146104ad57806340dcf8ef146104c057806345be8694146104d357600080fd5b806309b4a81c1161023157806309b4a81c146102e5578063150b7a02146102f85780631ce5e9a61461032f5780631e3394fb146104395780632398fdcf1461046457600080fd5b8061ae4a1461026c57806301ffc9a714610287578063023245d7146102aa57806304ed8ef7146102bf578063086e0f09146102d2575b600080fd5b610274610763565b6040519081526020015b60405180910390f35b61029a610295366004612d70565b6107a4565b604051901515815260200161027e565b6102bd6102b8366004612d9a565b6107db565b005b6102bd6102cd366004612db3565b610a4a565b6102746102e0366004612db3565b610b20565b6102bd6102f3366004612d9a565b610b60565b610316610306366004612e38565b630a85bd0160e11b949350505050565b6040516001600160e01b0319909116815260200161027e565b6103e061033d366004612d9a565b6040805160c081018252600080825260208201819052918101829052606081018290526080810182905260a08101919091525060009081526101086020908152604091829020825160c08101845281546001600160a01b039081168252600183015416928101929092526002810154928201929092526003820154606082015260049091015460ff8082161515608084015261010090910416151560a082015290565b60405161027e919081516001600160a01b03908116825260208084015190911690820152604080830151908201526060808301519082015260808083015115159082015260a09182015115159181019190915260c00190565b60ff5461044c906001600160a01b031681565b6040516001600160a01b03909116815260200161027e565b6102bd610472366004612d9a565b610f42565b610274610485366004612d9a565b600090815260c9602052604090206001015490565b6102bd6104a8366004612ef8565b611194565b6102bd6104bb366004612ef8565b6111be565b6102bd6104ce366004612f24565b611238565b60fd5461044c906001600160a01b031681565b6101005461029a90600160a01b900460ff1681565b6101005461044c906001600160a01b031681565b6102bd61051d366004612db3565b61127a565b7f0000000000000000000000000000000000000000000000000000000000000000610274565b610274610556366004612f3f565b6000928352610107602090815260408085209385529281528284206001600160a01b039290921684525290205490565b61027460008051602061345083398151915281565b6102bd6105a9366004612db3565b611789565b60fc5461044c906001600160a01b031681565b6102bd6105cf366004612db3565b6117d1565b6102bd6105e2366004612db3565b611954565b6102746105f5366004612db3565b60009182526101056020908152604080842092845291905290205490565b7f0000000000000000000000000000000000000000000000000000000000000000610274565b61029a610647366004612ef8565b611a2d565b6102bd61065a366004612f24565b611a58565b6102bd61066d366004612f24565b611aa1565b610274600081565b60fe5461044c906001600160a01b031681565b6102bd61069b366004612f82565b611aeb565b6102746106ae366004612d9a565b6000908152610104602052604090205490565b6102bd6106cf366004612db3565b611b31565b6102bd6106e2366004612d9a565b611ecb565b6102bd6106f5366004612f9f565b611f7e565b60fb5461044c906001600160a01b031681565b6102746101015481565b6102bd610725366004613051565b612064565b6102bd610738366004612ef8565b61245f565b6102bd61074b366004612f24565b612484565b6102bd61075e366004612d9a565b6124cd565b60007f0000000000000000000000000000000000000000000000000000000000000000610101544261079591906130db565b61079f91906130ee565b905090565b60006001600160e01b03198216637965db0b60e01b14806107d557506301ffc9a760e01b6001600160e01b03198316145b92915050565b60008181526101086020908152604091829020825160c08101845281546001600160a01b0390811682526001830154169281019290925260028101549282019290925260038201546060820181905260049092015460ff8082161515608084015261010090910416151560a082015290610853610763565b1161089a5760405162461bcd60e51b8152602060048201526012602482015271115c1bd8da081b9bdd08199a5b9a5cda195960721b60448201526064015b60405180910390fd5b6060810151600090815261010460205260409020546108cb5760405162461bcd60e51b815260040161089190613110565b80516001600160a01b0316331461091c5760405162461bcd60e51b81526020600482015260156024820152742cb7ba9030b932903737ba103a34329037bbb732b960591b6044820152606401610891565b604080820151606083015160009081526101046020529190912054111580610945575080608001515b8061095b575060208101516001600160a01b0316155b61099d5760405162461bcd60e51b815260206004820152601360248201527221b7bb32b9103cb7bab9103837b9b4ba34b7b760691b6044820152606401610891565b60608101516000908152610107602090815260408083208185015184528252808320338452909152902054156109e0576109e0816060015182604001513361289f565b60fb54604051632142170760e11b81526001600160a01b03909116906342842e0e90610a1490309033908790600401613156565b600060405180830381600087803b158015610a2e57600080fd5b505af1158015610a42573d6000803e3d6000fd5b505050505050565b610a757f0000000000000000000000000000000000000000000000000000000000000000600261317a565b7f0000000000000000000000000000000000000000000000000000000000000000610aa1846001613199565b610aab919061317a565b61010154610ab99190613199565b610ac391906130db565b4211610b115760405162461bcd60e51b815260206004820152601960248201527f4f7074696f6e206469646e2774206578706972656420796574000000000000006044820152606401610891565b610b1c82823361289f565b5050565b6000828152610106602090815260408083208484528252808320548584526101058352818420858552909252822054610b5991906130db565b9392505050565b60008181526101086020908152604091829020825160c08101845281546001600160a01b0390811682526001830154169281019290925260028082015493830193909352600381015460608301526004015460ff8082161515608084015261010090910416151560a082015290610bf8907f00000000000000000000000000000000000000000000000000000000000000009061317a565b7f000000000000000000000000000000000000000000000000000000000000000082606001516001610c2a9190613199565b610c34919061317a565b610c3e91906130db565b61010154610c4c90426130db565b11610c925760405162461bcd60e51b815260206004820152601660248201527513dc1d1a5bdb881a185cc81b9bdd08195e1c1a5c995960521b6044820152606401610891565b606081015160009081526101046020526040902054610cc35760405162461bcd60e51b815260040161089190613110565b60408082015160608301516000908152610104602052919091205411610d265760405162461bcd60e51b81526020600482015260186024820152774f7074696f6e206578706972656420776f7274686c65737360401b6044820152606401610891565b60a08101511515600103610d785760405162461bcd60e51b815260206004820152601960248201527813dc1d1a5bdb88185b1c9958591e481b1a5c5d5a59185d1959603a1b6044820152606401610891565b60208101516001600160a01b0316610dd25760405162461bcd60e51b815260206004820152601b60248201527f4f7074696f6e2068617665206e6f74206265656e20626f7567687400000000006044820152606401610891565b806080015115610e1d5760405162461bcd60e51b815260206004820152601660248201527513dc1d1a5bdb88185b1c9958591e4818dbdd995c995960521b6044820152606401610891565b6040808201516060830151600090815261010460205291822054610e4191906130db565b60fc5460208401516040516323b872dd60e01b81529293506001600160a01b03909116916323b872dd91610e7c913391908690600401613156565b6020604051808303816000875af1158015610e9b573d6000803e3d6000fd5b505050506040513d601f19601f82011682018060405250810190610ebf91906131ac565b610ec857600080fd5b60008381526101086020908152604091829020600401805460ff191660011790556060848101518583015184518881529384018690526001600160a01b0316938301939093523392917fcdf3d0954b60bcea25eab319eef284cb7bb68b899111767c1e929a55efba9b6291015b60405180910390a3505050565b60008181526101086020908152604091829020825160c08101845281546001600160a01b039081168252600183015416928101839052600282015493810193909352600381015460608401526004015460ff8082161515608085015261010090910416151560a08301523314610ffa5760405162461bcd60e51b815260206004820152601960248201527f596f7520646f6e2774206f776e2074686973206f7074696f6e000000000000006044820152606401610891565b8060600151611007610763565b116110495760405162461bcd60e51b8152602060048201526012602482015271115c1bd8da081b9bdd08199a5b9a5cda195960721b6044820152606401610891565b80608001511561108e5760405162461bcd60e51b815260206004820152601060248201526f141bdcda5d1a5bdb8818dbdd995c995960821b6044820152606401610891565b8060a00151156110e05760405162461bcd60e51b815260206004820152601960248201527f6f7074696f6e20616c7265616479206c697175696461746564000000000000006044820152606401610891565b6060810151600090815261010460205260409020546111115760405162461bcd60e51b815260040161089190613110565b60fc54815160408084015190516323b872dd60e01b81526001600160a01b03909316926323b872dd92611148923392600401613156565b6020604051808303816000875af1158015611167573d6000803e3d6000fd5b505050506040513d601f19601f8201168201806040525081019061118b91906131ac565b6109e057600080fd5b600082815260c960205260409020600101546111af81612989565b6111b98383612993565b505050565b6001600160a01b038116331461122e5760405162461bcd60e51b815260206004820152602f60248201527f416363657373436f6e74726f6c3a2063616e206f6e6c792072656e6f756e636560448201526e103937b632b9903337b91039b2b63360891b6064820152608401610891565b610b1c8282612a19565b611243600033611a2d565b61125f5760405162461bcd60e51b8152600401610891906131c9565b61127760008051602061345083398151915282612993565b50565b611282612a80565b600061128c610763565b60008181526101026020908152604080832087845290915290205490915060ff166112c95760405162461bcd60e51b815260040161089190613200565b6112f47f0000000000000000000000000000000000000000000000000000000000000000600261317a565b7f0000000000000000000000000000000000000000000000000000000000000000611320836001613199565b61132a919061317a565b610101546113389190613199565b61134291906130db565b42106113905760405162461bcd60e51b815260206004820152601760248201527f5761697420666f7220746865206e6578742065706f63680000000000000000006044820152606401610891565b60008181526101066020908152604080832086845282528083205484845261010583528184208785529092528220546113c991906130db565b90508083111561141b5760405162461bcd60e51b815260206004820152601b60248201527f4e6f7420656e6f75676820746f6b656e7320617661696c61626c6500000000006044820152606401610891565b6101005460fb546040516373be031f60e01b81526001600160a01b039182166004820152600092839216906373be031f906024016040805180830381865afa15801561146b573d6000803e3d6000fd5b505050506040513d601f19601f8201168201806040525081019061148f919061322b565b60ff5491935091506000906001600160a01b0316635b7b6d88827f00000000000000000000000000000000000000000000000000000000000000006114d5896001613199565b6114df919061317a565b610101546114ed9190613199565b6040516001600160e01b031960e085901b16815291151560048301526024820152604481018a9052606481018590526084810186905260a401602060405180830381865afa158015611543573d6000803e3d6000fd5b505050506040513d601f19601f82011682018060405250810190611567919061324f565b60fc549091506001600160a01b03166323b872dd3330611587858b61317a565b6040518463ffffffff1660e01b81526004016115a593929190613156565b6020604051808303816000875af11580156115c4573d6000803e3d6000fd5b505050506040513d601f19601f820116820180604052508101906115e891906131ac565b6115f157600080fd5b6000858152610106602090815260408083208a845282528083205488845261010583528184208b855290925282205460019161162c916130db565b61163691906130db565b6000878152610106602090815260408083208c8452909152812080549293508992909190611665908490613199565b909155506116759050828861317a565b6000878152610103602090815260408083208c84529091528120805490919061169f908490613199565b909155508190505b876116b3836001613199565b6116bd91906130db565b811115611778576000878152610105602090815260408083208c845290915281208054839081106116f0576116f0613268565b600091825260208083209190910154808352610108825260409283902060010180546001600160a01b0319163390811790915583518281529283018e9052928201879052925089907ff64b78726aa49cf115358d6d427b361176cff78809f642e102c86e1d6fcee5929060600160405180910390a350806117708161327e565b9150506116a7565b50505050505050610b1c6001603355565b60fe5460fb5460405163a7ff3b2360e01b81526001600160a01b039182166004820152602481018590526044810184905233606482015291169063a7ff3b2390608401610a14565b60006117db610763565b6117e6906001613199565b60008181526101026020908152604080832086845290915290205490915060ff166118235760405162461bcd60e51b815260040161089190613200565b60fb54604051632142170760e11b81526001600160a01b03909116906342842e0e9061185790339030908890600401613156565b600060405180830381600087803b15801561187157600080fd5b505af1158015611885573d6000803e3d6000fd5b505050600084815261010860209081526040808320600281018790558054336001600160a01b031991821681178355600383018890556001928301805490921690915586855261010584528285208886528452828520805492830181558552838520909101889055858452610107835281842087855283528184209084529091528120805490925061191690613295565b909155506040805184815260208101849052339183917f12852e9691a3b4a507fdb1c3478087805e515ec2d7da612d9deb1b9010c1eca49101610f35565b61196c60008051602061345083398151915233611a2d565b8061197d575061197d600033611a2d565b6119995760405162461bcd60e51b8152600401610891906132ae565b600081116119db5760405162461bcd60e51b815260206004820152600f60248201526e0466c6f6f72207072696365203c203608c1b6044820152606401610891565b60008281526101046020526040908190208290555182907fd0c77e56cd2323339048d90b422e11cdef714664667e099ece9c2cf153a2d39790611a219084815260200190565b60405180910390a25050565b600091825260c9602090815260408084206001600160a01b0393909316845291905290205460ff1690565b611a63600033611a2d565b611a7f5760405162461bcd60e51b8152600401610891906131c9565b60fe80546001600160a01b0319166001600160a01b0392909216919091179055565b611aac600033611a2d565b611ac85760405162461bcd60e51b8152600401610891906131c9565b61010080546001600160a01b0319166001600160a01b0392909216919091179055565b611af6600033611a2d565b611b125760405162461bcd60e51b8152600401610891906131c9565b6101008054911515600160a01b0260ff60a01b19909216919091179055565b611b39612a80565b600082815261010860209081526040808320815160c08101835281546001600160a01b03908116825260018301541693810193909352600281015491830191909152600381015460608301526004015460ff8082161515608084015261010090910416151560a082015290611bac610763565b611bb7906001613199565b9050611be47f0000000000000000000000000000000000000000000000000000000000000000600261317a565b7f000000000000000000000000000000000000000000000000000000000000000083606001516001611c169190613199565b611c20919061317a565b61010154611c2e9190613199565b611c3891906130db565b4211611c7f5760405162461bcd60e51b815260206004820152601660248201527513dc1d1a5bdb881a185cc81b9bdd08195e1c1a5c995960521b6044820152606401610891565b81516001600160a01b03163314611cd05760405162461bcd60e51b81526020600482015260156024820152742cb7ba9030b932903737ba103a34329037bbb732b960591b6044820152606401610891565b606082015160009081526101046020526040902054611d015760405162461bcd60e51b815260040161089190613110565b604080830151606084015160009081526101046020529190912054111580611d2a575081608001515b80611d40575060208201516001600160a01b0316155b611d825760405162461bcd60e51b815260206004820152601360248201527221b7bb32b9103cb7bab9103837b9b4ba34b7b760691b6044820152606401610891565b60008181526101026020908152604080832086845290915290205460ff16611dbc5760405162461bcd60e51b815260040161089190613200565b6000848152610108602090815260408083206003810185905560028101879055600190810180546001600160a01b031916905584845261010583528184208785528352818420805491820181558452828420018790558383526101078252808320868452825280832033845290915281208054909190611e3b90613295565b909155506060820151600090815261010760209081526040808320818601518452825280832033845290915290205415611e8257611e82826060015183604001513361289f565b6040805185815260208101859052339183917fc5cf73bbf9412234d340e19996e27e6404eca00fe162d78240d124dff861876a910160405180910390a35050610b1c6001603355565b60fe5460fb546040516315170a1760e21b81526001600160a01b039283169263545c285c92611f039291169030908690600401613156565b6020604051808303816000875af1158015611f22573d6000803e3d6000fd5b505050506040513d601f19601f82011682018060405250810190611f4691906131ac565b611f4f57600080fd5b60009081526101086020526040902060048101805461ffff1916600117905580546001600160a01b0319169055565b611f9660008051602061345083398151915233611a2d565b80611fa75750611fa7600033611a2d565b611fc35760405162461bcd60e51b8152600401610891906132ae565b60005b8151811461203357600083815261010260205260408120835160019290859085908110611ff557611ff5613268565b6020026020010151815260200190815260200160002060006101000a81548160ff0219169083151502179055508061202c90613295565b9050611fc6565b50817f8b9dd3ac74d0614c084d8047cb199d3f08e72903980760ba021d7719e364014e82604051611a2191906132f4565b600054610100900460ff16158080156120845750600054600160ff909116105b8061209e5750303b15801561209e575060005460ff166001145b6121015760405162461bcd60e51b815260206004820152602e60248201527f496e697469616c697a61626c653a20636f6e747261637420697320616c72656160448201526d191e481a5b9a5d1a585b1a5e995960921b6064820152608401610891565b6000805460ff191660011790558015612124576000805461ff0019166101001790555b6001600160a01b0387166121705760405162461bcd60e51b815260206004820152601360248201527204552433732312061646472657373206973203606c1b6044820152606401610891565b6001600160a01b0386166121bb5760405162461bcd60e51b815260206004820152601260248201527104552433230206164647265737320697320360741b6044820152606401610891565b6001600160a01b0385166122115760405162461bcd60e51b815260206004820152601b60248201527f41756374696f6e4d616e616765722061646472657373206973203000000000006044820152606401610891565b6001600160a01b0384166122675760405162461bcd60e51b815260206004820152601a60248201527f4f7074696f6e50726963696e67206164647265737320697320300000000000006044820152606401610891565b6001600160a01b0383166122bd5760405162461bcd60e51b815260206004820152601d60248201527f566f6c6174696c6974794f7261636c65206164647265737320697320300000006044820152606401610891565b6001600160a01b0382166123085760405162461bcd60e51b8152602060048201526012602482015271041646d696e206164647265737320697320360741b6044820152606401610891565b612310612ae0565b612318612b09565b612320612ae0565b426101015560fb80546001600160a01b03808a166001600160a01b03199283161790925560fc805489841690831617905560fd805482163317905560fe805488841690831617905560ff8054878416908316179055610100805492861692909116919091179055612392600083612b38565b6123aa60008051602061345083398151915283612b38565b60fb5460405163a22cb46560e01b81526001600160a01b038781166004830152600160248301529091169063a22cb46590604401600060405180830381600087803b1580156123f857600080fd5b505af115801561240c573d6000803e3d6000fd5b505050508015612456576000805461ff0019169055604051600181527f7f26b83ff96e1f2b6a682f133852f6798a09c465da95921460cefb38474024989060200160405180910390a15b50505050505050565b600082815260c9602052604090206001015461247a81612989565b6111b98383612a19565b61248f600033611a2d565b6124ab5760405162461bcd60e51b8152600401610891906131c9565b60ff80546001600160a01b0319166001600160a01b0392909216919091179055565b60008181526101086020908152604091829020825160c08101845281546001600160a01b0390811682526001830154169281019290925260028101549282019290925260038201546060820181905260049092015460ff80821615156080840152610100918290048116151560a08401529054919291600160a01b9004161561255557600080fd5b7f00000000000000000000000000000000000000000000000000000000000000007f0000000000000000000000000000000000000000000000000000000000000000836060015160016125a89190613199565b6125b2919061317a565b6125bc9190613199565b610101546125ca90426130db565b116126175760405162461bcd60e51b815260206004820181905260248201527f4c69717569646174696f6e20706572696f642069736e277420726561636865646044820152606401610891565b600081815261010460205260409020546126435760405162461bcd60e51b815260040161089190613110565b60408083015160008381526101046020529190912054116126a15760405162461bcd60e51b81526020600482015260186024820152774f7074696f6e206578706972656420776f7274686c65737360401b6044820152606401610891565b8160800151156126e65760405162461bcd60e51b815260206004820152601060248201526f141bdcda5d1a5bdb8818dbdd995c995960821b6044820152606401610891565b60a082015115156001036127385760405162461bcd60e51b815260206004820152601960248201527813dc1d1a5bdb88185b1c9958591e481b1a5c5d5a59185d1959603a1b6044820152606401610891565b60008381526101086020908152604080832060048101805461ff00191661010017905580546001600160a01b03191690558481015184845261010490925282205461278391906130db565b60fe5460fb54600085815261010460209081526040918290205488519189015192516355a0e22960e01b81526001600160a01b039485166004820152602481018b905260448101919091529083166064820152908216608482015260a4810184905292935016906355a0e2299060c401600060405180830381600087803b15801561280d57600080fd5b505af1158015612821573d6000803e3d6000fd5b505050600083815261010460209081526040918290205486519187015192518894507f2e89d436d71507ecb25e79045c0f361b1f3410fb872d034e7b79bb1c245ce65893612891939187909384526001600160a01b03928316602085015291166040830152606082015260800190565b60405180910390a250505050565b60008381526101076020908152604080832085845282528083206001600160a01b038516845282528083208054908490558684526101038352818420868552835281842054878552610105845282852087865290935290832054909290612906848461317a565b61291091906130ee565b60fc5460405163a9059cbb60e01b81526001600160a01b0387811660048301526024820184905292935091169063a9059cbb906044016020604051808303816000875af1158015612965573d6000803e3d6000fd5b505050506040513d601f19601f8201168201806040525081019061245691906131ac565b6112778133612b42565b61299d8282611a2d565b610b1c57600082815260c9602090815260408083206001600160a01b03851684529091529020805460ff191660011790556129d53390565b6001600160a01b0316816001600160a01b0316837f2f8788117e7eff1d82e926ec794901d17c78024a50270940304540a733656f0d60405160405180910390a45050565b612a238282611a2d565b15610b1c57600082815260c9602090815260408083206001600160a01b0385168085529252808320805460ff1916905551339285917ff6391f5c32d9c69d2a47ea670b442974b53935d1edc7fd64eb21e047a839171b9190a45050565b600260335403612ad25760405162461bcd60e51b815260206004820152601f60248201527f5265656e7472616e637947756172643a207265656e7472616e742063616c6c006044820152606401610891565b6002603355565b6001603355565b600054610100900460ff16612b075760405162461bcd60e51b815260040161089190613338565b565b600054610100900460ff16612b305760405162461bcd60e51b815260040161089190613338565b612b07612b9b565b610b1c8282612993565b612b4c8282611a2d565b610b1c57612b5981612bc2565b612b64836020612bd4565b604051602001612b759291906133a7565b60408051601f198184030181529082905262461bcd60e51b82526108919160040161341c565b600054610100900460ff16612ad95760405162461bcd60e51b815260040161089190613338565b60606107d56001600160a01b03831660145b60606000612be383600261317a565b612bee906002613199565b67ffffffffffffffff811115612c0657612c06612df1565b6040519080825280601f01601f191660200182016040528015612c30576020820181803683370190505b509050600360fc1b81600081518110612c4b57612c4b613268565b60200101906001600160f81b031916908160001a905350600f60fb1b81600181518110612c7a57612c7a613268565b60200101906001600160f81b031916908160001a9053506000612c9e84600261317a565b612ca9906001613199565b90505b6001811115612d21576f181899199a1a9b1b9c1cb0b131b232b360811b85600f1660108110612cdd57612cdd613268565b1a60f81b828281518110612cf357612cf3613268565b60200101906001600160f81b031916908160001a90535060049490941c93612d1a8161327e565b9050612cac565b508315610b595760405162461bcd60e51b815260206004820181905260248201527f537472696e67733a20686578206c656e67746820696e73756666696369656e746044820152606401610891565b600060208284031215612d8257600080fd5b81356001600160e01b031981168114610b5957600080fd5b600060208284031215612dac57600080fd5b5035919050565b60008060408385031215612dc657600080fd5b50508035926020909101359150565b80356001600160a01b0381168114612dec57600080fd5b919050565b634e487b7160e01b600052604160045260246000fd5b604051601f8201601f1916810167ffffffffffffffff81118282101715612e3057612e30612df1565b604052919050565b60008060008060808587031215612e4e57600080fd5b612e5785612dd5565b93506020612e66818701612dd5565b935060408601359250606086013567ffffffffffffffff80821115612e8a57600080fd5b818801915088601f830112612e9e57600080fd5b813581811115612eb057612eb0612df1565b612ec2601f8201601f19168501612e07565b91508082528984828501011115612ed857600080fd5b808484018584013760008482840101525080935050505092959194509250565b60008060408385031215612f0b57600080fd5b82359150612f1b60208401612dd5565b90509250929050565b600060208284031215612f3657600080fd5b610b5982612dd5565b600080600060608486031215612f5457600080fd5b8335925060208401359150612f6b60408501612dd5565b90509250925092565b801515811461127757600080fd5b600060208284031215612f9457600080fd5b8135610b5981612f74565b60008060408385031215612fb257600080fd5b8235915060208084013567ffffffffffffffff80821115612fd257600080fd5b818601915086601f830112612fe657600080fd5b813581811115612ff857612ff8612df1565b8060051b9150613009848301612e07565b818152918301840191848101908984111561302357600080fd5b938501935b8385101561304157843582529385019390850190613028565b8096505050505050509250929050565b60008060008060008060c0878903121561306a57600080fd5b61307387612dd5565b955061308160208801612dd5565b945061308f60408801612dd5565b935061309d60608801612dd5565b92506130ab60808801612dd5565b91506130b960a08801612dd5565b90509295509295509295565b634e487b7160e01b600052601160045260246000fd5b818103818111156107d5576107d56130c5565b60008261310b57634e487b7160e01b600052601260045260246000fd5b500490565b60208082526026908201527f466c6f6f72207072696365206e6f7420736574746c656420666f722074686973604082015265040cae0dec6d60d31b606082015260800190565b6001600160a01b039384168152919092166020820152604081019190915260600190565b6000816000190483118215151615613194576131946130c5565b500290565b808201808211156107d5576107d56130c5565b6000602082840312156131be57600080fd5b8151610b5981612f74565b60208082526017908201527f6d73672e73656e646572206973206e6f742061646d696e000000000000000000604082015260600190565b60208082526011908201527057726f6e6720737472696b65507269636560781b604082015260600190565b6000806040838503121561323e57600080fd5b505080516020909101519092909150565b60006020828403121561326157600080fd5b5051919050565b634e487b7160e01b600052603260045260246000fd5b60008161328d5761328d6130c5565b506000190190565b6000600182016132a7576132a76130c5565b5060010190565b60208082526026908201527f6d73672e73656e646572206973206e6f7420666c6f6f7220707269636520707260408201526537bb34b232b960d11b606082015260800190565b6020808252825182820181905260009190848201906040850190845b8181101561332c57835183529284019291840191600101613310565b50909695505050505050565b6020808252602b908201527f496e697469616c697a61626c653a20636f6e7472616374206973206e6f74206960408201526a6e697469616c697a696e6760a81b606082015260800190565b60005b8381101561339e578181015183820152602001613386565b50506000910152565b7f416363657373436f6e74726f6c3a206163636f756e74200000000000000000008152600083516133df816017850160208801613383565b7001034b99036b4b9b9b4b733903937b6329607d1b6017918401918201528351613410816028840160208801613383565b01602801949350505050565b602081526000825180602084015261343b816040850160208701613383565b601f01601f1916919091016040019291505056fecbf283b5381192ce3c087c36c27bed2242f324291cbab3b1559bfa94b13399eea264697066735822122068a31aafe9bc350ade0a8366cd45b457aaabc9efa409729878a97db20c7b99c764736f6c63430008100033",
    "linkReferences": {}
  },
  "methodIdentifiers": {
    "DEFAULT_ADMIN_ROLE()": "a217fddf",
    "FLOOR_PRICE_PROVIDER_ROLE()": "707c4ac2",
    "auctionManager()": "b0192f9a",
    "bidAuction(uint256,uint256)": "7587b4df",
    "buyAtStrike(uint256)": "2398fdcf",
    "buyOptions(uint256,uint256)": "57db99cd",
    "claimPremiums(uint256,uint256)": "04ed8ef7",
    "coverPosition(uint256)": "09b4a81c",
    "endAuction(uint256)": "b9a2de3a",
    "erc20()": "785e9e86",
    "erc721()": "bca6ce64",
    "getAmountLockedAt(uint256,uint256)": "910294ca",
    "getEpochDuration()": "5d3ea8f1",
    "getEpoch_2e()": "0000ae4a",
    "getFloorPrice(uint256)": "b2d4cf18",
    "getInterval()": "91ad27b4",
    "getOption(uint256)": "1ce5e9a6",
    "getOptionAvailableAt(uint256,uint256)": "086e0f09",
    "getRoleAdmin(bytes32)": "248a9ca3",
    "getSharesAtOf(uint256,uint256,address)": "5e7c3f9a",
    "grantRole(bytes32,address)": "2f2ff15d",
    "hasRole(bytes32,address)": "91d14854",
    "hatching()": "bce47716",
    "initialize(address,address,address,address,address,address)": "cc2a9a5b",
    "liquidateNFT(uint256)": "f95dc232",
    "liquidationInterrupted()": "46953c47",
    "onERC721Received(address,address,uint256,bytes)": "150b7a02",
    "optionPricing()": "1e3394fb",
    "renounceRole(bytes32,address)": "36568abe",
    "restake(uint256,uint256)": "b8e7023d",
    "revokeRole(bytes32,address)": "d547741f",
    "setAuctionManager(address)": "95e4cacb",
    "setFloorPriceProvider(address)": "40dcf8ef",
    "setLiquidationInterrupted(bool)": "b1b3dd3a",
    "setOptionPricing(address)": "f6a76a81",
    "setStrikePriceAt(uint256,uint256[])": "ba4ec52a",
    "setVolatilityOracle(address)": "9c78a526",
    "setfloorpriceAt(uint256,uint256)": "8992bc77",
    "stake(uint256,uint256)": "7b0472f0",
    "strikeController()": "45be8694",
    "supportsInterface(bytes4)": "01ffc9a7",
    "volatilityOracle()": "55b13a4f",
    "withdrawNFT(uint256)": "023245d7"
  },
  "id": 62
}