{
  "abi": [
    {
      "anonymous": false,
      "inputs": [
        {
          "indexed": true,
          "internalType": "uint256",
          "name": "_epoch",
          "type": "uint256"
        },
        {
          "indexed": false,
          "internalType": "uint256",
          "name": "_tokenId",
          "type": "uint256"
        },
        {
          "indexed": false,
          "internalType": "uint256",
          "name": "_strikePrice",
          "type": "uint256"
        },
        {
          "indexed": false,
          "internalType": "uint256",
          "name": "_premium",
          "type": "uint256"
        },
        {
          "indexed": false,
          "internalType": "address",
          "name": "_writer",
          "type": "address"
        },
        {
          "indexed": true,
          "internalType": "address",
          "name": "_buyer",
          "type": "address"
        }
      ],
      "name": "BuyOption",
      "type": "event"
    },
    {
      "anonymous": false,
      "inputs": [
        {
          "indexed": true,
          "internalType": "uint256",
          "name": "_epoch",
          "type": "uint256"
        },
        {
          "indexed": false,
          "internalType": "uint256",
          "name": "_shares",
          "type": "uint256"
        },
        {
          "indexed": false,
          "internalType": "uint256",
          "name": "_premiums",
          "type": "uint256"
        },
        {
          "indexed": true,
          "internalType": "address",
          "name": "_owner",
          "type": "address"
        }
      ],
      "name": "ClaimPremiums",
      "type": "event"
    },
    {
      "anonymous": false,
      "inputs": [
        {
          "indexed": true,
          "internalType": "uint256",
          "name": "_epoch",
          "type": "uint256"
        },
        {
          "indexed": false,
          "internalType": "uint256",
          "name": "_tokenId",
          "type": "uint256"
        },
        {
          "indexed": false,
          "internalType": "uint256",
          "name": "_debt",
          "type": "uint256"
        },
        {
          "indexed": true,
          "internalType": "address",
          "name": "_writer",
          "type": "address"
        },
        {
          "indexed": false,
          "internalType": "address",
          "name": "_buyer",
          "type": "address"
        }
      ],
      "name": "CoverPosition",
      "type": "event"
    },
    {
      "anonymous": false,
      "inputs": [
        {
          "indexed": false,
          "internalType": "uint8",
          "name": "version",
          "type": "uint8"
        }
      ],
      "name": "Initialized",
      "type": "event"
    },
    {
      "anonymous": false,
      "inputs": [
        {
          "indexed": true,
          "internalType": "uint256",
          "name": "_tokenId",
          "type": "uint256"
        },
        {
          "indexed": false,
          "internalType": "uint256",
          "name": "_firstPrice",
          "type": "uint256"
        },
        {
          "indexed": false,
          "internalType": "address",
          "name": "_writer",
          "type": "address"
        },
        {
          "indexed": false,
          "internalType": "address",
          "name": "_buyer",
          "type": "address"
        },
        {
          "indexed": false,
          "internalType": "uint256",
          "name": "_debt",
          "type": "uint256"
        }
      ],
      "name": "LiquidateNFT",
      "type": "event"
    },
    {
      "anonymous": false,
      "inputs": [
        {
          "indexed": true,
          "internalType": "uint256",
          "name": "_epoch",
          "type": "uint256"
        },
        {
          "indexed": false,
          "internalType": "uint256",
          "name": "_tokenId",
          "type": "uint256"
        },
        {
          "indexed": false,
          "internalType": "uint256",
          "name": "_strikePrice",
          "type": "uint256"
        },
        {
          "indexed": true,
          "internalType": "address",
          "name": "_writer",
          "type": "address"
        }
      ],
      "name": "ReStake",
      "type": "event"
    },
    {
      "anonymous": false,
      "inputs": [
        {
          "indexed": true,
          "internalType": "bytes32",
          "name": "role",
          "type": "bytes32"
        },
        {
          "indexed": true,
          "internalType": "bytes32",
          "name": "previousAdminRole",
          "type": "bytes32"
        },
        {
          "indexed": true,
          "internalType": "bytes32",
          "name": "newAdminRole",
          "type": "bytes32"
        }
      ],
      "name": "RoleAdminChanged",
      "type": "event"
    },
    {
      "anonymous": false,
      "inputs": [
        {
          "indexed": true,
          "internalType": "bytes32",
          "name": "role",
          "type": "bytes32"
        },
        {
          "indexed": true,
          "internalType": "address",
          "name": "account",
          "type": "address"
        },
        {
          "indexed": true,
          "internalType": "address",
          "name": "sender",
          "type": "address"
        }
      ],
      "name": "RoleGranted",
      "type": "event"
    },
    {
      "anonymous": false,
      "inputs": [
        {
          "indexed": true,
          "internalType": "bytes32",
          "name": "role",
          "type": "bytes32"
        },
        {
          "indexed": true,
          "internalType": "address",
          "name": "account",
          "type": "address"
        },
        {
          "indexed": true,
          "internalType": "address",
          "name": "sender",
          "type": "address"
        }
      ],
      "name": "RoleRevoked",
      "type": "event"
    },
    {
      "anonymous": false,
      "inputs": [
        {
          "indexed": true,
          "internalType": "uint256",
          "name": "_epoch",
          "type": "uint256"
        },
        {
          "indexed": false,
          "internalType": "uint256",
          "name": "_floorPrice",
          "type": "uint256"
        }
      ],
      "name": "SetFloorPrice",
      "type": "event"
    },
    {
      "anonymous": false,
      "inputs": [
        {
          "indexed": true,
          "internalType": "uint256",
          "name": "_epoch",
          "type": "uint256"
        },
        {
          "indexed": false,
          "internalType": "uint256[]",
          "name": "_strikePrices",
          "type": "uint256[]"
        }
      ],
      "name": "SetStrikePrice",
      "type": "event"
    },
    {
      "anonymous": false,
      "inputs": [
        {
          "indexed": true,
          "internalType": "uint256",
          "name": "_epoch",
          "type": "uint256"
        },
        {
          "indexed": false,
          "internalType": "uint256",
          "name": "_tokenId",
          "type": "uint256"
        },
        {
          "indexed": false,
          "internalType": "uint256",
          "name": "_strikePrice",
          "type": "uint256"
        },
        {
          "indexed": true,
          "internalType": "address",
          "name": "_writer",
          "type": "address"
        }
      ],
      "name": "Stake",
      "type": "event"
    },
    {
      "anonymous": false,
      "inputs": [
        {
          "indexed": false,
          "internalType": "uint256",
          "name": "_tokenId",
          "type": "uint256"
        },
        {
          "indexed": false,
          "internalType": "address",
          "name": "_owner",
          "type": "address"
        }
      ],
      "name": "WithdrawNFT",
      "type": "event"
    },
    {
      "inputs": [],
      "name": "DEFAULT_ADMIN_ROLE",
      "outputs": [
        {
          "internalType": "bytes32",
          "name": "",
          "type": "bytes32"
        }
      ],
      "stateMutability": "view",
      "type": "function"
    },
    {
      "inputs": [],
      "name": "auctionManager",
      "outputs": [
        {
          "internalType": "address",
          "name": "",
          "type": "address"
        }
      ],
      "stateMutability": "view",
      "type": "function"
    },
    {
      "inputs": [
        {
          "internalType": "uint256",
          "name": "_tokenId",
          "type": "uint256"
        },
        {
          "internalType": "uint256",
          "name": "_amount",
          "type": "uint256"
        }
      ],
      "name": "bidAuction",
      "outputs": [],
      "stateMutability": "nonpayable",
      "type": "function"
    },
    {
      "inputs": [
        {
          "internalType": "uint256",
          "name": "_tokenId",
          "type": "uint256"
        }
      ],
      "name": "buyAtStrike",
      "outputs": [],
      "stateMutability": "nonpayable",
      "type": "function"
    },
    {
      "inputs": [
        {
          "internalType": "uint256",
          "name": "_strikePrice",
          "type": "uint256"
        }
      ],
      "name": "buyOption",
      "outputs": [],
      "stateMutability": "nonpayable",
      "type": "function"
    },
    {
      "inputs": [
        {
          "internalType": "uint256",
          "name": "_epoch",
          "type": "uint256"
        },
        {
          "internalType": "uint256",
          "name": "_strikePrice",
          "type": "uint256"
        }
      ],
      "name": "claimPremiums",
      "outputs": [],
      "stateMutability": "nonpayable",
      "type": "function"
    },
    {
      "inputs": [
        {
          "internalType": "uint256",
          "name": "_tokenId",
          "type": "uint256"
        }
      ],
      "name": "coverPosition",
      "outputs": [],
      "stateMutability": "nonpayable",
      "type": "function"
    },
    {
      "inputs": [
        {
          "internalType": "uint256",
          "name": "_tokenId",
          "type": "uint256"
        }
      ],
      "name": "endAuction",
      "outputs": [],
      "stateMutability": "nonpayable",
      "type": "function"
    },
    {
      "inputs": [],
      "name": "erc20",
      "outputs": [
        {
          "internalType": "address",
          "name": "",
          "type": "address"
        }
      ],
      "stateMutability": "view",
      "type": "function"
    },
    {
      "inputs": [],
      "name": "erc721",
      "outputs": [
        {
          "internalType": "address",
          "name": "",
          "type": "address"
        }
      ],
      "stateMutability": "view",
      "type": "function"
    },
    {
      "inputs": [
        {
          "internalType": "uint256",
          "name": "_epoch",
          "type": "uint256"
        },
        {
          "internalType": "uint256",
          "name": "_strikePrice",
          "type": "uint256"
        }
      ],
      "name": "getAmountLockedAt",
      "outputs": [
        {
          "internalType": "uint256",
          "name": "",
          "type": "uint256"
        }
      ],
      "stateMutability": "view",
      "type": "function"
    },
    {
      "inputs": [],
      "name": "getEpochDuration",
      "outputs": [
        {
          "internalType": "uint256",
          "name": "",
          "type": "uint256"
        }
      ],
      "stateMutability": "pure",
      "type": "function"
    },
    {
      "inputs": [],
      "name": "getEpoch_2e",
      "outputs": [
        {
          "internalType": "uint256",
          "name": "",
          "type": "uint256"
        }
      ],
      "stateMutability": "view",
      "type": "function"
    },
    {
      "inputs": [
        {
          "internalType": "uint256",
          "name": "_epoch",
          "type": "uint256"
        }
      ],
      "name": "getFloorPrice",
      "outputs": [
        {
          "internalType": "uint256",
          "name": "",
          "type": "uint256"
        }
      ],
      "stateMutability": "view",
      "type": "function"
    },
    {
      "inputs": [],
      "name": "getInterval",
      "outputs": [
        {
          "internalType": "uint256",
          "name": "",
          "type": "uint256"
        }
      ],
      "stateMutability": "pure",
      "type": "function"
    },
    {
      "inputs": [
        {
          "internalType": "uint256",
          "name": "_tokenId",
          "type": "uint256"
        }
      ],
      "name": "getOption",
      "outputs": [
        {
          "components": [
            {
              "internalType": "address",
              "name": "writer",
              "type": "address"
            },
            {
              "internalType": "address",
              "name": "buyer",
              "type": "address"
            },
            {
              "internalType": "uint256",
              "name": "sPrice",
              "type": "uint256"
            },
            {
              "internalType": "uint256",
              "name": "epoch",
              "type": "uint256"
            },
            {
              "internalType": "bool",
              "name": "covered",
              "type": "bool"
            },
            {
              "internalType": "bool",
              "name": "liquidated",
              "type": "bool"
            }
          ],
          "internalType": "struct StrikePool.Option",
          "name": "option",
          "type": "tuple"
        }
      ],
      "stateMutability": "view",
      "type": "function"
    },
    {
      "inputs": [
        {
          "internalType": "uint256",
          "name": "_epoch",
          "type": "uint256"
        },
        {
          "internalType": "uint256",
          "name": "_strikePrice",
          "type": "uint256"
        }
      ],
      "name": "getOptionAvailableAt",
      "outputs": [
        {
          "internalType": "uint256",
          "name": "",
          "type": "uint256"
        }
      ],
      "stateMutability": "view",
      "type": "function"
    },
    {
      "inputs": [
        {
          "internalType": "bytes32",
          "name": "role",
          "type": "bytes32"
        }
      ],
      "name": "getRoleAdmin",
      "outputs": [
        {
          "internalType": "bytes32",
          "name": "",
          "type": "bytes32"
        }
      ],
      "stateMutability": "view",
      "type": "function"
    },
    {
      "inputs": [
        {
          "internalType": "uint256",
          "name": "_epoch",
          "type": "uint256"
        },
        {
          "internalType": "uint256",
          "name": "_strikePrice",
          "type": "uint256"
        },
        {
          "internalType": "address",
          "name": "_add",
          "type": "address"
        }
      ],
      "name": "getSharesAtOf",
      "outputs": [
        {
          "internalType": "uint256",
          "name": "",
          "type": "uint256"
        }
      ],
      "stateMutability": "view",
      "type": "function"
    },
    {
      "inputs": [
        {
          "internalType": "bytes32",
          "name": "role",
          "type": "bytes32"
        },
        {
          "internalType": "address",
          "name": "account",
          "type": "address"
        }
      ],
      "name": "grantRole",
      "outputs": [],
      "stateMutability": "nonpayable",
      "type": "function"
    },
    {
      "inputs": [
        {
          "internalType": "bytes32",
          "name": "role",
          "type": "bytes32"
        },
        {
          "internalType": "address",
          "name": "account",
          "type": "address"
        }
      ],
      "name": "hasRole",
      "outputs": [
        {
          "internalType": "bool",
          "name": "",
          "type": "bool"
        }
      ],
      "stateMutability": "view",
      "type": "function"
    },
    {
      "inputs": [],
      "name": "hatching",
      "outputs": [
        {
          "internalType": "uint256",
          "name": "",
          "type": "uint256"
        }
      ],
      "stateMutability": "view",
      "type": "function"
    },
    {
      "inputs": [
        {
          "internalType": "address",
          "name": "_erc721",
          "type": "address"
        },
        {
          "internalType": "address",
          "name": "_erc20",
          "type": "address"
        },
        {
          "internalType": "address",
          "name": "_auctionManager",
          "type": "address"
        },
        {
          "internalType": "address",
          "name": "_optionPricing",
          "type": "address"
        },
        {
          "internalType": "address",
          "name": "_volatilityOracle",
          "type": "address"
        },
        {
          "internalType": "address",
          "name": "_admin",
          "type": "address"
        }
      ],
      "name": "initialize",
      "outputs": [],
      "stateMutability": "nonpayable",
      "type": "function"
    },
    {
      "inputs": [
        {
          "internalType": "uint256",
          "name": "_tokenId",
          "type": "uint256"
        }
      ],
      "name": "liquidateNFT",
      "outputs": [],
      "stateMutability": "nonpayable",
      "type": "function"
    },
    {
      "inputs": [],
      "name": "liquidationInterrupted",
      "outputs": [
        {
          "internalType": "bool",
          "name": "",
          "type": "bool"
        }
      ],
      "stateMutability": "view",
      "type": "function"
    },
    {
      "inputs": [
        {
          "internalType": "address",
          "name": "",
          "type": "address"
        },
        {
          "internalType": "address",
          "name": "",
          "type": "address"
        },
        {
          "internalType": "uint256",
          "name": "",
          "type": "uint256"
        },
        {
          "internalType": "bytes",
          "name": "",
          "type": "bytes"
        }
      ],
      "name": "onERC721Received",
      "outputs": [
        {
          "internalType": "bytes4",
          "name": "",
          "type": "bytes4"
        }
      ],
      "stateMutability": "nonpayable",
      "type": "function"
    },
    {
      "inputs": [],
      "name": "optionPricing",
      "outputs": [
        {
          "internalType": "address",
          "name": "",
          "type": "address"
        }
      ],
      "stateMutability": "view",
      "type": "function"
    },
    {
      "inputs": [
        {
          "internalType": "bytes32",
          "name": "role",
          "type": "bytes32"
        },
        {
          "internalType": "address",
          "name": "account",
          "type": "address"
        }
      ],
      "name": "renounceRole",
      "outputs": [],
      "stateMutability": "nonpayable",
      "type": "function"
    },
    {
      "inputs": [
        {
          "internalType": "uint256",
          "name": "_tokenId",
          "type": "uint256"
        },
        {
          "internalType": "uint256",
          "name": "_strikePrice",
          "type": "uint256"
        }
      ],
      "name": "restake",
      "outputs": [],
      "stateMutability": "nonpayable",
      "type": "function"
    },
    {
      "inputs": [
        {
          "internalType": "bytes32",
          "name": "role",
          "type": "bytes32"
        },
        {
          "internalType": "address",
          "name": "account",
          "type": "address"
        }
      ],
      "name": "revokeRole",
      "outputs": [],
      "stateMutability": "nonpayable",
      "type": "function"
    },
    {
      "inputs": [
        {
          "internalType": "address",
          "name": "_auctionManager",
          "type": "address"
        }
      ],
      "name": "setAuctionManager",
      "outputs": [],
      "stateMutability": "nonpayable",
      "type": "function"
    },
    {
      "inputs": [
        {
          "internalType": "bool",
          "name": "_liquidationInterrupted",
          "type": "bool"
        }
      ],
      "name": "setLiquidationInterrupted",
      "outputs": [],
      "stateMutability": "nonpayable",
      "type": "function"
    },
    {
      "inputs": [
        {
          "internalType": "address",
          "name": "_optionPricing",
          "type": "address"
        }
      ],
      "name": "setOptionPricing",
      "outputs": [],
      "stateMutability": "nonpayable",
      "type": "function"
    },
    {
      "inputs": [
        {
          "internalType": "uint256",
          "name": "_epoch",
          "type": "uint256"
        },
        {
          "internalType": "uint256[]",
          "name": "_strikePrices",
          "type": "uint256[]"
        }
      ],
      "name": "setStrikePriceAt",
      "outputs": [],
      "stateMutability": "nonpayable",
      "type": "function"
    },
    {
      "inputs": [
        {
          "internalType": "address",
          "name": "_volatilityOracle",
          "type": "address"
        }
      ],
      "name": "setVolatilityOracle",
      "outputs": [],
      "stateMutability": "nonpayable",
      "type": "function"
    },
    {
      "inputs": [
        {
          "internalType": "uint256",
          "name": "_epoch",
          "type": "uint256"
        },
        {
          "internalType": "uint256",
          "name": "_floorPrice",
          "type": "uint256"
        }
      ],
      "name": "setfloorpriceAt",
      "outputs": [],
      "stateMutability": "nonpayable",
      "type": "function"
    },
    {
      "inputs": [
        {
          "internalType": "uint256",
          "name": "_tokenId",
          "type": "uint256"
        },
        {
          "internalType": "uint256",
          "name": "_strikePrice",
          "type": "uint256"
        }
      ],
      "name": "stake",
      "outputs": [],
      "stateMutability": "nonpayable",
      "type": "function"
    },
    {
      "inputs": [],
      "name": "strikeController",
      "outputs": [
        {
          "internalType": "address",
          "name": "",
          "type": "address"
        }
      ],
      "stateMutability": "view",
      "type": "function"
    },
    {
      "inputs": [
        {
          "internalType": "bytes4",
          "name": "interfaceId",
          "type": "bytes4"
        }
      ],
      "name": "supportsInterface",
      "outputs": [
        {
          "internalType": "bool",
          "name": "",
          "type": "bool"
        }
      ],
      "stateMutability": "view",
      "type": "function"
    },
    {
      "inputs": [],
      "name": "volatilityOracle",
      "outputs": [
        {
          "internalType": "address",
          "name": "",
          "type": "address"
        }
      ],
      "stateMutability": "view",
      "type": "function"
    },
    {
      "inputs": [
        {
          "internalType": "uint256",
          "name": "_tokenId",
          "type": "uint256"
        }
      ],
      "name": "withdrawNFT",
      "outputs": [],
      "stateMutability": "nonpayable",
      "type": "function"
    }
  ],
  "bytecode": {
    "object": "0x60c0604052621275006080526201518060a05234801561001e57600080fd5b5060805160a051613391610098600039600081816105c401528181610a1101528181610bb40152818161160901528181611f6c01526123850152600081816104e80152818161072901528181610a3901528181610bdc0152818161163101528181611f8d015281816123ad01526124d301526133916000f3fe608060405234801561001057600080fd5b50600436106102515760003560e01c80637b0472f011610146578063b2d4cf18116100c3578063bce4771611610087578063bce47716146106bc578063cc2a9a5b146106c6578063d547741f146106d9578063f6a76a81146106ec578063f95dc232146106ff578063fba225b91461071257600080fd5b8063b2d4cf181461064f578063b8e7023d14610670578063b9a2de3a14610683578063ba4ec52a14610696578063bca6ce64146106a957600080fd5b806395e4cacb1161010a57806395e4cacb146105fb5780639c78a5261461060e578063a217fddf14610621578063b0192f9a14610629578063b1b3dd3a1461063c57600080fd5b80637b0472f0146105705780638992bc7714610583578063910294ca1461059657806391ad27b4146105c257806391d14854146105e857600080fd5b8063248a9ca3116101d457806355b13a4f1161019857806355b13a4f146104d25780635d3ea8f1146104e65780635e7c3f9a1461050c5780637587b4df1461054a578063785e9e861461055d57600080fd5b8063248a9ca3146104615780632f2ff15d1461048457806336568abe1461049757806345be8694146104aa57806346953c47146104bd57600080fd5b806309b4a81c1161021b57806309b4a81c146102cf578063150b7a02146102e25780631ce5e9a6146103195780631e3394fb146104235780632398fdcf1461044e57600080fd5b8061ae4a1461025657806301ffc9a714610271578063023245d71461029457806304ed8ef7146102a9578063086e0f09146102bc575b600080fd5b61025e610725565b6040519081526020015b60405180910390f35b61028461027f366004612cc2565b610766565b6040519015158152602001610268565b6102a76102a2366004612cec565b61079d565b005b6102a76102b7366004612d05565b610a0c565b61025e6102ca366004612d05565b610ade565b6102a76102dd366004612cec565b610b1e565b6103006102f0366004612d8a565b630a85bd0160e11b949350505050565b6040516001600160e01b03199091168152602001610268565b6103ca610327366004612cec565b6040805160c081018252600080825260208201819052918101829052606081018290526080810182905260a08101919091525060009081526101086020908152604091829020825160c08101845281546001600160a01b039081168252600183015416928101929092526002810154928201929092526003820154606082015260049091015460ff8082161515608084015261010090910416151560a082015290565b604051610268919081516001600160a01b03908116825260208084015190911690820152604080830151908201526060808301519082015260808083015115159082015260a09182015115159181019190915260c00190565b60ff54610436906001600160a01b031681565b6040516001600160a01b039091168152602001610268565b6102a761045c366004612cec565b610ef3565b61025e61046f366004612cec565b600090815260c9602052604090206001015490565b6102a7610492366004612e4a565b61114e565b6102a76104a5366004612e4a565b611178565b60fd54610436906001600160a01b031681565b6101005461028490600160a01b900460ff1681565b61010054610436906001600160a01b031681565b7f000000000000000000000000000000000000000000000000000000000000000061025e565b61025e61051a366004612e76565b6000928352610107602090815260408085209385529281528284206001600160a01b039290921684525290205490565b6102a7610558366004612d05565b6111f2565b60fc54610436906001600160a01b031681565b6102a761057e366004612d05565b61123a565b6102a7610591366004612d05565b6113bd565b61025e6105a4366004612d05565b60009182526101056020908152604080842092845291905290205490565b7f000000000000000000000000000000000000000000000000000000000000000061025e565b6102846105f6366004612e4a565b611478565b6102a7610609366004612eab565b6114a3565b6102a761061c366004612eab565b6114ec565b61025e600081565b60fe54610436906001600160a01b031681565b6102a761064a366004612ed4565b611536565b61025e61065d366004612cec565b6000908152610104602052604090205490565b6102a761067e366004612d05565b61157c565b6102a7610691366004612cec565b611916565b6102a76106a4366004612ef1565b6119c9565b60fb54610436906001600160a01b031681565b61025e6101015481565b6102a76106d4366004612fa3565b611a91565b6102a76106e7366004612e4a565b611e74565b6102a76106fa366004612eab565b611e99565b6102a761070d366004612cec565b611ee2565b6102a7610720366004612cec565b6122b4565b60007f00000000000000000000000000000000000000000000000000000000000000006101015442610757919061302d565b6107619190613040565b905090565b60006001600160e01b03198216637965db0b60e01b148061079757506301ffc9a760e01b6001600160e01b03198316145b92915050565b60008181526101086020908152604091829020825160c08101845281546001600160a01b0390811682526001830154169281019290925260028101549282019290925260038201546060820181905260049092015460ff8082161515608084015261010090910416151560a082015290610815610725565b1161085c5760405162461bcd60e51b8152602060048201526012602482015271115c1bd8da081b9bdd08199a5b9a5cda195960721b60448201526064015b60405180910390fd5b80516001600160a01b031633146108ad5760405162461bcd60e51b81526020600482015260156024820152742cb7ba9030b932903737ba103a34329037bbb732b960591b6044820152606401610853565b6060810151600090815261010460205260409020546108de5760405162461bcd60e51b815260040161085390613062565b604080820151606083015160009081526101046020529190912054111580610907575080608001515b8061091d575060208101516001600160a01b0316155b61095f5760405162461bcd60e51b815260206004820152601360248201527221b7bb32b9103cb7bab9103837b9b4ba34b7b760691b6044820152606401610853565b60608101516000908152610107602090815260408083208185015184528252808320338452909152902054156109a2576109a281606001518260400151336127f1565b60fb54604051632142170760e11b81526001600160a01b03909116906342842e0e906109d6903090339087906004016130a8565b600060405180830381600087803b1580156109f057600080fd5b505af1158015610a04573d6000803e3d6000fd5b505050505050565b610a377f000000000000000000000000000000000000000000000000000000000000000060026130cc565b7f0000000000000000000000000000000000000000000000000000000000000000610a638460016130eb565b610a6d91906130cc565b61010154610a7b91906130eb565b610a85919061302d565b4211610acf5760405162461bcd60e51b815260206004820152601960248201527813dc1d1a5bdb88191a591b89dd08195e1c1a5c9959081e595d603a1b6044820152606401610853565b610ada8282336127f1565b5050565b6000828152610106602090815260408083208484528252808320548584526101058352818420858552909252822054610b17919061302d565b9392505050565b600081815261010860209081526040808320815160c08101835281546001600160a01b0390811682526001830154168185015260028201548184015260038201546060820181905260049092015460ff8082161515608084015261010090910416151560a082015290845261010490925290912054610baf5760405162461bcd60e51b815260040161085390613062565b610bda7f000000000000000000000000000000000000000000000000000000000000000060026130cc565b7f000000000000000000000000000000000000000000000000000000000000000082606001516001610c0c91906130eb565b610c1691906130cc565b610c20919061302d565b61010154610c2e904261302d565b11610c745760405162461bcd60e51b815260206004820152601660248201527513dc1d1a5bdb881a185cc81b9bdd08195e1c1a5c995960521b6044820152606401610853565b60408082015160608301516000908152610104602052919091205411610cd75760405162461bcd60e51b81526020600482015260186024820152774f7074696f6e206578706972656420776f7274686c65737360401b6044820152606401610853565b60a08101511515600103610d295760405162461bcd60e51b815260206004820152601960248201527813dc1d1a5bdb88185b1c9958591e481b1a5c5d5a59185d1959603a1b6044820152606401610853565b60208101516001600160a01b0316610d835760405162461bcd60e51b815260206004820152601b60248201527f4f7074696f6e2068617665206e6f74206265656e20626f7567687400000000006044820152606401610853565b806080015115610dce5760405162461bcd60e51b815260206004820152601660248201527513dc1d1a5bdb88185b1c9958591e4818dbdd995c995960521b6044820152606401610853565b6040808201516060830151600090815261010460205291822054610df2919061302d565b60fc5460208401516040516323b872dd60e01b81529293506001600160a01b03909116916323b872dd91610e2d9133919086906004016130a8565b6020604051808303816000875af1158015610e4c573d6000803e3d6000fd5b505050506040513d601f19601f82011682018060405250810190610e7091906130fe565b610e7957600080fd5b60008381526101086020908152604091829020600401805460ff191660011790556060848101518583015184518881529384018690526001600160a01b0316938301939093523392917fcdf3d0954b60bcea25eab319eef284cb7bb68b899111767c1e929a55efba9b6291015b60405180910390a3505050565b60008181526101086020908152604091829020825160c08101845281546001600160a01b039081168252600183015416928101839052600282015493810193909352600381015460608401526004015460ff8082161515608085015261010090910416151560a08301523314610fab5760405162461bcd60e51b815260206004820152601960248201527f596f7520646f6e2774206f776e2074686973206f7074696f6e000000000000006044820152606401610853565b8060600151610fb8610725565b11610ffa5760405162461bcd60e51b8152602060048201526012602482015271115c1bd8da081b9bdd08199a5b9a5cda195960721b6044820152606401610853565b80608001511561103f5760405162461bcd60e51b815260206004820152601060248201526f141bdcda5d1a5bdb8818dbdd995c995960821b6044820152606401610853565b60fc54815160408084015190516323b872dd60e01b81526001600160a01b03909316926323b872dd926110769233926004016130a8565b6020604051808303816000875af1158015611095573d6000803e3d6000fd5b505050506040513d601f19601f820116820180604052508101906110b991906130fe565b6110fc5760405162461bcd60e51b8152602060048201526014602482015273506c656173652073657420616c6c6f77616e636560601b6044820152606401610853565b8060a00151156109a25760405162461bcd60e51b815260206004820152601960248201527f6f7074696f6e20616c7265616479206c697175696461746564000000000000006044820152606401610853565b600082815260c96020526040902060010154611169816128db565b61117383836128e5565b505050565b6001600160a01b03811633146111e85760405162461bcd60e51b815260206004820152602f60248201527f416363657373436f6e74726f6c3a2063616e206f6e6c792072656e6f756e636560448201526e103937b632b9903337b91039b2b63360891b6064820152608401610853565b610ada828261296b565b60fe5460fb5460405163a7ff3b2360e01b81526001600160a01b039182166004820152602481018590526044810184905233606482015291169063a7ff3b23906084016109d6565b6000611244610725565b61124f9060016130eb565b60008181526101026020908152604080832086845290915290205490915060ff1661128c5760405162461bcd60e51b81526004016108539061311b565b60fb54604051632142170760e11b81526001600160a01b03909116906342842e0e906112c0903390309088906004016130a8565b600060405180830381600087803b1580156112da57600080fd5b505af11580156112ee573d6000803e3d6000fd5b505050600084815261010860209081526040808320600281018790558054336001600160a01b031991821681178355600383018890556001928301805490921690915586855261010584528285208886528452828520805492830181558552838520909101889055858452610107835281842087855283528184209084529091528120805490925061137f90613146565b909155506040805184815260208101849052339183917f12852e9691a3b4a507fdb1c3478087805e515ec2d7da612d9deb1b9010c1eca49101610ee6565b6113c8600033611478565b6113e45760405162461bcd60e51b81526004016108539061315f565b600081116114265760405162461bcd60e51b815260206004820152600f60248201526e0466c6f6f72207072696365203c203608c1b6044820152606401610853565b60008281526101046020526040908190208290555182907fd0c77e56cd2323339048d90b422e11cdef714664667e099ece9c2cf153a2d3979061146c9084815260200190565b60405180910390a25050565b600091825260c9602090815260408084206001600160a01b0393909316845291905290205460ff1690565b6114ae600033611478565b6114ca5760405162461bcd60e51b81526004016108539061315f565b60fe80546001600160a01b0319166001600160a01b0392909216919091179055565b6114f7600033611478565b6115135760405162461bcd60e51b81526004016108539061315f565b61010080546001600160a01b0319166001600160a01b0392909216919091179055565b611541600033611478565b61155d5760405162461bcd60e51b81526004016108539061315f565b6101008054911515600160a01b0260ff60a01b19909216919091179055565b6115846129d2565b600082815261010860209081526040808320815160c08101835281546001600160a01b03908116825260018301541693810193909352600281015491830191909152600381015460608301526004015460ff8082161515608084015261010090910416151560a0820152906115f7610725565b6116029060016130eb565b905061162f7f000000000000000000000000000000000000000000000000000000000000000060026130cc565b7f00000000000000000000000000000000000000000000000000000000000000008360600151600161166191906130eb565b61166b91906130cc565b6101015461167991906130eb565b611683919061302d565b42116116ca5760405162461bcd60e51b815260206004820152601660248201527513dc1d1a5bdb881a185cc81b9bdd08195e1c1a5c995960521b6044820152606401610853565b81516001600160a01b0316331461171b5760405162461bcd60e51b81526020600482015260156024820152742cb7ba9030b932903737ba103a34329037bbb732b960591b6044820152606401610853565b60608201516000908152610104602052604090205461174c5760405162461bcd60e51b815260040161085390613062565b604080830151606084015160009081526101046020529190912054111580611775575081608001515b8061178b575060208201516001600160a01b0316155b6117cd5760405162461bcd60e51b815260206004820152601360248201527221b7bb32b9103cb7bab9103837b9b4ba34b7b760691b6044820152606401610853565b60008181526101026020908152604080832086845290915290205460ff166118075760405162461bcd60e51b81526004016108539061311b565b6000848152610108602090815260408083206003810185905560028101879055600190810180546001600160a01b03191690558484526101058352818420878552835281842080549182018155845282842001879055838352610107825280832086845282528083203384529091528120805490919061188690613146565b9091555060608201516000908152610107602090815260408083208186015184528252808320338452909152902054156118cd576118cd82606001518360400151336127f1565b6040805185815260208101859052339183917fc5cf73bbf9412234d340e19996e27e6404eca00fe162d78240d124dff861876a910160405180910390a35050610ada6001603355565b60fe5460fb546040516315170a1760e21b81526001600160a01b039283169263545c285c9261194e92911690309086906004016130a8565b6020604051808303816000875af115801561196d573d6000803e3d6000fd5b505050506040513d601f19601f8201168201806040525081019061199191906130fe565b61199a57600080fd5b60009081526101086020526040902060048101805461ffff1916600117905580546001600160a01b0319169055565b6119d4600033611478565b6119f05760405162461bcd60e51b81526004016108539061315f565b60005b81518114611a6057600083815261010260205260408120835160019290859085908110611a2257611a22613196565b6020026020010151815260200190815260200160002060006101000a81548160ff02191690831515021790555080611a5990613146565b90506119f3565b50817f8b9dd3ac74d0614c084d8047cb199d3f08e72903980760ba021d7719e364014e8260405161146c91906131ac565b600054610100900460ff1615808015611ab15750600054600160ff909116105b80611acb5750303b158015611acb575060005460ff166001145b611b2e5760405162461bcd60e51b815260206004820152602e60248201527f496e697469616c697a61626c653a20636f6e747261637420697320616c72656160448201526d191e481a5b9a5d1a585b1a5e995960921b6064820152608401610853565b6000805460ff191660011790558015611b51576000805461ff0019166101001790555b6001600160a01b038716611b9d5760405162461bcd60e51b815260206004820152601360248201527204552433732312061646472657373206973203606c1b6044820152606401610853565b6001600160a01b038616611be85760405162461bcd60e51b815260206004820152601260248201527104552433230206164647265737320697320360741b6044820152606401610853565b6001600160a01b038516611c3e5760405162461bcd60e51b815260206004820152601b60248201527f41756374696f6e4d616e616765722061646472657373206973203000000000006044820152606401610853565b6001600160a01b038416611c945760405162461bcd60e51b815260206004820152601a60248201527f4f7074696f6e50726963696e67206164647265737320697320300000000000006044820152606401610853565b6001600160a01b038316611cea5760405162461bcd60e51b815260206004820152601d60248201527f566f6c6174696c6974794f7261636c65206164647265737320697320300000006044820152606401610853565b6001600160a01b038216611d355760405162461bcd60e51b8152602060048201526012602482015271041646d696e206164647265737320697320360741b6044820152606401610853565b611d3d612a32565b611d45612a5b565b611d4d612a32565b426101015560fb80546001600160a01b03808a166001600160a01b03199283161790925560fc805489841690831617905560fd805482163317905560fe805488841690831617905560ff8054878416908316179055610100805492861692909116919091179055611dbf600083612a8a565b60fb5460405163a22cb46560e01b81526001600160a01b038781166004830152600160248301529091169063a22cb46590604401600060405180830381600087803b158015611e0d57600080fd5b505af1158015611e21573d6000803e3d6000fd5b505050508015611e6b576000805461ff0019169055604051600181527f7f26b83ff96e1f2b6a682f133852f6798a09c465da95921460cefb38474024989060200160405180910390a15b50505050505050565b600082815260c96020526040902060010154611e8f816128db565b611173838361296b565b611ea4600033611478565b611ec05760405162461bcd60e51b81526004016108539061315f565b60ff80546001600160a01b0319166001600160a01b0392909216919091179055565b60008181526101086020908152604091829020825160c08101845281546001600160a01b0390811682526001830154169281019290925260028101549282019290925260038201546060820181905260049092015460ff80821615156080840152610100918290048116151560a08401529054919291600160a01b90041615611f6a57600080fd5b7f00000000000000000000000000000000000000000000000000000000000000007f000000000000000000000000000000000000000000000000000000000000000083606001516001611fbd91906130eb565b611fc791906130cc565b611fd191906130eb565b61010154611fdf904261302d565b1161202c5760405162461bcd60e51b815260206004820181905260248201527f4c69717569646174696f6e20706572696f642069736e277420726561636865646044820152606401610853565b600081815261010460205260409020546120585760405162461bcd60e51b815260040161085390613062565b60408083015160008381526101046020529190912054116120b65760405162461bcd60e51b81526020600482015260186024820152774f7074696f6e206578706972656420776f7274686c65737360401b6044820152606401610853565b8160800151156120fb5760405162461bcd60e51b815260206004820152601060248201526f141bdcda5d1a5bdb8818dbdd995c995960821b6044820152606401610853565b60a0820151151560010361214d5760405162461bcd60e51b815260206004820152601960248201527813dc1d1a5bdb88185b1c9958591e481b1a5c5d5a59185d1959603a1b6044820152606401610853565b60008381526101086020908152604080832060048101805461ff00191661010017905580546001600160a01b031916905584810151848452610104909252822054612198919061302d565b60fe5460fb54600085815261010460209081526040918290205488519189015192516355a0e22960e01b81526001600160a01b039485166004820152602481018b905260448101919091529083166064820152908216608482015260a4810184905292935016906355a0e2299060c401600060405180830381600087803b15801561222257600080fd5b505af1158015612236573d6000803e3d6000fd5b505050600083815261010460209081526040918290205486519187015192518894507f2e89d436d71507ecb25e79045c0f361b1f3410fb872d034e7b79bb1c245ce658936122a6939187909384526001600160a01b03928316602085015291166040830152606082015260800190565b60405180910390a250505050565b6122bc6129d2565b60006122c6610725565b60008181526101026020908152604080832086845290915290205490915060ff166123035760405162461bcd60e51b81526004016108539061311b565b600081815261010560209081526040808320858452825280832054848452610106835281842086855290925290912054106123805760405162461bcd60e51b815260206004820152601c60248201527f416c6c206f7074696f6e732068617665206265656e20626f75676874000000006044820152606401610853565b6123ab7f000000000000000000000000000000000000000000000000000000000000000060026130cc565b7f00000000000000000000000000000000000000000000000000000000000000006123d78360016130eb565b6123e191906130cc565b610101546123ef91906130eb565b6123f9919061302d565b42106124435760405162461bcd60e51b815260206004820152601960248201527813dc1d1a5bdb88191a591b89dd08195e1c1a5c9959081e595d603a1b6044820152606401610853565b6101005460fb546040516373be031f60e01b81526001600160a01b039182166004820152600092839216906373be031f906024016040805180830381865afa158015612493573d6000803e3d6000fd5b505050506040513d601f19601f820116820180604052508101906124b791906131f0565b60ff5491935091506000906001600160a01b0316635b7b6d88827f00000000000000000000000000000000000000000000000000000000000000006124fd8860016130eb565b61250791906130cc565b6101015461251591906130eb565b6040516001600160e01b031960e085901b1681529115156004830152602482015260448101889052606481018590526084810186905260a401602060405180830381865afa15801561256b573d6000803e3d6000fd5b505050506040513d601f19601f8201168201806040525081019061258f9190613214565b60fc546040516323b872dd60e01b81529192506001600160a01b0316906323b872dd906125c4903390309086906004016130a8565b6020604051808303816000875af11580156125e3573d6000803e3d6000fd5b505050506040513d601f19601f8201168201806040525081019061260791906130fe565b61261057600080fd5b600084815261010660209081526040808320888452825280832054878452610105835281842089855290925282205460019161264b9161302d565b612655919061302d565b6000868152610106602090815260408083208a8452909152812080549293509161267e90613146565b90915550600085815261010360209081526040808320898452909152812080548492906126ac9084906130eb565b909155505060008581526101056020908152604080832089845290915281208054839081106126dd576126dd613196565b60009182526020808320909101548083526101089091526040909120600101549091506001600160a01b0316156127625760405162461bcd60e51b815260206004820152602360248201527f54686973206f7074696f6e2068617320616c7265616479206265656e20626f7560448201526219da1d60ea1b6064820152608401610853565b600081815261010860209081526040918290206001810180546001600160a01b03191633908117909155905483518581529283018b90529282018690526001600160a01b03909216606082015287907f4af1c729c11ed63e83da76e187d5765dd9ed12d695a028e9134a5633bda88abe9060800160405180910390a35050505050506127ee6001603355565b50565b60008381526101076020908152604080832085845282528083206001600160a01b03851684528252808320805490849055868452610103835281842086855283528184205487855261010584528285208786529093529083205490929061285884846130cc565b6128629190613040565b60fc5460405163a9059cbb60e01b81526001600160a01b0387811660048301526024820184905292935091169063a9059cbb906044016020604051808303816000875af11580156128b7573d6000803e3d6000fd5b505050506040513d601f19601f82011682018060405250810190611e6b91906130fe565b6127ee8133612a94565b6128ef8282611478565b610ada57600082815260c9602090815260408083206001600160a01b03851684529091529020805460ff191660011790556129273390565b6001600160a01b0316816001600160a01b0316837f2f8788117e7eff1d82e926ec794901d17c78024a50270940304540a733656f0d60405160405180910390a45050565b6129758282611478565b15610ada57600082815260c9602090815260408083206001600160a01b0385168085529252808320805460ff1916905551339285917ff6391f5c32d9c69d2a47ea670b442974b53935d1edc7fd64eb21e047a839171b9190a45050565b600260335403612a245760405162461bcd60e51b815260206004820152601f60248201527f5265656e7472616e637947756172643a207265656e7472616e742063616c6c006044820152606401610853565b6002603355565b6001603355565b600054610100900460ff16612a595760405162461bcd60e51b81526004016108539061322d565b565b600054610100900460ff16612a825760405162461bcd60e51b81526004016108539061322d565b612a59612aed565b610ada82826128e5565b612a9e8282611478565b610ada57612aab81612b14565b612ab6836020612b26565b604051602001612ac792919061329c565b60408051601f198184030181529082905262461bcd60e51b825261085391600401613311565b600054610100900460ff16612a2b5760405162461bcd60e51b81526004016108539061322d565b60606107976001600160a01b03831660145b60606000612b358360026130cc565b612b409060026130eb565b67ffffffffffffffff811115612b5857612b58612d43565b6040519080825280601f01601f191660200182016040528015612b82576020820181803683370190505b509050600360fc1b81600081518110612b9d57612b9d613196565b60200101906001600160f81b031916908160001a905350600f60fb1b81600181518110612bcc57612bcc613196565b60200101906001600160f81b031916908160001a9053506000612bf08460026130cc565b612bfb9060016130eb565b90505b6001811115612c73576f181899199a1a9b1b9c1cb0b131b232b360811b85600f1660108110612c2f57612c2f613196565b1a60f81b828281518110612c4557612c45613196565b60200101906001600160f81b031916908160001a90535060049490941c93612c6c81613344565b9050612bfe565b508315610b175760405162461bcd60e51b815260206004820181905260248201527f537472696e67733a20686578206c656e67746820696e73756666696369656e746044820152606401610853565b600060208284031215612cd457600080fd5b81356001600160e01b031981168114610b1757600080fd5b600060208284031215612cfe57600080fd5b5035919050565b60008060408385031215612d1857600080fd5b50508035926020909101359150565b80356001600160a01b0381168114612d3e57600080fd5b919050565b634e487b7160e01b600052604160045260246000fd5b604051601f8201601f1916810167ffffffffffffffff81118282101715612d8257612d82612d43565b604052919050565b60008060008060808587031215612da057600080fd5b612da985612d27565b93506020612db8818701612d27565b935060408601359250606086013567ffffffffffffffff80821115612ddc57600080fd5b818801915088601f830112612df057600080fd5b813581811115612e0257612e02612d43565b612e14601f8201601f19168501612d59565b91508082528984828501011115612e2a57600080fd5b808484018584013760008482840101525080935050505092959194509250565b60008060408385031215612e5d57600080fd5b82359150612e6d60208401612d27565b90509250929050565b600080600060608486031215612e8b57600080fd5b8335925060208401359150612ea260408501612d27565b90509250925092565b600060208284031215612ebd57600080fd5b610b1782612d27565b80151581146127ee57600080fd5b600060208284031215612ee657600080fd5b8135610b1781612ec6565b60008060408385031215612f0457600080fd5b8235915060208084013567ffffffffffffffff80821115612f2457600080fd5b818601915086601f830112612f3857600080fd5b813581811115612f4a57612f4a612d43565b8060051b9150612f5b848301612d59565b8181529183018401918481019089841115612f7557600080fd5b938501935b83851015612f9357843582529385019390850190612f7a565b8096505050505050509250929050565b60008060008060008060c08789031215612fbc57600080fd5b612fc587612d27565b9550612fd360208801612d27565b9450612fe160408801612d27565b9350612fef60608801612d27565b9250612ffd60808801612d27565b915061300b60a08801612d27565b90509295509295509295565b634e487b7160e01b600052601160045260246000fd5b8181038181111561079757610797613017565b60008261305d57634e487b7160e01b600052601260045260246000fd5b500490565b60208082526026908201527f466c6f6f72207072696365206e6f7420736574746c656420666f722074686973604082015265040cae0dec6d60d31b606082015260800190565b6001600160a01b039384168152919092166020820152604081019190915260600190565b60008160001904831182151516156130e6576130e6613017565b500290565b8082018082111561079757610797613017565b60006020828403121561311057600080fd5b8151610b1781612ec6565b60208082526011908201527057726f6e6720737472696b65507269636560781b604082015260600190565b60006001820161315857613158613017565b5060010190565b60208082526017908201527f6d73672e73656e646572206973206e6f742061646d696e000000000000000000604082015260600190565b634e487b7160e01b600052603260045260246000fd5b6020808252825182820181905260009190848201906040850190845b818110156131e4578351835292840192918401916001016131c8565b50909695505050505050565b6000806040838503121561320357600080fd5b505080516020909101519092909150565b60006020828403121561322657600080fd5b5051919050565b6020808252602b908201527f496e697469616c697a61626c653a20636f6e7472616374206973206e6f74206960408201526a6e697469616c697a696e6760a81b606082015260800190565b60005b8381101561329357818101518382015260200161327b565b50506000910152565b7f416363657373436f6e74726f6c3a206163636f756e74200000000000000000008152600083516132d4816017850160208801613278565b7001034b99036b4b9b9b4b733903937b6329607d1b6017918401918201528351613305816028840160208801613278565b01602801949350505050565b6020815260008251806020840152613330816040850160208701613278565b601f01601f19169190910160400192915050565b60008161335357613353613017565b50600019019056fea2646970667358221220f5ee4c9a535a9a61cb4eeb090b0058da399ee94d7eaf381508901d1747fecec064736f6c63430008100033",
    "linkReferences": {}
  },
  "methodIdentifiers": {
    "DEFAULT_ADMIN_ROLE()": "a217fddf",
    "auctionManager()": "b0192f9a",
    "bidAuction(uint256,uint256)": "7587b4df",
    "buyAtStrike(uint256)": "2398fdcf",
    "buyOption(uint256)": "fba225b9",
    "claimPremiums(uint256,uint256)": "04ed8ef7",
    "coverPosition(uint256)": "09b4a81c",
    "endAuction(uint256)": "b9a2de3a",
    "erc20()": "785e9e86",
    "erc721()": "bca6ce64",
    "getAmountLockedAt(uint256,uint256)": "910294ca",
    "getEpochDuration()": "5d3ea8f1",
    "getEpoch_2e()": "0000ae4a",
    "getFloorPrice(uint256)": "b2d4cf18",
    "getInterval()": "91ad27b4",
    "getOption(uint256)": "1ce5e9a6",
    "getOptionAvailableAt(uint256,uint256)": "086e0f09",
    "getRoleAdmin(bytes32)": "248a9ca3",
    "getSharesAtOf(uint256,uint256,address)": "5e7c3f9a",
    "grantRole(bytes32,address)": "2f2ff15d",
    "hasRole(bytes32,address)": "91d14854",
    "hatching()": "bce47716",
    "initialize(address,address,address,address,address,address)": "cc2a9a5b",
    "liquidateNFT(uint256)": "f95dc232",
    "liquidationInterrupted()": "46953c47",
    "onERC721Received(address,address,uint256,bytes)": "150b7a02",
    "optionPricing()": "1e3394fb",
    "renounceRole(bytes32,address)": "36568abe",
    "restake(uint256,uint256)": "b8e7023d",
    "revokeRole(bytes32,address)": "d547741f",
    "setAuctionManager(address)": "95e4cacb",
    "setLiquidationInterrupted(bool)": "b1b3dd3a",
    "setOptionPricing(address)": "f6a76a81",
    "setStrikePriceAt(uint256,uint256[])": "ba4ec52a",
    "setVolatilityOracle(address)": "9c78a526",
    "setfloorpriceAt(uint256,uint256)": "8992bc77",
    "stake(uint256,uint256)": "7b0472f0",
    "strikeController()": "45be8694",
    "supportsInterface(bytes4)": "01ffc9a7",
    "volatilityOracle()": "55b13a4f",
    "withdrawNFT(uint256)": "023245d7"
  },
  "id": 62
}