{
  "abi": [
    {
      "inputs": [
        {
          "internalType": "address",
          "name": "_erc20",
          "type": "address"
        }
      ],
      "stateMutability": "nonpayable",
      "type": "constructor"
    },
    {
      "anonymous": false,
      "inputs": [
        {
          "indexed": true,
          "internalType": "address",
          "name": "previousOwner",
          "type": "address"
        },
        {
          "indexed": true,
          "internalType": "address",
          "name": "newOwner",
          "type": "address"
        }
      ],
      "name": "OwnershipTransferred",
      "type": "event"
    },
    {
      "anonymous": false,
      "inputs": [
        {
          "indexed": false,
          "internalType": "address",
          "name": "erc721",
          "type": "address"
        },
        {
          "indexed": false,
          "internalType": "address",
          "name": "erc20",
          "type": "address"
        },
        {
          "indexed": false,
          "internalType": "address",
          "name": "pool",
          "type": "address"
        }
      ],
      "name": "PoolDeployed",
      "type": "event"
    },
    {
      "inputs": [
        {
          "internalType": "contract TransparentUpgradeableProxy",
          "name": "proxy",
          "type": "address"
        },
        {
          "internalType": "address",
          "name": "newAdmin",
          "type": "address"
        }
      ],
      "name": "changeProxyAdmin",
      "outputs": [],
      "stateMutability": "nonpayable",
      "type": "function"
    },
    {
      "inputs": [
        {
          "internalType": "address",
          "name": "_erc721",
          "type": "address"
        }
      ],
      "name": "deployPool",
      "outputs": [
        {
          "internalType": "address",
          "name": "pool",
          "type": "address"
        }
      ],
      "stateMutability": "nonpayable",
      "type": "function"
    },
    {
      "inputs": [
        {
          "internalType": "address",
          "name": "_erc721",
          "type": "address"
        },
        {
          "internalType": "address",
          "name": "_defaultCurrency",
          "type": "address"
        },
        {
          "internalType": "address",
          "name": "_optimisticOracle",
          "type": "address"
        }
      ],
      "name": "deployPool2",
      "outputs": [
        {
          "internalType": "address",
          "name": "pool",
          "type": "address"
        }
      ],
      "stateMutability": "nonpayable",
      "type": "function"
    },
    {
      "inputs": [
        {
          "internalType": "address",
          "name": "_erc721",
          "type": "address"
        }
      ],
      "name": "deployPoolChainlink",
      "outputs": [
        {
          "internalType": "address",
          "name": "pool",
          "type": "address"
        }
      ],
      "stateMutability": "nonpayable",
      "type": "function"
    },
    {
      "inputs": [],
      "name": "erc20",
      "outputs": [
        {
          "internalType": "address",
          "name": "",
          "type": "address"
        }
      ],
      "stateMutability": "view",
      "type": "function"
    },
    {
      "inputs": [
        {
          "internalType": "uint256",
          "name": "",
          "type": "uint256"
        }
      ],
      "name": "erc721",
      "outputs": [
        {
          "internalType": "address",
          "name": "",
          "type": "address"
        }
      ],
      "stateMutability": "view",
      "type": "function"
    },
    {
      "inputs": [
        {
          "internalType": "address",
          "name": "_pool",
          "type": "address"
        },
        {
          "internalType": "uint256",
          "name": "_epoch",
          "type": "uint256"
        },
        {
          "internalType": "uint256",
          "name": "_strikePrice",
          "type": "uint256"
        }
      ],
      "name": "getAmountLockedAt",
      "outputs": [
        {
          "internalType": "uint256",
          "name": "",
          "type": "uint256"
        }
      ],
      "stateMutability": "view",
      "type": "function"
    },
    {
      "inputs": [],
      "name": "getAuctionManager",
      "outputs": [
        {
          "internalType": "address",
          "name": "",
          "type": "address"
        }
      ],
      "stateMutability": "view",
      "type": "function"
    },
    {
      "inputs": [
        {
          "internalType": "address",
          "name": "_pool",
          "type": "address"
        }
      ],
      "name": "getEpochDuration",
      "outputs": [
        {
          "internalType": "uint256",
          "name": "epochduration",
          "type": "uint256"
        }
      ],
      "stateMutability": "view",
      "type": "function"
    },
    {
      "inputs": [
        {
          "internalType": "address",
          "name": "_pool",
          "type": "address"
        }
      ],
      "name": "getEpoch_2e",
      "outputs": [
        {
          "internalType": "uint256",
          "name": "",
          "type": "uint256"
        }
      ],
      "stateMutability": "view",
      "type": "function"
    },
    {
      "inputs": [
        {
          "internalType": "address",
          "name": "_pool",
          "type": "address"
        },
        {
          "internalType": "uint256",
          "name": "_epoch",
          "type": "uint256"
        }
      ],
      "name": "getFloorPrice",
      "outputs": [
        {
          "internalType": "uint256",
          "name": "",
          "type": "uint256"
        }
      ],
      "stateMutability": "view",
      "type": "function"
    },
    {
      "inputs": [
        {
          "internalType": "address",
          "name": "_pool",
          "type": "address"
        }
      ],
      "name": "getInterval",
      "outputs": [
        {
          "internalType": "uint256",
          "name": "interval",
          "type": "uint256"
        }
      ],
      "stateMutability": "view",
      "type": "function"
    },
    {
      "inputs": [
        {
          "internalType": "address",
          "name": "_pool",
          "type": "address"
        },
        {
          "internalType": "uint256",
          "name": "_epoch",
          "type": "uint256"
        },
        {
          "internalType": "uint256",
          "name": "_strikePrice",
          "type": "uint256"
        }
      ],
      "name": "getOptionAvailableAt",
      "outputs": [
        {
          "internalType": "uint256",
          "name": "",
          "type": "uint256"
        }
      ],
      "stateMutability": "view",
      "type": "function"
    },
    {
      "inputs": [],
      "name": "getOptionPricing",
      "outputs": [
        {
          "internalType": "address",
          "name": "",
          "type": "address"
        }
      ],
      "stateMutability": "view",
      "type": "function"
    },
    {
      "inputs": [
        {
          "internalType": "address",
          "name": "_tokenAddress",
          "type": "address"
        }
      ],
      "name": "getPoolFromTokenAddress",
      "outputs": [
        {
          "internalType": "address",
          "name": "",
          "type": "address"
        }
      ],
      "stateMutability": "view",
      "type": "function"
    },
    {
      "inputs": [
        {
          "internalType": "contract TransparentUpgradeableProxy",
          "name": "proxy",
          "type": "address"
        }
      ],
      "name": "getProxyAdmin",
      "outputs": [
        {
          "internalType": "address",
          "name": "",
          "type": "address"
        }
      ],
      "stateMutability": "view",
      "type": "function"
    },
    {
      "inputs": [
        {
          "internalType": "contract TransparentUpgradeableProxy",
          "name": "proxy",
          "type": "address"
        }
      ],
      "name": "getProxyImplementation",
      "outputs": [
        {
          "internalType": "address",
          "name": "",
          "type": "address"
        }
      ],
      "stateMutability": "view",
      "type": "function"
    },
    {
      "inputs": [
        {
          "internalType": "address",
          "name": "_pool",
          "type": "address"
        },
        {
          "internalType": "uint256",
          "name": "_epoch",
          "type": "uint256"
        },
        {
          "internalType": "uint256",
          "name": "_strikePrice",
          "type": "uint256"
        },
        {
          "internalType": "address",
          "name": "_add",
          "type": "address"
        }
      ],
      "name": "getSharesAtOf",
      "outputs": [
        {
          "internalType": "uint256",
          "name": "",
          "type": "uint256"
        }
      ],
      "stateMutability": "view",
      "type": "function"
    },
    {
      "inputs": [],
      "name": "getVolatilityOracle",
      "outputs": [
        {
          "internalType": "address",
          "name": "",
          "type": "address"
        }
      ],
      "stateMutability": "view",
      "type": "function"
    },
    {
      "inputs": [],
      "name": "owner",
      "outputs": [
        {
          "internalType": "address",
          "name": "",
          "type": "address"
        }
      ],
      "stateMutability": "view",
      "type": "function"
    },
    {
      "inputs": [
        {
          "internalType": "address",
          "name": "",
          "type": "address"
        }
      ],
      "name": "pools",
      "outputs": [
        {
          "internalType": "contract TransparentUpgradeableProxy",
          "name": "",
          "type": "address"
        }
      ],
      "stateMutability": "view",
      "type": "function"
    },
    {
      "inputs": [],
      "name": "renounceOwnership",
      "outputs": [],
      "stateMutability": "nonpayable",
      "type": "function"
    },
    {
      "inputs": [
        {
          "internalType": "address",
          "name": "_auctionManager",
          "type": "address"
        }
      ],
      "name": "setAuctionManager",
      "outputs": [],
      "stateMutability": "nonpayable",
      "type": "function"
    },
    {
      "inputs": [
        {
          "internalType": "address",
          "name": "_optionPricing",
          "type": "address"
        }
      ],
      "name": "setOptionPricing",
      "outputs": [],
      "stateMutability": "nonpayable",
      "type": "function"
    },
    {
      "inputs": [
        {
          "internalType": "address",
          "name": "_pool",
          "type": "address"
        },
        {
          "internalType": "address",
          "name": "_auctionManager",
          "type": "address"
        }
      ],
      "name": "setPoolAuctionManager",
      "outputs": [],
      "stateMutability": "nonpayable",
      "type": "function"
    },
    {
      "inputs": [
        {
          "internalType": "address",
          "name": "_poolImplementation",
          "type": "address"
        }
      ],
      "name": "setPoolImplementation",
      "outputs": [],
      "stateMutability": "nonpayable",
      "type": "function"
    },
    {
      "inputs": [
        {
          "internalType": "address",
          "name": "_volatilityOracle",
          "type": "address"
        }
      ],
      "name": "setVolatilityOracle",
      "outputs": [],
      "stateMutability": "nonpayable",
      "type": "function"
    },
    {
      "inputs": [
        {
          "internalType": "address",
          "name": "newOwner",
          "type": "address"
        }
      ],
      "name": "transferOwnership",
      "outputs": [],
      "stateMutability": "nonpayable",
      "type": "function"
    },
    {
      "inputs": [
        {
          "internalType": "contract TransparentUpgradeableProxy",
          "name": "proxy",
          "type": "address"
        },
        {
          "internalType": "address",
          "name": "implementation",
          "type": "address"
        }
      ],
      "name": "upgrade",
      "outputs": [],
      "stateMutability": "nonpayable",
      "type": "function"
    },
    {
      "inputs": [
        {
          "internalType": "contract TransparentUpgradeableProxy",
          "name": "proxy",
          "type": "address"
        },
        {
          "internalType": "address",
          "name": "implementation",
          "type": "address"
        },
        {
          "internalType": "bytes",
          "name": "data",
          "type": "bytes"
        }
      ],
      "name": "upgradeAndCall",
      "outputs": [],
      "stateMutability": "payable",
      "type": "function"
    },
    {
      "inputs": [
        {
          "internalType": "address",
          "name": "_pool",
          "type": "address"
        },
        {
          "internalType": "address",
          "name": "_newPoolImplementation",
          "type": "address"
        }
      ],
      "name": "upgradePool",
      "outputs": [],
      "stateMutability": "nonpayable",
      "type": "function"
    }
  ],
  "bytecode": {
    "object": "0x608060405234801561001057600080fd5b5060405161248d38038061248d83398101604081905261002f916100ad565b6100383361005d565b600180546001600160a01b0319166001600160a01b03929092169190911790556100dd565b600080546001600160a01b038381166001600160a01b0319831681178455604051919092169283917f8be0079c531659141344cd1fd0a4f28419497f9722a3daafe3b4186f6b6457e09190a35050565b6000602082840312156100bf57600080fd5b81516001600160a01b03811681146100d657600080fd5b9392505050565b6123a1806100ec6000396000f3fe608060405260043610620001ff5760003560e01c80638da5cb5b1162000117578063c701f40c11620000a1578063ef32fcbc116200006c578063ef32fcbc1462000630578063f2fde38b1462000650578063f3b7dead1462000675578063f6a76a81146200069a57600080fd5b8063c701f40c1462000580578063d283640114620005a5578063d6f7489814620005ca578063e81acf3d146200060b57600080fd5b806399a88ec411620000e257806399a88ec414620004dc5780639c78a5261462000501578063a4063dbc1462000526578063b62e6c19146200056057600080fd5b80638da5cb5b146200045b57806393db1505146200047b57806395e4cacb14620004a05780639623609d14620004c557600080fd5b80635c5343591162000199578063785e9e861162000164578063785e9e8614620003ca5780637996eef014620003ec5780637acc820814620004115780637eff275e146200043657600080fd5b80635c53435914620003435780635fcdc9dd14620003685780636f593d6a146200038d578063715018a614620003b257600080fd5b80632466c51b11620001da5780632466c51b146200029e57806329a1349414620002d25780632d0df23214620002f757806345d827e0146200031e57600080fd5b806310a692e714620002045780631bf2c651146200023c578063204e1c7a1462000279575b600080fd5b3480156200021157600080fd5b506006546001600160a01b03165b6040516001600160a01b0390911681526020015b60405180910390f35b3480156200024957600080fd5b506200021f6200025b366004620011d3565b6001600160a01b039081166000908152600260205260409020541690565b3480156200028657600080fd5b506200021f62000298366004620011d3565b620006bf565b348015620002ab57600080fd5b50620002c3620002bd366004620011d3565b62000756565b60405190815260200162000233565b348015620002df57600080fd5b506200021f620002f1366004620011d3565b620007c3565b3480156200030457600080fd5b506200031c62000316366004620011f3565b62000962565b005b3480156200032b57600080fd5b506200021f6200033d36600462001231565b620009e1565b3480156200035057600080fd5b50620002c362000362366004620011d3565b62000b94565b3480156200037557600080fd5b50620002c36200038736600462001283565b62000bd5565b3480156200039a57600080fd5b506200021f620003ac366004620011d3565b62000c4c565b348015620003bf57600080fd5b506200031c62000cfd565b348015620003d757600080fd5b506001546200021f906001600160a01b031681565b348015620003f957600080fd5b50620002c36200040b366004620012bb565b62000d15565b3480156200041e57600080fd5b50620002c362000430366004620012ea565b62000d8b565b3480156200044357600080fd5b506200031c62000455366004620011f3565b62000e13565b3480156200046857600080fd5b506000546001600160a01b03166200021f565b3480156200048857600080fd5b50620002c36200049a366004620011d3565b62000e4c565b348015620004ad57600080fd5b506200031c620004bf366004620011d3565b62000e8b565b6200031c620004d63660046200134f565b62000eb7565b348015620004e957600080fd5b506200031c620004fb366004620011f3565b62000f2c565b3480156200050e57600080fd5b506200031c62000520366004620011d3565b62000f65565b3480156200053357600080fd5b506200021f62000545366004620011d3565b6002602052600090815260409020546001600160a01b031681565b3480156200056d57600080fd5b506004546001600160a01b03166200021f565b3480156200058d57600080fd5b506200031c6200059f366004620011f3565b62000f91565b348015620005b257600080fd5b50620002c3620005c436600462001283565b62000fca565b348015620005d757600080fd5b506200031c620005e9366004620011d3565b600780546001600160a01b0319166001600160a01b0392909216919091179055565b3480156200061857600080fd5b506200021f6200062a36600462001433565b62001002565b3480156200063d57600080fd5b506005546001600160a01b03166200021f565b3480156200065d57600080fd5b506200031c6200066f366004620011d3565b6200102d565b3480156200068257600080fd5b506200021f62000694366004620011d3565b620010b0565b348015620006a757600080fd5b506200031c620006b9366004620011d3565b620010d7565b6000806000836001600160a01b0316604051620006e690635c60da1b60e01b815260040190565b600060405180830381855afa9150503d806000811462000723576040519150601f19603f3d011682016040523d82523d6000602084013e62000728565b606091505b5091509150816200073857600080fd5b808060200190518101906200074e91906200144d565b949350505050565b6000816001600160a01b03166391ad27b46040518163ffffffff1660e01b8152600401602060405180830381865afa15801562000797573d6000803e3d6000fd5b505050506040513d601f19601f82011682018060405250810190620007bd91906200146d565b92915050565b6000620007cf62001103565b6001600160a01b038281166000908152600260205260409020541615620007f557600080fd5b6007546001546004546005546006546040516001600160a01b038881166024830152948516604482015292841660648401529083166084830152821660a48201523360c48201526000929190911690309060e40160408051601f198184030181529181526020820180516001600160e01b031663cc2a9a5b60e01b179052516200087f90620011af565b6200088d93929190620014cf565b604051809103906000f080158015620008aa573d6000803e3d6000fd5b506001600160a01b03848116600081815260026020908152604080832080546001600160a01b03199081168888169081179092556003805460018181018355919096527fc2575a0e9e593c00f959f8c92f12db2869c3395a3b0502d05e2516446f71f85b90950180549091168617905592548151948552909416908301528183015290519192507f04c12766244f2559dd215eecd69f70fdfce0e2c2260b5d52cb8b63738622eaa4919081900360600190a192915050565b6200096c62001103565b6001600160a01b0382811660009081526002602052604090819020549051631b2ce7f360e11b81528383166004820152911690633659cfe6906024015b600060405180830381600087803b158015620009c457600080fd5b505af1158015620009d9573d6000803e3d6000fd5b505050505050565b6000620009ed62001103565b6001600160a01b03848116600090815260026020526040902054161562000a1357600080fd5b6007546001546004546005546006546040516001600160a01b038a81166024830152948516604482015292841660648401529083166084830152821660a48201523360c482015285821660e4820152848216610104820152600092919091169030906101240160408051601f198184030181529181526020820180516001600160e01b0316634514f16f60e11b1790525162000aaf90620011af565b62000abd93929190620014cf565b604051809103906000f08015801562000ada573d6000803e3d6000fd5b506001600160a01b03868116600081815260026020908152604080832080546001600160a01b03199081168888169081179092556003805460018181018355919096527fc2575a0e9e593c00f959f8c92f12db2869c3395a3b0502d05e2516446f71f85b90950180549091168617905592548151948552909416908301528183015290519192507f04c12766244f2559dd215eecd69f70fdfce0e2c2260b5d52cb8b63738622eaa4919081900360600190a1949350505050565b6000816001600160a01b0316635d3ea8f16040518163ffffffff1660e01b8152600401602060405180830381865afa15801562000797573d6000803e3d6000fd5b6040516348814a6560e11b815260048101839052602481018290526000906001600160a01b0385169063910294ca906044015b602060405180830381865afa15801562000c26573d6000803e3d6000fd5b505050506040513d601f19601f820116820180604052508101906200074e91906200146d565b600062000c5862001103565b6001600160a01b03828116600090815260026020526040902054161562000c7e57600080fd5b6007546001546004546006546040516001600160a01b03878116602483015293841660448201529183166064830152821660848201523360a48201526000929190911690309060c40160408051601f198184030181529181526020820180516001600160e01b0316630a2ca2bd60e11b179052516200087f90620011af565b62000d0762001103565b62000d1360006200115f565b565b60405163165a99e360e31b8152600481018290526000906001600160a01b0384169063b2d4cf1890602401602060405180830381865afa15801562000d5e573d6000803e3d6000fd5b505050506040513d601f19601f8201168201806040525081019062000d8491906200146d565b9392505050565b604051632f3e1fcd60e11b815260048101849052602481018390526001600160a01b03828116604483015260009190861690635e7c3f9a90606401602060405180830381865afa15801562000de4573d6000803e3d6000fd5b505050506040513d601f19601f8201168201806040525081019062000e0a91906200146d565b95945050505050565b62000e1d62001103565b6040516308f2839760e41b81526001600160a01b038281166004830152831690638f28397090602401620009a9565b6000816001600160a01b031661ae4a6040518163ffffffff1660e01b8152600401602060405180830381865afa15801562000797573d6000803e3d6000fd5b62000e9562001103565b600480546001600160a01b0319166001600160a01b0392909216919091179055565b62000ec162001103565b60405163278f794360e11b81526001600160a01b03841690634f1ef28690349062000ef39086908690600401620014fd565b6000604051808303818588803b15801562000f0d57600080fd5b505af115801562000f22573d6000803e3d6000fd5b5050505050505050565b62000f3662001103565b604051631b2ce7f360e11b81526001600160a01b038281166004830152831690633659cfe690602401620009a9565b62000f6f62001103565b600680546001600160a01b0319166001600160a01b0392909216919091179055565b62000f9b62001103565b6040516395e4cacb60e01b81526001600160a01b0382811660048301528316906395e4cacb90602401620009a9565b60405163086e0f0960e01b815260048101839052602481018290526000906001600160a01b0385169063086e0f099060440162000c08565b600381815481106200101357600080fd5b6000918252602090912001546001600160a01b0316905081565b6200103762001103565b6001600160a01b038116620010a25760405162461bcd60e51b815260206004820152602660248201527f4f776e61626c653a206e6577206f776e657220697320746865207a65726f206160448201526564647265737360d01b60648201526084015b60405180910390fd5b620010ad816200115f565b50565b6000806000836001600160a01b0316604051620006e6906303e1469160e61b815260040190565b620010e162001103565b600580546001600160a01b0319166001600160a01b0392909216919091179055565b6000546001600160a01b0316331462000d135760405162461bcd60e51b815260206004820181905260248201527f4f776e61626c653a2063616c6c6572206973206e6f7420746865206f776e6572604482015260640162001099565b600080546001600160a01b038381166001600160a01b0319831681178455604051919092169283917f8be0079c531659141344cd1fd0a4f28419497f9722a3daafe3b4186f6b6457e09190a35050565b610e48806200152483390190565b6001600160a01b0381168114620010ad57600080fd5b600060208284031215620011e657600080fd5b813562000d8481620011bd565b600080604083850312156200120757600080fd5b82356200121481620011bd565b915060208301356200122681620011bd565b809150509250929050565b6000806000606084860312156200124757600080fd5b83356200125481620011bd565b925060208401356200126681620011bd565b915060408401356200127881620011bd565b809150509250925092565b6000806000606084860312156200129957600080fd5b8335620012a681620011bd565b95602085013595506040909401359392505050565b60008060408385031215620012cf57600080fd5b8235620012dc81620011bd565b946020939093013593505050565b600080600080608085870312156200130157600080fd5b84356200130e81620011bd565b9350602085013592506040850135915060608501356200132e81620011bd565b939692955090935050565b634e487b7160e01b600052604160045260246000fd5b6000806000606084860312156200136557600080fd5b83356200137281620011bd565b925060208401356200138481620011bd565b9150604084013567ffffffffffffffff80821115620013a257600080fd5b818601915086601f830112620013b757600080fd5b813581811115620013cc57620013cc62001339565b604051601f8201601f19908116603f01168101908382118183101715620013f757620013f762001339565b816040528281528960208487010111156200141157600080fd5b8260208601602083013760006020848301015280955050505050509250925092565b6000602082840312156200144657600080fd5b5035919050565b6000602082840312156200146057600080fd5b815162000d8481620011bd565b6000602082840312156200148057600080fd5b5051919050565b6000815180845260005b81811015620014af5760208185018101518683018201520162001491565b506000602082860101526020601f19601f83011685010191505092915050565b6001600160a01b0384811682528316602082015260606040820181905260009062000e0a9083018462001487565b6001600160a01b03831681526040602082018190526000906200074e908301846200148756fe608060405260405162000e4838038062000e48833981016040819052620000269162000497565b828162000036828260006200004d565b50620000449050826200008a565b505050620005ca565b6200005883620000e5565b600082511180620000665750805b1562000085576200008383836200012760201b6200021a1760201c565b505b505050565b7f7e644d79422f17c01e4894b5f4f588d331ebfa28653d42ae832dc59e38c9798f620000b562000156565b604080516001600160a01b03928316815291841660208301520160405180910390a1620000e2816200018f565b50565b620000f08162000244565b6040516001600160a01b038216907fbc7cd75a20ee27fd9adebab32041f755214dbc6bffa90cc0225b39da2e5c2d3b90600090a250565b60606200014f838360405180606001604052806027815260200162000e2160279139620002f8565b9392505050565b60006200018060008051602062000e0183398151915260001b6200037760201b620001c61760201c565b546001600160a01b0316919050565b6001600160a01b038116620001fa5760405162461bcd60e51b815260206004820152602660248201527f455243313936373a206e65772061646d696e20697320746865207a65726f206160448201526564647265737360d01b60648201526084015b60405180910390fd5b806200022360008051602062000e0183398151915260001b6200037760201b620001c61760201c565b80546001600160a01b0319166001600160a01b039290921691909117905550565b6200025a816200037a60201b620002461760201c565b620002be5760405162461bcd60e51b815260206004820152602d60248201527f455243313936373a206e657720696d706c656d656e746174696f6e206973206e60448201526c1bdd08184818dbdb9d1c9858dd609a1b6064820152608401620001f1565b80620002237f360894a13ba1a3210667c828492db98dca3e2076cc3735a920a3ca505d382bbc60001b6200037760201b620001c61760201c565b6060600080856001600160a01b03168560405162000317919062000577565b600060405180830381855af49150503d806000811462000354576040519150601f19603f3d011682016040523d82523d6000602084013e62000359565b606091505b5090925090506200036d8683838762000389565b9695505050505050565b90565b6001600160a01b03163b151590565b60608315620003fd578251600003620003f5576001600160a01b0385163b620003f55760405162461bcd60e51b815260206004820152601d60248201527f416464726573733a2063616c6c20746f206e6f6e2d636f6e74726163740000006044820152606401620001f1565b508162000409565b62000409838362000411565b949350505050565b815115620004225781518083602001fd5b8060405162461bcd60e51b8152600401620001f1919062000595565b80516001600160a01b03811681146200045657600080fd5b919050565b634e487b7160e01b600052604160045260246000fd5b60005b838110156200048e57818101518382015260200162000474565b50506000910152565b600080600060608486031215620004ad57600080fd5b620004b8846200043e565b9250620004c8602085016200043e565b60408501519092506001600160401b0380821115620004e657600080fd5b818601915086601f830112620004fb57600080fd5b8151818111156200051057620005106200045b565b604051601f8201601f19908116603f011681019083821181831017156200053b576200053b6200045b565b816040528281528960208487010111156200055557600080fd5b6200056883602083016020880162000471565b80955050505050509250925092565b600082516200058b81846020870162000471565b9190910192915050565b6020815260008251806020840152620005b681604085016020870162000471565b601f01601f19169190910160400192915050565b61082780620005da6000396000f3fe60806040526004361061004e5760003560e01c80633659cfe6146100655780634f1ef286146100785780635c60da1b1461008b5780638f283970146100af578063f851a440146100c25761005d565b3661005d5761005b6100ca565b005b61005b6100ca565b61005b6100733660046106b9565b6100e4565b61005b6100863660046106d4565b610129565b610093610190565b6040516001600160a01b03909116815260200160405180910390f35b61005b6100bd3660046106b9565b6101c9565b6100936101f1565b6100d2610255565b6100e26100dd6102ea565b6102f4565b565b6100ec610318565b6001600160a01b031633036101215761010361034b565b61011e81604051806020016040528060008152506000610356565b50565b61011e6100ca565b610131610318565b6001600160a01b03163303610188576101838383838080601f01602080910402602001604051908101604052809392919081815260200183838082843760009201919091525060019250610356915050565b505050565b6101836100ca565b600061019a610318565b6001600160a01b031633036101be576101b161034b565b6101b96102ea565b905090565b6101c66100ca565b90565b6101d1610318565b6001600160a01b03163303610121576101e861034b565b61011e81610381565b60006101fb610318565b6001600160a01b031633036101be5761021261034b565b6101b9610318565b606061023f83836040518060600160405280602781526020016107cb602791396103d5565b9392505050565b6001600160a01b03163b151590565b61025d610318565b6001600160a01b031633036100e25760405162461bcd60e51b815260206004820152604260248201527f5472616e73706172656e745570677261646561626c6550726f78793a2061646d60448201527f696e2063616e6e6f742066616c6c6261636b20746f2070726f78792074617267606482015261195d60f21b608482015260a4015b60405180910390fd5b60006101b961044d565b3660008037600080366000845af43d6000803e808015610313573d6000f35b3d6000fd5b60007fb53127684a568b3173ae13b9f8a6016e243e63b6e8ee1178d6a717850b5d61035b546001600160a01b0316919050565b34156100e257600080fd5b61035f83610475565b60008251118061036c5750805b156101835761037b838361021a565b50505050565b7f7e644d79422f17c01e4894b5f4f588d331ebfa28653d42ae832dc59e38c9798f6103aa610318565b604080516001600160a01b03928316815291841660208301520160405180910390a161011e816104b5565b6060600080856001600160a01b0316856040516103f2919061077b565b600060405180830381855af49150503d806000811461042d576040519150601f19603f3d011682016040523d82523d6000602084013e610432565b606091505b50915091506104438683838761055e565b9695505050505050565b60007f360894a13ba1a3210667c828492db98dca3e2076cc3735a920a3ca505d382bbc61033c565b61047e816105df565b6040516001600160a01b038216907fbc7cd75a20ee27fd9adebab32041f755214dbc6bffa90cc0225b39da2e5c2d3b90600090a250565b6001600160a01b03811661051a5760405162461bcd60e51b815260206004820152602660248201527f455243313936373a206e65772061646d696e20697320746865207a65726f206160448201526564647265737360d01b60648201526084016102e1565b807fb53127684a568b3173ae13b9f8a6016e243e63b6e8ee1178d6a717850b5d61035b80546001600160a01b0319166001600160a01b039290921691909117905550565b606083156105cd5782516000036105c6576001600160a01b0385163b6105c65760405162461bcd60e51b815260206004820152601d60248201527f416464726573733a2063616c6c20746f206e6f6e2d636f6e747261637400000060448201526064016102e1565b50816105d7565b6105d78383610673565b949350505050565b6001600160a01b0381163b61064c5760405162461bcd60e51b815260206004820152602d60248201527f455243313936373a206e657720696d706c656d656e746174696f6e206973206e60448201526c1bdd08184818dbdb9d1c9858dd609a1b60648201526084016102e1565b807f360894a13ba1a3210667c828492db98dca3e2076cc3735a920a3ca505d382bbc61053d565b8151156106835781518083602001fd5b8060405162461bcd60e51b81526004016102e19190610797565b80356001600160a01b03811681146106b457600080fd5b919050565b6000602082840312156106cb57600080fd5b61023f8261069d565b6000806000604084860312156106e957600080fd5b6106f28461069d565b9250602084013567ffffffffffffffff8082111561070f57600080fd5b818601915086601f83011261072357600080fd5b81358181111561073257600080fd5b87602082850101111561074457600080fd5b6020830194508093505050509250925092565b60005b8381101561077257818101518382015260200161075a565b50506000910152565b6000825161078d818460208701610757565b9190910192915050565b60208152600082518060208401526107b6816040850160208701610757565b601f01601f1916919091016040019291505056fe416464726573733a206c6f772d6c6576656c2064656c65676174652063616c6c206661696c6564a26469706673582212201eca323e1802a8db4d6058571650cf1beb7db68f5346bbf4e9971b848af1ef4d64736f6c63430008100033b53127684a568b3173ae13b9f8a6016e243e63b6e8ee1178d6a717850b5d6103416464726573733a206c6f772d6c6576656c2064656c65676174652063616c6c206661696c6564a2646970667358221220f601e1052730ed98aedc348e1777e3cde2b9b8c2c38b09aa99a8db235297c67b64736f6c63430008100033",
    "linkReferences": {}
  },
  "methodIdentifiers": {
    "changeProxyAdmin(address,address)": "7eff275e",
    "deployPool(address)": "29a13494",
    "deployPool2(address,address,address)": "45d827e0",
    "deployPoolChainlink(address)": "6f593d6a",
    "erc20()": "785e9e86",
    "erc721(uint256)": "e81acf3d",
    "getAmountLockedAt(address,uint256,uint256)": "5fcdc9dd",
    "getAuctionManager()": "b62e6c19",
    "getEpochDuration(address)": "5c534359",
    "getEpoch_2e(address)": "93db1505",
    "getFloorPrice(address,uint256)": "7996eef0",
    "getInterval(address)": "2466c51b",
    "getOptionAvailableAt(address,uint256,uint256)": "d2836401",
    "getOptionPricing()": "ef32fcbc",
    "getPoolFromTokenAddress(address)": "1bf2c651",
    "getProxyAdmin(address)": "f3b7dead",
    "getProxyImplementation(address)": "204e1c7a",
    "getSharesAtOf(address,uint256,uint256,address)": "7acc8208",
    "getVolatilityOracle()": "10a692e7",
    "owner()": "8da5cb5b",
    "pools(address)": "a4063dbc",
    "renounceOwnership()": "715018a6",
    "setAuctionManager(address)": "95e4cacb",
    "setOptionPricing(address)": "f6a76a81",
    "setPoolAuctionManager(address,address)": "c701f40c",
    "setPoolImplementation(address)": "d6f74898",
    "setVolatilityOracle(address)": "9c78a526",
    "transferOwnership(address)": "f2fde38b",
    "upgrade(address,address)": "99a88ec4",
    "upgradeAndCall(address,address,bytes)": "9623609d",
    "upgradePool(address,address)": "2d0df232"
  },
  "id": 90
}