{
  "abi": [
    {
      "inputs": [
        {
          "internalType": "address",
          "name": "_erc20",
          "type": "address"
        }
      ],
      "stateMutability": "nonpayable",
      "type": "constructor"
    },
    {
      "anonymous": false,
      "inputs": [
        {
          "indexed": true,
          "internalType": "address",
          "name": "previousOwner",
          "type": "address"
        },
        {
          "indexed": true,
          "internalType": "address",
          "name": "newOwner",
          "type": "address"
        }
      ],
      "name": "OwnershipTransferred",
      "type": "event"
    },
    {
      "anonymous": false,
      "inputs": [
        {
          "indexed": false,
          "internalType": "address",
          "name": "erc721",
          "type": "address"
        },
        {
          "indexed": false,
          "internalType": "address",
          "name": "erc20",
          "type": "address"
        },
        {
          "indexed": false,
          "internalType": "address",
          "name": "pool",
          "type": "address"
        }
      ],
      "name": "PoolDeployed",
      "type": "event"
    },
    {
      "inputs": [
        {
          "internalType": "contract TransparentUpgradeableProxy",
          "name": "proxy",
          "type": "address"
        },
        {
          "internalType": "address",
          "name": "newAdmin",
          "type": "address"
        }
      ],
      "name": "changeProxyAdmin",
      "outputs": [],
      "stateMutability": "nonpayable",
      "type": "function"
    },
    {
      "inputs": [
        {
          "internalType": "address",
          "name": "_erc721",
          "type": "address"
        }
      ],
      "name": "deployPoolChainlink",
      "outputs": [
        {
          "internalType": "address",
          "name": "pool",
          "type": "address"
        }
      ],
      "stateMutability": "nonpayable",
      "type": "function"
    },
    {
      "inputs": [],
      "name": "erc20",
      "outputs": [
        {
          "internalType": "address",
          "name": "",
          "type": "address"
        }
      ],
      "stateMutability": "view",
      "type": "function"
    },
    {
      "inputs": [
        {
          "internalType": "uint256",
          "name": "",
          "type": "uint256"
        }
      ],
      "name": "erc721",
      "outputs": [
        {
          "internalType": "address",
          "name": "",
          "type": "address"
        }
      ],
      "stateMutability": "view",
      "type": "function"
    },
    {
      "inputs": [
        {
          "internalType": "address",
          "name": "_pool",
          "type": "address"
        },
        {
          "internalType": "uint256",
          "name": "_epoch",
          "type": "uint256"
        },
        {
          "internalType": "uint256",
          "name": "_strikePrice",
          "type": "uint256"
        }
      ],
      "name": "getAmountLockedAt",
      "outputs": [
        {
          "internalType": "uint256",
          "name": "",
          "type": "uint256"
        }
      ],
      "stateMutability": "view",
      "type": "function"
    },
    {
      "inputs": [],
      "name": "getAuctionManager",
      "outputs": [
        {
          "internalType": "address",
          "name": "",
          "type": "address"
        }
      ],
      "stateMutability": "view",
      "type": "function"
    },
    {
      "inputs": [
        {
          "internalType": "address",
          "name": "_pool",
          "type": "address"
        }
      ],
      "name": "getEpochDuration",
      "outputs": [
        {
          "internalType": "uint256",
          "name": "epochduration",
          "type": "uint256"
        }
      ],
      "stateMutability": "view",
      "type": "function"
    },
    {
      "inputs": [
        {
          "internalType": "address",
          "name": "_pool",
          "type": "address"
        }
      ],
      "name": "getEpoch_2e",
      "outputs": [
        {
          "internalType": "uint256",
          "name": "",
          "type": "uint256"
        }
      ],
      "stateMutability": "view",
      "type": "function"
    },
    {
      "inputs": [
        {
          "internalType": "address",
          "name": "_pool",
          "type": "address"
        },
        {
          "internalType": "uint256",
          "name": "_epoch",
          "type": "uint256"
        }
      ],
      "name": "getFloorPrice",
      "outputs": [
        {
          "internalType": "uint256",
          "name": "",
          "type": "uint256"
        }
      ],
      "stateMutability": "view",
      "type": "function"
    },
    {
      "inputs": [
        {
          "internalType": "address",
          "name": "_pool",
          "type": "address"
        }
      ],
      "name": "getInterval",
      "outputs": [
        {
          "internalType": "uint256",
          "name": "interval",
          "type": "uint256"
        }
      ],
      "stateMutability": "view",
      "type": "function"
    },
    {
      "inputs": [
        {
          "internalType": "address",
          "name": "_pool",
          "type": "address"
        },
        {
          "internalType": "uint256",
          "name": "_epoch",
          "type": "uint256"
        },
        {
          "internalType": "uint256",
          "name": "_strikePrice",
          "type": "uint256"
        }
      ],
      "name": "getOptionAvailableAt",
      "outputs": [
        {
          "internalType": "uint256",
          "name": "",
          "type": "uint256"
        }
      ],
      "stateMutability": "view",
      "type": "function"
    },
    {
      "inputs": [],
      "name": "getOptionPricing",
      "outputs": [
        {
          "internalType": "address",
          "name": "",
          "type": "address"
        }
      ],
      "stateMutability": "view",
      "type": "function"
    },
    {
      "inputs": [
        {
          "internalType": "address",
          "name": "_tokenAddress",
          "type": "address"
        }
      ],
      "name": "getPoolFromTokenAddress",
      "outputs": [
        {
          "internalType": "address",
          "name": "",
          "type": "address"
        }
      ],
      "stateMutability": "view",
      "type": "function"
    },
    {
      "inputs": [
        {
          "internalType": "contract TransparentUpgradeableProxy",
          "name": "proxy",
          "type": "address"
        }
      ],
      "name": "getProxyAdmin",
      "outputs": [
        {
          "internalType": "address",
          "name": "",
          "type": "address"
        }
      ],
      "stateMutability": "view",
      "type": "function"
    },
    {
      "inputs": [
        {
          "internalType": "contract TransparentUpgradeableProxy",
          "name": "proxy",
          "type": "address"
        }
      ],
      "name": "getProxyImplementation",
      "outputs": [
        {
          "internalType": "address",
          "name": "",
          "type": "address"
        }
      ],
      "stateMutability": "view",
      "type": "function"
    },
    {
      "inputs": [
        {
          "internalType": "address",
          "name": "_pool",
          "type": "address"
        },
        {
          "internalType": "uint256",
          "name": "_epoch",
          "type": "uint256"
        },
        {
          "internalType": "uint256",
          "name": "_strikePrice",
          "type": "uint256"
        },
        {
          "internalType": "address",
          "name": "_add",
          "type": "address"
        }
      ],
      "name": "getSharesAtOf",
      "outputs": [
        {
          "internalType": "uint256",
          "name": "",
          "type": "uint256"
        }
      ],
      "stateMutability": "view",
      "type": "function"
    },
    {
      "inputs": [],
      "name": "getVolatilityOracle",
      "outputs": [
        {
          "internalType": "address",
          "name": "",
          "type": "address"
        }
      ],
      "stateMutability": "view",
      "type": "function"
    },
    {
      "inputs": [],
      "name": "owner",
      "outputs": [
        {
          "internalType": "address",
          "name": "",
          "type": "address"
        }
      ],
      "stateMutability": "view",
      "type": "function"
    },
    {
      "inputs": [
        {
          "internalType": "address",
          "name": "",
          "type": "address"
        }
      ],
      "name": "pools",
      "outputs": [
        {
          "internalType": "contract TransparentUpgradeableProxy",
          "name": "",
          "type": "address"
        }
      ],
      "stateMutability": "view",
      "type": "function"
    },
    {
      "inputs": [],
      "name": "renounceOwnership",
      "outputs": [],
      "stateMutability": "nonpayable",
      "type": "function"
    },
    {
      "inputs": [
        {
          "internalType": "address",
          "name": "_auctionManager",
          "type": "address"
        }
      ],
      "name": "setAuctionManager",
      "outputs": [],
      "stateMutability": "nonpayable",
      "type": "function"
    },
    {
      "inputs": [
        {
          "internalType": "address",
          "name": "_optionPricing",
          "type": "address"
        }
      ],
      "name": "setOptionPricing",
      "outputs": [],
      "stateMutability": "nonpayable",
      "type": "function"
    },
    {
      "inputs": [
        {
          "internalType": "address",
          "name": "_volatilityOracle",
          "type": "address"
        }
      ],
      "name": "setOracle",
      "outputs": [],
      "stateMutability": "nonpayable",
      "type": "function"
    },
    {
      "inputs": [
        {
          "internalType": "address",
          "name": "_pool",
          "type": "address"
        },
        {
          "internalType": "address",
          "name": "_auctionManager",
          "type": "address"
        }
      ],
      "name": "setPoolAuctionManager",
      "outputs": [],
      "stateMutability": "nonpayable",
      "type": "function"
    },
    {
      "inputs": [
        {
          "internalType": "address",
          "name": "_poolImplementation",
          "type": "address"
        }
      ],
      "name": "setPoolImplementation",
      "outputs": [],
      "stateMutability": "nonpayable",
      "type": "function"
    },
    {
      "inputs": [
        {
          "internalType": "address",
          "name": "newOwner",
          "type": "address"
        }
      ],
      "name": "transferOwnership",
      "outputs": [],
      "stateMutability": "nonpayable",
      "type": "function"
    },
    {
      "inputs": [
        {
          "internalType": "contract TransparentUpgradeableProxy",
          "name": "proxy",
          "type": "address"
        },
        {
          "internalType": "address",
          "name": "implementation",
          "type": "address"
        }
      ],
      "name": "upgrade",
      "outputs": [],
      "stateMutability": "nonpayable",
      "type": "function"
    },
    {
      "inputs": [
        {
          "internalType": "contract TransparentUpgradeableProxy",
          "name": "proxy",
          "type": "address"
        },
        {
          "internalType": "address",
          "name": "implementation",
          "type": "address"
        },
        {
          "internalType": "bytes",
          "name": "data",
          "type": "bytes"
        }
      ],
      "name": "upgradeAndCall",
      "outputs": [],
      "stateMutability": "payable",
      "type": "function"
    },
    {
      "inputs": [
        {
          "internalType": "address",
          "name": "_pool",
          "type": "address"
        },
        {
          "internalType": "address",
          "name": "_newPoolImplementation",
          "type": "address"
        }
      ],
      "name": "upgradePool",
      "outputs": [],
      "stateMutability": "nonpayable",
      "type": "function"
    }
  ],
  "bytecode": {
    "object": "0x608060405234801561001057600080fd5b5060405161216a38038061216a83398101604081905261002f916100ad565b6100383361005d565b600180546001600160a01b0319166001600160a01b03929092169190911790556100dd565b600080546001600160a01b038381166001600160a01b0319831681178455604051919092169283917f8be0079c531659141344cd1fd0a4f28419497f9722a3daafe3b4186f6b6457e09190a35050565b6000602082840312156100bf57600080fd5b81516001600160a01b03811681146100d657600080fd5b9392505050565b61207e806100ec6000396000f3fe608060405260043610620001e75760003560e01c80638da5cb5b116200010b578063c701f40c11620000a1578063ef32fcbc116200006c578063ef32fcbc14620005ce578063f2fde38b14620005ee578063f3b7dead1462000613578063f6a76a81146200063857600080fd5b8063c701f40c146200051e578063d28364011462000543578063d6f748981462000568578063e81acf3d14620005a957600080fd5b80639623609d11620000e25780639623609d146200048857806399a88ec4146200049f578063a4063dbc14620004c4578063b62e6c1914620004fe57600080fd5b80638da5cb5b146200041e57806393db1505146200043e57806395e4cacb146200046357600080fd5b80636f593d6a11620001815780637996eef011620001585780637996eef0146200038a5780637acc820814620003af5780637adbf97314620003d45780637eff275e14620003f957600080fd5b80636f593d6a146200032b578063715018a61462000350578063785e9e86146200036857600080fd5b80632466c51b11620001c25780632466c51b14620002865780632d0df23214620002ba5780635c53435914620002e15780635fcdc9dd146200030657600080fd5b806310a692e714620001ec5780631bf2c6511462000224578063204e1c7a1462000261575b600080fd5b348015620001f957600080fd5b506006546001600160a01b03165b6040516001600160a01b0390911681526020015b60405180910390f35b3480156200023157600080fd5b50620002076200024336600462000f02565b6001600160a01b039081166000908152600260205260409020541690565b3480156200026e57600080fd5b50620002076200028036600462000f02565b6200065d565b3480156200029357600080fd5b50620002ab620002a536600462000f02565b620006f4565b6040519081526020016200021b565b348015620002c757600080fd5b50620002df620002d936600462000f22565b62000761565b005b348015620002ee57600080fd5b50620002ab6200030036600462000f02565b620007e0565b3480156200031357600080fd5b50620002ab6200032536600462000f60565b62000821565b3480156200033857600080fd5b50620002076200034a36600462000f02565b62000898565b3480156200035d57600080fd5b50620002df62000a2c565b3480156200037557600080fd5b5060015462000207906001600160a01b031681565b3480156200039757600080fd5b50620002ab620003a936600462000f98565b62000a44565b348015620003bc57600080fd5b50620002ab620003ce36600462000fc7565b62000aba565b348015620003e157600080fd5b50620002df620003f336600462000f02565b62000b42565b3480156200040657600080fd5b50620002df6200041836600462000f22565b62000b6e565b3480156200042b57600080fd5b506000546001600160a01b031662000207565b3480156200044b57600080fd5b50620002ab6200045d36600462000f02565b62000ba7565b3480156200047057600080fd5b50620002df6200048236600462000f02565b62000be6565b620002df620004993660046200102c565b62000c12565b348015620004ac57600080fd5b50620002df620004be36600462000f22565b62000c87565b348015620004d157600080fd5b5062000207620004e336600462000f02565b6002602052600090815260409020546001600160a01b031681565b3480156200050b57600080fd5b506004546001600160a01b031662000207565b3480156200052b57600080fd5b50620002df6200053d36600462000f22565b62000cc0565b3480156200055057600080fd5b50620002ab6200056236600462000f60565b62000cf9565b3480156200057557600080fd5b50620002df6200058736600462000f02565b600780546001600160a01b0319166001600160a01b0392909216919091179055565b348015620005b657600080fd5b5062000207620005c836600462001110565b62000d31565b348015620005db57600080fd5b506005546001600160a01b031662000207565b348015620005fb57600080fd5b50620002df6200060d36600462000f02565b62000d5c565b3480156200062057600080fd5b50620002076200063236600462000f02565b62000ddf565b3480156200064557600080fd5b50620002df6200065736600462000f02565b62000e06565b6000806000836001600160a01b03166040516200068490635c60da1b60e01b815260040190565b600060405180830381855afa9150503d8060008114620006c1576040519150601f19603f3d011682016040523d82523d6000602084013e620006c6565b606091505b509150915081620006d657600080fd5b80806020019051810190620006ec91906200112a565b949350505050565b6000816001600160a01b03166391ad27b46040518163ffffffff1660e01b8152600401602060405180830381865afa15801562000735573d6000803e3d6000fd5b505050506040513d601f19601f820116820180604052508101906200075b91906200114a565b92915050565b6200076b62000e32565b6001600160a01b0382811660009081526002602052604090819020549051631b2ce7f360e11b81528383166004820152911690633659cfe6906024015b600060405180830381600087803b158015620007c357600080fd5b505af1158015620007d8573d6000803e3d6000fd5b505050505050565b6000816001600160a01b0316635d3ea8f16040518163ffffffff1660e01b8152600401602060405180830381865afa15801562000735573d6000803e3d6000fd5b6040516348814a6560e11b815260048101839052602481018290526000906001600160a01b0385169063910294ca906044015b602060405180830381865afa15801562000872573d6000803e3d6000fd5b505050506040513d601f19601f82011682018060405250810190620006ec91906200114a565b6000620008a462000e32565b6001600160a01b038281166000908152600260205260409020541615620008ca57600080fd5b6007546001546004546006546040516001600160a01b03878116602483015293841660448201529183166064830152821660848201523360a48201526000929190911690309060c40160408051601f198184030181529181526020820180516001600160e01b0316630a2ca2bd60e11b17905251620009499062000ede565b6200095793929190620011ac565b604051809103906000f08015801562000974573d6000803e3d6000fd5b506001600160a01b03848116600081815260026020908152604080832080546001600160a01b03199081168888169081179092556003805460018181018355919096527fc2575a0e9e593c00f959f8c92f12db2869c3395a3b0502d05e2516446f71f85b90950180549091168617905592548151948552909416908301528183015290519192507f04c12766244f2559dd215eecd69f70fdfce0e2c2260b5d52cb8b63738622eaa4919081900360600190a192915050565b62000a3662000e32565b62000a42600062000e8e565b565b60405163165a99e360e31b8152600481018290526000906001600160a01b0384169063b2d4cf1890602401602060405180830381865afa15801562000a8d573d6000803e3d6000fd5b505050506040513d601f19601f8201168201806040525081019062000ab391906200114a565b9392505050565b604051632f3e1fcd60e11b815260048101849052602481018390526001600160a01b03828116604483015260009190861690635e7c3f9a90606401602060405180830381865afa15801562000b13573d6000803e3d6000fd5b505050506040513d601f19601f8201168201806040525081019062000b3991906200114a565b95945050505050565b62000b4c62000e32565b600680546001600160a01b0319166001600160a01b0392909216919091179055565b62000b7862000e32565b6040516308f2839760e41b81526001600160a01b038281166004830152831690638f28397090602401620007a8565b6000816001600160a01b031661ae4a6040518163ffffffff1660e01b8152600401602060405180830381865afa15801562000735573d6000803e3d6000fd5b62000bf062000e32565b600480546001600160a01b0319166001600160a01b0392909216919091179055565b62000c1c62000e32565b60405163278f794360e11b81526001600160a01b03841690634f1ef28690349062000c4e9086908690600401620011da565b6000604051808303818588803b15801562000c6857600080fd5b505af115801562000c7d573d6000803e3d6000fd5b5050505050505050565b62000c9162000e32565b604051631b2ce7f360e11b81526001600160a01b038281166004830152831690633659cfe690602401620007a8565b62000cca62000e32565b6040516395e4cacb60e01b81526001600160a01b0382811660048301528316906395e4cacb90602401620007a8565b60405163086e0f0960e01b815260048101839052602481018290526000906001600160a01b0385169063086e0f099060440162000854565b6003818154811062000d4257600080fd5b6000918252602090912001546001600160a01b0316905081565b62000d6662000e32565b6001600160a01b03811662000dd15760405162461bcd60e51b815260206004820152602660248201527f4f776e61626c653a206e6577206f776e657220697320746865207a65726f206160448201526564647265737360d01b60648201526084015b60405180910390fd5b62000ddc8162000e8e565b50565b6000806000836001600160a01b031660405162000684906303e1469160e61b815260040190565b62000e1062000e32565b600580546001600160a01b0319166001600160a01b0392909216919091179055565b6000546001600160a01b0316331462000a425760405162461bcd60e51b815260206004820181905260248201527f4f776e61626c653a2063616c6c6572206973206e6f7420746865206f776e6572604482015260640162000dc8565b600080546001600160a01b038381166001600160a01b0319831681178455604051919092169283917f8be0079c531659141344cd1fd0a4f28419497f9722a3daafe3b4186f6b6457e09190a35050565b610e48806200120183390190565b6001600160a01b038116811462000ddc57600080fd5b60006020828403121562000f1557600080fd5b813562000ab38162000eec565b6000806040838503121562000f3657600080fd5b823562000f438162000eec565b9150602083013562000f558162000eec565b809150509250929050565b60008060006060848603121562000f7657600080fd5b833562000f838162000eec565b95602085013595506040909401359392505050565b6000806040838503121562000fac57600080fd5b823562000fb98162000eec565b946020939093013593505050565b6000806000806080858703121562000fde57600080fd5b843562000feb8162000eec565b9350602085013592506040850135915060608501356200100b8162000eec565b939692955090935050565b634e487b7160e01b600052604160045260246000fd5b6000806000606084860312156200104257600080fd5b83356200104f8162000eec565b92506020840135620010618162000eec565b9150604084013567ffffffffffffffff808211156200107f57600080fd5b818601915086601f8301126200109457600080fd5b813581811115620010a957620010a962001016565b604051601f8201601f19908116603f01168101908382118183101715620010d457620010d462001016565b81604052828152896020848701011115620010ee57600080fd5b8260208601602083013760006020848301015280955050505050509250925092565b6000602082840312156200112357600080fd5b5035919050565b6000602082840312156200113d57600080fd5b815162000ab38162000eec565b6000602082840312156200115d57600080fd5b5051919050565b6000815180845260005b818110156200118c576020818501810151868301820152016200116e565b506000602082860101526020601f19601f83011685010191505092915050565b6001600160a01b0384811682528316602082015260606040820181905260009062000b399083018462001164565b6001600160a01b0383168152604060208201819052600090620006ec908301846200116456fe608060405260405162000e4838038062000e48833981016040819052620000269162000497565b828162000036828260006200004d565b50620000449050826200008a565b505050620005ca565b6200005883620000e5565b600082511180620000665750805b1562000085576200008383836200012760201b6200021a1760201c565b505b505050565b7f7e644d79422f17c01e4894b5f4f588d331ebfa28653d42ae832dc59e38c9798f620000b562000156565b604080516001600160a01b03928316815291841660208301520160405180910390a1620000e2816200018f565b50565b620000f08162000244565b6040516001600160a01b038216907fbc7cd75a20ee27fd9adebab32041f755214dbc6bffa90cc0225b39da2e5c2d3b90600090a250565b60606200014f838360405180606001604052806027815260200162000e2160279139620002f8565b9392505050565b60006200018060008051602062000e0183398151915260001b6200037760201b620001c61760201c565b546001600160a01b0316919050565b6001600160a01b038116620001fa5760405162461bcd60e51b815260206004820152602660248201527f455243313936373a206e65772061646d696e20697320746865207a65726f206160448201526564647265737360d01b60648201526084015b60405180910390fd5b806200022360008051602062000e0183398151915260001b6200037760201b620001c61760201c565b80546001600160a01b0319166001600160a01b039290921691909117905550565b6200025a816200037a60201b620002461760201c565b620002be5760405162461bcd60e51b815260206004820152602d60248201527f455243313936373a206e657720696d706c656d656e746174696f6e206973206e60448201526c1bdd08184818dbdb9d1c9858dd609a1b6064820152608401620001f1565b80620002237f360894a13ba1a3210667c828492db98dca3e2076cc3735a920a3ca505d382bbc60001b6200037760201b620001c61760201c565b6060600080856001600160a01b03168560405162000317919062000577565b600060405180830381855af49150503d806000811462000354576040519150601f19603f3d011682016040523d82523d6000602084013e62000359565b606091505b5090925090506200036d8683838762000389565b9695505050505050565b90565b6001600160a01b03163b151590565b60608315620003fd578251600003620003f5576001600160a01b0385163b620003f55760405162461bcd60e51b815260206004820152601d60248201527f416464726573733a2063616c6c20746f206e6f6e2d636f6e74726163740000006044820152606401620001f1565b508162000409565b62000409838362000411565b949350505050565b815115620004225781518083602001fd5b8060405162461bcd60e51b8152600401620001f1919062000595565b80516001600160a01b03811681146200045657600080fd5b919050565b634e487b7160e01b600052604160045260246000fd5b60005b838110156200048e57818101518382015260200162000474565b50506000910152565b600080600060608486031215620004ad57600080fd5b620004b8846200043e565b9250620004c8602085016200043e565b60408501519092506001600160401b0380821115620004e657600080fd5b818601915086601f830112620004fb57600080fd5b8151818111156200051057620005106200045b565b604051601f8201601f19908116603f011681019083821181831017156200053b576200053b6200045b565b816040528281528960208487010111156200055557600080fd5b6200056883602083016020880162000471565b80955050505050509250925092565b600082516200058b81846020870162000471565b9190910192915050565b6020815260008251806020840152620005b681604085016020870162000471565b601f01601f19169190910160400192915050565b61082780620005da6000396000f3fe60806040526004361061004e5760003560e01c80633659cfe6146100655780634f1ef286146100785780635c60da1b1461008b5780638f283970146100af578063f851a440146100c25761005d565b3661005d5761005b6100ca565b005b61005b6100ca565b61005b6100733660046106b9565b6100e4565b61005b6100863660046106d4565b610129565b610093610190565b6040516001600160a01b03909116815260200160405180910390f35b61005b6100bd3660046106b9565b6101c9565b6100936101f1565b6100d2610255565b6100e26100dd6102ea565b6102f4565b565b6100ec610318565b6001600160a01b031633036101215761010361034b565b61011e81604051806020016040528060008152506000610356565b50565b61011e6100ca565b610131610318565b6001600160a01b03163303610188576101838383838080601f01602080910402602001604051908101604052809392919081815260200183838082843760009201919091525060019250610356915050565b505050565b6101836100ca565b600061019a610318565b6001600160a01b031633036101be576101b161034b565b6101b96102ea565b905090565b6101c66100ca565b90565b6101d1610318565b6001600160a01b03163303610121576101e861034b565b61011e81610381565b60006101fb610318565b6001600160a01b031633036101be5761021261034b565b6101b9610318565b606061023f83836040518060600160405280602781526020016107cb602791396103d5565b9392505050565b6001600160a01b03163b151590565b61025d610318565b6001600160a01b031633036100e25760405162461bcd60e51b815260206004820152604260248201527f5472616e73706172656e745570677261646561626c6550726f78793a2061646d60448201527f696e2063616e6e6f742066616c6c6261636b20746f2070726f78792074617267606482015261195d60f21b608482015260a4015b60405180910390fd5b60006101b961044d565b3660008037600080366000845af43d6000803e808015610313573d6000f35b3d6000fd5b60007fb53127684a568b3173ae13b9f8a6016e243e63b6e8ee1178d6a717850b5d61035b546001600160a01b0316919050565b34156100e257600080fd5b61035f83610475565b60008251118061036c5750805b156101835761037b838361021a565b50505050565b7f7e644d79422f17c01e4894b5f4f588d331ebfa28653d42ae832dc59e38c9798f6103aa610318565b604080516001600160a01b03928316815291841660208301520160405180910390a161011e816104b5565b6060600080856001600160a01b0316856040516103f2919061077b565b600060405180830381855af49150503d806000811461042d576040519150601f19603f3d011682016040523d82523d6000602084013e610432565b606091505b50915091506104438683838761055e565b9695505050505050565b60007f360894a13ba1a3210667c828492db98dca3e2076cc3735a920a3ca505d382bbc61033c565b61047e816105df565b6040516001600160a01b038216907fbc7cd75a20ee27fd9adebab32041f755214dbc6bffa90cc0225b39da2e5c2d3b90600090a250565b6001600160a01b03811661051a5760405162461bcd60e51b815260206004820152602660248201527f455243313936373a206e65772061646d696e20697320746865207a65726f206160448201526564647265737360d01b60648201526084016102e1565b807fb53127684a568b3173ae13b9f8a6016e243e63b6e8ee1178d6a717850b5d61035b80546001600160a01b0319166001600160a01b039290921691909117905550565b606083156105cd5782516000036105c6576001600160a01b0385163b6105c65760405162461bcd60e51b815260206004820152601d60248201527f416464726573733a2063616c6c20746f206e6f6e2d636f6e747261637400000060448201526064016102e1565b50816105d7565b6105d78383610673565b949350505050565b6001600160a01b0381163b61064c5760405162461bcd60e51b815260206004820152602d60248201527f455243313936373a206e657720696d706c656d656e746174696f6e206973206e60448201526c1bdd08184818dbdb9d1c9858dd609a1b60648201526084016102e1565b807f360894a13ba1a3210667c828492db98dca3e2076cc3735a920a3ca505d382bbc61053d565b8151156106835781518083602001fd5b8060405162461bcd60e51b81526004016102e19190610797565b80356001600160a01b03811681146106b457600080fd5b919050565b6000602082840312156106cb57600080fd5b61023f8261069d565b6000806000604084860312156106e957600080fd5b6106f28461069d565b9250602084013567ffffffffffffffff8082111561070f57600080fd5b818601915086601f83011261072357600080fd5b81358181111561073257600080fd5b87602082850101111561074457600080fd5b6020830194508093505050509250925092565b60005b8381101561077257818101518382015260200161075a565b50506000910152565b6000825161078d818460208701610757565b9190910192915050565b60208152600082518060208401526107b6816040850160208701610757565b601f01601f1916919091016040019291505056fe416464726573733a206c6f772d6c6576656c2064656c65676174652063616c6c206661696c6564a26469706673582212201eca323e1802a8db4d6058571650cf1beb7db68f5346bbf4e9971b848af1ef4d64736f6c63430008100033b53127684a568b3173ae13b9f8a6016e243e63b6e8ee1178d6a717850b5d6103416464726573733a206c6f772d6c6576656c2064656c65676174652063616c6c206661696c6564a264697066735822122027667f6ba033c5fd323372d78372a3f1ab9bd7f7a509762ccddea41ff7642b4964736f6c63430008100033",
    "linkReferences": {}
  },
  "methodIdentifiers": {
    "changeProxyAdmin(address,address)": "7eff275e",
    "deployPoolChainlink(address)": "6f593d6a",
    "erc20()": "785e9e86",
    "erc721(uint256)": "e81acf3d",
    "getAmountLockedAt(address,uint256,uint256)": "5fcdc9dd",
    "getAuctionManager()": "b62e6c19",
    "getEpochDuration(address)": "5c534359",
    "getEpoch_2e(address)": "93db1505",
    "getFloorPrice(address,uint256)": "7996eef0",
    "getInterval(address)": "2466c51b",
    "getOptionAvailableAt(address,uint256,uint256)": "d2836401",
    "getOptionPricing()": "ef32fcbc",
    "getPoolFromTokenAddress(address)": "1bf2c651",
    "getProxyAdmin(address)": "f3b7dead",
    "getProxyImplementation(address)": "204e1c7a",
    "getSharesAtOf(address,uint256,uint256,address)": "7acc8208",
    "getVolatilityOracle()": "10a692e7",
    "owner()": "8da5cb5b",
    "pools(address)": "a4063dbc",
    "renounceOwnership()": "715018a6",
    "setAuctionManager(address)": "95e4cacb",
    "setOptionPricing(address)": "f6a76a81",
    "setOracle(address)": "7adbf973",
    "setPoolAuctionManager(address,address)": "c701f40c",
    "setPoolImplementation(address)": "d6f74898",
    "transferOwnership(address)": "f2fde38b",
    "upgrade(address,address)": "99a88ec4",
    "upgradeAndCall(address,address,bytes)": "9623609d",
    "upgradePool(address,address)": "2d0df232"
  },
  "id": 63
}