{
  "abi": [
    {
      "inputs": [
        {
          "internalType": "address",
          "name": "_erc20",
          "type": "address"
        }
      ],
      "stateMutability": "nonpayable",
      "type": "constructor"
    },
    {
      "anonymous": false,
      "inputs": [
        {
          "indexed": true,
          "internalType": "address",
          "name": "previousOwner",
          "type": "address"
        },
        {
          "indexed": true,
          "internalType": "address",
          "name": "newOwner",
          "type": "address"
        }
      ],
      "name": "OwnershipTransferred",
      "type": "event"
    },
    {
      "anonymous": false,
      "inputs": [
        {
          "indexed": false,
          "internalType": "address",
          "name": "erc721",
          "type": "address"
        },
        {
          "indexed": false,
          "internalType": "address",
          "name": "erc20",
          "type": "address"
        },
        {
          "indexed": false,
          "internalType": "address",
          "name": "pool",
          "type": "address"
        }
      ],
      "name": "PoolDeployed",
      "type": "event"
    },
    {
      "inputs": [
        {
          "internalType": "address",
          "name": "_erc721",
          "type": "address"
        }
      ],
      "name": "deployPool",
      "outputs": [
        {
          "internalType": "address",
          "name": "pool",
          "type": "address"
        }
      ],
      "stateMutability": "nonpayable",
      "type": "function"
    },
    {
      "inputs": [
        {
          "internalType": "address",
          "name": "_erc721",
          "type": "address"
        }
      ],
      "name": "erasePool",
      "outputs": [],
      "stateMutability": "nonpayable",
      "type": "function"
    },
    {
      "inputs": [],
      "name": "erc20",
      "outputs": [
        {
          "internalType": "address",
          "name": "",
          "type": "address"
        }
      ],
      "stateMutability": "view",
      "type": "function"
    },
    {
      "inputs": [
        {
          "internalType": "uint256",
          "name": "",
          "type": "uint256"
        }
      ],
      "name": "erc721",
      "outputs": [
        {
          "internalType": "address",
          "name": "",
          "type": "address"
        }
      ],
      "stateMutability": "view",
      "type": "function"
    },
    {
      "inputs": [
        {
          "internalType": "address",
          "name": "_pool",
          "type": "address"
        },
        {
          "internalType": "uint256",
          "name": "_epoch",
          "type": "uint256"
        },
        {
          "internalType": "uint256",
          "name": "_strikePrice",
          "type": "uint256"
        }
      ],
      "name": "getAmountLockedAt",
      "outputs": [
        {
          "internalType": "uint256",
          "name": "",
          "type": "uint256"
        }
      ],
      "stateMutability": "view",
      "type": "function"
    },
    {
      "inputs": [],
      "name": "getAuctionManager",
      "outputs": [
        {
          "internalType": "address",
          "name": "",
          "type": "address"
        }
      ],
      "stateMutability": "view",
      "type": "function"
    },
    {
      "inputs": [
        {
          "internalType": "address",
          "name": "_pool",
          "type": "address"
        }
      ],
      "name": "getEpochDuration",
      "outputs": [
        {
          "internalType": "uint256",
          "name": "epochduration",
          "type": "uint256"
        }
      ],
      "stateMutability": "view",
      "type": "function"
    },
    {
      "inputs": [
        {
          "internalType": "address",
          "name": "_pool",
          "type": "address"
        }
      ],
      "name": "getEpoch_2e",
      "outputs": [
        {
          "internalType": "uint256",
          "name": "",
          "type": "uint256"
        }
      ],
      "stateMutability": "view",
      "type": "function"
    },
    {
      "inputs": [
        {
          "internalType": "address",
          "name": "_pool",
          "type": "address"
        }
      ],
      "name": "getInterval",
      "outputs": [
        {
          "internalType": "uint256",
          "name": "interval",
          "type": "uint256"
        }
      ],
      "stateMutability": "view",
      "type": "function"
    },
    {
      "inputs": [
        {
          "internalType": "address",
          "name": "_pool",
          "type": "address"
        },
        {
          "internalType": "uint256",
          "name": "_epoch",
          "type": "uint256"
        },
        {
          "internalType": "uint256",
          "name": "_strikePrice",
          "type": "uint256"
        }
      ],
      "name": "getOptionAvailableAt",
      "outputs": [
        {
          "internalType": "uint256",
          "name": "",
          "type": "uint256"
        }
      ],
      "stateMutability": "view",
      "type": "function"
    },
    {
      "inputs": [],
      "name": "getOptionPricing",
      "outputs": [
        {
          "internalType": "address",
          "name": "",
          "type": "address"
        }
      ],
      "stateMutability": "view",
      "type": "function"
    },
    {
      "inputs": [
        {
          "internalType": "address",
          "name": "_tokenAddress",
          "type": "address"
        }
      ],
      "name": "getPoolFromTokenAddress",
      "outputs": [
        {
          "internalType": "address",
          "name": "",
          "type": "address"
        }
      ],
      "stateMutability": "view",
      "type": "function"
    },
    {
      "inputs": [
        {
          "internalType": "address",
          "name": "_pool",
          "type": "address"
        },
        {
          "internalType": "uint256",
          "name": "_epoch",
          "type": "uint256"
        },
        {
          "internalType": "uint256",
          "name": "_strikePrice",
          "type": "uint256"
        },
        {
          "internalType": "address",
          "name": "_add",
          "type": "address"
        }
      ],
      "name": "getSharesAtOf",
      "outputs": [
        {
          "internalType": "uint256",
          "name": "",
          "type": "uint256"
        }
      ],
      "stateMutability": "view",
      "type": "function"
    },
    {
      "inputs": [],
      "name": "getVolatilityOracle",
      "outputs": [
        {
          "internalType": "address",
          "name": "",
          "type": "address"
        }
      ],
      "stateMutability": "view",
      "type": "function"
    },
    {
      "inputs": [
        {
          "internalType": "address",
          "name": "_pool",
          "type": "address"
        },
        {
          "internalType": "uint256",
          "name": "_epoch",
          "type": "uint256"
        }
      ],
      "name": "getfloorprice",
      "outputs": [
        {
          "internalType": "uint256",
          "name": "",
          "type": "uint256"
        }
      ],
      "stateMutability": "view",
      "type": "function"
    },
    {
      "inputs": [],
      "name": "owner",
      "outputs": [
        {
          "internalType": "address",
          "name": "",
          "type": "address"
        }
      ],
      "stateMutability": "view",
      "type": "function"
    },
    {
      "inputs": [
        {
          "internalType": "address",
          "name": "",
          "type": "address"
        }
      ],
      "name": "pools",
      "outputs": [
        {
          "internalType": "address",
          "name": "",
          "type": "address"
        }
      ],
      "stateMutability": "view",
      "type": "function"
    },
    {
      "inputs": [],
      "name": "renounceOwnership",
      "outputs": [],
      "stateMutability": "nonpayable",
      "type": "function"
    },
    {
      "inputs": [
        {
          "internalType": "address",
          "name": "_auctionManager",
          "type": "address"
        }
      ],
      "name": "setAuctionManager",
      "outputs": [],
      "stateMutability": "nonpayable",
      "type": "function"
    },
    {
      "inputs": [
        {
          "internalType": "address",
          "name": "_optionPricing",
          "type": "address"
        }
      ],
      "name": "setOptionPricing",
      "outputs": [],
      "stateMutability": "nonpayable",
      "type": "function"
    },
    {
      "inputs": [
        {
          "internalType": "address",
          "name": "_pool",
          "type": "address"
        },
        {
          "internalType": "address",
          "name": "_auctionManager",
          "type": "address"
        }
      ],
      "name": "setPoolAuctionManager",
      "outputs": [],
      "stateMutability": "nonpayable",
      "type": "function"
    },
    {
      "inputs": [
        {
          "internalType": "address",
          "name": "_volatilityOracle",
          "type": "address"
        }
      ],
      "name": "setVolatilityOracle",
      "outputs": [],
      "stateMutability": "nonpayable",
      "type": "function"
    },
    {
      "inputs": [
        {
          "internalType": "address",
          "name": "newOwner",
          "type": "address"
        }
      ],
      "name": "transferOwnership",
      "outputs": [],
      "stateMutability": "nonpayable",
      "type": "function"
    }
  ],
  "bytecode": {
    "object": "0x608060405234801561001057600080fd5b506040516139b53803806139b583398101604081905261002f916100ad565b6100383361005d565b600180546001600160a01b0319166001600160a01b03929092169190911790556100dd565b600080546001600160a01b038381166001600160a01b0319831681178455604051919092169283917f8be0079c531659141344cd1fd0a4f28419497f9722a3daafe3b4186f6b6457e09190a35050565b6000602082840312156100bf57600080fd5b81516001600160a01b03811681146100d657600080fd5b9392505050565b6138c9806100ec6000396000f3fe60806040523480156200001157600080fd5b5060043610620001695760003560e01c806393db150511620000d3578063d28364011162000086578063d2836401146200032c578063dc1648dc1462000343578063e81acf3d146200035a578063ef32fcbc1462000371578063f2fde38b1462000383578063f6a76a81146200039a57600080fd5b806393db1505146200029257806395e4cacb14620002a95780639c78a52614620002c0578063a4063dbc14620002d7578063b62e6c191462000303578063c701f40c146200031557600080fd5b80635fcdc9dd116200012c5780635fcdc9dd146200021b57806361e70dfd1462000232578063715018a61462000249578063785e9e8614620002555780637acc820814620002695780638da5cb5b146200028057600080fd5b806310a692e7146200016e5780631bf2c65114620001985780632466c51b14620001c757806329a1349414620001ed5780635c5343591462000204575b600080fd5b6006546001600160a01b03165b6040516001600160a01b0390911681526020015b60405180910390f35b6200017b620001a936600462000aca565b6001600160a01b039081166000908152600260205260409020541690565b620001de620001d836600462000aca565b620003b1565b6040519081526020016200018f565b6200017b620001fe36600462000aca565b6200041e565b620001de6200021536600462000aca565b620005dd565b620001de6200022c36600462000ae8565b6200061e565b620001de6200024336600462000b1e565b6200069d565b6200025362000713565b005b6001546200017b906001600160a01b031681565b620001de6200027a36600462000b4b565b6200072b565b6000546001600160a01b03166200017b565b620001de620002a336600462000aca565b620007b3565b62000253620002ba36600462000aca565b620007f2565b62000253620002d136600462000aca565b6200081e565b6200017b620002e836600462000aca565b6002602052600090815260409020546001600160a01b031681565b6004546001600160a01b03166200017b565b620002536200032636600462000b96565b6200084a565b620001de6200033d36600462000ae8565b620008b5565b620002536200035436600462000aca565b620008ed565b6200017b6200036b36600462000bce565b6200091e565b6005546001600160a01b03166200017b565b620002536200039436600462000aca565b62000949565b62000253620003ab36600462000aca565b620009cc565b6000816001600160a01b03166391ad27b46040518163ffffffff1660e01b8152600401602060405180830381865afa158015620003f2573d6000803e3d6000fd5b505050506040513d601f19601f8201168201806040525081019062000418919062000be8565b92915050565b60006200042a620009f8565b6001600160a01b0382811660009081526002602052604090205416156200045057600080fd5b60015460045460405160009285926001600160a01b0391821692911690620004789062000aa4565b6001600160a01b03938416815291831660208301529091166040820152606001604051809103906000f080158015620004b5573d6000803e3d6000fd5b506001600160a01b03848116600081815260026020526040812080548585166001600160a01b03199182168117909255600380546001810182559084527fc2575a0e9e593c00f959f8c92f12db2869c3395a3b0502d05e2516446f71f85b018054909116909317909255549293509163f2fde38b91166040516001600160e01b031960e084901b1681526001600160a01b039091166004820152602401600060405180830381600087803b1580156200056d57600080fd5b505af115801562000582573d6000803e3d6000fd5b5050600154604080516001600160a01b038881168252928316602082015291851682820152517f04c12766244f2559dd215eecd69f70fdfce0e2c2260b5d52cb8b63738622eaa49350908190036060019150a190505b919050565b6000816001600160a01b0316635d3ea8f16040518163ffffffff1660e01b8152600401602060405180830381865afa158015620003f2573d6000803e3d6000fd5b6040516348814a6560e11b815260048101839052602481018290526000906001600160a01b0385169063910294ca906044015b602060405180830381865afa1580156200066f573d6000803e3d6000fd5b505050506040513d601f19601f8201168201806040525081019062000695919062000be8565b949350505050565b604051633d15b6c560e21b8152600481018290526000906001600160a01b0384169063f456db1490602401602060405180830381865afa158015620006e6573d6000803e3d6000fd5b505050506040513d601f19601f820116820180604052508101906200070c919062000be8565b9392505050565b6200071d620009f8565b62000729600062000a54565b565b604051632f3e1fcd60e11b815260048101849052602481018390526001600160a01b03828116604483015260009190861690635e7c3f9a90606401602060405180830381865afa15801562000784573d6000803e3d6000fd5b505050506040513d601f19601f82011682018060405250810190620007aa919062000be8565b95945050505050565b6000816001600160a01b031661ae4a6040518163ffffffff1660e01b8152600401602060405180830381865afa158015620003f2573d6000803e3d6000fd5b620007fc620009f8565b600480546001600160a01b0319166001600160a01b0392909216919091179055565b62000828620009f8565b600680546001600160a01b0319166001600160a01b0392909216919091179055565b62000854620009f8565b6040516395e4cacb60e01b81526001600160a01b0382811660048301528316906395e4cacb90602401600060405180830381600087803b1580156200089857600080fd5b505af1158015620008ad573d6000803e3d6000fd5b505050505050565b60405163086e0f0960e01b815260048101839052602481018290526000906001600160a01b0385169063086e0f099060440162000651565b620008f7620009f8565b6001600160a01b0316600090815260026020526040902080546001600160a01b0319169055565b600381815481106200092f57600080fd5b6000918252602090912001546001600160a01b0316905081565b62000953620009f8565b6001600160a01b038116620009be5760405162461bcd60e51b815260206004820152602660248201527f4f776e61626c653a206e6577206f776e657220697320746865207a65726f206160448201526564647265737360d01b60648201526084015b60405180910390fd5b620009c98162000a54565b50565b620009d6620009f8565b600580546001600160a01b0319166001600160a01b0392909216919091179055565b6000546001600160a01b03163314620007295760405162461bcd60e51b815260206004820181905260248201527f4f776e61626c653a2063616c6c6572206973206e6f7420746865206f776e65726044820152606401620009b5565b600080546001600160a01b038381166001600160a01b0319831681178455604051919092169283917f8be0079c531659141344cd1fd0a4f28419497f9722a3daafe3b4186f6b6457e09190a35050565b612c918062000c0383390190565b80356001600160a01b0381168114620005d857600080fd5b60006020828403121562000add57600080fd5b6200070c8262000ab2565b60008060006060848603121562000afe57600080fd5b62000b098462000ab2565b95602085013595506040909401359392505050565b6000806040838503121562000b3257600080fd5b62000b3d8362000ab2565b946020939093013593505050565b6000806000806080858703121562000b6257600080fd5b62000b6d8562000ab2565b9350602085013592506040850135915062000b8b6060860162000ab2565b905092959194509250565b6000806040838503121562000baa57600080fd5b62000bb58362000ab2565b915062000bc56020840162000ab2565b90509250929050565b60006020828403121562000be157600080fd5b5035919050565b60006020828403121562000bfb57600080fd5b505191905056fe60e06040526004805460ff60a01b19169055621275006080526201518060a05261032060c0523480156200003257600080fd5b5060405162002c9138038062002c91833981016040819052620000559162000176565b620000603362000109565b42600555600180546001600160a01b03199081166001600160a01b038681169182178455600280548416878316179055600380543390851617905560048054909316908516908117835560405163a22cb46560e01b815292830152602482019290925263a22cb46590604401600060405180830381600087803b158015620000e757600080fd5b505af1158015620000fc573d6000803e3d6000fd5b50505050505050620001c0565b600080546001600160a01b038381166001600160a01b0319831681178455604051919092169283917f8be0079c531659141344cd1fd0a4f28419497f9722a3daafe3b4186f6b6457e09190a35050565b80516001600160a01b03811681146200017157600080fd5b919050565b6000806000606084860312156200018c57600080fd5b620001978462000159565b9250620001a76020850162000159565b9150620001b76040850162000159565b90509250925092565b60805160a05160c051612a3f620002526000396000611bcf01526000818161050e015281816108d301528181610b3f015281816114350152818161198b01528181611dc501526122e401526000818161041b0152818161061d015281816108fb01528181610b670152818161145d015281816119ac01528181611ded01528181611fd3015261230c0152612a3f6000f3fe608060405234801561001057600080fd5b50600436106101ee5760003560e01c80638992bc771161010f578063b9a2de3a116100a2578063f2fde38b11610071578063f2fde38b146105c0578063f456db14146105d3578063f95dc232146105f3578063fba225b91461060657600080fd5b8063b9a2de3a1461057e578063ba4ec52a14610591578063bca6ce64146105a4578063bce47716146105b757600080fd5b806395e4cacb116100de57806395e4cacb14610532578063b0192f9a14610545578063b1b3dd3a14610558578063b8e7023d1461056b57600080fd5b80638992bc77146104bd5780638da5cb5b146104d0578063910294ca146104e157806391ad27b41461050c57600080fd5b806345be869411610187578063715018a611610156578063715018a61461047c5780637587b4df14610484578063785e9e86146104975780637b0472f0146104aa57600080fd5b806345be8694146103ca57806346953c47146103f55780635d3ea8f1146104195780635e7c3f9a1461043f57600080fd5b806309b4a81c116101c357806309b4a81c14610249578063150b7a021461025c5780631ce5e9a6146102935780632398fdcf146103b757600080fd5b8061ae4a146101f3578063023245d71461020e57806304ed8ef714610223578063086e0f0914610236575b600080fd5b6101fb610619565b6040519081526020015b60405180910390f35b61022161021c366004612541565b610659565b005b61022161023136600461255a565b6108ce565b6101fb61024436600461255a565b610a61565b610221610257366004612541565b610aa1565b61027a61026a3660046125d8565b630a85bd0160e11b949350505050565b6040516001600160e01b03199091168152602001610205565b6103546102a1366004612541565b6040805160e081018252600080825260208201819052918101829052606081018290526080810182905260a0810182905260c0810191909152506000908152600c6020908152604091829020825160e08101845281546001600160a01b03908116825260018301541692810192909252600281015492820192909252600382015460608201526004820154608082015260059091015460ff808216151560a084015261010090910416151560c082015290565b604051610205919081516001600160a01b0390811682526020808401519091169082015260408083015190820152606080830151908201526080808301519082015260a08281015115159082015260c09182015115159181019190915260e00190565b6102216103c5366004612541565b610e7b565b6003546103dd906001600160a01b031681565b6040516001600160a01b039091168152602001610205565b60045461040990600160a01b900460ff1681565b6040519015158152602001610205565b7f00000000000000000000000000000000000000000000000000000000000000006101fb565b6101fb61044d36600461269c565b6000928352600b602090815260408085209385529281528284206001600160a01b039290921684525290205490565b6102216110df565b61022161049236600461255a565b6110f3565b6002546103dd906001600160a01b031681565b6102216104b836600461255a565b61113d565b6102216104cb36600461255a565b6112bc565b6000546001600160a01b03166103dd565b6101fb6104ef36600461255a565b600091825260096020908152604080842092845291905290205490565b7f00000000000000000000000000000000000000000000000000000000000000006101fb565b6102216105403660046126d5565b611357565b6004546103dd906001600160a01b031681565b610221610566366004612707565b611381565b61022161057936600461255a565b6113a7565b61022161058c366004612541565b611727565b61022161059f366004612724565b6117d7565b6001546103dd906001600160a01b031681565b6101fb60055481565b6102216105ce3660046126d5565b61187f565b6101fb6105e1366004612541565b60009081526008602052604090205490565b610221610601366004612541565b6118f8565b610221610614366004612541565b611cff565b60007f00000000000000000000000000000000000000000000000000000000000000006005544261064a91906127ec565b61065491906127ff565b905090565b6000818152600c6020908152604091829020825160e08101845281546001600160a01b039081168252600183015416928101929092526002810154928201929092526003820154606082015260048201546080820181905260059092015460ff808216151560a084015261010090910416151560c0820152906106da610619565b116107215760405162461bcd60e51b8152602060048201526012602482015271115c1bd8da081b9bdd08199a5b9a5cda195960721b60448201526064015b60405180910390fd5b80516001600160a01b031633146107725760405162461bcd60e51b81526020600482015260156024820152742cb7ba9030b932903737ba103a34329037bbb732b960591b6044820152606401610718565b60808101516000908152600860205260409020546107a25760405162461bcd60e51b815260040161071890612821565b60408082015160808301516000908152600860205291909120541115806107ca57508060a001515b806107e0575060208101516001600160a01b0316155b6108225760405162461bcd60e51b815260206004820152601360248201527221b7bb32b9103cb7bab9103837b9b4ba34b7b760691b6044820152606401610718565b60808101516000908152600b602090815260408083208185015184528252808320338452909152902054156108645761086481608001518260400151336122df565b600154604051632142170760e11b81526001600160a01b03909116906342842e0e9061089890309033908790600401612867565b600060405180830381600087803b1580156108b257600080fd5b505af11580156108c6573d6000803e3d6000fd5b505050505050565b6108f97f0000000000000000000000000000000000000000000000000000000000000000600261288b565b7f00000000000000000000000000000000000000000000000000000000000000006109258460016128aa565b61092f919061288b565b60055461093c91906128aa565b61094691906127ec565b42116109645760405162461bcd60e51b8152600401610718906128bd565b6000828152600b6020908152604080832084845282528083203384528252808320548584526007835281842085855283528184205486855260098452828520868652909352908320549092906109ba848461288b565b6109c491906127ff565b6000868152600b60209081526040808320888452825280832033808552925280832092909255600254915163a9059cbb60e01b81526004810191909152602481018390529192506001600160a01b03169063a9059cbb906044016020604051808303816000875af1158015610a3d573d6000803e3d6000fd5b505050506040513d601f19601f820116820180604052508101906108c691906128f4565b6000828152600a6020908152604080832084845282528083205485845260098352818420858552909252822054610a9891906127ec565b90505b92915050565b6000818152600c60209081526040808320815160e08101835281546001600160a01b039081168252600183015416818501526002820154818401526003820154606082015260048201546080820181905260059092015460ff808216151560a084015261010090910416151560c0820152908452600890925290912054610b3a5760405162461bcd60e51b815260040161071890612821565b610b657f0000000000000000000000000000000000000000000000000000000000000000600261288b565b7f000000000000000000000000000000000000000000000000000000000000000082608001516001610b9791906128aa565b610ba1919061288b565b610bab91906127ec565b600554610bb890426127ec565b11610bfe5760405162461bcd60e51b815260206004820152601660248201527513dc1d1a5bdb881a185cc81b9bdd08195e1c1a5c995960521b6044820152606401610718565b604080820151608083015160009081526008602052919091205411610c605760405162461bcd60e51b81526020600482015260186024820152774f7074696f6e206578706972656420776f7274686c65737360401b6044820152606401610718565b60c08101511515600103610cb25760405162461bcd60e51b815260206004820152601960248201527813dc1d1a5bdb88185b1c9958591e481b1a5c5d5a59185d1959603a1b6044820152606401610718565b60208101516001600160a01b0316610d0c5760405162461bcd60e51b815260206004820152601b60248201527f4f7074696f6e2068617665206e6f74206265656e20626f7567687400000000006044820152606401610718565b8060a0015115610d575760405162461bcd60e51b815260206004820152601660248201527513dc1d1a5bdb88185b1c9958591e4818dbdd995c995960521b6044820152606401610718565b60408082015160808301516000908152600860205291822054610d7a91906127ec565b60025460208401516040516323b872dd60e01b81529293506001600160a01b03909116916323b872dd91610db5913391908690600401612867565b6020604051808303816000875af1158015610dd4573d6000803e3d6000fd5b505050506040513d601f19601f82011682018060405250810190610df891906128f4565b610e0157600080fd5b6000838152600c6020908152604091829020600501805460ff1916600117905560808401518482015183518781529283018590526001600160a01b0316928201929092523391907fcdf3d0954b60bcea25eab319eef284cb7bb68b899111767c1e929a55efba9b62906060015b60405180910390a3505050565b6000818152600c6020908152604091829020825160e08101845281546001600160a01b03908116825260018301541692810183905260028201549381019390935260038101546060840152600481015460808401526005015460ff808216151560a085015261010090910416151560c08301523314610f3c5760405162461bcd60e51b815260206004820152601960248201527f596f7520646f6e2774206f776e2074686973206f7074696f6e000000000000006044820152606401610718565b8060800151610f49610619565b11610f8b5760405162461bcd60e51b8152602060048201526012602482015271115c1bd8da081b9bdd08199a5b9a5cda195960721b6044820152606401610718565b8060a0015115610fd05760405162461bcd60e51b815260206004820152601060248201526f141bdcda5d1a5bdb8818dbdd995c995960821b6044820152606401610718565b600254815160408084015190516323b872dd60e01b81526001600160a01b03909316926323b872dd92611007923392600401612867565b6020604051808303816000875af1158015611026573d6000803e3d6000fd5b505050506040513d601f19601f8201168201806040525081019061104a91906128f4565b61108d5760405162461bcd60e51b8152602060048201526014602482015273506c656173652073657420616c6c6f77616e636560601b6044820152606401610718565b8060c00151156108645760405162461bcd60e51b815260206004820152601960248201527f6f7074696f6e20616c7265616479206c697175696461746564000000000000006044820152606401610718565b6110e7612497565b6110f160006124f1565b565b6004805460015460405163a7ff3b2360e01b81526001600160a01b03918216938101939093526024830185905260448301849052336064840152169063a7ff3b2390608401610898565b6000611147610619565b6111529060016128aa565b600081815260066020908152604080832086845290915290205490915060ff1661118e5760405162461bcd60e51b815260040161071890612911565b600154604051632142170760e11b81526001600160a01b03909116906342842e0e906111c290339030908890600401612867565b600060405180830381600087803b1580156111dc57600080fd5b505af11580156111f0573d6000803e3d6000fd5b5050506000848152600c60209081526040808320600281018790558054336001600160a01b0319918216811783556004830188905560019283018054909216909155868552600984528285208886528452828520805492830181558552838520909101889055858452600b835281842087855283528184209084529091528120805490925061127e9061293c565b909155506040805184815260208101849052339183917f12852e9691a3b4a507fdb1c3478087805e515ec2d7da612d9deb1b9010c1eca49101610e6e565b6112c4612497565b600081116113065760405162461bcd60e51b815260206004820152600f60248201526e0466c6f6f72207072696365203c203608c1b6044820152606401610718565b600082815260086020526040908190208290555182907fd0c77e56cd2323339048d90b422e11cdef714664667e099ece9c2cf153a2d3979061134b9084815260200190565b60405180910390a25050565b61135f612497565b600480546001600160a01b0319166001600160a01b0392909216919091179055565b611389612497565b60048054911515600160a01b0260ff60a01b19909216919091179055565b6000828152600c60209081526040808320815160e08101835281546001600160a01b0390811682526001830154169381019390935260028101549183019190915260038101546060830152600481015460808301526005015460ff808216151560a084015261010090910416151560c082015290611423610619565b61142e9060016128aa565b905061145b7f0000000000000000000000000000000000000000000000000000000000000000600261288b565b7f0000000000000000000000000000000000000000000000000000000000000000836080015161148b919061288b565b61149591906127ec565b6005546114a290426127ec565b116114e85760405162461bcd60e51b815260206004820152601660248201527513dc1d1a5bdb881a185cc81b9bdd08195e1c1a5c995960521b6044820152606401610718565b81516001600160a01b031633146115395760405162461bcd60e51b81526020600482015260156024820152742cb7ba9030b932903737ba103a34329037bbb732b960591b6044820152606401610718565b60808201516000908152600860205260409020546115695760405162461bcd60e51b815260040161071890612821565b604080830151608084015160009081526008602052919091205411158061159157508160a001515b806115a7575060208201516001600160a01b0316155b6115e95760405162461bcd60e51b815260206004820152601360248201527221b7bb32b9103cb7bab9103837b9b4ba34b7b760691b6044820152606401610718565b600081815260066020908152604080832086845290915290205460ff166116225760405162461bcd60e51b815260040161071890612911565b60808201516000908152600b602090815260408083208186015184528252808320338452909152902054156116645761166482608001518360400151336122df565b6000848152600c602090815260408083206002810187905560048101859055600190810180546001600160a01b031916905584845260098352818420878552835281842080549182018155845282842001879055838352600b82528083208684528252808320338452909152812080549091906116e09061293c565b909155506040805185815260208101859052339183917fc5cf73bbf9412234d340e19996e27e6404eca00fe162d78240d124dff861876a910160405180910390a350505050565b600480546001546040516315170a1760e21b81526001600160a01b039283169363545c285c9361175d9316913091879101612867565b6020604051808303816000875af115801561177c573d6000803e3d6000fd5b505050506040513d601f19601f820116820180604052508101906117a091906128f4565b6117a957600080fd5b6000908152600c6020526040902060058101805461ffff1916600117905580546001600160a01b0319169055565b6117df612497565b60005b8151811461184e57600083815260066020526040812083516001929085908590811061181057611810612955565b6020026020010151815260200190815260200160002060006101000a81548160ff021916908315150217905550806118479061293c565b90506117e2565b50817f8b9dd3ac74d0614c084d8047cb199d3f08e72903980760ba021d7719e364014e8260405161134b919061296b565b611887612497565b6001600160a01b0381166118ec5760405162461bcd60e51b815260206004820152602660248201527f4f776e61626c653a206e6577206f776e657220697320746865207a65726f206160448201526564647265737360d01b6064820152608401610718565b6118f5816124f1565b50565b6000818152600c6020908152604091829020825160e08101845281546001600160a01b03908116825260018301541692810192909252600281015492820192909252600382015460608201526004808301546080830181905260059093015460ff808216151560a08501526101009091048116151560c08401529054919291600160a01b9004161561198957600080fd5b7f00000000000000000000000000000000000000000000000000000000000000007f0000000000000000000000000000000000000000000000000000000000000000836080015160016119dc91906128aa565b6119e6919061288b565b6119f091906128aa565b6005546119fd90426127ec565b11611a4a5760405162461bcd60e51b815260206004820181905260248201527f4c69717569646174696f6e20706572696f642069736e277420726561636865646044820152606401610718565b600081815260086020526040902054611a755760405162461bcd60e51b815260040161071890612821565b60408083015160008381526008602052919091205411611ad25760405162461bcd60e51b81526020600482015260186024820152774f7074696f6e206578706972656420776f7274686c65737360401b6044820152606401610718565b8160a0015115611b175760405162461bcd60e51b815260206004820152601060248201526f141bdcda5d1a5bdb8818dbdd995c995960821b6044820152606401610718565b60c08201511515600103611b695760405162461bcd60e51b815260206004820152601960248201527813dc1d1a5bdb88185b1c9958591e481b1a5c5d5a59185d1959603a1b6044820152606401610718565b6000838152600c6020908152604080832060058101805461ff00191661010017905580546001600160a01b0319169055848101518484526008909252822054611bb291906127ec565b600083815260086020526040812054919250906103e890611bf4907f00000000000000000000000000000000000000000000000000000000000000009061288b565b611bfe91906127ff565b60048054600154875160208901516040516355a0e22960e01b81526001600160a01b0393841695810195909552602485018b90526044850186905290821660648501528116608484015260a4830186905292935091909116906355a0e2299060c401600060405180830381600087803b158015611c7a57600080fd5b505af1158015611c8e573d6000803e3d6000fd5b50505050847f2e89d436d71507ecb25e79045c0f361b1f3410fb872d034e7b79bb1c245ce658828660000151876020015186604051611cf094939291909384526001600160a01b03928316602085015291166040830152606082015260800190565b60405180910390a25050505050565b6000611d09610619565b600081815260066020908152604080832086845290915290205490915060ff16611d455760405162461bcd60e51b815260040161071890612911565b6000818152600960209081526040808320858452825280832054848452600a83528184208685529092529091205410611dc05760405162461bcd60e51b815260206004820152601c60248201527f416c6c206f7074696f6e732068617665206265656e20626f75676874000000006044820152606401610718565b611deb7f0000000000000000000000000000000000000000000000000000000000000000600261288b565b7f0000000000000000000000000000000000000000000000000000000000000000611e14610619565b611e1f9060016128aa565b611e29919061288b565b600554611e3691906128aa565b611e4091906127ec565b4210611e5e5760405162461bcd60e51b8152600401610718906128bd565b600080600360009054906101000a90046001600160a01b03166001600160a01b03166310a692e76040518163ffffffff1660e01b8152600401602060405180830381865afa158015611eb4573d6000803e3d6000fd5b505050506040513d601f19601f82011682018060405250810190611ed891906129af565b6001546040516373be031f60e01b81526001600160a01b0391821660048201529116906373be031f906024016040805180830381865afa158015611f20573d6000803e3d6000fd5b505050506040513d601f19601f82011682018060405250810190611f4491906129cc565b915091506000600360009054906101000a90046001600160a01b03166001600160a01b031663ef32fcbc6040518163ffffffff1660e01b8152600401602060405180830381865afa158015611f9d573d6000803e3d6000fd5b505050506040513d601f19601f82011682018060405250810190611fc191906129af565b6001600160a01b0316635b7b6d8860007f0000000000000000000000000000000000000000000000000000000000000000611ffd8860016128aa565b612007919061288b565b60055461201491906128aa565b6040516001600160e01b031960e085901b1681529115156004830152602482015260448101889052606481018590526084810186905260a401602060405180830381865afa15801561206a573d6000803e3d6000fd5b505050506040513d601f19601f8201168201806040525081019061208e91906129f0565b6002546040516323b872dd60e01b81529192506001600160a01b0316906323b872dd906120c390339030908690600401612867565b6020604051808303816000875af11580156120e2573d6000803e3d6000fd5b505050506040513d601f19601f8201168201806040525081019061210691906128f4565b61210f57600080fd5b6000848152600a6020908152604080832088845282528083205487845260098352818420898552909252822054600191612148916127ec565b61215291906127ec565b6000868152600a602090815260408083208a8452909152812080549293509161217a9061293c565b909155506000858152600760209081526040808320898452909152812080548492906121a79084906128aa565b9091555050600085815260096020908152604080832089845290915281208054839081106121d7576121d7612955565b6000918252602080832090910154808352600c9091526040909120600101549091506001600160a01b03161561225b5760405162461bcd60e51b815260206004820152602360248201527f54686973206f7074696f6e2068617320616c7265616479206265656e20626f7560448201526219da1d60ea1b6064820152608401610718565b6000818152600c60209081526040918290206001810180546001600160a01b03191633908117909155905483518581529283018b90529282018690526001600160a01b03909216606082015287907f4af1c729c11ed63e83da76e187d5765dd9ed12d695a028e9134a5633bda88abe9060800160405180910390a350505050505050565b61230a7f0000000000000000000000000000000000000000000000000000000000000000600261288b565b7f00000000000000000000000000000000000000000000000000000000000000006123368560016128aa565b612340919061288b565b60055461234d91906128aa565b61235791906127ec565b42116123755760405162461bcd60e51b8152600401610718906128bd565b6000838152600b6020908152604080832085845282528083206001600160a01b03851684528252808320548684526007835281842086855283528184205487855260098452828520878652909352908320549092906123d4848461288b565b6123de91906127ff565b6000878152600b6020908152604080832089845282528083206001600160a01b03808a168552925280832092909255600254915163a9059cbb60e01b8152929350169063a9059cbb9061244b90879085906004016001600160a01b03929092168252602082015260400190565b6020604051808303816000875af115801561246a573d6000803e3d6000fd5b505050506040513d601f19601f8201168201806040525081019061248e91906128f4565b50505050505050565b6000546001600160a01b031633146110f15760405162461bcd60e51b815260206004820181905260248201527f4f776e61626c653a2063616c6c6572206973206e6f7420746865206f776e65726044820152606401610718565b600080546001600160a01b038381166001600160a01b0319831681178455604051919092169283917f8be0079c531659141344cd1fd0a4f28419497f9722a3daafe3b4186f6b6457e09190a35050565b60006020828403121561255357600080fd5b5035919050565b6000806040838503121561256d57600080fd5b50508035926020909101359150565b6001600160a01b03811681146118f557600080fd5b634e487b7160e01b600052604160045260246000fd5b604051601f8201601f1916810167ffffffffffffffff811182821017156125d0576125d0612591565b604052919050565b600080600080608085870312156125ee57600080fd5b84356125f98161257c565b935060208581013561260a8161257c565b935060408601359250606086013567ffffffffffffffff8082111561262e57600080fd5b818801915088601f83011261264257600080fd5b81358181111561265457612654612591565b612666601f8201601f191685016125a7565b9150808252898482850101111561267c57600080fd5b808484018584013760008482840101525080935050505092959194509250565b6000806000606084860312156126b157600080fd5b833592506020840135915060408401356126ca8161257c565b809150509250925092565b6000602082840312156126e757600080fd5b81356126f28161257c565b9392505050565b80151581146118f557600080fd5b60006020828403121561271957600080fd5b81356126f2816126f9565b6000806040838503121561273757600080fd5b8235915060208084013567ffffffffffffffff8082111561275757600080fd5b818601915086601f83011261276b57600080fd5b81358181111561277d5761277d612591565b8060051b915061278e8483016125a7565b81815291830184019184810190898411156127a857600080fd5b938501935b838510156127c6578435825293850193908501906127ad565b8096505050505050509250929050565b634e487b7160e01b600052601160045260246000fd5b81810381811115610a9b57610a9b6127d6565b60008261281c57634e487b7160e01b600052601260045260246000fd5b500490565b60208082526026908201527f466c6f6f72207072696365206e6f7420736574746c656420666f722074686973604082015265040cae0dec6d60d31b606082015260800190565b6001600160a01b039384168152919092166020820152604081019190915260600190565b60008160001904831182151516156128a5576128a56127d6565b500290565b80820180821115610a9b57610a9b6127d6565b60208082526019908201527f4f7074696f6e206469646e277420657870697265642079657400000000000000604082015260600190565b60006020828403121561290657600080fd5b81516126f2816126f9565b60208082526011908201527057726f6e6720737472696b65507269636560781b604082015260600190565b60006001820161294e5761294e6127d6565b5060010190565b634e487b7160e01b600052603260045260246000fd5b6020808252825182820181905260009190848201906040850190845b818110156129a357835183529284019291840191600101612987565b50909695505050505050565b6000602082840312156129c157600080fd5b81516126f28161257c565b600080604083850312156129df57600080fd5b505080516020909101519092909150565b600060208284031215612a0257600080fd5b505191905056fea26469706673582212202c0c0a597d506ff2ad8d34837d87309f9769b50f5523ce25cb00f09c788f25ee64736f6c63430008100033a2646970667358221220b18527d9d28b817e9ffc691fefa84e71754a30c4078d5b1cb5c9e4940364220564736f6c63430008100033",
    "linkReferences": {}
  },
  "methodIdentifiers": {
    "deployPool(address)": "29a13494",
    "erasePool(address)": "dc1648dc",
    "erc20()": "785e9e86",
    "erc721(uint256)": "e81acf3d",
    "getAmountLockedAt(address,uint256,uint256)": "5fcdc9dd",
    "getAuctionManager()": "b62e6c19",
    "getEpochDuration(address)": "5c534359",
    "getEpoch_2e(address)": "93db1505",
    "getInterval(address)": "2466c51b",
    "getOptionAvailableAt(address,uint256,uint256)": "d2836401",
    "getOptionPricing()": "ef32fcbc",
    "getPoolFromTokenAddress(address)": "1bf2c651",
    "getSharesAtOf(address,uint256,uint256,address)": "7acc8208",
    "getVolatilityOracle()": "10a692e7",
    "getfloorprice(address,uint256)": "61e70dfd",
    "owner()": "8da5cb5b",
    "pools(address)": "a4063dbc",
    "renounceOwnership()": "715018a6",
    "setAuctionManager(address)": "95e4cacb",
    "setOptionPricing(address)": "f6a76a81",
    "setPoolAuctionManager(address,address)": "c701f40c",
    "setVolatilityOracle(address)": "9c78a526",
    "transferOwnership(address)": "f2fde38b"
  },
  "id": 35
}