{
  "abi": [
    {
      "inputs": [
        {
          "internalType": "address",
          "name": "_erc20",
          "type": "address"
        }
      ],
      "stateMutability": "nonpayable",
      "type": "constructor"
    },
    {
      "anonymous": false,
      "inputs": [
        {
          "indexed": true,
          "internalType": "address",
          "name": "previousOwner",
          "type": "address"
        },
        {
          "indexed": true,
          "internalType": "address",
          "name": "newOwner",
          "type": "address"
        }
      ],
      "name": "OwnershipTransferred",
      "type": "event"
    },
    {
      "anonymous": false,
      "inputs": [
        {
          "indexed": false,
          "internalType": "address",
          "name": "erc721",
          "type": "address"
        },
        {
          "indexed": false,
          "internalType": "address",
          "name": "erc20",
          "type": "address"
        },
        {
          "indexed": false,
          "internalType": "address",
          "name": "pool",
          "type": "address"
        }
      ],
      "name": "PoolDeployed",
      "type": "event"
    },
    {
      "inputs": [
        {
          "internalType": "contract TransparentUpgradeableProxy",
          "name": "proxy",
          "type": "address"
        },
        {
          "internalType": "address",
          "name": "newAdmin",
          "type": "address"
        }
      ],
      "name": "changeProxyAdmin",
      "outputs": [],
      "stateMutability": "nonpayable",
      "type": "function"
    },
    {
      "inputs": [
        {
          "internalType": "address",
          "name": "_erc721",
          "type": "address"
        }
      ],
      "name": "deployPool",
      "outputs": [
        {
          "internalType": "address",
          "name": "pool",
          "type": "address"
        }
      ],
      "stateMutability": "nonpayable",
      "type": "function"
    },
    {
      "inputs": [],
      "name": "erc20",
      "outputs": [
        {
          "internalType": "address",
          "name": "",
          "type": "address"
        }
      ],
      "stateMutability": "view",
      "type": "function"
    },
    {
      "inputs": [
        {
          "internalType": "uint256",
          "name": "",
          "type": "uint256"
        }
      ],
      "name": "erc721",
      "outputs": [
        {
          "internalType": "address",
          "name": "",
          "type": "address"
        }
      ],
      "stateMutability": "view",
      "type": "function"
    },
    {
      "inputs": [
        {
          "internalType": "address",
          "name": "_pool",
          "type": "address"
        },
        {
          "internalType": "uint256",
          "name": "_epoch",
          "type": "uint256"
        },
        {
          "internalType": "uint256",
          "name": "_strikePrice",
          "type": "uint256"
        }
      ],
      "name": "getAmountLockedAt",
      "outputs": [
        {
          "internalType": "uint256",
          "name": "",
          "type": "uint256"
        }
      ],
      "stateMutability": "view",
      "type": "function"
    },
    {
      "inputs": [],
      "name": "getAuctionManager",
      "outputs": [
        {
          "internalType": "address",
          "name": "",
          "type": "address"
        }
      ],
      "stateMutability": "view",
      "type": "function"
    },
    {
      "inputs": [
        {
          "internalType": "address",
          "name": "_pool",
          "type": "address"
        }
      ],
      "name": "getEpochDuration",
      "outputs": [
        {
          "internalType": "uint256",
          "name": "epochduration",
          "type": "uint256"
        }
      ],
      "stateMutability": "view",
      "type": "function"
    },
    {
      "inputs": [
        {
          "internalType": "address",
          "name": "_pool",
          "type": "address"
        }
      ],
      "name": "getEpoch_2e",
      "outputs": [
        {
          "internalType": "uint256",
          "name": "",
          "type": "uint256"
        }
      ],
      "stateMutability": "view",
      "type": "function"
    },
    {
      "inputs": [
        {
          "internalType": "address",
          "name": "_pool",
          "type": "address"
        },
        {
          "internalType": "uint256",
          "name": "_epoch",
          "type": "uint256"
        }
      ],
      "name": "getFloorPrice",
      "outputs": [
        {
          "internalType": "uint256",
          "name": "",
          "type": "uint256"
        }
      ],
      "stateMutability": "view",
      "type": "function"
    },
    {
      "inputs": [
        {
          "internalType": "address",
          "name": "_pool",
          "type": "address"
        }
      ],
      "name": "getInterval",
      "outputs": [
        {
          "internalType": "uint256",
          "name": "interval",
          "type": "uint256"
        }
      ],
      "stateMutability": "view",
      "type": "function"
    },
    {
      "inputs": [
        {
          "internalType": "address",
          "name": "_pool",
          "type": "address"
        },
        {
          "internalType": "uint256",
          "name": "_epoch",
          "type": "uint256"
        },
        {
          "internalType": "uint256",
          "name": "_strikePrice",
          "type": "uint256"
        }
      ],
      "name": "getOptionAvailableAt",
      "outputs": [
        {
          "internalType": "uint256",
          "name": "",
          "type": "uint256"
        }
      ],
      "stateMutability": "view",
      "type": "function"
    },
    {
      "inputs": [],
      "name": "getOptionPricing",
      "outputs": [
        {
          "internalType": "address",
          "name": "",
          "type": "address"
        }
      ],
      "stateMutability": "view",
      "type": "function"
    },
    {
      "inputs": [
        {
          "internalType": "address",
          "name": "_tokenAddress",
          "type": "address"
        }
      ],
      "name": "getPoolFromTokenAddress",
      "outputs": [
        {
          "internalType": "address",
          "name": "",
          "type": "address"
        }
      ],
      "stateMutability": "view",
      "type": "function"
    },
    {
      "inputs": [
        {
          "internalType": "contract TransparentUpgradeableProxy",
          "name": "proxy",
          "type": "address"
        }
      ],
      "name": "getProxyAdmin",
      "outputs": [
        {
          "internalType": "address",
          "name": "",
          "type": "address"
        }
      ],
      "stateMutability": "view",
      "type": "function"
    },
    {
      "inputs": [
        {
          "internalType": "contract TransparentUpgradeableProxy",
          "name": "proxy",
          "type": "address"
        }
      ],
      "name": "getProxyImplementation",
      "outputs": [
        {
          "internalType": "address",
          "name": "",
          "type": "address"
        }
      ],
      "stateMutability": "view",
      "type": "function"
    },
    {
      "inputs": [
        {
          "internalType": "address",
          "name": "_pool",
          "type": "address"
        },
        {
          "internalType": "uint256",
          "name": "_epoch",
          "type": "uint256"
        },
        {
          "internalType": "uint256",
          "name": "_strikePrice",
          "type": "uint256"
        },
        {
          "internalType": "address",
          "name": "_add",
          "type": "address"
        }
      ],
      "name": "getSharesAtOf",
      "outputs": [
        {
          "internalType": "uint256",
          "name": "",
          "type": "uint256"
        }
      ],
      "stateMutability": "view",
      "type": "function"
    },
    {
      "inputs": [],
      "name": "getVolatilityOracle",
      "outputs": [
        {
          "internalType": "address",
          "name": "",
          "type": "address"
        }
      ],
      "stateMutability": "view",
      "type": "function"
    },
    {
      "inputs": [],
      "name": "owner",
      "outputs": [
        {
          "internalType": "address",
          "name": "",
          "type": "address"
        }
      ],
      "stateMutability": "view",
      "type": "function"
    },
    {
      "inputs": [
        {
          "internalType": "address",
          "name": "",
          "type": "address"
        }
      ],
      "name": "pools",
      "outputs": [
        {
          "internalType": "contract TransparentUpgradeableProxy",
          "name": "",
          "type": "address"
        }
      ],
      "stateMutability": "view",
      "type": "function"
    },
    {
      "inputs": [],
      "name": "renounceOwnership",
      "outputs": [],
      "stateMutability": "nonpayable",
      "type": "function"
    },
    {
      "inputs": [
        {
          "internalType": "address",
          "name": "_auctionManager",
          "type": "address"
        }
      ],
      "name": "setAuctionManager",
      "outputs": [],
      "stateMutability": "nonpayable",
      "type": "function"
    },
    {
      "inputs": [
        {
          "internalType": "address",
          "name": "_optionPricing",
          "type": "address"
        }
      ],
      "name": "setOptionPricing",
      "outputs": [],
      "stateMutability": "nonpayable",
      "type": "function"
    },
    {
      "inputs": [
        {
          "internalType": "address",
          "name": "_pool",
          "type": "address"
        },
        {
          "internalType": "address",
          "name": "_auctionManager",
          "type": "address"
        }
      ],
      "name": "setPoolAuctionManager",
      "outputs": [],
      "stateMutability": "nonpayable",
      "type": "function"
    },
    {
      "inputs": [
        {
          "internalType": "address",
          "name": "_poolImplementation",
          "type": "address"
        }
      ],
      "name": "setPoolImplementation",
      "outputs": [],
      "stateMutability": "nonpayable",
      "type": "function"
    },
    {
      "inputs": [
        {
          "internalType": "address",
          "name": "_volatilityOracle",
          "type": "address"
        }
      ],
      "name": "setVolatilityOracle",
      "outputs": [],
      "stateMutability": "nonpayable",
      "type": "function"
    },
    {
      "inputs": [
        {
          "internalType": "address",
          "name": "newOwner",
          "type": "address"
        }
      ],
      "name": "transferOwnership",
      "outputs": [],
      "stateMutability": "nonpayable",
      "type": "function"
    },
    {
      "inputs": [
        {
          "internalType": "contract TransparentUpgradeableProxy",
          "name": "proxy",
          "type": "address"
        },
        {
          "internalType": "address",
          "name": "implementation",
          "type": "address"
        }
      ],
      "name": "upgrade",
      "outputs": [],
      "stateMutability": "nonpayable",
      "type": "function"
    },
    {
      "inputs": [
        {
          "internalType": "contract TransparentUpgradeableProxy",
          "name": "proxy",
          "type": "address"
        },
        {
          "internalType": "address",
          "name": "implementation",
          "type": "address"
        },
        {
          "internalType": "bytes",
          "name": "data",
          "type": "bytes"
        }
      ],
      "name": "upgradeAndCall",
      "outputs": [],
      "stateMutability": "payable",
      "type": "function"
    }
  ],
  "bytecode": {
    "object": "0x608060405234801561001057600080fd5b506040516120f83803806120f883398101604081905261002f916100ad565b6100383361005d565b600180546001600160a01b0319166001600160a01b03929092169190911790556100dd565b600080546001600160a01b038381166001600160a01b0319831681178455604051919092169283917f8be0079c531659141344cd1fd0a4f28419497f9722a3daafe3b4186f6b6457e09190a35050565b6000602082840312156100bf57600080fd5b81516001600160a01b03811681146100d657600080fd5b9392505050565b61200c806100ec6000396000f3fe608060405260043610620001db5760003560e01c806395e4cacb11620000ff578063d28364011162000095578063ef32fcbc116200006c578063ef32fcbc146200059d578063f2fde38b14620005bd578063f3b7dead14620005e2578063f6a76a81146200060757600080fd5b8063d28364011462000512578063d6f748981462000537578063e81acf3d146200057857600080fd5b80639c78a52611620000d65780639c78a526146200046e578063a4063dbc1462000493578063b62e6c1914620004cd578063c701f40c14620004ed57600080fd5b806395e4cacb146200040d5780639623609d146200043257806399a88ec4146200044957600080fd5b8063715018a611620001755780637acc8208116200014c5780637acc8208146200037e5780637eff275e14620003a35780638da5cb5b14620003c857806393db150514620003e857600080fd5b8063715018a6146200031d578063785e9e8614620003375780637996eef0146200035957600080fd5b80632466c51b11620001b65780632466c51b146200027a57806329a1349414620002ae5780635c53435914620002d35780635fcdc9dd14620002f857600080fd5b806310a692e714620001e05780631bf2c6511462000218578063204e1c7a1462000255575b600080fd5b348015620001ed57600080fd5b506006546001600160a01b03165b6040516001600160a01b0390911681526020015b60405180910390f35b3480156200022557600080fd5b50620001fb6200023736600462000e90565b6001600160a01b039081166000908152600260205260409020541690565b3480156200026257600080fd5b50620001fb6200027436600462000e90565b6200062c565b3480156200028757600080fd5b506200029f6200029936600462000e90565b620006c3565b6040519081526020016200020f565b348015620002bb57600080fd5b50620001fb620002cd36600462000e90565b62000730565b348015620002e057600080fd5b506200029f620002f236600462000e90565b620008cf565b3480156200030557600080fd5b506200029f6200031736600462000eb0565b62000910565b3480156200032a57600080fd5b506200033562000987565b005b3480156200034457600080fd5b50600154620001fb906001600160a01b031681565b3480156200036657600080fd5b506200029f6200037836600462000ee8565b6200099f565b3480156200038b57600080fd5b506200029f6200039d36600462000f17565b62000a15565b348015620003b057600080fd5b5062000335620003c236600462000f66565b62000a9d565b348015620003d557600080fd5b506000546001600160a01b0316620001fb565b348015620003f557600080fd5b506200029f6200040736600462000e90565b62000b09565b3480156200041a57600080fd5b50620003356200042c36600462000e90565b62000b48565b620003356200044336600462000fba565b62000b74565b3480156200045657600080fd5b50620003356200046836600462000f66565b62000be9565b3480156200047b57600080fd5b50620003356200048d36600462000e90565b62000c22565b348015620004a057600080fd5b50620001fb620004b236600462000e90565b6002602052600090815260409020546001600160a01b031681565b348015620004da57600080fd5b506004546001600160a01b0316620001fb565b348015620004fa57600080fd5b50620003356200050c36600462000f66565b62000c4e565b3480156200051f57600080fd5b506200029f6200053136600462000eb0565b62000c87565b3480156200054457600080fd5b50620003356200055636600462000e90565b600780546001600160a01b0319166001600160a01b0392909216919091179055565b3480156200058557600080fd5b50620001fb620005973660046200109e565b62000cbf565b348015620005aa57600080fd5b506005546001600160a01b0316620001fb565b348015620005ca57600080fd5b5062000335620005dc36600462000e90565b62000cea565b348015620005ef57600080fd5b50620001fb6200060136600462000e90565b62000d6d565b3480156200061457600080fd5b50620003356200062636600462000e90565b62000d94565b6000806000836001600160a01b03166040516200065390635c60da1b60e01b815260040190565b600060405180830381855afa9150503d806000811462000690576040519150601f19603f3d011682016040523d82523d6000602084013e62000695565b606091505b509150915081620006a557600080fd5b80806020019051810190620006bb9190620010b8565b949350505050565b6000816001600160a01b03166391ad27b46040518163ffffffff1660e01b8152600401602060405180830381865afa15801562000704573d6000803e3d6000fd5b505050506040513d601f19601f820116820180604052508101906200072a9190620010d8565b92915050565b60006200073c62000dc0565b6001600160a01b0382811660009081526002602052604090205416156200076257600080fd5b6007546001546004546005546006546040516001600160a01b038881166024830152948516604482015292841660648401529083166084830152821660a48201523360c48201526000929190911690309060e40160408051601f198184030181529181526020820180516001600160e01b031663cc2a9a5b60e01b17905251620007ec9062000e6c565b620007fa939291906200113a565b604051809103906000f08015801562000817573d6000803e3d6000fd5b506001600160a01b03848116600081815260026020908152604080832080546001600160a01b03199081168888169081179092556003805460018181018355919096527fc2575a0e9e593c00f959f8c92f12db2869c3395a3b0502d05e2516446f71f85b90950180549091168617905592548151948552909416908301528183015290519192507f04c12766244f2559dd215eecd69f70fdfce0e2c2260b5d52cb8b63738622eaa4919081900360600190a192915050565b6000816001600160a01b0316635d3ea8f16040518163ffffffff1660e01b8152600401602060405180830381865afa15801562000704573d6000803e3d6000fd5b6040516348814a6560e11b815260048101839052602481018290526000906001600160a01b0385169063910294ca906044015b602060405180830381865afa15801562000961573d6000803e3d6000fd5b505050506040513d601f19601f82011682018060405250810190620006bb9190620010d8565b6200099162000dc0565b6200099d600062000e1c565b565b60405163165a99e360e31b8152600481018290526000906001600160a01b0384169063b2d4cf1890602401602060405180830381865afa158015620009e8573d6000803e3d6000fd5b505050506040513d601f19601f8201168201806040525081019062000a0e9190620010d8565b9392505050565b604051632f3e1fcd60e11b815260048101849052602481018390526001600160a01b03828116604483015260009190861690635e7c3f9a90606401602060405180830381865afa15801562000a6e573d6000803e3d6000fd5b505050506040513d601f19601f8201168201806040525081019062000a949190620010d8565b95945050505050565b62000aa762000dc0565b6040516308f2839760e41b81526001600160a01b038281166004830152831690638f283970906024015b600060405180830381600087803b15801562000aec57600080fd5b505af115801562000b01573d6000803e3d6000fd5b505050505050565b6000816001600160a01b031661ae4a6040518163ffffffff1660e01b8152600401602060405180830381865afa15801562000704573d6000803e3d6000fd5b62000b5262000dc0565b600480546001600160a01b0319166001600160a01b0392909216919091179055565b62000b7e62000dc0565b60405163278f794360e11b81526001600160a01b03841690634f1ef28690349062000bb0908690869060040162001168565b6000604051808303818588803b15801562000bca57600080fd5b505af115801562000bdf573d6000803e3d6000fd5b5050505050505050565b62000bf362000dc0565b604051631b2ce7f360e11b81526001600160a01b038281166004830152831690633659cfe69060240162000ad1565b62000c2c62000dc0565b600680546001600160a01b0319166001600160a01b0392909216919091179055565b62000c5862000dc0565b6040516395e4cacb60e01b81526001600160a01b0382811660048301528316906395e4cacb9060240162000ad1565b60405163086e0f0960e01b815260048101839052602481018290526000906001600160a01b0385169063086e0f099060440162000943565b6003818154811062000cd057600080fd5b6000918252602090912001546001600160a01b0316905081565b62000cf462000dc0565b6001600160a01b03811662000d5f5760405162461bcd60e51b815260206004820152602660248201527f4f776e61626c653a206e6577206f776e657220697320746865207a65726f206160448201526564647265737360d01b60648201526084015b60405180910390fd5b62000d6a8162000e1c565b50565b6000806000836001600160a01b031660405162000653906303e1469160e61b815260040190565b62000d9e62000dc0565b600580546001600160a01b0319166001600160a01b0392909216919091179055565b6000546001600160a01b031633146200099d5760405162461bcd60e51b815260206004820181905260248201527f4f776e61626c653a2063616c6c6572206973206e6f7420746865206f776e6572604482015260640162000d56565b600080546001600160a01b038381166001600160a01b0319831681178455604051919092169283917f8be0079c531659141344cd1fd0a4f28419497f9722a3daafe3b4186f6b6457e09190a35050565b610e48806200118f83390190565b6001600160a01b038116811462000d6a57600080fd5b60006020828403121562000ea357600080fd5b813562000a0e8162000e7a565b60008060006060848603121562000ec657600080fd5b833562000ed38162000e7a565b95602085013595506040909401359392505050565b6000806040838503121562000efc57600080fd5b823562000f098162000e7a565b946020939093013593505050565b6000806000806080858703121562000f2e57600080fd5b843562000f3b8162000e7a565b93506020850135925060408501359150606085013562000f5b8162000e7a565b939692955090935050565b6000806040838503121562000f7a57600080fd5b823562000f878162000e7a565b9150602083013562000f998162000e7a565b809150509250929050565b634e487b7160e01b600052604160045260246000fd5b60008060006060848603121562000fd057600080fd5b833562000fdd8162000e7a565b9250602084013562000fef8162000e7a565b9150604084013567ffffffffffffffff808211156200100d57600080fd5b818601915086601f8301126200102257600080fd5b81358181111562001037576200103762000fa4565b604051601f8201601f19908116603f0116810190838211818310171562001062576200106262000fa4565b816040528281528960208487010111156200107c57600080fd5b8260208601602083013760006020848301015280955050505050509250925092565b600060208284031215620010b157600080fd5b5035919050565b600060208284031215620010cb57600080fd5b815162000a0e8162000e7a565b600060208284031215620010eb57600080fd5b5051919050565b6000815180845260005b818110156200111a57602081850181015186830182015201620010fc565b506000602082860101526020601f19601f83011685010191505092915050565b6001600160a01b0384811682528316602082015260606040820181905260009062000a9490830184620010f2565b6001600160a01b0383168152604060208201819052600090620006bb90830184620010f256fe608060405260405162000e4838038062000e48833981016040819052620000269162000497565b828162000036828260006200004d565b50620000449050826200008a565b505050620005ca565b6200005883620000e5565b600082511180620000665750805b1562000085576200008383836200012760201b6200021a1760201c565b505b505050565b7f7e644d79422f17c01e4894b5f4f588d331ebfa28653d42ae832dc59e38c9798f620000b562000156565b604080516001600160a01b03928316815291841660208301520160405180910390a1620000e2816200018f565b50565b620000f08162000244565b6040516001600160a01b038216907fbc7cd75a20ee27fd9adebab32041f755214dbc6bffa90cc0225b39da2e5c2d3b90600090a250565b60606200014f838360405180606001604052806027815260200162000e2160279139620002f8565b9392505050565b60006200018060008051602062000e0183398151915260001b6200037760201b620001c61760201c565b546001600160a01b0316919050565b6001600160a01b038116620001fa5760405162461bcd60e51b815260206004820152602660248201527f455243313936373a206e65772061646d696e20697320746865207a65726f206160448201526564647265737360d01b60648201526084015b60405180910390fd5b806200022360008051602062000e0183398151915260001b6200037760201b620001c61760201c565b80546001600160a01b0319166001600160a01b039290921691909117905550565b6200025a816200037a60201b620002461760201c565b620002be5760405162461bcd60e51b815260206004820152602d60248201527f455243313936373a206e657720696d706c656d656e746174696f6e206973206e60448201526c1bdd08184818dbdb9d1c9858dd609a1b6064820152608401620001f1565b80620002237f360894a13ba1a3210667c828492db98dca3e2076cc3735a920a3ca505d382bbc60001b6200037760201b620001c61760201c565b6060600080856001600160a01b03168560405162000317919062000577565b600060405180830381855af49150503d806000811462000354576040519150601f19603f3d011682016040523d82523d6000602084013e62000359565b606091505b5090925090506200036d8683838762000389565b9695505050505050565b90565b6001600160a01b03163b151590565b60608315620003fd578251600003620003f5576001600160a01b0385163b620003f55760405162461bcd60e51b815260206004820152601d60248201527f416464726573733a2063616c6c20746f206e6f6e2d636f6e74726163740000006044820152606401620001f1565b508162000409565b62000409838362000411565b949350505050565b815115620004225781518083602001fd5b8060405162461bcd60e51b8152600401620001f1919062000595565b80516001600160a01b03811681146200045657600080fd5b919050565b634e487b7160e01b600052604160045260246000fd5b60005b838110156200048e57818101518382015260200162000474565b50506000910152565b600080600060608486031215620004ad57600080fd5b620004b8846200043e565b9250620004c8602085016200043e565b60408501519092506001600160401b0380821115620004e657600080fd5b818601915086601f830112620004fb57600080fd5b8151818111156200051057620005106200045b565b604051601f8201601f19908116603f011681019083821181831017156200053b576200053b6200045b565b816040528281528960208487010111156200055557600080fd5b6200056883602083016020880162000471565b80955050505050509250925092565b600082516200058b81846020870162000471565b9190910192915050565b6020815260008251806020840152620005b681604085016020870162000471565b601f01601f19169190910160400192915050565b61082780620005da6000396000f3fe60806040526004361061004e5760003560e01c80633659cfe6146100655780634f1ef286146100785780635c60da1b1461008b5780638f283970146100af578063f851a440146100c25761005d565b3661005d5761005b6100ca565b005b61005b6100ca565b61005b6100733660046106b9565b6100e4565b61005b6100863660046106d4565b610129565b610093610190565b6040516001600160a01b03909116815260200160405180910390f35b61005b6100bd3660046106b9565b6101c9565b6100936101f1565b6100d2610255565b6100e26100dd6102ea565b6102f4565b565b6100ec610318565b6001600160a01b031633036101215761010361034b565b61011e81604051806020016040528060008152506000610356565b50565b61011e6100ca565b610131610318565b6001600160a01b03163303610188576101838383838080601f01602080910402602001604051908101604052809392919081815260200183838082843760009201919091525060019250610356915050565b505050565b6101836100ca565b600061019a610318565b6001600160a01b031633036101be576101b161034b565b6101b96102ea565b905090565b6101c66100ca565b90565b6101d1610318565b6001600160a01b03163303610121576101e861034b565b61011e81610381565b60006101fb610318565b6001600160a01b031633036101be5761021261034b565b6101b9610318565b606061023f83836040518060600160405280602781526020016107cb602791396103d5565b9392505050565b6001600160a01b03163b151590565b61025d610318565b6001600160a01b031633036100e25760405162461bcd60e51b815260206004820152604260248201527f5472616e73706172656e745570677261646561626c6550726f78793a2061646d60448201527f696e2063616e6e6f742066616c6c6261636b20746f2070726f78792074617267606482015261195d60f21b608482015260a4015b60405180910390fd5b60006101b961044d565b3660008037600080366000845af43d6000803e808015610313573d6000f35b3d6000fd5b60007fb53127684a568b3173ae13b9f8a6016e243e63b6e8ee1178d6a717850b5d61035b546001600160a01b0316919050565b34156100e257600080fd5b61035f83610475565b60008251118061036c5750805b156101835761037b838361021a565b50505050565b7f7e644d79422f17c01e4894b5f4f588d331ebfa28653d42ae832dc59e38c9798f6103aa610318565b604080516001600160a01b03928316815291841660208301520160405180910390a161011e816104b5565b6060600080856001600160a01b0316856040516103f2919061077b565b600060405180830381855af49150503d806000811461042d576040519150601f19603f3d011682016040523d82523d6000602084013e610432565b606091505b50915091506104438683838761055e565b9695505050505050565b60007f360894a13ba1a3210667c828492db98dca3e2076cc3735a920a3ca505d382bbc61033c565b61047e816105df565b6040516001600160a01b038216907fbc7cd75a20ee27fd9adebab32041f755214dbc6bffa90cc0225b39da2e5c2d3b90600090a250565b6001600160a01b03811661051a5760405162461bcd60e51b815260206004820152602660248201527f455243313936373a206e65772061646d696e20697320746865207a65726f206160448201526564647265737360d01b60648201526084016102e1565b807fb53127684a568b3173ae13b9f8a6016e243e63b6e8ee1178d6a717850b5d61035b80546001600160a01b0319166001600160a01b039290921691909117905550565b606083156105cd5782516000036105c6576001600160a01b0385163b6105c65760405162461bcd60e51b815260206004820152601d60248201527f416464726573733a2063616c6c20746f206e6f6e2d636f6e747261637400000060448201526064016102e1565b50816105d7565b6105d78383610673565b949350505050565b6001600160a01b0381163b61064c5760405162461bcd60e51b815260206004820152602d60248201527f455243313936373a206e657720696d706c656d656e746174696f6e206973206e60448201526c1bdd08184818dbdb9d1c9858dd609a1b60648201526084016102e1565b807f360894a13ba1a3210667c828492db98dca3e2076cc3735a920a3ca505d382bbc61053d565b8151156106835781518083602001fd5b8060405162461bcd60e51b81526004016102e19190610797565b80356001600160a01b03811681146106b457600080fd5b919050565b6000602082840312156106cb57600080fd5b61023f8261069d565b6000806000604084860312156106e957600080fd5b6106f28461069d565b9250602084013567ffffffffffffffff8082111561070f57600080fd5b818601915086601f83011261072357600080fd5b81358181111561073257600080fd5b87602082850101111561074457600080fd5b6020830194508093505050509250925092565b60005b8381101561077257818101518382015260200161075a565b50506000910152565b6000825161078d818460208701610757565b9190910192915050565b60208152600082518060208401526107b6816040850160208701610757565b601f01601f1916919091016040019291505056fe416464726573733a206c6f772d6c6576656c2064656c65676174652063616c6c206661696c6564a2646970667358221220c8f0fa90c5060c90bf73bd0e33895f75b97a96d7e0a094df726971c6db2a4dd064736f6c63430008100033b53127684a568b3173ae13b9f8a6016e243e63b6e8ee1178d6a717850b5d6103416464726573733a206c6f772d6c6576656c2064656c65676174652063616c6c206661696c6564a2646970667358221220dfe8f73bb859dfdcf40bd7e1835b7b0989e4baf81a72bebb389455657bc9c1b564736f6c63430008100033",
    "linkReferences": {}
  },
  "methodIdentifiers": {
    "changeProxyAdmin(address,address)": "7eff275e",
    "deployPool(address)": "29a13494",
    "erc20()": "785e9e86",
    "erc721(uint256)": "e81acf3d",
    "getAmountLockedAt(address,uint256,uint256)": "5fcdc9dd",
    "getAuctionManager()": "b62e6c19",
    "getEpochDuration(address)": "5c534359",
    "getEpoch_2e(address)": "93db1505",
    "getFloorPrice(address,uint256)": "7996eef0",
    "getInterval(address)": "2466c51b",
    "getOptionAvailableAt(address,uint256,uint256)": "d2836401",
    "getOptionPricing()": "ef32fcbc",
    "getPoolFromTokenAddress(address)": "1bf2c651",
    "getProxyAdmin(address)": "f3b7dead",
    "getProxyImplementation(address)": "204e1c7a",
    "getSharesAtOf(address,uint256,uint256,address)": "7acc8208",
    "getVolatilityOracle()": "10a692e7",
    "owner()": "8da5cb5b",
    "pools(address)": "a4063dbc",
    "renounceOwnership()": "715018a6",
    "setAuctionManager(address)": "95e4cacb",
    "setOptionPricing(address)": "f6a76a81",
    "setPoolAuctionManager(address,address)": "c701f40c",
    "setPoolImplementation(address)": "d6f74898",
    "setVolatilityOracle(address)": "9c78a526",
    "transferOwnership(address)": "f2fde38b",
    "upgrade(address,address)": "99a88ec4",
    "upgradeAndCall(address,address,bytes)": "9623609d"
  },
  "id": 61
}