{
  "abi": [
    {
      "inputs": [
        {
          "internalType": "uint256",
          "name": "_volatility",
          "type": "uint256"
        }
      ],
      "stateMutability": "nonpayable",
      "type": "constructor"
    },
    {
      "inputs": [],
      "name": "floorPrice",
      "outputs": [
        {
          "internalType": "uint256",
          "name": "",
          "type": "uint256"
        }
      ],
      "stateMutability": "view",
      "type": "function"
    },
    {
      "inputs": [
        {
          "internalType": "address",
          "name": "_erc721",
          "type": "address"
        }
      ],
      "name": "getFloorPrice",
      "outputs": [
        {
          "internalType": "uint256",
          "name": "",
          "type": "uint256"
        }
      ],
      "stateMutability": "view",
      "type": "function"
    },
    {
      "inputs": [
        {
          "internalType": "address",
          "name": "_erc721",
          "type": "address"
        }
      ],
      "name": "getVolatility",
      "outputs": [
        {
          "internalType": "uint256",
          "name": "",
          "type": "uint256"
        }
      ],
      "stateMutability": "view",
      "type": "function"
    },
    {
      "inputs": [
        {
          "internalType": "address",
          "name": "_erc721",
          "type": "address"
        }
      ],
      "name": "getVolatilityAndFloorPrice",
      "outputs": [
        {
          "internalType": "uint256",
          "name": "",
          "type": "uint256"
        },
        {
          "internalType": "uint256",
          "name": "",
          "type": "uint256"
        }
      ],
      "stateMutability": "view",
      "type": "function"
    },
    {
      "inputs": [
        {
          "internalType": "uint256",
          "name": "_floorPrice",
          "type": "uint256"
        }
      ],
      "name": "setFloorPrice",
      "outputs": [],
      "stateMutability": "nonpayable",
      "type": "function"
    },
    {
      "inputs": [
        {
          "internalType": "uint256",
          "name": "_volatility",
          "type": "uint256"
        }
      ],
      "name": "setVolatility",
      "outputs": [],
      "stateMutability": "nonpayable",
      "type": "function"
    },
    {
      "inputs": [],
      "name": "volatility",
      "outputs": [
        {
          "internalType": "uint256",
          "name": "",
          "type": "uint256"
        }
      ],
      "stateMutability": "view",
      "type": "function"
    }
  ],
  "bytecode": {
    "object": "0x6080604052600a600055671bc16d674ec8000060015534801561002157600080fd5b5060405161021638038061021683398101604081905261004091610048565b600055610061565b60006020828403121561005a57600080fd5b5051919050565b6101a6806100706000396000f3fe608060405234801561001057600080fd5b506004361061007d5760003560e01c80639363c8121161005b5780639363c812146100ed5780639fdcadc4146100f6578063c3e214fc14610109578063cce992301461011e57600080fd5b80633029cafc146100825780633d05829d146100aa57806373be031f146100bf575b600080fd5b610097610090366004610127565b5060005490565b6040519081526020015b60405180910390f35b6100bd6100b8366004610157565b600155565b005b6100d86100cd366004610127565b506000546001549091565b604080519283526020830191909152016100a1565b61009760015481565b6100bd610104366004610157565b600055565b610097610117366004610127565b5060015490565b61009760005481565b60006020828403121561013957600080fd5b81356001600160a01b038116811461015057600080fd5b9392505050565b60006020828403121561016957600080fd5b503591905056fea264697066735822122032d78985b542609fe0548e7861a2638eb33b3940b7f16e90679c6b479c76769264736f6c63430008100033",
    "linkReferences": {}
  },
  "methodIdentifiers": {
    "floorPrice()": "9363c812",
    "getFloorPrice(address)": "c3e214fc",
    "getVolatility(address)": "3029cafc",
    "getVolatilityAndFloorPrice(address)": "73be031f",
    "setFloorPrice(uint256)": "3d05829d",
    "setVolatility(uint256)": "9fdcadc4",
    "volatility()": "cce99230"
  },
  "id": 16
}